S0110000434F4D4D414E4445522E737265637D
S21401000090290020394E0200314F0200314F020084
S21401001000000000000000000000000000000000DA
S21401002000000000000000000000000019ED0100C3
S214010030000000000000000051EE010099EE0100F2
S214010040314F0200314F02009115020095E6010082
S214010050B9250200314F02002DDC0100314F0200AC
S21401006025260200B1230200C9230200E123020073
S214010070F92302001124020029240200B51502000A
S214010080C9150200DD1502006D1602008116020078
S21401009095160200A9160200BD1602000DDA01002F
S2140100A07D290200F1DB0100314F0200314F0200D1
S2140100B00000000010B5064C2378002B07D1054B35
S2140100C0002B02D0044800E000BF0123237010BDBE
S2140100D00002002000000000DCB00200084B10B552
S2140100E0002B03D00749084800E000BF0748036813
S2140100F0002B00D110BD064B002BFBD09847F9E72B
S2140101000000000004020020DCB00200DCB00200A7
S2140101100000000090B583B000AFFC1D0A4B984765
S21401012003002370FB1D1B78162B00D1FEE7FB1D79
S2140101301B78002B03D0054B9847034B9847C046C6
S214010140BD4603B090BDC046F5390200DD3A020057
S21401015080B500AFF64B9847F64B19000020F64BDA
S2140101609847F449F54B1C221800F54B9847F34B7A
S2140101701B79552B2CD0F14B00221A60EF4B5522E0
S2140101801A71EE4B00225A71EC4B00229A71EB4B1E
S2140101900022DA71E94B00221A72EA4B1022002182
S2140101A01800E94B9847E74BE84A03CA03C311888E
S2140101B0198092789A70E149DE4B1C221800E04BB8
S2140101C09847DC4B19000020E14B9847E14B9847D4
S2140101D0D84B19000120D84B9847D649DE4B382218
S2140101E01800D74B9847DC4B1B79552B2ED0DA4B92
S2140101F000221A60D84B55221A71D84B1E220021B4
S2140102001800D14B9847D54AD54B1000190010233A
S2140102101A00CB4B9847D34B142200211800CA4B27
S2140102209847D04AD04B100019000B231A00C44B34
S2140102309847C949BF4B38221800C14B9847BD4B58
S21401024019000120C24B9847C24B9847B94B190079
S2140102500220B94B9847B749C44B38221800B84B0F
S2140102609847C24B1B79552B3CD0C04B00221A60D5
S214010270BE4B55221A71BE4B102200211800B24BFC
S2140102809847BA4B0522BB499B1810221800AC4B65
S2140102909847B94B102200211800AB4B9847B74A34
S2140102A0B74B100019000A231A00A54B9847B24B0A
S2140102B0102200211800A44B9847AF4AB14B1000FA
S2140102C019000D231A009E4B9847A849994B3822CE
S2140102D018009B4B9847974B190002209C4B984758
S2140102E09C4B9847934B19000820934B9847A64A76
S2140102F0904B1000190008231A00914B9847A24B07
S2140103001B78552B1DD0A04B55221A709E4B0F22E1
S2140103105A709D4B00229A709B4B0022DA709A4BC2
S21401032001221A71834A984B1000190008231A00FB
S214010330834B98477F4B19000820854B9847854B80
S2140103409847924B19000320914B9847914B1900FF
S21401035004208F4B9847904B190005208C4B9847EB
S2140103608E4B190006208A4B98478D4B19000720A3
S214010370874B9847754B19000920854B9847734B57
S21401038019000A20824B9847704B19000B20804BAE
S21401039098476E4B19000C207D4B98476B4B190004
S2140103A00D207B4B9847694B19000E20784B9847D8
S2140103B0664B19000F20764B9847644B19001020A6
S2140103C0734B9847614B19001120714B98475F4B4F
S2140103D0190012206E4B98475C4B190013206C4B8A
S2140103E098475A4B19001420694B9847574B1900E8
S2140103F01520674B9847554B19001620644B9847B4
S214010400524B19001720624B98474A4B1900182087
S214010410494B9847634A474B1000190018231A00A6
S214010420474B98475F4B1B78552B25D05D4B552284
S2140104301A705C4B00229A705A4B00225A705A4B23
S214010440142200211800404B9847574A3F4B100092
S21401045019000B231A003A4B9847364A514B1000A5
S214010460190018231A00364B9847324B19001820EA
S214010470374B9847374B98472E4B190019202E4B70
S21401048098474A4A2B4B1000190030231A002C4B70
S2140104909847464B1B78552B3CD0444B55221A7037
S2140104A0434B142200211800274B9847404A274BFC
S2140104B0100019000B231A00214B98473D4B1422BC
S2140104C000211800204B98473A4A204B100019008B
S2140104D00B231A001A4B9847344B00225A70334BA1
S2140104E000229A70314B0022DA70304B00221A71CA
S2140104F02E4B00225A710F4A2C4B10001900302344
S2140105001A000F4B98470B4B19001920104B9847B0
S214010510104B9847074B19001A20074B9847054977
S214010520254B30221800064B9847234B1B7845E095
S21401053015010100840500200D3C0200F80500208D
S214010540ED8E020004060020238F0200249B020089
S214010550013B0200A93C02001C05002021050020E9
S214010560309B02003F050020409B0200C005002092
S214010570C50500204C9B0200E5050020D50500209E
S2140105805C9B0200689B020014060020789B020018
S21401059029070100849B0200909B02009C9B02009D
S2140105A0A89B02003C0600204006002054050020BF
S2140105B05C0500207005002054060020552B65D0F0
S2140105C0514B55221A70504B00225A704E4B322214
S2140105D05A804D4B4F221A714B4B54225A714A4B3B
S2140105E00222DA80484B00221A72474B00225A72C6
S2140105F0454B00229A72444B0022DA72424B00228B
S2140106001A73414B00225A733F4B00229A733E4B9A
S2140106100022DA733C4B00221A613B4B00225A61DE
S214010620394B00229A61384B55221A77364B78227D
S2140106305A77354B00229A77334B0022DA77324BC2
S214010640202201219954304B64225A842E4B2422B5
S214010650012199542C4B2522022199542A4B2622FA
S21401066002219954284B272200219954264B274AC8
S2140106709A622549264B30221800264B9847244B70
S21401068019001A20244B9847244B9847204B1900F1
S2140106901B20234B98471E49224B102218001D4B46
S2140106A09847204B1B78552B2AD01E4B55221A7083
S2140106B01C4B01229A701B4B01225A70194B0022C7
S2140106C09A71184B00225A71164B00221A71154B5B
S2140106D00022DA70134B0022DA71124B00229A6064
S2140106E0104B0022DA600F49094B10221800094B03
S2140106F09847074B19001B20074B9847074B98470D
S214010700C046BD4680BDC0465406002010270000E6
S21401071084050020ED8E0200013B0200A93C020088
S2140107200D3C02002C06002080B588B000AF020008
S2140107303960FB1D1A70284B3C2200211800274BFC
S2140107409847254AFB1D1B7811001800244B984733
S2140107500823FA18204B1000190018231A00214B01
S21401076098470823FB181B78552B31D00823FB1814
S21401077055221A700823FB1800225A700823FB180A
S21401078000229A700823FB180022DA700823FB184F
S2140107900433142200211800104B98473A680823A6
S2140107A0FB180433110018000F4B98470A4A082318
S2140107B0FB181000190018231A000A4B9847064A1E
S2140107C0FB1D1B7811001800084B9847084B9847EB
S2140107D0C046BD4608B080BD84050020238F0200B8
S2140107E00D3C0200ED8E0200A3910200013B0200C7
S2140107F0A93C020080B58AB000AF78607B68002211
S2140108001A702723FB1800221A7063E0374B3C222C
S21401081000211800364B98472723FB181B7809330D
S214010820DBB2324A11001800324B98470C23FA18F3
S2140108302E4B1000190018231A002F4B98472F4BE8
S214010840DB782722BA1812789A420FD17B681800F3
S2140108502B4B984703001A007B689A18294B100007
S214010860190003231A00244B984715E0234B1B79E4
S2140108702722BA1812789A420ED17B681800204BAC
S214010880984703001A007B689A181F4B100019003E
S21401089003231A00184B98470C23FB181A1D7B6874
S2140108A011001800194B98477B681800144B98479D
S2140108B003001A007B689A18154B100019000223D2
S2140108C01A000D4B98472723FB181A782723FB1885
S2140108D001321A70094B9B782722BA1812789A426D
S2140108E094D3C046BD460AB080BDC04684050020EC
S2140108F0238F02000D3C0200ED8E0200140600203C
S214010900B3910200B49B0200B89B02006D910200F5
S214010910BC9B020080B588B000AF78600A00FB1C63
S2140109201A707B6800221A70154B9B78FA1C127895
S2140109309A421FD2134B3C2200211800124B9847B3
S214010940FB1C1B780933DBB20E4A110018000F4B53
S21401095098470823FA180B4B1000190018231A00A1
S2140109600B4B98470823FB181A1D7B6811001800CB
S214010970084B98477B681800BD4608B080BDC04646
S2140109801406002084050020238F02000D3C02007F
S214010990ED8E02006D91020080B588B000AF7860E0
S2140109A0144B9B78002B20D00C23FB181800142323
S2140109B01A000021104B98470E4BDA780C23FB18CF
S2140109C0110018000D4B98470C23FA187B6811008C
S2140109D018000B4B9847031E01D0012306E07B68E5
S2140109E01800084B9847030000E000231800BD4696
S2140109F008B080BD14060020238F020015090100EF
S214010A00E3910200090A010080B582B000AF786068
S214010A100B4B9B78002B0DD00A4B9B78002B09D0F3
S214010A20094A7B6811001800084B9847031E01D03D
S214010A30012300E000231800BD4602B080BDC04679
S214010A40140600203C06002040060020E391020028
S214010A5080B582B000AF7860094B5B78002B09D077
S214010A60084A7B6811001800074B9847031E01D0FF
S214010A70012300E000231800BD4602B080BDC04639
S214010A80540500205C050020E391020080B582B089
S214010A9000AF7860094BDB78002B09D0084A7B68E9
S214010AA011001800074B9847031E01D0012300E0F0
S214010AB000231800BD4602B080BDC0465405002084
S214010AC070050020E391020080B582B000AF786027
S214010AD0094B5B78002B06D0084A7B68110018008A
S214010AE0074B984702E07B6800221A707B68180063
S214010AF0BD4602B080BDC046540500205C050020FE
S214010B00A391020080B582B000AF7860094BDB7814
S214010B10002B06D0084A7B6811001800074B98473F
S214010B2002E07B6800221A707B681800BD4602B09E
S214010B3080BDC0465405002070050020A391020028
S214010B4080B582B000AF0200FB1D1A70FB1D1A783B
S214010B500A4B9A700A4A094B1000190030231A00F2
S214010B60084B9847064B19001920074B9847074B27
S214010B709847C046BD4602B080BDC0465405002019
S214010B8084050020ED8E0200013B0200A93C020014
S214010B9080B582B000AF0200FB1D1A70FB1D1A78EB
S214010BA00A4B1A710A4A094B1000190030231A0021
S214010BB0084B9847064B19001920074B9847074BD7
S214010BC09847C046BD4602B080BDC04654050020C9
S214010BD084050020ED8E0200013B0200A93C0200C4
S214010BE080B582B000AF0200FB1D1A70FB1D1A789B
S214010BF00F4B5A71FB1D1B7801225340DBB2002BB1
S214010C0002D00B4B00221A710A4A094B1000190038
S214010C1030231A00084B9847064B19001920074B3A
S214010C209847074B9847C046BD4602B080BDC046B0
S214010C305405002084050020ED8E0200013B0200D1
S214010C40A93C020080B582B000AF78600F4B01224C
S214010C505A707A680E4B110018000E4B98470E4AD0
S214010C600A4B1000190030231A000C4B98470A4B08
S214010C70190019200A4B98470A4B984700200A4B3F
S214010C809847C046BD4602B080BDC0465405002008
S214010C905C050020A391020084050020ED8E020071
S214010CA0013B0200A93C0200410B010080B582B065
S214010CB000AF7860104B0122DA707A680F4B110092
S214010CC018000F4B98470F4A0B4B100019003023A2
S214010CD01A000D4B98470B4B190019200B4B9847E0
S214010CE00B4B984700200B4B984700200A4B984720
S214010CF0C046BD4602B080BD5405002070050020E8
S214010D00A391020084050020ED8E0200013B020043
S214010D10A93C0200910B0100E10B010080B58EB0E9
S214010D2000AF7860284B9B78002B2BD0274B5B7845
S214010D30002B06D0264A7B6811001800254B9847E1
S214010D403CE0254B3C2200211800244B98471E4BC3
S214010D50DB780933DBB2204A11001800204B984794
S214010D602023FA181C4B1000190018231A001D4BDB
S214010D7098472023FB181A1D7B6811001800154B95
S214010D8098471BE0144B3C2200211800134B984750
S214010D90114B19000320124B98470823FA180E4BE3
S214010DA01000190018231A000E4B98470823FB1849
S214010DB01A1D7B6811001800064B98477B681800BF
S214010DC0BD460EB080BDC046140600203C0600207D
S214010DD040060020A391020084050020238F020014
S214010DE00D3C0200ED8E020080B58AB000AF78603F
S214010DF0334B9B78002B39D02723FB1800221A701F
S214010E002DE0304B3C22002118002F4B984727231A
S214010E10FB181B780933DBB22A4A110018002B4B4A
S214010E2098470C23FA18274B1000190018231A00AC
S214010E30274B98470C23FB181A1D7B6811001800D6
S214010E40244B9847031E03D02723FB181B7832E058
S214010E502723FB181A782723FB1801321A70184B20
S214010E609B782722BA1812789A42CAD37B68180050
S214010E70194B9847031E01D0FD231CE0174B9B78A6
S214010E80002B07D07B681800154B9847031E01D02E
S214010E90FE2310E0134BDB78002B0BD00F4B1B7996
S214010EA0002B07D07B6818000F4B9847031E01D014
S214010EB0FE2300E0FF231800BD460AB080BDC046F1
S214010EC01406002084050020238F02000D3C02003A
S214010ED0ED8E0200E3910200090A0100540500208C
S214010EE0510A01002C0600208D0A010080B588B049
S214010EF000AF7860334B9A78324B5B789A4201D1D7
S214010F0000235AE07B6818002F4B98470300F02B0C
S214010F1052D92E4B3C22002118002D4B9847294BC5
S214010F209B780933DBB2294A11001800294B9847F0
S214010F300823FA18254B1000190018231A00264B0F
S214010F4098470823FB180433142200211800204B6D
S214010F5098477A680823FB180433110018001F4BC2
S214010F6098471A4A0823FB181000190018231A007C
S214010F70194B9847134B9B780933DBB2134A110080
S214010F801800174B9847174B98470E4B9B78013321
S214010F90DAB20C4B9A700D4A0A4B1000190008235E
S214010FA01A000D4B9847094B190008200C4B98471F
S214010FB00C4B9847012300E000231800BD4608B0FB
S214010FC080BDC04614060020E90D010084050020FE
S214010FD0238F02000D3C0200ED8E0200A391020059
S214010FE0013B0200A93C020090B585B000AF7860D5
S214010FF03D4B9B78012B01D8002371E00E23FC1892
S2140110007B681800394B984703002370364B5B7892
S2140110100E22BA1812789A4261D2334BDB780E222E
S214011020BA1812789A425AD00F23FB180E22BA1811
S21401103012781A7022E02E4B3C22002118002D4B0C
S21401104098470F23FB181B780A33DBB2284A110096
S2140110501800294B98470F23FB181B780933DBB27E
S214011060234A11001800254B9847254B98470F2314
S214011070FB181A780F23FB1801321A700F23FB187E
S2140110801A78194B9B78013B9A42D4DB164B9B7816
S214011090013BDAB2144B9A70134B1B790E22BA1825
S2140110A012789A4207D00E23FB181A780E4B9B78BB
S2140110B0013B9A4202DD0C4B01221A710C4A0A4B83
S2140110C01000190008231A000E4B9847084B190008
S2140110D008200A4B98470A4B9847012300E0002353
S2140110E01800BD4605B090BD14060020E90D0100AC
S2140110F084050020238F02000D3C0200013B020004
S214011100A93C0200ED8E020080B582B000AF02005D
S214011110FB1D1A70FB1D1B78002B03D0284B0022E9
S2140111209A7018E0274B3C2200211800264B98475E
S214011130234BDB780933DBB2224A11001800234B1C
S2140111409847204B19000920214B9847214B984777
S2140111501B4B01229A701A4B0022DA70184B01229F
S2140111601A71184A164B1000190008231A001A4B58
S2140111709847134B0022DA70114B01221A71114B5A
S21401118019000820124B9847124B98470020134B22
S2140111909847134B00229A700A4A114B1000190007
S2140111A018231A000C4B9847064B19001820084BB9
S2140111B09847084B9847C046BD4602B080BDC0461A
S2140111C01406002084050020238F02000D3C020037
S2140111D0013B0200A93C0200ED8E0200E511010070
S2140111E03C06002080B582B000AF0200FB1D1A70DD
S2140111F0FB1D1A780A4B5A700A4A094B100019004F
S21401120018231A00084B9847064B19001820074B5D
S2140112109847074B9847C046BD4602B080BDC046BA
S2140112203C06002084050020ED8E0200013B0200F2
S214011230A93C020080B582B000AF7860114B9B7864
S214011240002B19D0104B01229A707A680F4B1100AF
S21401125018000F4B98470F4A0B4B10001900182324
S2140112601A000D4B98470B4B190018200B4B98474B
S2140112700B4B9847012300E000231800BD4602B03F
S21401128080BDC046140600203C0600204006002013
S214011290A391020084050020ED8E0200013B0200AE
S2140112A0A93C020080B582B000AF0200FB1D1A7097
S2140112B0FB1D1A78094B5A700849094B3022180051
S2140112C0084B9847064B19001A20074B9847074BBF
S2140112D09847C046BD4602B080BDC04654060020B1
S2140112E084050020ED8E0200013B0200A93C0200AD
S2140112F080B582B000AF0200BB1D1A800A4BBA1D32
S21401130012885A800849094B30221800084B984722
S214011310064B19001A20074B9847074B9847C046BB
S214011320BD4602B080BDC04654060020840500209C
S214011330ED8E0200013B0200A93C020080B582B09E
S21401134000AF0200FB1D1A700A4BFA1D12781A71C3
S2140113500849094B30221800084B9847064B1900DC
S2140113601A20074B9847074B9847C046BD4602B020
S21401137080BDC0465406002084050020ED8E020084
S214011380013B0200A93C020080B582B000AF02001A
S214011390FB1D1A700A4BFA1D12785A710849094B3F
S2140113A030221800084B9847064B19001A20074BA5
S2140113B09847074B9847C046BD4602B080BDC04619
S2140113C05406002084050020ED8E0200013B020039
S2140113D0A93C0200B0B582B000AF05000C001000B9
S2140113E01900FB1D2A1C1A70BB1D221C1A707B1DBE
S2140113F0021C1A703B1D0A1C1A70FB1D1A78144B2E
S2140114005A72134B5B7A002B10D0114BBA1D12780F
S2140114109A720F4B7A1D1278DA720D4B3A1D1278BA
S2140114201A730B4B1822BA1812785A730849094BCB
S21401143030221800084B9847064B19001A20074B14
S2140114409847074B9847C046BD4602B0B0BDC04658
S2140114505406002084050020ED8E0200013B0200A8
S214011460A93C020080B582B000AF0200FB1D1A70D5
S214011470FB1D1A78094BDA770849094B3022180008
S214011480084B9847064B19001A20074B9847074BFD
S2140114909847C046BD4602B080BDC04654060020EF
S2140114A084050020ED8E0200013B0200A93C0200EB
S2140114B080B582B000AF0200FB1D1A70FB1D1A78C2
S2140114C0094B9A770849094B30221800084B984770
S2140114D0064B19001A20074B9847074B9847C046FA
S2140114E0BD4602B080BDC0465406002084050020DB
S2140114F0ED8E0200013B0200A93C020080B582B0DD
S21401150000AF0200FB1D1A70FB1D1B78642B18D957
S2140115100E4BFA1D12785A770C490D4B30221800E3
S2140115200C4B98470A4B19001A200B4B98470B4B4C
S2140115309847064BDB7B002B01D0094B98470123CC
S21401154000E000231800BD4602B080BD540600200E
S21401155084050020ED8E0200013B0200A93C02003A
S214011560E117010080B582B000AF0200FB1D1A70C2
S214011570FB1D1B78002B1CD0FB1D1B78632B18D87A
S2140115800E4BFA1D12781A770C490D4B30221800B3
S2140115900C4B98470A4B19001A200B4B98470B4BDC
S2140115A09847064BDB7B002B01D0094B984701235C
S2140115B000E000231800BD4602B080BD540600209E
S2140115C084050020ED8E0200013B0200A93C0200CA
S2140115D0E117010080B582B000AF0200FB1D1A7052
S2140115E0FB1D1978094B202299540849084B3022D3
S2140115F01800084B9847064B19001A20064B9847C7
S214011600064B9847C046BD4602B080BD5406002032
S21401161084050020ED8E0200013B0200A93C020079
S21401162080B582B000AF0200BB1D1A800A4BBA1DFE
S21401163012885A840849094B30221800084B9847EB
S214011640064B19001A20074B9847074B9847C04688
S214011650BD4602B080BDC046540600208405002069
S214011660ED8E0200013B0200A93C020080B582B06B
S21401167000AF0200FB1D1A70FB1D1978094B2422CE
S21401168099540849084B30221800084B9847064BD6
S21401169019001A20064B9847064B9847C046BD4688
S2140116A002B080BD5406002084050020ED8E0200A5
S2140116B0013B0200A93C020080B582B000AF0200E7
S2140116C0FB1D1A700A4BFA1D262112785A54084936
S2140116D0084B30221800084B9847064B19001A2071
S2140116E0064B9847064B9847C046BD4602B080BD9C
S2140116F05406002084050020ED8E0200013B020006
S214011700A93C020080B582B000AF0200FB1D1A7032
S214011710FB1D1978094B272299540849084B30229A
S2140117201800084B9847064B19001A20064B984795
S214011730064B9847C046BD4602B080BD5406002001
S21401174084050020ED8E0200013B0200A93C020048
S21401175080B582B000AF7860094B7A689A62084912
S214011760084B30221800084B9847064B19001A20E0
S214011770064B9847064B9847C046BD4602B080BD0B
S2140117805406002084050020ED8E0200013B020075
S214011790A93C020080B582B000AF0200FB1D1A70A2
S2140117A00A4BFA1D252112785A540849084B302253
S2140117B01800084B9847064B19001A20064B984705
S2140117C0064B9847C046BD4602B080BD5406002071
S2140117D084050020ED8E0200013B0200A93C0200B8
S2140117E090B583B000AF2B4B1A692B4B100098476E
S2140117F0041C284B1A7F284B10009847021C274BC5
S214011800111C201C9847031C1A1C254B101C9847BA
S214011810244C0022244BA04703000C001900220090
S214011820BC1D224B08001100984703002380BB1DF6
S2140118301B8818001E4B9847164B1A69164B10004A
S2140118409847041C134B5A7F134B10009847021CF1
S214011850124B111C201C9847031C1A1C104B101C01
S2140118609847104C0022104BA04703000C001900AB
S2140118702200BC1D0D4B0800110098470300238071
S214011880BB1D1B8818000B4B9847C046BD4603B0CE
S21401189090BDC0465406002035710200556E020008
S2140118A0118D0200E177020000005940096A02002A
S2140118B0B9180100FD18010080B582B000AF78604C
S2140118C0094B7A689A610849084B30221800084B80
S2140118D09847064B19001A20064B9847064B98471F
S2140118E0C046BD4602B080BD5406002084050020D7
S2140118F0ED8E0200013B0200A93C020080B582B0D9
S21401190000AF7860094B7A685A610849084B302263
S2140119101800084B9847064B19001A20064B9847A3
S214011920064B9847C046BD4602B080BD540600200F
S21401193084050020ED8E0200013B0200A93C020056
S21401194080B582B000AF7860094B7A681A610849A1
S214011950084B30221800084B9847064B19001A20EE
S214011960064B9847064B9847C046BD4602B080BD19
S2140119705406002084050020ED8E0200013B020083
S214011980A93C020080B582B000AF0200FB1D1A70B0
S214011990FB1D1A78094BDA730849094B30221800E7
S2140119A0084B9847064B19001A20074B9847074BD8
S2140119B09847C046BD4602B080BDC04654060020CA
S2140119C084050020ED8E0200013B0200A93C0200C6
S2140119D080B582B000AF0200BB1D1A800A4BBA1D4B
S2140119E01288DA800849094B30221800084B9847BC
S2140119F0064B19001A20074B9847074B9847C046D5
S214011A00BD4602B080BDC0465406002084050020B5
S214011A10ED8E0200013B0200A93C020080B582B0B7
S214011A2000AF0200FB1D1A700A4BFA1D12781A72DB
S214011A300849094B30221800084B9847064B1900F5
S214011A401A20074B9847074B9847C046BD4602B039
S214011A5080BDC0465406002084050020ED8E02009D
S214011A60013B0200A93C020080B58AB000AF786055
S214011A702723FB1800221A702BE01B4B3C22002167
S214011A8018001A4B98472723FB181B780333DBB241
S214011A90154A11001800164B98470C23FA18124BDA
S214011AA01000190018231A00124B98470C23FB1834
S214011AB01A1D7B68110018000F4B9847031E01D0B2
S214011AC001230CE02723FB181A782723FB18013281
S214011AD01A702723FB181B78042BCED90023180075
S214011AE0BD460AB080BDC04684050020238F020093
S214011AF00D3C0200ED8E0200E391020080B582B03B
S214011B0000AF0200FB1D1A700B4BFA1D1278DA703B
S214011B100A4A094B1000190008231A00084B984777
S214011B20064B19000820074B9847074B9847C046B5
S214011B30BD4602B080BDC0461406002084050020C4
S214011B40ED8E0200013B0200A93C020080B582B086
S214011B5000AF0200FB1D1A700B4BFA1D12781A71AA
S214011B600A4A094B1000190008231A00084B984727
S214011B70064B19000820074B9847074B9847C04665
S214011B80BD4602B080BDC046140600208405002074
S214011B90ED8E0200013B0200A93C020090B585B023
S214011BA000AF78600E23FC187B681800214B98471D
S214011BB0030023700F23FB18FF221A701E4B5B785D
S214011BC00E22BA1812789A4209D30F23FB181A4A22
S214011BD092781A707B681800184B98470CE0164BE1
S214011BE05B780E22BA1812789A4205D20F23FB1898
S214011BF00E22BA1812781A700F4B5B780F22BA1899
S214011C0012789A4210D20C4B9B78012B04D90A4BBE
S214011C10DB7818000A4B98470F23FB181B7818002F
S214011C20084B9847012300E000231800BD4605B085
S214011C3090BDC046E90D010014060020ED0E01001E
S214011C404D1B0100FD1A010090B585B000AF78600C
S214011C50214B9B78012B01D8002339E00E23FC1879
S214011C607B6818001D4B9847030023700F23FB1851
S214011C70FF221A70184B5B780E22BA1812789A4215
S214011C8009D30F23FB18144A92781A707B68180040
S214011C90134B98470CE0104B5B780E22BA1812785B
S214011CA09A4205D20F23FB180E22BA1812781A7020
S214011CB0094B5B780F22BA1812789A4207D20F2383
S214011CC0FB181B781800074B9847012300E00023F8
S214011CD01800BD4605B090BD14060020E90D0100B0
S214011CE0ED0E01004D1B010080B582B000AF020071
S214011CF0FB1D1A70064BFA1D127811001F220A40AE
S214011D00012191400A001A60C046BD4602B080BD5E
S214011D1000E100E080B582B000AF0200FB1D1A7042
S214011D20074AFB1D1B7819001F230B400121994010
S214011D300B0019008023D150C046BD4602B080BDBD
S214011D4000E100E080B584B000AF0200FB1D1A7010
S214011D500F23FB18FA1D1278D2091A700E23FB18EE
S214011D60FA1D127852091A700D4BBB600F23FB182F
S214011D701B78002B0FD10F23FB181B789B0010221A
S214011D809446BC446344083B1A680E23FB181B7830
S214011D90DB01D31800E000231800BD4604B080BD67
S214011DA00044004180B582B000AF0200FB1D1A70EE
S214011DB0FB1D1B781800034B984703001800BD460F
S214011DC002B080BD451D010080B582B000AF7860CD
S214011DD07B6800221A707B6801225A707B68002299
S214011DE09A70C046BD4602B080BD000080B584B082
S214011DF000AF0200FB1D1A70FB1D1B7818000B4B71
S214011E0098470300FB60FB1D1B781F22134001222D
S214011E109A401300BB60FB681B6ABA6813405A1EDF
S214011E209341DBB21800BD4604B080BDA51D01007C
S214011E3080B584B000AF0200FB1D1A70BB1D0A1CE2
S214011E401A70FB1D1B7818000D4B98470300FB60AA
S214011E50FB1D1B781F22134001229A401300BB6012
S214011E60BB1D1B78002B03D0FB68BA689A6102E0A1
S214011E70FB68BA685A61C046BD4604B080BDC0461C
S214011E80A51D010080B584B000AF78607B681B6833
S214011E90FB60FB68DB695A1E9341DBB21800BD4646
S214011EA004B080BD80B582B000AF7860C0467B6864
S214011EB01800044B9847031EF9D1C046BD4602B030
S214011EC080BDC046851E010080B582B000AF786037
S214011ED07B688022D2051A607B6800225A607B6884
S214011EE0FF221A817B6800229A727B680022DA72CE
S214011EF07B68962292011A627B68242201219954FA
S214011F007B682522012199547B6826220021995459
S214011F107B682722002199547B6800229A627B689D
S214011F2088225203DA607B682C22002199547B6850
S214011F302D22002199547B6800221A637B680022B7
S214011F405A637B6800229A637B680022DA637B68A7
S214011F5000225A617B6800221A827B680022DA76A8
S214011F607B6800221A767B6800221A777B6800223B
S214011F705A767B6813229A767B6800225A77C04687
S214011F80BD4602B080BD000080B584B000AF786069
S214011F907B681B68FB607B681B681800094B9847C9
S214011FA003001800084B98477B681800074B9847B2
S214011FB0FB681B6802221A43FB681A60C046BD46CE
S214011FC004B080BD6D230200E91C0100A51E0100BE
S214011FD080B584B000AF78607B681B68FB607B6867
S214011FE01B6818000A4B984703001800094B9847CE
S214011FF07B681800084B9847FB681B6802229343CE
S2140120001A00FB681A60C046BD4604B080BDC046D3
S2140120106D230200151D0100A51E010080B584B0C8
S21401202000AF78607B681B68FB607B681800064B16
S21401203098477B681800054B9847FB6801221A6091
S214012040C046BD4604B080BDD11F0100A51E0100DB
S21401205080B582B000AF7860C046BD4602B080BD94
S21401206080B582B000AF094B1B68F91C002218002E
S214012070074B984703007B607B68002B00D0F2E794
S214012080C046C046BD4602B080BDC0462002002004
S21401209051F5010090B585B000AF0200FB1D1A7026
S2140120A0194BFB60FB681B7EDBB21A00042313404E
S2140120B026D0FB685B8B9BB2DAB20B23FB1806219A
S2140120C00A401A700B23FB181B78002B06D00B2333
S2140120D0FB181B789AB2FB685A8311E0FB681B8DCC
S2140120E09BB2DAB20A23FB181A70084B18680A2347
S2140120F0F91800230022064CA0470120054B9847FB
S214012100C046BD4605B090BD001400422002002026
S21401211031F401000D23010080B500AF3120094BD9
S214012120984703005A1E9341DBB201225340DBB2AB
S2140121301A1C01231340DAB2034B1A70C046BD467F
S21401214080BDC046ED1D01008E06002090B597B0FB
S21401215002AF4C23FB1818004F4B98474C23FB1833
S21401216001221A704C23FB18190014204B4B984778
S214012170002114204A4B98474023FB181800494B6E
S21401218098474023FB1831221A604023FB1800228F
S2140121905A604023FB1801221A724023FB180322BF
S2140121A0DA724023FB18190001203F4B98470021A3
S2140121B001203E4B98473E4B0022012118003D4B23
S2140121C0984700220121F0203B4B984702003B4BE9
S2140121D01A603B493B483C4B0093002300223B4C92
S2140121E0A04702003A4B1A60032200210120324B1D
S2140121F098470200374B1A60364B1B68002B06D0F7
S214012200344B1868002300220021334CA047334B7F
S21401221000221A703B001800314B98473B00E12220
S21401222052021A623B0080225203DA603B002D4ABA
S2140122301A633B002C4A5A633B00012252429A63BE
S2140122403B0001225242DA633B002C2201219954C1
S21401225003E0264B1800264B98473A002549234BA6
S2140122601800254B9847031EF3D1204B1800234B2B
S2140122709847204B1800224B984703001A00214B21
S21401228019001000204B98471A4B04229A75C04635
S214012290BD4615B090BDC046C91D01008130020083
S2140122A0311E010011E0010045E001007125020028
S2140122B0192101000D25020095F1010020020020E0
S2140122C088130000C49B020051200100190F020070
S2140122D0240200202802002051F201008E06002070
S2140122E0C91E010002001600020017009006002019
S2140122F01D20010000140042651B0200891F010019
S21401230025EC0100952001000123020080B582B072
S21401231000AF0200FB1D1A70104B1B78DBB20122C6
S2140123205340DBB2002B10D0012114200C4B9847F0
S2140123300A4B01221A70FB1D1B7801225340DBB2A7
S214012340002B02D06420074B9847074B98470200A2
S214012350064B1A60C046BD4602B080BD840600200A
S214012360311E0100F9FF01005D0302001C0200207E
S21401237080B500AF024B00221A70C046BD4680BD34
S2140123808406002080B582B000AF0E4B1B78DBB20E
S214012390002B11D0FB1D00221A700B4B9847020030
S2140123A00A4B1B68D21AFB1D0949914292415242BF
S2140123B01A70FB1D1B7800E001231800BD4602B011
S2140123C080BDC046840600205D0302001C0200207A
S2140123D04FC3000090B58BB002AFF860B9607A6069
S2140123E01A00FB1C1A70664B1B6801211800654B0E
S2140123F09847031E01D10223BDE00020624B984797
S214012400624B98471F23FB1800221A701E23FB18E5
S21401241000221A701323FB1800221A700121F020E3
S2140124205B4B98470300BB61BB69002B01D10023BE
S214012430A1E0BB69F02200211800564B9847FB68C3
S2140124401800554B984703009AB2F968534B180089
S214012450534B9847534B18687A6801235B420093A5
S21401246000230421504CA0474E4B1B6818004F4BCD
S2140124709847031E3ED01E23FB181B78EF2B1CD853
S2140124804B4B1B681322B91800221800494B98477A
S21401249003007B617B69002B0FD01E23FB181B7882
S2140124A0BA69D3181322BA1812781A701E23FB18A9
S2140124B01A781E23FB1801321A70BB68002B0CD049
S2140124C0BA68BB69110018003B4B9847031E04D03D
S2140124D01F23FB1800221A7024E0384ABB6911003A
S2140124E01800354B9847031EBED01F23FB180B223E
S2140124F01A7017E02B4B186801235B4200930023E8
S21401250000220321284CA0471E23FB181B78002B12
S21401251004D11F23FB1807221A7003E01F23FB18A0
S21401252008221A70FB1C1B78002B16D03B6B002B65
S21401253013D0FA1C1E23FB1812781B789A420CD96A
S2140125401F23FB181B78002B07D11E23FB181A78B4
S214012550B9693B6B18001A4B9847094B186800235A
S21401256000220021174CA047BB691800164B98475C
S2140125701F23FB181B781800BD4609B090BDC04646
S21401258028020020F1F601000D2301006120010060
S214012590158E0200238F0200B391020090060020E0
S2140125A03D1E020024020020BD0F02003915020064
S2140125B02002002051F50100E3910200D09B0200A9
S2140125C0ED8E020051F20100B58E020090B583B087
S2140125D002AF064A06490748002300930023064C2B
S2140125E0A04703001800BD4601B090BD8813000047
S2140125F0D89B0200DC9B0200D5230100B0B584B055
S21401260002AFFC1D124A134913480023009300230E
S214012610124DA84703002370FB1D1B78002B01D128
S214012620092311E0BC1D0A4A0D490B4800230093FB
S21401263000230A4DA84703002370BB1D1B78002BFF
S21401264001D1092300E00A231800BD4602B0B0BD3F
S21401265088130000EC9B0200F89B0200D5230100C2
S214012660049C020090B589B002AF3B1D18001423EC
S2140126701A0000210A4B9847E1235A0209493B1DDB
S2140126801800094B9847094A0949381D0023009349
S2140126900023084CA04703001800BD4607B090BDB4
S2140126A0238F0200109C020029910200881300006B
S2140126B0D89B0200D523010090B583B002AF064A2D
S2140126C006490748002300930023064CA047030051
S2140126D01800BD4601B090BD88130000809C020022
S2140126E0909C0200D523010090B583B002AF064A44
S2140126F006490748002300930023064CA047030021
S2140127001800BD4601B090BDA8610000D89B02002C
S2140127109C9C0200D523010090B583B002AF064A07
S21401272006490748002300930023064CA0470300F0
S2140127301800BD4601B090BD88130000D89B02006A
S214012740B09C0200D523010090B583B002AF064AC3
S21401275006490748002300930023064CA0470300C0
S2140127601800BD4601B090BD983A0000D89B020003
S214012770B89C0200D523010090B583B002AF064A8B
S21401278006490748002300930023064CA047030090
S2140127901800BD4601B090BD88130000D89B02000A
S2140127A0C49C0200D523010090B583B002AF064A4F
S2140127B006490748002300930023064CA047030060
S2140127C01800BD4601B090BD10270000D89B02003E
S2140127D0DC9C0200D523010090B583B002AF064A07
S2140127E006490748002300930023064CA047030030
S2140127F01800BD4601B090BD88130000D89B0200AA
S214012800049D0200D523010090B583B002AF064AAD
S21401281006490748002300930023064CA0470300FF
S2140128201800BD4601B090BD983A0000D89B020042
S214012830109D0200D523010090B583B002AF064A71
S21401284006490748002300930023064CA0470300CF
S2140128501800BD4601B090BD88130000D89B020049
S214012860189D0200D523010090B583B002AF064A39
S21401287006490748002300930023064CA04703009F
S2140128801800BD4601B090BD88130000D89B020019
S214012890209D0200D523010090B583B002AF064A01
S2140128A006490748002300930023064CA04703006F
S2140128B01800BD4601B090BD581B0000D89B020011
S2140128C02C9D0200D5230100B0B588B002AF1623B7
S2140128D0FB1864221A701623FB181B7801211800B6
S2140128E0604B984703003B613B69002B05D13B6970
S2140128F018005D4B98470023AFE01623FB181A78A3
S2140129003B6900211800594B98470F23FC181623E2
S214012910FB181A78564D574957483B6900931300E0
S2140129202A00564DA847030023700F23FB181B7877
S214012930002B00D086E0524A3B6911001800514B2B
S2140129409847031E00D078E04F4A3B6911001800F3
S2140129504E4B98470300BB604B4B190000204B4B76
S21401296098470300BB604A4ABB6811001800474BF2
S21401297098470300BB60BB681800464B9847BB6886
S2140129801800454B98470200FB1D1A70FB1D1B786B
S214012990002B07D0FB1D1B78012B03D0FB1D1B78DA
S2140129A0632B04D11723FB1800221A704EE0FB1D7F
S2140129B01B78012B08D9FB1D1B78072B04D817237E
S2140129C0FB1801221A7041E0FB1D1B78072B08D962
S2140129D0FB1D1B780D2B04D81723FB1802221A7037
S2140129E034E0FB1D1B780D2B08D9FB1D1B78132B20
S2140129F004D81723FB1803221A7027E0FB1D1B7847
S214012A00132B08D9FB1D1B78192B04D81723FB1889
S214012A1004221A701AE0FB1D1B78192B08D9FB1D1E
S214012A201B781F2B04D81723FB1805221A700DE0FC
S214012A301723FB1800221A7008E01723FB18002240
S214012A401A7003E01723FB1800221A703B6918005E
S214012A50054B98471723FB181B781800BD4606B090
S214012A60B0BDC046158E0200B58E0200238F02004F
S214012A7088130000D89B0200589D0200D523010050
S214012A80609D0200E3910200FC9C02001592020088
S214012A90009D02009D2A0100098E020080B584B0C7
S214012AA000AF78607B68FB607B68BB600CE0BB684E
S214012AB05A1CBA601A78FB681A70FB681B78202BC0
S214012AC002D0FB680133FB60BB681B78002BEED19C
S214012AD0FB6800221A70C046BD4604B080BD0000E7
S214012AE090B583B002AF064A064907480023009313
S214012AF00023064CA04703001800BD4601B090BD58
S214012B0088130000D89B0200649D0200D5230100B3
S214012B10B0B588B002AF786039603B6818003B4BAF
S214012B2098470300FA2B01D903236BE07B68180052
S214012B30364B98470300052B01D8042362E0172380
S214012B40FB18FA221A701723FB181B7801211800AC
S214012B502F4B984703003B613B69002B01D10023B3
S214012B6050E01723FB181A783B6900211800294BFF
S214012B7098471723FB1819787B68274A3869274C2A
S214012B80A047274A27493869002300930023264C8B
S214012B90A047031E31D1FA235B001800234B984748
S214012BA01723FB181A783B6900211800194B984720
S214012BB01723FB1819783B681D4A3869174CA0473C
S214012BC00F23FC18164A1B4938690023009300237B
S214012BD0154DA847030023700F23FB181B78002B05
S214012BE005D13B691800144B984700230AE03B695E
S214012BF01800114B9847062304E03B6918000E4B5A
S214012C00984706231800BD4606B0B0BDB391020032
S214012C10158E0200238F02008C9D0200C5900200D3
S214012C2060EA00009C9D0200D5230100F9FF010027
S214012C30A09D0200D89B0200B58E020090B58FB011
S214012C4002AFB96011007B600F23FB18021C1A70DB
S214012C500E23FB180A1C1A702F23FB18E6221A7083
S214012C602F23FB181B78012118006E4B9847030091
S214012C70BB62BB6A002B05D1BB6A18006A4B98473A
S214012C800023CAE02F23FB181A78BB6A002118001C
S214012C90664B98471023FB1818000A231A000021D8
S214012CA0624B98472F23FB1819780F23FB181B78C4
S214012CB05F4A102038185F4CA0472F23FB181A785C
S214012CC05D4C5E491023F818BB6A0093130022007E
S214012CD05B4CA047031E00D094E05A4ABB6A110021
S214012CE01800594B984703007B627B6A002B00D182
S214012CF082E0BB6A2C211800544B984703003B62C4
S214012D003B6A0233FB61FB69222118004F4B98474F
S214012D1003003B623B6A002B2AD03B6A00221A70F2
S214012D20FB6918004A4B984702001B23FB181A70D0
S214012D301B23FA180E23FB1812781B789A4206D228
S214012D40FA69BB6811001800424B984710E00E2341
S214012D50FB181B78013B1A00F969BB6818003E4B4B
S214012D6098470E23FB181B78BA68D31800221A70EE
S214012D703B6A01330A211800344B984703003B6233
S214012D803B6A002B44D03B6A01333B623B6A0D2110
S214012D9018002E4B98470300FB61FB69002B02D0FD
S214012DA0FB6900221A703B6A1800294B98470200FB
S214012DB01B23FB181A701B23FB184022B9181A781C
S214012DC00B789A4206D23A6A7B6811001800214BAA
S214012DD098471DE04023FB181B78013B1A00396A0F
S214012DE07B6818001C4B98474023FB181B787A68B1
S214012DF0D31800221A700BE0BB6A18000A4B9847DA
S214012E000C230AE0BB6A1800074B98470C2304E022
S214012E10BB6A1800044B984700231800BD460DB046
S214012E2090BDC046158E0200B58E0200238F0200AB
S214012E30EC9D0200C590020088130000D89B02009A
S214012E40D5230100F89D0200E3910200879102005C
S214012E50B3910200A3910200ED8E0200B0B588B0D6
S214012E6002AF78601723FB181E221A701723FB186F
S214012E701B7801211800184B984703003B613B69FA
S214012E80002B01D1002323E01723FB181A783B6996
S214012E9000211800114B98471723FB1819787B68F7
S214012EA00F4A38690F4CA0470F23FC18FA23DA00A3
S214012EB00D4938690023009300230C4DA8470300F1
S214012EC023703B6918000A4B98470F23FB181B78A1
S214012ED01800BD4606B0B0BD158E0200238F020055
S214012EE0009E0200C5900200D89B0200D523010077
S214012EF0B58E020090B583B002AF064A0649074870
S214012F00002300930023064CA04703001800BD468B
S214012F1001B090BD88130000D89B0200089E0200F5
S214012F20D523010090B583B002AF064A064907488B
S214012F30002300930023064CA04703001800BD465B
S214012F4001B090BD10270000D89B0200109E020021
S214012F50D523010090B583B002AF064A064907485B
S214012F60002300930023064CA04703001800BD462B
S214012F7001B090BD88130000D89B0200289E020075
S214012F80D5230100B0B588B002AF78601723FB18CF
S214012F901E221A701723FB181B7801211800184BE4
S214012FA0984703003B613B69002B01D1002322E0D7
S214012FB01723FB181A783B6900211800114B984714
S214012FC01723FB1819787B680F4A38690F4CA047FE
S214012FD00F23FC180E4A0F4938690023009300237B
S214012FE00D4DA847030023703B6918000B4B98470B
S214012FF00F23FB181B781800BD4606B0B0BDC046AF
S214013000158E0200238F0200349E0200C590020036
S21401301088130000D89B0200D5230100B58E02005C
S21401302090B583B002AF064A0649074800230093CD
S2140130300023064CA04703001800BD4601B090BD12
S21401304088130000D89B0200449E0200D52301008D
S21401305090B583B002AF064A06490748002300939D
S2140130600023064CA04703001800BD4601B090BDE2
S21401307050460000D89B0200509E0200D523010056
S21401308090B583B002AFFA23DA000649064800235A
S21401309000930023054CA04703001800BD4601B06D
S2140130A090BDC046D89B0200809E0200D523010039
S2140130B090B587B002AF78600A00FB1C1A700F2328
S2140130C0FB1800221A70FB1C1B78002B03D00F2361
S2140130D0FB1801221A700E23FB1832221A700E23D7
S2140130E0FB181B7801211800174B98470300BB609B
S2140130F0BB68002B01D1002322E00E23FB181A78AF
S214013100BB6800211800114B98470E23FB1819784D
S2140131100F23FB181B787C680D4AB86800932300C0
S2140131200C4CA047FA23DA000B49B8680023009339
S21401313000230A4CA047BB681800094B9847002398
S2140131401800BD4605B090BD158E0200238F020003
S2140131508C9E0200C5900200D89B0200D523010078
S214013160B58E0200B0B586B002AF0F23FB1846221B
S2140131701A700F23FB181B7801211800574B98472C
S2140131800300BB60BB68002B05D1BB681800544B1D
S214013190984700239DE00F23FB181A78BB6800218F
S2140131A01800504B9847FC1D0F23FB181A784E4DFC
S2140131B04E494F48BB68009313002A004D4DA8475F
S2140131C003002370FB1D1B78002B6AD14A4ABB689B
S2140131D011001800494B984703003B60464B190005
S2140131E00020464B984703003B60454A3B68110068
S2140131F01800424B984703003B603B681800414B60
S21401320098470300DAB2404B1A703D4B1900002074
S2140132103A4B984703003B603B681800394B984788
S2140132200300DAB2384B5A70384B19000020334B82
S214013230984703003B603B681800324B98470300F1
S214013240DAB2314B9A70324B190000202B4B98475B
S21401325003003B603B6818002A4B98470300DAB22C
S214013260294BDA702A4B19000020244B984703009B
S2140132703B603B681800234B98470300DAB2224BA9
S2140132801A71244B190000201C4B984703003B6021
S2140132903B6818001B4B98470300DAB21A4B5A7169
S2140132A011E0194B00221A70174B00225A70164B68
S2140132B000229A70144B0022DA70134B00221A7106
S2140132C0114B00225A71BB681800054B9847FB1D2D
S2140132D01B781800BD4604B0B0BDC046158E02006E
S2140132E0B58E0200238F020088130000D89B0200CF
S2140132F0B09E0200D5230100BC9E0200159202007A
S214013300C09E0200098E020088060020009D020071
S214013310FC9C0200C49E020080B500AF344B984767
S214013320031E00D05EE0334B9847031E00D057E0E3
S214013330FA23DB001800304B9847304B9847031EA2
S2140133404CD12F4B9847031E4ED12E4B9847031E48
S21401335042D1FA23DB001800274B98472A4B98479F
S214013360031E37D1294B9847031E31D1284B984766
S214013370031E2BD1274B9847031E25D1264B984772
S214013380031E1FD1254B9847031E19D1244B98477E
S214013390031E13D1234B9847031E0DD1224B98478A
S2140133A0031E07D1214B9847031E01D100231CE0C1
S2140133B010231AE0102318E0102316E0102314E05F
S2140133C0102312E0102310E010230EE010230CE06F
S2140133D010230AE0102308E0102306E0102304E07F
S2140133E0102302E0102300E010231800BD4680BD24
S2140133F0CD25010009280100F9FF0100B9260100C9
S21401340039280100652601004927010079270100B6
S214013410D92701006928010099280100E12A010045
S214013420252F0100552F0100A927010019270100AA
S21401343080B584B000AF78600A00FB1C1A700F23B9
S214013440FB1800221A7026E01B4B1868FA235A0054
S2140134500E23FB181900194B9847031E01D10023B0
S21401346025E00E23FB181B780A2B14D00E23FB181D
S2140134701B780D2B14D07B685A1C7A600E22BA1862
S21401348012781A70FB1C1A78FB1C013A1A700F236B
S214013490FB1801221A70FB1C1B78012BD4D800E004
S2140134A0C0467B6800221A700F23FB181B78180091
S2140134B0BD4604B080BDC0462002002051F5010083
S2140134C080B584B000AF78600F23FB1800221A7015
S2140134D0174A7B6811001800164B9847031E1BD02D
S2140134E0154A7B6811001800144B98470300BB600F
S2140134F0114B19000020114B98470300BB60BB68B5
S21401350018000F4B9847BB6818000E4B98470200EF
S2140135100F23FB181A7003E00F23FB1800221A7002
S2140135200F23FB181B781800BD4604B080BDC046AB
S214013530C89E0200E3910200009D0200159202005F
S2140135409D2A0100098E020080B582B000AF786026
S214013550074A7B6811001800064B9847031E01D0E6
S214013560012300E000231800BD4602B080BDC0461E
S214013570D09E0200E391020080B584B000AF78606F
S21401358039601E4A7B68110018001D4B9847031EC0
S2140135902ED01C4A7B68110018001B4B984703006D
S2140135A0FB601A4B19000020174B98470300FB607D
S2140135B0174AFB6811001800134B98470300FB607D
S2140135C0134B19000020104B98470300FB60FB6863
S2140135D02B2118000F4B9847031E01D1002308E04A
S2140135E0FA683B68110018000B4B9847012300E06E
S2140135F000231800BD4604B080BDC046D89E020018
S214013600E3910200FC9C020015920200009D02005C
S214013610BC9E020087910200A391020080B582B091
S21401362000AF7860164A7B6811001800154B984762
S214013630031E01D001231EE0134A7B681100180007
S214013640104B9847031E01D0012314E00F4A7B68F4
S214013650110018000B4B9847031E01D001230AE006
S2140136600B4A7B6811001800064B9847031E01D0D1
S214013670012300E000231800BD4602B080BDC0460D
S214013680E09E0200E3910200EC9E0200F49E02001E
S214013690D09B020080B582B000AF7860074A7B6895
S2140136A011001800064B9847031E01D0012300E0C5
S2140136B000231800BD4602B080BDC046009F020030
S2140136C0E391020080B582B000AF7860074A7B685C
S2140136D011001800064B9847031E01D0012300E095
S2140136E000231800BD4602B080BDC046089F0200F8
S2140136F0E391020080B584B000AF0200FB1D1A7092
S2140137000F23FB18FA1D1278D2091A700E23FB1824
S214013710FA1D127852091A700D4BBB600F23FB1865
S2140137201B78002B0FD10F23FB181B789B00102250
S2140137309446BC446344083B1A680E23FB181B7866
S214013740DB01D31800E000231800BD4604B080BD9D
S2140137500044004180B582B000AF0200FB1D1A7024
S214013760FB1D1B781800034B984703001800BD4645
S21401377002B080BDF536010080B582B000AF78603A
S2140137807B6800221A707B6801225A707B680022CF
S2140137909A70C046BD4602B080BD000080B584B0B8
S2140137A000AF0200FB1D1A70BB1D0A1C1A70FB1D20
S2140137B01B7818000D4B98470300FB60FB1D1B7818
S2140137C01F22134001229A401300BB60BB1D1B78C9
S2140137D0002B03D0FB68BA689A6102E0FB68BA68FE
S2140137E05A61C046BD4604B080BDC046553701008B
S2140137F0F0B58BB000AF0B2318229446BC4463444B
S21401380010221A700A2318229446BC4463440222EA
S2140138101A70904B9847904B3F221A708F4B3E225E
S2140138201A708F4B21221A708D4B20225A708C4BA6
S21401383023229A708A4B2222DA708A4B00221A704F
S2140138400A2318229446BC4463441B78012B06D9EC
S214013850844B1B7808221343DAB2824B1A70824BD0
S2140138600A2218218C46BC44624412781A700B2333
S21401387018229446BC4463441A780B2318218C46BC
S214013880BC4463441B78403340210020774CA0475A
S2140138901C23FB181800764B98471C23FB180122A3
S2140138A01A706D4B1B781C22BA1811001800714B48
S2140138B098476A4B1B781C22BA18110018006D4BEA
S2140138C0984700237B620CE0654A7B6AD3181B7815
S2140138D01C22BA1811001800664B98477B6A013300
S2140138E07B627B6A032BEFDD0020634B9847030066
S2140138F03B6100237B61614C614A00233869796929
S214013900A04703000C00190022005E4B0024C918D2
S2140139106241080011005C4C5C4A0023A04703008A
S2140139200C0018005A4B98474B4B1B780021180087
S214013930584B9847494B1B7800211800554B984720
S2140139400320554B984700204B4B98470300BB601C
S2140139500023FB60494C514A0023B868F968A04728
S21401396003000C0019002200464B0024C9186241CE
S21401397008001100444C454A0023A04703000C00F0
S2140139801800434B98470320434B984700203A4B77
S214013990984703003B6000237B60384C3F4A002376
S2140139A038687968A04703000C0019002200354BDF
S2140139B00024C918624108001100334C334A002321
S2140139C0A04703000C001800314B98470320324BE8
S2140139D098470020284B984703001D0000231E002F
S2140139E0264C9622002328003100A04703000C0035
S2140139F019002200234B0024C91862410800110057
S214013A00214C224A0023A04703000C001800204B3B
S214013A1098470220204B9847124B1B7820221343CD
S214013A20DBB218001E4B98471E4B04221A701E4B21
S214013A3098471E4B98471E4B02221A701C4B1B7848
S214013A4004221343DBB21800154B9847C046BD4607
S214013A500BB0F0BD2D2A0200D3060020D2060020AE
S214013A60CC060020D1060020CA060020613B0100DA
S214013A707937010081300200ED490200B569020084
S214013A8050C30000BFCF6A0075690200C0CF6A004C
S214013A90010000209D3701009D3B010094110000AC
S214013AA0E13C0100C9060020C93E0100813D01003C
S214013AB0D006002080B582B000AF3B1D1800084B31
S214013AC098473B1D01221A703B1D00225A703B1D70
S214013AD019002420034B9847C046BD4602B080BD5E
S214013AE0793701008130020080B500AF0121242022
S214013AF0024B9847C046BD4680BDC0469D37010073
S214013B0080B582B000AF00212420114B98470023D6
S214013B107B600AE00F4A7B68D3181B7800211800E7
S214013B200B4B98477B6801337B607B68032BF1DD89
S214013B30094B1B7800211800054B9847074B1B784B
S214013B4000211800024B9847C046BD4602B080BD12
S214013B509D370100CC060020D2060020D3060020A7
S214013B6080B584B000AFF860B9607A603B60FB68EE
S214013B70DAB2094B1A70BB68DAB2074B5A707B6827
S214013B80DAB2054B9A703B68DAB2034BDA70C0467C
S214013B90BD4604B080BDC046C406002080B584B0D2
S214013BA000AF0200FB1D1A700023FB6013E00E4AF3
S214013BB0FB68D3181878FB1D1A78FB681A411300A6
S214013BC0012213405A1E9341DBB21900074B984756
S214013BD0FB680133FB60FB68032BE8DD044B984769
S214013BE0C046BD4604B080BDCC0600209D3701000E
S214013BF0F53B0100F0B585B000AF314B1B780021D5
S214013C001800304B984700202F4B98470300BB60A5
S214013C100023FB602D4B0024B868F968C018614189
S214013C202B4C2C4A0023A04703000C0018002A4BFB
S214013C309847234B1B7801211800224B98470020F8
S214013C40214B984703001D0000231E001F4B002434
S214013C5028003100C01861411D4C1E4A0023A047B0
S214013C6003000C0018001C4B9847154B1B780021CD
S214013C701800144B98470020134B984703003B60ED
S214013C8000237B60154C6422002338687968A047BE
S214013C9003000C00190022000C4B0024C9186241D5
S214013CA0080011000A4C0B4A0023A04703000C0031
S214013CB01800094B9847C046BD4605B0F0BDC04642
S214013CC0D20600209D370100ED490200BFCF6A00F1
S214013CD075690200C0CF6A0001000020B5690200C4
S214013CE080B582B000AF0200FB1D1A70FB1D1B7869
S214013CF000211800024B9847C046BD4602B080BD61
S214013D002D3D010080B582B000AF0200FB1D1A7088
S214013D10FB1D1B7801211800034B9847012318004F
S214013D20BD4602B080BDC0462D3D010080B582B0C3
S214013D3000AF0200FB1D1A70BB1D0A1C1A700D4B4A
S214013D401A78BB1D1B78591E8B41DBB21900100077
S214013D50094B9847FB1D1B781B09DBB21800074B64
S214013D609847FB1D1B781800044B9847C046BD4674
S214013D7002B080BDD30600209D3701009D3B0100A7
S214013D80F8B500AF0120134B98470020124B984717
S214013D9003001D0000231E00104CFA22D20000234F
S214013DA028003100A04703000C00190022000C4B2C
S214013DB00024C9186241080011000A4C0A4A00236F
S214013DC0A04703000C001800084B9847C046BD46A4
S214013DD0F8BDC046E13C0100ED490200B5690200AC
S214013DE0BFCF6A0075690200C0CF6A0001000020DB
S214013DF080B584B000AF02003960FB1D1A70FB1D50
S214013E00FA1D127807210A401A70FB1D1B78DB0089
S214013E105BB2402213435BB2DBB218000A4B9847F1
S214013E200023FB6009E0FB683A68D3181B7818008A
S214013E30064B9847FB680133FB60FB68072BF2DDF6
S214013E40C046BD4604B080BDE13C0100053D010011
S214013E5080B584B000AF0200FB1D1A70BB1D0A1CA2
S214013E601A700423FB60BB1D1A78FB689A4204D3C0
S214013E70FB68DAB2BB1D013A1A70104B1B78BA1DEB
S214013E8012789A4204D30D4B1A78BB1D013A1A7068
S214013E90BB1D1B780A4AD25CFB1D1B78D318DBB20C
S214013EA05BB28022524213435BB2DBB21800054B71
S214013EB09847C046BD4604B080BDC046CA0600202D
S214013EC0C4060020E13C010080B500AF084B1B781A
S214013ED004221343DAB2064B1A70054B1B780822EC
S214013EE01343DBB21800034B9847C046BD4680BD5E
S214013EF0C9060020E13C010080B584B000AF7860BF
S214013F007B6818000F4B98470300FB600023BB60DB
S214013F100BE07B685A1C7A601B7818000A4B98479E
S214013F20031E08D0BB680133BB60FB685A1EFA60EB
S214013F30002BEED100E0C046BB681800BD4604B0B9
S214013F4080BDC046B3910200053D01000FB480B5A7
S214013F5084B000AFBB691800114B984703000333C8
S214013F60FB60FB6818000F4B98470300BB601C23DF
S214013F70FB187B607A68B969BB6818000A4B9847DA
S214013F80BB681800094B9847BB681800084B984750
S214013F90C046BD4604B080BC08BC04B01847C04645
S214013FA0B3910200A18E0200A1940200F93E010025
S214013FB0B58E020080B584B000AF78607B68002BB8
S214013FC028D07B68FB6020E00B23FB18FA68127888
S214013FD01A70124B984702000B23FB181B7801330B
S214013FE0D3181B781A0003231340022B04D10B238A
S214013FF0FB181B78203B02E00B23FB181B78DAB278
S214014000FB681A70FB680133FB60FB681B78002BAA
S214014010DAD100E0C046BD4604B080BD858E020000
S21401402080B584B000AF786039603B681800104BEB
S21401403098470300FB607B6818000D4B9847030008
S214014040BB60BA68FB689A4209D3FA6879683B682C
S2140140501800084B9847031E01D1012300E00023F6
S2140140601A1C01231340DBB21800BD4604B080BD04
S214014070B3910200C191020080B500AFBFF34F8F2C
S214014080024B034ADA60BFF34F8FFEE700ED00E014
S2140140900400FA0580B584B000AF0200FB1D1A705B
S2140140A00F23FB18FA1D1278D2091A700E23FB187B
S2140140B0FA1D127852091A700D4BBB600F23FB18BC
S2140140C01B78002B0FD10F23FB181B789B001022A7
S2140140D09446BC446344083B1A680E23FB181B78BD
S2140140E0DB01D31800E000231800BD4604B080BDF4
S2140140F00044004180B500AF024B9847C046BD461C
S21401410080BDC0467940010080B582B000AF020094
S214014110FB1D1A70FB1D1B781800034B9847030004
S2140141201800BD4602B080BD9540010080B582B042
S21401413000AF78607B6800221A707B6801225A7093
S2140141407B6800229A70C046BD4602B080BD000062
S21401415080B584B000AF0200FB1D1A70FB1D1B78F2
S21401416018000B4B98470300FB60FB1D1B781F22B2
S214014170134001229A401300BB60FB681B6ABA68B1
S21401418013405A1E9341DBB21800BD4604B080BDF1
S2140141900941010080B584B000AF0200FB1D1A7012
S2140141A0BB1D0A1C1A70FB1D1B7818000D4B984787
S2140141B00300FB60FB1D1B781F22134001229A405F
S2140141C01300BB60BB1D1B78002B03D0FB68BA68CD
S2140141D09A6102E0FB68BA685A61C046BD4604B0FF
S2140141E080BDC0460941010080B500AF0B4B1B786E
S2140141F001225340DBB2002B0CD0094B984702003A
S214014200084B1B68D21AFA239B009A4202D9034B29
S21401421001221A70C046BD4680BDC0466A0700200E
S2140142205D0302001008002080B582B000AFFB1DC0
S21401423001221A70234B1B78002B03D0FB1D224A48
S214014240127A1A70214B1B78002B37D0204B1B7823
S214014250012B0BD01F4B984702001F4B1B68D21A2D
S214014260FB1D1B781D494B439A4227D91C4BDB7813
S214014270002B1AD0134B1B78002B07D0194B1A783A
S214014280194B1A700F4B00221A7015E0174B1B784A
S214014290002B11D0134B1A78154B1A70154B0122AF
S2140142A01A70124B00221A7006E00E4B1A780E4B4B
S2140142B01A70044B00221A700F4B9847C046BD4631
S2140142C002B080BDCE070020540600206A070020F9
S2140142D0D90600205D030200F007002060EA000016
S2140142E02C0600206D0700205B07002086070020B3
S2140142F0210700203B070020FD42010080B500AFEA
S214014300074B5B794E2B03D1064B1B78002B04D051
S214014310054B01221A70054B9847C046BD4680BD25
S214014320540600203B0700203C070020654501009D
S21401433080B500AF6D4B00221A706D4B00221A70CB
S2140143406C4B98470022002100206B4B9847FA23BC
S2140143509B001800694B9847694B00221A70694BFD
S2140143605B78002B02D0684B00221A70654BDB7815
S214014370012B1DD1654B1B78DBB24E2B04D0634B52
S2140143801B78DBB2522B0DD1614B1B78DBB24F2B66
S21401439008D1604B1B7801225340DBB2002B01D0C1
S2140143A0012300E000231A1C01231340DBB215E0B1
S2140143B0564B1B78DBB24E2B04D0544B1B78DBB22A
S2140143C0522B06D1524B1B78DBB24F2B01D1012366
S2140143D000E000231A1C01231340DBB2002B21D07E
S2140143E04D4B1B78002B1DD14C4B1B7801225340A3
S2140143F0DBB2002B16D04A4B5B79542B12D1494BBA
S2140144009B78012B0ED9444B01221A70464B012290
S2140144101A70464B98470200454B1A60454B1A786E
S214014420454B1A70374BDB78002B47D0374B1B7840
S214014430DBB2492B04D0354B1B78DBB2522B37D17C
S214014440334B1B78DBB24F2B32D1324B1B78002B10
S2140144502ED03A4B5B79002B2AD0394B1B7801338F
S214014460DAB2374B1A70374B1B78002B06D0364B17
S2140144701B7800211800354B984716E0304B1B7807
S214014480012B0CD8294B98470200294B1A602E4B5A
S2140144901A78294B1A702E4B01221A7005E02A4B06
S2140144A01B7803211800294B98471A4B00221A70D3
S2140144B0284B00221A70234B00221A70174B002239
S2140144C01A70124B4E221A70114B4E221A70224B42
S2140144D000221A70154B98470200204B1A60204B99
S2140144E000221A70C046BD4680BDC046D8060020D0
S2140144F0940700202130010041CC0100F9FF0100A2
S2140145003C0700202C0600200B080020D8070020BE
S214014510870700203B070020D906002096070020C9
S2140145205406002014060020CE0700205D0302007A
S214014530F00700205B0700206D07002054050020CF
S214014540CF07002020070020210700200DBB010017
S21401455086070020CC0700209007002010080020C6
S2140145606A07002080B586B000AF204B01221A7082
S2140145703B1D180014231A0000211D4B98471D4BA4
S2140145805B79002B08D01C4B1B78002B04D03B1DFD
S21401459018001A4B98470FE0194B1B78002B07D0D1
S2140145A0184B1A793B1D11001800174B984703E06A
S2140145B03B1D1800154B98473B1D1800144B984798
S2140145C03B1D002219000320124B9847124B9847B7
S2140145D00200124B1A60124B52221A70114B4F22D4
S2140145E01A70C046BD4606B080BDC046940700207E
S2140145F0238F0200540500203B070020050B010015
S214014600D906002014060020150901001D0D010021
S2140146105D2E010041CC01005D030200140800205C
S214014620D80700208707002080B500AF0A4B00227C
S2140146301A700A4B01221A70094B9847094B4922F6
S2140146401A70094B49221A7001214D20074B9847D1
S214014650C046BD4680BDC046900700209607002094
S214014660F52E0100D80700208707002071460100BB
S21401467080B582B000AF0200FB1D1A70BB1D0A1C7C
S2140146801A70144B9847144B01221A70BB1D1B78E5
S214014690002B16D0114B01221A70114B00221A70F2
S2140146A00F4B1B7819000F4BFA1D12785A540C4BFE
S2140146B01B7801330B4A0021D1540B4BFA1D12789B
S2140146C01A700A4BFA1D12781A70C046BD4602B01F
S2140146D080BDC0468130010061080020D00700205F
S2140146E0C0070020440700205B070020BF0700200A
S2140146F080B500AF0D4B1B78002B0ED00C4B9847A6
S21401470002000C4B1B68D31A0B4A12781100642264
S2140147104A43934201D9012300E000231A1C0123D6
S2140147201340DBB21800BD4680BDC04661080020BC
S2140147305D0302003C080020D107002080B500AFD1
S2140147400B4B1B78012B06D90A4B1B78002118004E
S214014750094B984705E0074B1B7801211800064BCB
S2140147609847064B00221A70C046BD4680BDC0461B
S214014770D0070020BF070020B130010061080020EB
S21401478080B582B000AF7860184B1B780122534089
S214014790DBB2002B25D07B681800154B9847031E0B
S2140147A01FD0144B1B78012B1BD9134B1B781A00F7
S2140147B0104B1B78013B9A420FDA0F4B1B780133E3
S2140147C0DAB20D4B1A700C4B1B781A000B4B9B5C24
S2140147D0002118000A4B984703E001214D20084BA1
S2140147E09847C046BD4602B080BDC046610800205D
S2140147F0C5360100D0070020C0070020440700206E
S2140148007146010080B582B000AF78607B68180001
S214014810144B984703000E2B1FD8134B00221A7017
S2140148207B6818000F4B98470300DAB20F4B1A70DB
S2140148307A680F4B110018000E4B98470E4B98479D
S21401484002000E4B1A60084B1B781A00084B9A5C44
S2140148500B4B1A700B4B01221A70C046BD4602B0B4
S21401486080BDC046B3910200C0070020D0070020DB
S21401487044070020A39102005D0302003C080020CB
S214014880BF0700206108002080B500AF094B98479C
S2140148900200094B1B68D21A084B1B8819006423B7
S2140148A04B43190000238A425B41DBB21800BD4628
S2140148B080BDC0465D030200140800205C0700208E
S2140148C080B582B000AF7860164A7B681100180088
S2140148D0154B9847031E01D044231EE0134A7B68FC
S2140148E011001800104B9847031E01D0522314E004
S2140148F00F4A7B68110018000B4B9847031E01D026
S21401490049230AE00B4A7B6811001800064B9847BA
S214014910031E01D0452300E04E231800BD4602B019
S21401492080BDC04628A10200E391020038A1020022
S21401493048A1020058A1020080B582B000AF020073
S214014940FB1D1A70344B9B78002B03D0334B5B79DD
S2140149504E2B01D101235BE0314B1B78DBB20122E8
S2140149605340DBB2002B01D0012351E02D4B1B78C5
S21401497001225340DBB2002B07D02B4B1B78FA1DCC
S21401498012789A4201D1012342E0284B1B78DBB210
S2140149904E2B3CD1264B1B78DBB24E2B37D1254B09
S2140149A01B78002B33D01F4B1B7801225340DBB200
S2140149B0002B2CD0204B1B7801225340DBB2002B5E
S2140149C025D0164B5B7A002B05D01C4B9847031E4F
S2140149D001D001231CE01A4B00221A700F4B1B7AE0
S2140149E0002B0CD0174B98470200174B1A60174B39
S2140149F0FA1D12781A700B4B01221A7005E00A4B49
S214014A00FA1D12781A70124B9847012300E0002312
S214014A101800BD4602B080BD1406002054060020D2
S214014A2095070020CE0700205B070020D80700204E
S214014A30870700206A0700208607002039710100D9
S214014A40D90600205D030200F00700206D07002054
S214014A50FD42010080B582B000AF0200FB1D1A7056
S214014A60204B1B78DBB201225340DBB2002B06D071
S214014A70FB1D1B78002118001B4B98472EE01B4B93
S214014A801B78DBB24E2B29D1194B1B78DBB24E2B90
S214014A9024D1184B1B78002B20D0174B1B780122F2
S214014AA05340DBB2002B19D0144B1B780122534024
S214014AB0DBB2002B12D0FB1D1B78022118000A4B1B
S214014AC098470F4B01221A700E4BFA1D12781A7076
S214014AD00D4B00221A700D4B9847C046BD4602B0DA
S214014AE080BDC046950700200DBB0100D8070020F9
S214014AF0870700206A070020CE07002086070020CF
S214014B003B07002021070020CF070020FD420100BF
S214014B1080B582B000AF0200FB1D1A70074B1B78F0
S214014B20DBB2492B06D1FB1D1B7801211800044B73
S214014B30984700E0C046BD4602B080BDD8070020B9
S214014B407146010080B582B000AF0200FB1D1A70ED
S214014B500C4B1B7801225340DBB2002B0DD00A4BC5
S214014B605B79412B09D1094BFA1D12781A70084B53
S214014B70002200211800074B9847C046BD4602B0E8
S214014B8080BDC04696070020540600205B07002023
S214014B9068A102001D72010080B500AF044B984762
S214014BA0044B98470200044B1A60C046BD4680BDC0
S214014BB0813001005D0302001408002080B584B036
S214014BC000AF78600F23FB187A6812781A706A4B68
S214014BD0DB78002B10D0694B1B78002B00D1C7E087
S214014BE00F23FB181B78412B00D0C1E0644B012238
S214014BF01A70644B9847BBE00F23FB181B78312BC8
S214014C0006D1614B984700210120604B9847AFE0E1
S214014C100F23FB181B78322B07D15B4B98470022DA
S214014C20002101205A4B9847A2E00F23FB181B785E
S214014C30332B04D1544B9847564B984798E00F2393
S214014C40FB181B78342B0AD14B4B5B79002B00D118
S214014C508EE04D4B984700204F4B984788E00F2336
S214014C60FB181B78352B0AD1434B1B79002B00D13F
S214014C707EE0454B98470020484B984778E00F2345
S214014C80FB181B78302B14D13B4B5B78002B00D1E3
S214014C906EE0434B1B78002B07D0424B98473A4BAC
S214014CA098473F4B00221A7062E03D4B01221A7072
S214014CB05EE00F23FB181B78372B08D12E4B9B7811
S214014CC0002B55D0304B9847374B984750E00F2371
S214014CD0FB181B78442B0DD10120344B984701203B
S214014CE0334B984700210020284B9847FF20314B33
S214014CF098473DE00F23FB181B78432B0BD1002070
S214014D002A4B9847012200210020214B9847FF207B
S214014D10284B98472CE00F23FB181B78382B0CD117
S214014D20194B98470120214B98470120204B984763
S214014D3001212920204B98471AE00F23FB181B78E6
S214014D40392B0CD1104B98470020184B984701205F
S214014D50174B984701215B20174B984708E00F2314
S214014D60FB181B782A2B03D1074B9847134B984700
S214014D70C046BD4604B080BD2C0600203B0700207F
S214014D802007002021300100994B01009DB301004E
S214014D9079B50100BDB9010045950100FD930100FB
S214014DA00B0800200DA0010001A10100A5120100C1
S214014DB0A5AF0100D973010071460100CDBA01000B
S214014DC0F0B5C64600B5D2B006AFF8600C001000CC
S214014DD01900E14B94225200944608229046B844AA
S214014DE0C4446344221C1A70DC4B9422520094463D
S214014DF008229046B844C4446344021C1A70D84B37
S214014E0094225200944608229046B844C44463440F
S214014E100A1C1A702823FF3308229446BC446344B4
S214014E2000221A70FB688C22520008218C46BC4472
S214014E3062441360CA4B942252009446082290465C
S214014E40B844C44463441B78002B0ED0C54AFB68A3
S214014E5011001800C44B984703001A000123534061
S214014E60DBB2002B01D002F0A5F8C04AFB681100A6
S214014E701800BD4B9847031E29D0BD4B01225A711D
S214014E80BC4B102200211800BB4B9847A0235B00A7
S214014E9008229446BC4463441A68B64B11001800B5
S214014EA0B64B98470020B64B9847B149B54B1C22E4
S214014EB01800B54B9847B34B19000020B34B9847E1
S214014EC0B34B98476420B34B9847B34B9847B34AC4
S214014ED0FB6811001800A44B9847031E47D01823FF
S214014EE0FF330822BA18D418AD4B98470300237035
S214014EF02823FF3308229446BC44634401221A70D7
S214014F00964B94225200944608229046B844C444D4
S214014F1063441B78002B01D102F006F81823FF33F7
S214014F2008229446BC4463441B78002B0DD10C2305
S214014F3008229446BC4463449A4A13CA13C313CA4C
S214014F4013C313CA13C301F0EFFF0C2308229446C0
S214014F50BC446344944A13CA13C313CA13C303CA93
S214014F6003C31188198092789A7001F0DDFF8F4A89
S214014F70FB68110018007C4B9847031E30D0764B17
S214014F8094225200944608229046B844C44463448E
S214014F901B781800864B98472823FF33082294462F
S214014FA0BC44634401221A706C4B9422520094460E
S214014FB008229046B844C44463441B78002B01D1B0
S214014FC001F0B2FF0C2308229446BC446344794A9C
S214014FD013CA13C313CA13C312781A7001F0A4FFBD
S214014FE0754AFB68110018005F4B9847031E65D091
S214014FF00020724B9847724B5B79002B0DD0002036
S214015000704B98476E4BDB78002B03D000206E4B1D
S214015010984702E000206D4B9847694B5B78002B60
S21401502008D078206A4B984755206A4B984700204D
S214015030694B98470020694B98470020684B984772
S2140150404320684B98473220674B98470220674BAE
S21401505098470120664B98475020664B9847012099
S214015060654B98470020654B98470120644B98474D
S2140150702823FF3308229446BC44634401221A7055
S214015080364B94225200944608229046B844C444B3
S21401509063441B78002B01D101F046FF0C23082244
S2140150A09446BC446344574A13CA13C313CA13C372
S2140150B013CA13C312781A7001F036FF524AFB68FE
S2140150C011001800284B9847031E38D0234B942212
S2140150D05200944608229046B844C44463440122D0
S2140150E01A702823FF3308229446BC4463440122E5
S2140150F01A700C2308229446BC446344FA22002109
S21401510018001D4B9847414B9B78002B0DD10C2363
S21401511008229446BC4463443D4A13CA13C311682B
S214015120196092889A8001F0FFFE0C2308229446AB
S214015130BC4463441800374B984701F0F5FE364AE5
S214015140FB6811001800084B9847031E66D0124BE7
S214015150984701F0E9FEC046DBFEFFFFDAFEFFFFDF
S214015160D9FEFFFF6CA102002140010074A10200DC
S214015170F805002004060020238F0200A3910200F8
S2140151800D23010084050020ED8E0200013B020084
S214015190A93C0200F9FF0100F54001007CA10200D4
S2140151A05130010084A10200A8A10200CCA1020096
S2140151B009110100D8A10200F4A10200A512010004
S2140151C02C06002065140100E10B0100B11401005A
S2140151D0FD14010065150100851901001D1A010065
S2140151E03D13010089130100F1120100D1190100DC
S2140151F0D5150100211601006D160100FD1A0100EA
S2140152004D1B0100FCA1020024A20200140600208E
S21401521028A20200F50701003CA20200EA4AFB6848
S21401522011001800E94B9847031E1FD0E84B942243
S2140152305200944608229046B844C444634401226E
S2140152401A702823FF3308229446BC446344012283
S2140152501A70E04B9A68E04BE0490C200824A446FB
S214015260BC446044DE4CA04701F05EFEDD4AFB68AC
S21401527011001800D54B9847031E27D00120DA4BA2
S21401528098470120D94B98472823FF330822944694
S214015290BC44634401221A70CD4B942252009446BA
S2140152A008229046B844C44463441B78002B01D1BD
S2140152B001F03AFE0C2308229446BC446344CC4ACF
S2140152C013CA13C312681A6001F02EFEC94AFB689E
S2140152D011001800BD4B9847031E29D00020C24B71
S2140152E098470120C14B98472823FF33082294464C
S2140152F0BC44634401221A70B54B94225200944672
S21401530008229046B844C44463441B78002B01D15C
S21401531001F00AFE0C2308229446BC446344B64AB4
S21401532013CA13C31168196012791A7101F0FCFDD2
S214015330B24AFB6811001800A44B9847031E2AD0F6
S214015340A44B5B79002B01D101F0EEFD2823FF333E
S21401535008229446BC44634401221A700120A84BDB
S21401536098479B4B94225200944608229046B84494
S214015370C44463441B78002B01D101F0D5FD0C23F6
S21401538008229446BC4463449E4A13CA13C3126857
S2140153901A6001F0C9FD9C4AFB68110018008B4B8E
S2140153A09847031E2CD08B4B5B79002B01D101F063
S2140153B0BBFD2823FF3308229446BC4463440122E4
S2140153C01A7000208E4B9847814B942252009446C7
S2140153D008229046B844C44463441B78002B01D18C
S2140153E001F0A2FD0C2308229446BC446344874A7C
S2140153F013CA13C31168196012791A7101F094FD6A
S214015400834AFB6811001800704B9847031E26D08C
S2140154100120804B98472823FF3308229446BC443A
S214015420634401221A706A4B942252009446082261
S2140154309046B844C44463441B78002B01D101F064
S21401544073FD0C2308229446BC446344724A1168D7
S21401545019609188998092799A7101F065FD6F4A79
S214015460FB6811001800594B9847031E22D00020F4
S214015470684B98472823FF3308229446BC4463446C
S21401548001221A70524B94225200944608229046EA
S214015490B844C44463441B78002B01D101F044FD99
S2140154A00C2308229446BC4463445D4A03CA03C3E2
S2140154B001F03AFD5B4AFB6811001800434B984720
S2140154C0031E55D0FB681C1DFB681800564B9847F9
S2140154D00200FB6821001800544B9847FB6818002F
S2140154E0534B9847020093235B0008218C46BC442B
S2140154F063441A7093235B0008229446BC446344B9
S2140155001B78132B07D893235B0008229446BC44D0
S214015510634414221A7093235B0008229446BC4409
S21401552063441B789BB21800424B98472823FF33ED
S21401553008229446BC44634401221A70244B9422E8
S2140155405200944608229046B844C44463441B78EB
S214015550002B01D101F0E8FC0C2308229446BC4440
S2140155606344354A13CA13C312781A7001F0DCFC7F
S214015570324AFB6811001800144B9847031E63D08B
S21401558001202F4B98472823FF3308229446BC441A
S214015590634401221A700E4B94225200944608224C
S2140155A09046B844C44463441B78002B01D101F0F3
S2140155B0BBFC0C2308229446BC446344214A03CA1C
S2140155C003C301F0B1FCC04644A202002140010021
S2140155D0DAFEFFFF2C06002048A202005CA20200B1
S2140155E02991020064A20200A5120100A5AF0100E4
S2140155F06CA202007CA2020084A2020098A2020011
S21401560065140100A0A20200B0A20200B8A2020026
S214015610CCA20200D5150100D4A20200DCA2020031
S214015620E4A20200ECA20200B3910200FF8E020087
S214015630098E020021160100F4A2020004A3020052
S2140156406D1601000CA30200DC4AFB68110018006D
S214015650DB4B9847031E24D00020DA4B98472823BB
S214015660FF3308229446BC44634401221A70D64B89
S21401567094225200944608229046B844C444634497
S2140156801B78002B01D101F04FFC0C230822944615
S214015690BC446344CD4A03CA03C312781A7001F0AE
S2140156A043FCCB4AFB6811001800C54B9847031E04
S2140156B06CD0FB681800C74B98470300032B01D832
S2140156C001F032FCFB68DC1CFB681800C14B9847F4
S2140156D00200FB6821001800BF4B9847FB681B7847
S2140156E04C2B09D0FB681B78532B05D0FB681B7825
S2140156F04F2B01D001F018FCFB68DBB21800B74B4A
S21401570098472823FF3308229446BC446344012269
S2140157101A70AD4B94225200944608229046B84423
S214015720C44463441B78002B01D101F0FDFB0C231C
S21401573008229446BC446344A94A116819609188BA
S214015740998092799A71FA680C2308218C46BC4498
S214015750634411001800A34B98470C230822944673
S214015760BC44634418009B4B984703001A000C2363
S21401577008218C46BC4463449A189B4B10001900C0
S21401578004231A00994B984701F0CEFB984AFB6810
S214015790110018008A4B9847031E72D0FB68180048
S2140157A08C4B98470300042B01D801F0BDFBFB6826
S2140157B01C1DFB681800874B98470200FB682100F8
S2140157C01800854B9847FB6818008A4B98470200DB
S2140157D02623FF3308218C46BC4463441A702623D3
S2140157E0FF3308229446BC4463441B78022B01D93C
S2140157F001F09AFB2623FF3308229446BC446344F7
S2140158001B78012B0BD17C4B5B78002B07D1262311
S214015810FF3308229446BC44634400221A702623B0
S214015820FF3308229446BC4463441B781800734B2C
S21401583098472823FF3308229446BC446344012238
S2140158401A70614B94225200944608229046B8443E
S214015850C44463441B78002B01D101F065FB262369
S214015860FF3308229446BC4463441A7864490C23E7
S21401587008208446BC4463441800624B984701F0F4
S21401588053FB614AFB68110018004D4B9847031EF5
S21401589000D1BFE0FB6818004E4B98470300082B69
S2140158A001D801F041FBFB6808331C00FB681800B7
S2140158B0484B98470200FB6821001800464B984762
S2140158C04D4B5B78002B01D101F02EFB92235B0040
