:100000003029002081380100793901007939010057
:1000100000000000000000000000000000000000E0
:100020000000000000000000000000001DD90000DA
:10003000000000000000000051DA000099DA000022
:100040007939010079390100D9FF000099D2000007
:10005000011001007939010031C80000793901002F
:100060006D100100F90D0100110E0100290E0100B3
:10007000410E0100590E0100710E0100FDFF00004C
:100080001100010025000100B5000100C9000100B8
:10009000DD000100F100010005010100B9C600000A
:1000A000C5130100F5C70000793901007939010055
:1000B0000000000010B5064C2378002B07D1054B3B
:1000C000002B02D0044800E000BF0123237010BDC4
:1000D000000200200000000014990100084B10B538
:1000E000002B03D00749084800E000BF0748036819
:1000F000002B00D110BD064B002BFBD09847F9E731
:10010000000000000402002014990100149901006D
:100110000000000090B583B000AFFC1D0A4B98476B
:1001200003002370FB1D1B78162B00D1FEE7FB1D7F
:100130001B78002B03D0054B9847034B9847C046CC
:10014000BD4603B090BDC0463D24010025250100F9
:1001500080B500AFF64B9847F64B19000020F64BE0
:100160009847F449F54B18221800F54B9847F34B84
:100170001B79552B29D0F14B00221A60EF4B5522E9
:100180001A71EE4B00225A71EC4B00229A71EB4B24
:100190000022DA71EB4B102200211800EA4B98473D
:1001A000E84BEA4A03CA03C31188198092789A700F
:1001B000E249E04B18221800E14B9847DD4B19004B
:1001C0000020E34B9847E34B9847DA4B1900012096
:1001D000D94B9847D749E04B38221800D84B98475D
:1001E000DD4B1B79552B2ED0DB4B00221A60DA4BEE
:1001F00055221A71D94B1E2200211800D24B984764
:10020000D64AD74B1000190010231A00CC4B984740
:10021000D44B142200211800CB4B9847D14AD24B23
:10022000100019000B231A00C54B9847CA49C14B4F
:1002300038221800C24B9847BE4B19000120C44B0E
:100240009847C44B9847BB4B19000220BA4B9847BC
:10025000B849C64B38221800B94B9847C34B1B7995
:10026000552B3CD0C14B00221A60C04B55221A714D
:10027000BF4B102200211800B34B9847BB4B0522FF
:10028000BC499B1810221800AD4B9847BA4B10225E
:1002900000211800AC4B9847B84AB94B1000190020
:1002A0000A231A00A64B9847B34B102200211800CE
:1002B000A54B9847B04AB34B100019000D231A0004
:1002C0009F4B9847A9499B4B382218009C4B984755
:1002D000984B190002209E4B98479E4B9847954B90
:1002E00019000820944B9847A74A924B1000190018
:1002F00008231A00924B9847A34B1B78552B1DD00F
:10030000A14B55221A70A04B0F225A709E4B00220F
:100310009A709D4B0022DA709B4B01221A71854A1C
:10032000994B1000190008231A00854B9847814B00
:1003300019000820864B9847864B9847934B190025
:100340000320934B9847934B19000420904B9847F8
:10035000914B190005208E4B9847904B19000620B1
:100360008B4B98478E4B19000720894B9847774B4A
:1003700019000920864B9847744B19000A20844BBA
:100380009847724B19000B20814B98476F4B19000F
:100390000C207F4B98476D4B19000D207C4B9847E4
:1003A0006A4B19000E207A4B9847684B19000F20B2
:1003B000774B9847654B19001020754B9847634B56
:1003C00019001120724B9847604B19001220704B96
:1003D00098475E4B190013206D4B98475B4B1900F3
:1003E00014206B4B9847594B19001520684B9847C0
:1003F000564B19001620664B9847544B190017208E
:10040000634B98474B4B190018204B4B9847654A54
:10041000484B1000190018231A00494B9847614BAC
:100420001B78552B25D05F4B55221A705D4B00224F
:100430009A705C4B00225A705B4B1422002118000A
:10044000414B9847584A414B100019000B231A00A2
:100450003B4B9847374A534B1000190018231A009A
:10046000374B9847334B19001820394B9847394B75
:100470009847304B190019202F4B98474B4A2D4B6A
:100480001000190030231A002D4B9847474B1B785A
:10049000552B3CD0454B55221A70454B1422002158
:1004A0001800294B9847424A284B100019000B238B
:1004B0001A00234B98473F4B142200211800224B6F
:1004C00098473C4A214B100019000B231A001C4B83
:1004D0009847364B00225A70344B00229A70334BA7
:1004E0000022DA70314B00221A71304B00225A710F
:1004F000104A2E4B1000190030231A00104B984759
:100500000C4B19001920124B9847124B9847094B76
:1005100019001A20084B98470649274B2822180033
:10052000074B9847244B1B78552B00D19DE045E0A5
:10053000150100007405002055260100E805002083
:1005400081780100F0050020B7780100B88401002F
:1005500049250100F12601000C05002011050020AD
:10056000C48401002F050020D4840100B0050020C0
:10057000B5050020E0840100D5050020C505002058
:10058000F0840100FC840100000600200C850100BD
:100590002507000018850100248501003085010031
:1005A0003C85010034060020380600204405002068
:1005B0004C050020600500204C0600204F4B5522C2
:1005C0001A704E4B00225A704C4B32225A804B4BC1
:1005D0004F221A71494B54225A71484B0222DA8039
:1005E000464B00221A72454B00225A72434B00229E
:1005F0009A72424B0022DA72404B00221A733F4B30
:1006000000225A733D4B00229A733C4B0022DA734E
:100610003A4B00221A61394B00225A61374B0022B3
:100620009A61364B55221A77344B78225A77334BDE
:1006300000229A77314B0022DA77304B20220121B9
:1006400099542E4B50225A842C4B24220121995428
:100650002A492B4B282218002A4B9847284B19006F
:100660001A20294B9847294B9847254B19001B20E6
:10067000274B9847274A224B100019001C231A00C9
:10068000204B9847234B1B78552B34D0214B5522B8
:100690001A70204B01229A701E4B01225A701D4B7A
:1006A00000229A711B4B00225A711A4B00221A71B8
:1006B000184B0022DA70174B0022DA71164B142205
:1006C00000211800154B9847134A154B10001900CC
:1006D0000B231A000B4B9847094A0E4B10001900C8
:1006E0001C231A00074B9847054B19001B20064B8B
:1006F0009847064B9847C046BD4680BD4C06002033
:10070000740500208178010049250100F1260100CF
:10071000552601001806002020060020B7780100A9
:10072000B884010080B588B000AF02003960FB1DBD
:100730001A70284B3C2200211800274B9847254A65
:10074000FB1D1B7811001800244B98470823FA184A
:10075000204B1000190018231A00214B984708233A
:10076000FB181B78552B31D00823FB1855221A7023
:100770000823FB1800225A700823FB1800229A70E5
:100780000823FB180022DA700823FB180433142214
:1007900000211800104B98473A680823FB180433CF
:1007A000110018000F4B98470A4A0823FB18100045
:1007B000190018231A000A4B9847064AFB1D1B789C
:1007C00011001800084B9847084B9847C046BD4693
:1007D00008B080BD74050020B778010055260100DF
:1007E00081780100377B010049250100F1260100D5
:1007F00080B58AB000AF78607B6800221A7027232A
:10080000FB1800221A7063E0374B3C2200211800CD
:10081000364B98472723FB181B780933DBB2324A43
:1008200011001800324B98470C23FA182E4B100079
:10083000190018231A002F4B98472F4BDB782722DB
:10084000BA1812789A420FD17B6818002B4B984740
:1008500003001A007B689A18294B10001900032323
:100860001A00244B984715E0234B1B792722BA180E
:1008700012789A420ED17B681800204B98470300EB
:100880001A007B689A181F4B1000190003231A00E6
:10089000184B98470C23FB181A1D7B681100180091
:1008A000194B98477B681800144B984703001A00AF
:1008B0007B689A18154B1000190002231A000D4B83
:1008C00098472723FB181A782723FB1801321A7040
:1008D000094B9B782722BA1812789A4294D3C046C3
:1008E000BD460AB080BDC04674050020B77801003F
:1008F000552601008178010000060020477B010099
:10090000488501004C850100017B010050850100F4
:1009100080B588B000AF78600A00FB1C1A707B6855
:1009200000221A70154B9B78FA1C12789A421FD23B
:10093000134B3C2200211800124B9847FB1C1B78DC
:100940000933DBB20E4A110018000F4B98470823F9
:10095000FA180B4B1000190018231A000B4B98477C
:100960000823FB181A1D7B6811001800084B9847D4
:100970007B681800BD4608B080BDC0460006002058
:1009800074050020B7780100552601008178010028
:10099000017B010080B588B000AF7860144B9B7874
:1009A000002B20D00C23FB18180014231A00002160
:1009B000104B98470E4BDA780C23FB1811001800E7
:1009C0000D4B98470C23FA187B68110018000B4B4D
:1009D0009847031E01D0012306E07B681800084BEE
:1009E0009847030000E000231800BD4608B080BD12
:1009F00000060020B778010011090000777B010094
:100A0000050A000080B582B000AF78600B4B9B7880
:100A1000002B0DD00A4B9B78002B09D0094A7B682C
:100A200011001800084B9847031E01D0012300E075
:100A300000231800BD4602B080BDC046000600205D
:100A40003406002038060020777B010080B582B094
:100A500000AF7860094B5B78002B09D0084A7B68AF
:100A600011001800074B9847031E01D0012300E036
:100A700000231800BD4602B080BDC04644050020DA
:100A80004C050020777B010080B582B000AF786014
:100A9000094BDB78002B09D0084A7B68110018004D
:100AA000074B9847031E01D0012300E000231800E4
:100AB000BD4602B080BDC046440500206005002050
:100AC000777B010080B582B000AF7860094B5B781E
:100AD000002B06D0084A7B6811001800074B984786
:100AE00002E07B6800221A707B681800BD4602B0E5
:100AF00080BDC046440500204C050020377B010026
:100B000080B582B000AF7860094BDB78002B06D04F
:100B1000084A7B6811001800074B984702E07B6881
:100B200000221A707B681800BD4602B080BDC04626
:100B30004405002060050020377B010080B582B0AD
:100B400000AF0200FB1D1A70FB1D1A780A4B9A7049
:100B50000A4A094B1000190030231A00084B984725
:100B6000064B19001920074B9847074B9847C0467A
:100B7000BD4602B080BDC04644050020740500207B
:100B80008178010049250100F126010080B582B07D
:100B900000AF0200FB1D1A70FB1D1A780A4B1A7178
:100BA0000A4A094B1000190030231A00084B9847D5
:100BB000064B19001920074B9847074B9847C0462A
:100BC000BD4602B080BDC04644050020740500202B
:100BD0008178010049250100F126010080B582B02D
:100BE00000AF0200FB1D1A70FB1D1A780F4B5A71E3
:100BF000FB1D1B7801225340DBB2002B02D00B4BB4
:100C000000221A710A4A094B1000190030231A00F9
:100C1000084B9847064B19001920074B9847074B7C
:100C20009847C046BD4602B080BDC046440500207E
:100C3000740500208178010049250100F12601009A
:100C400080B582B000AF78600F4B01225A707A688D
:100C50000E4B110018000E4B98470E4A0A4B10001D
:100C6000190030231A000C4B98470A4B1900192021
:100C70000A4B98470A4B984700200A4B9847C046B2
:100C8000BD4602B080BDC046440500204C05002092
:100C9000377B01007405002081780100492501009F
:100CA000F12601003D0B000080B582B000AF7860F6
:100CB000104B0122DA707A680F4B110018000F4BAD
:100CC00098470F4A0B4B1000190030231A000D4BA8
:100CD00098470B4B190019200B4B98470B4B984723
:100CE00000200B4B984700200A4B9847C046BD4652
:100CF00002B080BD4405002060050020377B010064
:100D0000740500208178010049250100F1260100C9
:100D10008D0B0000DD0B000080B58EB000AF786059
:100D2000284B9B78002B2BD0274B5B78002B06D0D1
:100D3000264A7B6811001800254B98473CE0254B5C
:100D40003C2200211800244B98471E4BDB780933C6
:100D5000DBB2204A11001800204B98472023FA18D4
:100D60001C4B1000190018231A001D4B9847202314
:100D7000FB181A1D7B6811001800154B98471BE0E3
:100D8000144B3C2200211800134B9847114B1900BB
:100D90000320124B98470823FA180E4B1000190035
:100DA00018231A000E4B98470823FB181A1D7B685E
:100DB00011001800064B98477B681800BD460EB01E
:100DC00080BDC04600060020340600203806002002
:100DD000377B010074050020B7780100552601001B
:100DE0008178010080B58AB000AF7860334B9B7882
:100DF000002B39D02723FB1800221A702DE0304B2E
:100E00003C22002118002F4B98472723FB181B7802
:100E10000933DBB22A4A110018002B4B98470C23E8
:100E2000FA18274B1000190018231A00274B98476F
:100E30000C23FB181A1D7B6811001800244B9847DF
:100E4000031E03D02723FB181B7832E02723FB184F
:100E50001A782723FB1801321A70184B9B78272227
:100E6000BA1812789A42CAD37B681800194B98476F
:100E7000031E01D0FD231CE0174B9B78002B07D0ED
:100E80007B681800154B9847031E01D0FE2310E025
:100E9000134BDB78002B0BD00F4B1B79002B07D0AB
:100EA0007B6818000F4B9847031E01D0FE2300E01B
:100EB000FF231800BD460AB080BDC04600060020D2
:100EC00074050020B77801005526010081780100E3
:100ED000777B0100050A0000440500204D0A000050
:100EE00018060020890A000080B588B000AF78603D
:100EF000334B9A78324B5B789A4201D100235AE007
:100F00007B6818002F4B98470300F02B52D92E4BCB
:100F10003C22002118002D4B9847294B9B78093320
:100F2000DBB2294A11001800294B98470823FA1808
:100F3000254B1000190018231A00264B9847082348
:100F4000FB180433142200211800204B98477A68BC
:100F50000823FB180433110018001F4B98471A4A46
:100F60000823FB181000190018231A00194B984782
:100F7000134B9B780933DBB2134A11001800174B4F
:100F80009847174B98470E4B9B780133DAB20C4BBE
:100F90009A700D4A0A4B1000190008231A000D4BD5
:100FA0009847094B190008200C4B98470C4B984761
:100FB000012300E000231800BD4608B080BDC046F4
:100FC00000060020E50D000074050020B778010040
:100FD0005526010081780100377B01004925010079
:100FE000F126010090B585B000AF78603D4B9B784D
:100FF000012B01D8002371E00E23FC187B68180038
:10100000394B984703002370364B5B780E22BA1891
:1010100012789A4261D2334BDB780E22BA181278DA
:101020009A425AD00F23FB180E22BA1812781A705F
:1010300022E02E4B3C22002118002D4B98470F2315
:10104000FB181B780A33DBB2284A11001800294B21
:1010500098470F23FB181B780933DBB2234A110092
:101060001800254B9847254B98470F23FB181A78F3
:101070000F23FB1801321A700F23FB181A78194B33
:101080009B78013B9A42D4DB164B9B78013BDAB24A
:10109000144B9A70134B1B790E22BA1812789A428D
:1010A00007D00E23FB181A780E4B9B78013B9A420F
:1010B00002DD0C4B01221A710C4A0A4B1000190078
:1010C00008231A000E4B9847084B190008200A4BBA
:1010D00098470A4B9847012300E000231800BD46BB
:1010E00005B090BD00060020E50D0000740500204D
:1010F000B77801005526010049250100F1260100BD
:101100008178010080B582B000AF0200FB1D1A702B
:10111000FB1D1B78002B03D0284B00229A7018E08F
:10112000274B3C2200211800264B9847234BDB78A5
:101130000933DBB2224A11001800234B9847204B99
:1011400019000920214B9847214B98471B4B01223E
:101150009A701A4B0022DA70184B01221A71184A41
:10116000164B1000190008231A001A4B9847134B0E
:101170000022DA70114B01221A71114B190008205C
:10118000124B9847124B98470020134B9847134B2C
:1011900000229A700A4A114B1000190018231A00F5
:1011A0000C4B9847064B19001820084B9847084BE2
:1011B0009847C046BD4602B080BDC046000600202C
:1011C00074050020B778010055260100492501006B
:1011D000F126010081780100E111000034060020B1
:1011E00080B582B000AF0200FB1D1A70FB1D1A789B
:1011F0000A4B5A700A4A094B1000190018231A00AA
:10120000084B9847064B19001820074B9847074B87
:101210009847C046BD4602B080BDC0463406002097
:10122000740500208178010049250100F1260100A4
:1012300080B582B000AF7860114B9B78002B19D03D
:10124000104B01229A707A680F4B110018000F4B57
:1012500098470F4A0B4B1000190018231A000D4B2A
:1012600098470B4B190018200B4B98470B4B98478E
:10127000012300E000231800BD4602B080BDC04637
:10128000000600203406002038060020377B0100CD
:10129000740500208178010049250100F126010034
:1012A00080B582B000AF0200FB1D1A70FB1D1A78DA
:1012B000094B5A700849094B28221800084B9847D7
:1012C000064B19001A20074B9847074B9847C04612
:1012D000BD4602B080BDC0464C060020740500200B
:1012E0008178010049250100F126010080B582B016
:1012F00000AF0200BB1D1A800A4BBA1D12885A802B
:101300000849094B28221800084B9847064B19003A
:101310001A20074B9847074B9847C046BD4602B076
:1013200080BDC0464C060020740500208178010075
:1013300049250100F126010080B582B000AF02000E
:10134000FB1D1A700A4BFA1D12781A710849094BD5
:1013500028221800084B9847064B19001A20074B03
:101360009847074B9847C046BD4602B080BDC0466F
:101370004C060020740500208178010049250100F9
:10138000F126010080B582B000AF0200FB1D1A708B
:101390000A4BFA1D12785A710849094B2822180085
:1013A000084B9847064B19001A20074B9847074BE4
:1013B0009847C046BD4602B080BDC0464C060020DE
:1013C000740500208178010049250100F126010003
:1013D000B0B582B000AF05000C0010001900FB1D75
:1013E0002A1C1A70BB1D221C1A707B1D021C1A704D
:1013F0003B1D0A1C1A70FB1D1A78144B5A72134BB2
:101400005B7A002B10D0114BBA1D12789A720F4BD9
:101410007A1D1278DA720D4B3A1D12781A730B4B43
:101420001822BA1812785A730849094B2822180052
:10143000084B9847064B19001A20074B9847074B53
:101440009847C046BD4602B0B0BDC0464C0600201D
:10145000740500208178010049250100F126010072
:1014600080B582B000AF0200FB1D1A70FB1D1A7818
:10147000094BDA770849094B28221800084B98478E
:10148000064B19001A20074B9847074B9847C04650
:10149000BD4602B080BDC0464C0600207405002049
:1014A0008178010049250100F126010080B582B054
:1014B00000AF0200FB1D1A70FB1D1A78094B9A77CA
:1014C0000849094B28221800084B9847064B190079
:1014D0001A20074B9847074B9847C046BD4602B0B5
:1014E00080BDC0464C0600207405002081780100B4
:1014F00049250100F126010080B582B000AF02004D
:10150000FB1D1A70FB1D1B78642B18D90E4BFA1D9E
:1015100012785A770C490D4B282218000C4B98472B
:101520000A4B19001A200B4B98470B4B9847064B58
:10153000DB7B002B01D0094B9847012300E00023FF
:101540001800BD4602B080BD4C0600207405002086
:101550008178010049250100F1260100B51600003F
:1015600080B582B000AF0200FB1D1A70FB1D1B7816
:10157000002B1CD0FB1D1B78632B18D80E4BFA1DBB
:1015800012781A770C490D4B282218000C4B9847FB
:101590000A4B19001A200B4B98470B4B9847064BE8
:1015A000DB7B002B01D0094B9847012300E000238F
:1015B0001800BD4602B080BD4C0600207405002016
:1015C0008178010049250100F1260100B5160000CF
:1015D00080B582B000AF0200FB1D1A70FB1D1978A8
:1015E000094B202299540849084B28221800084B1F
:1015F0009847064B19001A20064B9847064B984708
:10160000C046BD4602B080BD4C06002074050020D7
:101610008178010049250100F126010080B582B0E2
:1016200000AF0200BB1D1A800A4BBA1D12885A84F3
:101630000849094B28221800084B9847064B190007
:101640001A20074B9847074B9847C046BD4602B043
:1016500080BDC0464C060020740500208178010042
:1016600049250100F126010080B582B000AF0200DB
:10167000FB1D1A70FB1D1978094B24229954084947
:10168000084B28221800084B9847064B19001A20CF
:10169000064B9847064B9847C046BD4602B080BDF2
:1016A0004C060020740500208178010049250100C6
:1016B000F126010090B583B000AF2B4B1A692B4B7C
:1016C00010009847041C284B1A7F284B100098479D
:1016D000021C274B111C201C9847031C1A1C254B6D
:1016E000101C9847244C0022244BA04703000C00F8
:1016F00019002200BC1D224B08001100984703006E
:101700002380BB1D1B8818001E4B9847164B1A6977
:10171000164B10009847041C134B5A7F134B1000B4
:101720009847021C124B111C201C9847031C1A1CC2
:10173000104B101C9847104C0022104BA047030080
:101740000C0019002200BC1D0D4B08001100984729
:1017500003002380BB1D1B8818000B4B9847C04615
:10176000BD4603B090BDC0464C060020C95A0100DA
:1017700089580100A57601007561010000005940FB
:101780003D5401008D170000D117000080B582B0D4
:1017900000AF7860094B7A689A610849084B2822A3
:1017A0001800084B9847064B19001A20064B98471B
:1017B000064B9847C046BD4602B080BD4C0600208F
:1017C000740500208178010049250100F1260100FF
:1017D00080B582B000AF7860094B7A685A610849D9
:1017E000084B28221800084B9847064B19001A206E
:1017F000064B9847064B9847C046BD4602B080BD91
:101800004C06002074050020817801004925010064
:10181000F126010080B582B000AF7860094B7A688C
:101820001A610849084B28221800084B9847064BB4
:1018300019001A20064B9847064B9847C046BD46EC
:1018400002B080BD4C0600207405002081780100A4
:1018500049250100F126010080B582B000AF0200E9
:10186000FB1D1A70FB1D1A78094BDA730849094BE6
:1018700028221800084B9847064B19001A20074BDE
:101880009847074B9847C046BD4602B080BDC0464A
:101890004C060020740500208178010049250100D4
:1018A000F126010080B582B000AF0200BB1D1A8096
:1018B0000A4BBA1D1288DA800849094B2822180001
:1018C000084B9847064B19001A20074B9847074BBF
:1018D0009847C046BD4602B080BDC0464C060020B9
:1018E000740500208178010049250100F1260100DE
:1018F00080B582B000AF0200FB1D1A700A4BFA1DC2
:1019000012781A720849094B28221800084B984788
:10191000064B19001A20074B9847074B9847C046BB
:10192000BD4602B080BDC0464C06002074050020B4
:101930008178010049250100F126010080B58AB0B7
:1019400000AF78602723FB1800221A702BE01B4B96
:101950003C22002118001A4B98472723FB181B78BC
:101960000333DBB2154A11001800164B98470C23BD
:10197000FA18124B1000190018231A00124B98473E
:101980000C23FB181A1D7B68110018000F4B984799
:10199000031E01D001230CE02723FB181A7827230C
:1019A000FB1801321A702723FB181B78042BCED9A1
:1019B00000231800BD460AB080BDC0467405002053
:1019C000B77801005526010081780100777B01007E
:1019D00080B582B000AF0200FB1D1A700B4BFA1DE0
:1019E0001278DA700A4A094B1000190008231A000D
:1019F000084B9847064B19000820074B9847074BA0
:101A00009847C046BD4602B080BDC04600060020D3
:101A1000740500208178010049250100F1260100AC
:101A200080B582B000AF0200FB1D1A700B4BFA1D8F
:101A300012781A710A4A094B1000190008231A007B
:101A4000084B9847064B19000820074B9847074B4F
:101A50009847C046BD4602B080BDC0460006002083
:101A6000740500208178010049250100F12601005C
:101A700090B585B000AF78600E23FC187B68180025
:101A8000214B9847030023700F23FB18FF221A7085
:101A90001E4B5B780E22BA1812789A4209D30F2394
:101AA000FB181A4A92781A707B681800184B9847EE
:101AB0000CE0164B5B780E22BA1812789A4205D2C7
:101AC0000F23FB180E22BA1812781A700F4B5B788E
:101AD0000F22BA1812789A4210D20C4B9B78012B25
:101AE00004D90A4BDB7818000A4B98470F23FB18E0
:101AF0001B781800084B9847012300E000231800CA
:101B0000BD4605B090BDC046E50D000000060020B2
:101B1000E90E0000211A0000D119000090B585B02F
:101B200000AF7860214B9B78012B01D8002339E06E
:101B30000E23FC187B6818001D4B98470300237088
:101B40000F23FB18FF221A70184B5B780E22BA186D
:101B500012789A4209D30F23FB18144A92781A700C
:101B60007B681800134B98470CE0104B5B780E22F3
:101B7000BA1812789A4205D20F23FB180E22BA180F
:101B800012781A70094B5B780F22BA1812789A42B1
:101B900007D20F23FB181B781800074B9847012327
:101BA00000E000231800BD4605B090BD00060020EF
:101BB000E50D0000E90E0000211A000080B582B09A
:101BC00000AF0200FB1D1A70064BFA1D12781100BF
:101BD0001F220A40012191400A001A60C046BD46FA
:101BE00002B080BD00E100E080B582B000AF02002D
:101BF000FB1D1A70074AFB1D1B7819001F230B40A1
:101C0000012199400B0019008023D150C046BD46E8
:101C100002B080BD00E100E080B584B000AF0200FA
:101C2000FB1D1A700F23FB18FA1D1278D2091A70C7
:101C30000E23FB18FA1D127852091A700D4BBB6067
:101C40000F23FB181B78002B0FD10F23FB181B78D9
:101C50009B0010229446BC446344083B1A680E2340
:101C6000FB181B78DB01D31800E000231800BD46E9
:101C700004B080BD0044004180B582B000AF0200D6
:101C8000FB1D1A70FB1D1B781800034B98470300BF
:101C90001800BD4602B080BD191C000080B582B09E
:101CA00000AF78607B6800221A707B6801225A704E
:101CB0007B6800229A70C046BD4602B080BD00001D
:101CC00080B584B000AF0200FB1D1A70BB1D0A1C5A
:101CD0001A70FB1D1B7818000D4B98470300FB6022
:101CE000FB1D1B781F22134001229A401300BB608A
:101CF000BB1D1B78002B03D0FB68BA689A6102E019
:101D0000FB68BA685A61C046BD4604B080BDC04693
:101D1000791C000080B584B000AF78607B681B68D8
:101D2000FB60FB68DB695A1E9341DBB21800BD46BD
:101D300004B080BD80B582B000AF7860C0467B68DB
:101D40001800044B9847031EF9D1C046BD4602B0A7
:101D500080BDC046151D000080B582B000AF786020
:101D60007B688022D2051A607B6800225A607B68FB
:101D7000FF221A817B6800229A727B680022DA7245
:101D80007B68962292011A627B6824220121995471
:101D90007B682522012199547B68262200219954D1
:101DA0007B682722002199547B6800229A627B6815
:101DB00088225203DA607B682C22002199547B68C8
:101DC0002D22002199547B6800221A637B6800222F
:101DD0005A637B6800229A637B680022DA637B681F
:101DE00000225A617B6800221A827B680022DA7620
:101DF0007B6800221A767B6800221A777B680022B3
:101E00005A767B6813229A767B6800225A77C046FE
:101E1000BD4602B080BD000080B584B000AF7860E0
:101E20007B681B68FB607B681B681800094B984740
:101E300003001800084B98477B681800074B984729
:101E4000FB681B6802221A43FB681A60C046BD4645
:101E500004B080BDB50D0100BD1B0000351D0000A4
:101E600080B584B000AF78607B681B68FB607B68DE
:101E70001B6818000A4B984703001800094B984745
:101E80007B681800084B9847FB681B680222934345
:101E90001A00FB681A60C046BD4604B080BDC0464B
:101EA000B50D0100E91B0000351D000080B584B0B0
:101EB00000AF78607B681B68FB607B681800064B8E
:101EC00098477B681800054B9847FB6801221A6009
:101ED000C046BD4604B080BD611E0000351D000037
:101EE00080B582B000AF7860C046BD4602B080BD0C
:101EF00080B582B000AF094B1B68F91C00221800A6
:101F0000074B984703007B607B68002B00D0F2E70B
:101F1000C046C046BD4602B080BDC0461C0200207F
:101F200051E1000090B585B000AF0200FB1D1A70B2
:101F3000184BFB60FB681B7EDBB21A0004231340C6
:101F400023D0FB685B8B9BB2DAB20B23FB18062114
:101F50000A401A700B23FB181B78002B06D00B23AA
:101F6000FB181B789AB2FB685A830EE0FB681B8D46
:101F70009BB2DAB20A23FB181A70074B18680A23BF
:101F8000F91800230022054CA047C046BD4605B005
:101F900090BDC046001400421C02002031E0000049
:101FA00080B500AFC046BD4680BD000090B597B07B
:101FB00002AF4C23FB1818004D4B98474C23FB18DD
:101FC00001221A704C23FB1819001420494B984722
:101FD00000211420484B98474023FB181800474B1A
:101FE00098474023FB1831221A604023FB18002237
:101FF0005A604023FB1801221A724023FB18022268
:10200000DA724023FB18190001203D4B984700214C
:1020100001203C4B98473C4B0022012118003B4BD0
:10202000984700220121F020394B98470200394B94
:102030001A60394939483A4B009300230022394C41
:10204000A0470200384B1A60032200210120304BC8
:1020500098470200354B1A60344B1B68002B06D0A2
:10206000324B1868002300220021314CA0473B006E
:102070001800304B98473B00E12252021A623B00A5
:1020800080225203DA603B002B4A1A633B002B4A42
:102090005A633B00012252429A633B0001225242A2
:1020A000DA633B002C220121995403E0244B1800F1
:1020B000244B98473A002449214B1800234B98475A
:1020C000031EF3D11E4B1800214B98471E4B1800DE
:1020D000204B984703001A001F4B190010001F4B9C
:1020E0009847194B04229A75C046BD4615B090BD5D
:1020F0009D1C0000C91A0100C11C000015CC000085
:1021000049CC0000B90F0100A11F0000550F0100CC
:1021100095DD00001C02002088130000548501009A
:10212000E11E000061F900002002002024020020CE
:1021300051DE0000591D00000200160002001700C9
:102140007C060020AD1E000000140042AD05010019
:10215000191E000029D80000251F0000490D0100AC
:1021600090B58BB002AFF860B9607A601A00FB1CC2
:102170001A70644B1B6801211800634B9847031EBB
:1021800001D10223BAE0614B98471F23FB180022BC
:102190001A701E23FB1800221A701323FB1800224A
:1021A0001A700121F0205A4B98470300BB61BB69AC
:1021B000002B01D10023A1E0BB69F022002118000F
:1021C000544B9847FB681800534B984703009AB24A
:1021D000F968524B1800524B9847524B18687A686E
:1021E00001235B420093002304214F4CA0474D4B39
:1021F0001B6818004D4B9847031E3ED01E23FB184A
:102200001B78EF2B1CD84A4B1B681322B9180022ED
:102210001800484B984703007B617B69002B0FD067
:102220001E23FB181B78BA69D3181322BA18127828
:102230001A701E23FB181A781E23FB1801321A701D
:10224000BB68002B0CD0BA68BB69110018003A4B70
:102250009847031E04D01F23FB1800221A7024E0A5
:10226000364ABB6911001800334B9847031EBED095
:102270001F23FB180B221A7017E02A4B1868012342
:102280005B420093002300220321274CA0471E231A
:10229000FB181B78002B04D11F23FB1807221A7090
:1022A00003E01F23FB1808221A70FB1C1B78002B6D
:1022B00016D03B6B002B13D0FA1C1E23FB18127890
:1022C0001B789A420CD91F23FB181B78002B07D1CF
:1022D0001E23FB181A78B9693B6B1800184B9847F6
:1022E000084B1868002300220021164CA047BB6948
:1022F0001800154B98471F23FB181B781800BD4684
:1023000009B090BD24020020F1E20000F11E00009F
:10231000A9770100B7780100477B01007C06002007
:10232000850801002002002005FA000081FF00005E
:102330001C02002051E10000777B01006085010054
:102340008178010051DE00004978010090B583B02A
:1023500002AF064A06490748002300930023064CB3
:10236000A04703001800BD4601B090BD88130000CF
:10237000688501006C85010061210000B0B584B062
:1023800002AFFC1D124A1349134800230093002397
:10239000124DA84703002370FB1D1B78002B01D1B1
:1023A000092311E0BC1D0A4A0D490B480023009384
:1023B00000230A4DA84703002370BB1D1B78002B88
:1023C00001D1092300E00A231800BD4602B0B0BDC8
:1023D000881300007C8501008885010061210000D0
:1023E0009485010090B589B002AF3B1D18001423FD
:1023F0001A0000210A4B9847E1235A0209493B1D64
:102400001800094B9847094A0949381D00230093D1
:102410000023084CA04703001800BD4607B090BD3C
:10242000B7780100A0850100BD7A01008813000083
:10243000688501006121000090B583B002AF064AB3
:1024400006490748002300930023064CA0470300D9
:102450001800BD4601B090BD881300001086010031
:10246000208601006121000090B583B002AF064ACA
:1024700006490748002300930023064CA0470300A9
:102480001800BD4601B090BDA8610000688501003C
:102490002C8601006121000090B583B002AF064A8E
:1024A00006490748002300930023064CA047030079
:1024B0001800BD4601B090BD88130000688501007A
:1024C000408601006121000090B583B002AF064A4A
:1024D00006490748002300930023064CA047030049
:1024E0001800BD4601B090BD983A00006885010013
:1024F000488601006121000090B583B002AF064A12
:1025000006490748002300930023064CA047030018
:102510001800BD4601B090BD881300006885010019
:10252000548601006121000090B583B002AF064AD5
:1025300006490748002300930023064CA0470300E8
:102540001800BD4601B090BD8813000068850100E9
:10255000888601006121000090B583B002AF064A71
:1025600006490748002300930023064CA0470300B8
:102570001800BD4601B090BD983A00006885010082
:10258000948601006121000090B583B002AF064A35
:1025900006490748002300930023064CA047030088
:1025A0001800BD4601B090BD881300006885010089
:1025B0009C8601006121000090B583B002AF064AFD
:1025C00006490748002300930023064CA047030058
:1025D0001800BD4601B090BD881300006885010059
:1025E000A48601006121000090B583B002AF064AC5
:1025F00006490748002300930023064CA047030028
:102600001800BD4601B090BD581B00006885010050
:10261000B086010061210000B0B588B002AF16237A
:10262000FB1864221A701623FB181B78012118006E
:10263000604B984703003B613B69002B05D13B6928
:1026400018005D4B98470023AFE01623FB181A785B
:102650003B6900211800594B98470F23FC1816239B
:10266000FB181A78564D574957483B690093130099
:102670002A00564DA847030023700F23FB181B7830
:10268000002B00D086E0524A3B6911001800514BE4
:102690009847031E00D078E04F4A3B6911001800AC
:1026A0004E4B98470300BB604B4B190000204B4B2F
:1026B00098470300BB604A4ABB6811001800474BAB
:1026C00098470300BB60BB681800464B9847BB683F
:1026D0001800454B98470200FB1D1A70FB1D1B7824
:1026E000002B07D0FB1D1B78012B03D0FB1D1B7893
:1026F000632B04D11723FB1800221A704EE0FB1D38
:102700001B78012B08D9FB1D1B78072B04D8172336
:10271000FB1801221A7041E0FB1D1B78072B08D91A
:10272000FB1D1B780D2B04D81723FB1802221A70EF
:1027300034E0FB1D1B780D2B08D9FB1D1B78132BD8
:1027400004D81723FB1803221A7027E0FB1D1B78FF
:10275000132B08D9FB1D1B78192B04D81723FB1842
:1027600004221A701AE0FB1D1B78192B08D9FB1DD7
:102770001B781F2B04D81723FB1805221A700DE0B5
:102780001723FB1800221A7008E01723FB180022F9
:102790001A7003E01723FB1800221A703B69180017
:1027A000054B98471723FB181B781800BD4606B049
:1027B000B0BDC046A977010049780100B778010093
:1027C0008813000068850100DC860100612100009B
:1027D000E4860100777B010080860100A97B01006F
:1027E00084860100ED2700009D77010080B584B04C
:1027F00000AF78607B68FB607B68BB600CE0BB6807
:102800005A1CBA601A78FB681A70FB681B78202B78
:1028100002D0FB680133FB60BB681B78002BEED154
:10282000FB6800221A70C046BD4604B080BD00009F
:1028300090B583B002AF064A0649074800230093CB
:102840000023064CA04703001800BD4601B090BD10
:102850008813000068850100E886010061210000FE
:10286000B0B588B002AF786039603B6818003B4B68
:1028700098470300FA2B01D903236BE07B6818000B
:10288000364B98470300052B01D8042362E0172339
:10289000FB18FA221A701723FB181B780121180065
:1028A0002F4B984703003B613B69002B01D100236C
:1028B00050E01723FB181A783B6900211800294BB8
:1028C00098471723FB1819787B68274A3869274CE3
:1028D000A047274A27493869002300930023264C44
:1028E000A047031E31D1FA235B001800234B984701
:1028F0001723FB181A783B6900211800194B9847D9
:102900001723FB1819783B681D4A3869174CA047F4
:102910000F23FC18164A1B49386900230093002333
:10292000154DA847030023700F23FB181B78002BBD
:1029300005D13B691800144B984700230AE03B6916
:102940001800114B9847062304E03B6918000E4B12
:10295000984706231800BD4606B0B0BD477B01006E
:10296000A9770100B778010010870100597A0100AA
:1029700060EA00002087010061210000F9EB0000FF
:1029800024870100688501004978010090B58FB067
:1029900002AFB96011007B600F23FB18021C1A7094
:1029A0000E23FB180A1C1A702F23FB18E6221A703C
:1029B0002F23FB181B78012118006E4B984703004A
:1029C000BB62BB6A002B05D1BB6A18006A4B9847F3
:1029D0000023CAE02F23FB181A78BB6A00211800D5
:1029E000664B98471023FB1818000A231A00002191
:1029F000624B98472F23FB1819780F23FB181B787D
:102A00005F4A102038185F4CA0472F23FB181A7814
:102A10005D4C5E491023F818BB6A00931300220036
:102A20005B4CA047031E00D094E05A4ABB6A1100D9
:102A30001800594B984703007B627B6A002B00D13A
:102A400082E0BB6A2C211800544B984703003B627C
:102A50003B6A0233FB61FB69222118004F4B984708
:102A600003003B623B6A002B2AD03B6A00221A70AB
:102A7000FB6918004A4B984702001B23FB181A7089
:102A80001B23FA180E23FB1812781B789A4206D2E1
:102A9000FA69BB6811001800424B984710E00E23FA
:102AA000FB181B78013B1A00F969BB6818003E4B04
:102AB00098470E23FB181B78BA68D31800221A70A7
:102AC0003B6A01330A211800344B984703003B62EC
:102AD0003B6A002B44D03B6A01333B623B6A0D21C9
:102AE00018002E4B98470300FB61FB69002B02D0B6
:102AF000FB6900221A703B6A1800294B98470200B4
:102B00001B23FB181A701B23FB184022B9181A78D4
:102B10000B789A4206D23A6A7B6811001800214B62
:102B200098471DE04023FB181B78013B1A00396AC7
:102B30007B6818001C4B98474023FB181B787A6869
:102B4000D31800221A700BE0BB6A18000A4B984792
:102B50000C230AE0BB6A1800074B98470C2304E0DB
:102B6000BB6A1800044B984700231800BD460DB0FF
:102B700090BDC046A977010049780100B7780100EF
:102B800070870100597A01008813000068850100F0
:102B9000612100007C870100777B01001B7B010025
:102BA000477B0100377B010081780100B0B588B018
:102BB00002AF78601723FB181E221A701723FB1828
:102BC0001B7801211800184B984703003B613B69B3
:102BD000002B01D1002323E01723FB181A783B694F
:102BE00000211800114B98471723FB1819787B68B0
:102BF0000F4A38690F4CA0470F23FC18FA23DA005C
:102C00000D4938690023009300230C4DA8470300A9
:102C100023703B6918000A4B98470F23FB181B7859
:102C20001800BD4606B0B0BDA9770100B778010015
:102C300084870100597A0100688501006121000044
:102C40004978010090B583B002AF064A06490748AB
:102C5000002300930023064CA04703001800BD4644
:102C600001B090BD88130000688501008C870100C9
:102C70006121000090B583B002AF064A06490748BB
:102C8000002300930023064CA04703001800BD4614
:102C900001B090BD102700006885010094870100F5
:102CA0006121000090B583B002AF064A064907488B
:102CB000002300930023064CA04703001800BD46E4
:102CC00001B090BD8813000068850100AC87010049
:102CD00061210000B0B588B002AF78601723FB18FF
:102CE0001E221A701723FB181B7801211800184B9D
:102CF000984703003B613B69002B01D1002322E090
:102D00001723FB181A783B6900211800114B9847CC
:102D10001723FB1819787B680F4A38690F4CA047B6
:102D20000F23FC180E4A0F49386900230093002333
:102D30000D4DA847030023703B6918000B4B9847C3
:102D40000F23FB181B781800BD4606B0B0BDC04667
:102D5000A9770100B7780100B8870100597A01000E
:102D60008813000068850100612100004978010096
:102D700090B583B002AF064A064907480023009386
:102D80000023064CA04703001800BD4601B090BDCB
:102D90008813000068850100C887010061210000D8
:102DA00090B583B002AF064A064907480023009356
:102DB0000023064CA04703001800BD4601B090BD9B
:102DC0005046000068850100D487010061210000A1
:102DD00090B583B002AFFA23DA0006490648002313
:102DE00000930023054CA04703001800BD4601B026
:102DF00090BDC04668850100048801006121000083
:102E000090B587B002AF78600A00FB1C1A700F23E0
:102E1000FB1800221A70FB1C1B78002B03D00F2319
:102E2000FB1801221A700E23FB1832221A700E238F
:102E3000FB181B7801211800174B98470300BB6053
:102E4000BB68002B01D1002322E00E23FB181A7867
:102E5000BB6800211800114B98470E23FB18197806
:102E60000F23FB181B787C680D4AB8680093230079
:102E70000C4CA047FA23DA000B49B86800230093F2
:102E800000230A4CA047BB681800094B9847002351
:102E90001800BD4605B090BDA9770100B7780100C4
:102EA00010880100597A0100688501006121000045
:102EB00049780100B0B586B002AF0F23FB18462257
:102EC0001A700F23FB181B7801211800574B9847E5
:102ED0000300BB60BB68002B05D1BB681800544BD6
:102EE000984700239DE00F23FB181A78BB68002148
:102EF0001800504B9847FC1D0F23FB181A784E4DB5
:102F00004E494F48BB68009313002A004D4DA84717
:102F100003002370FB1D1B78002B6AD14A4ABB6853
:102F200011001800494B984703003B60464B1900BD
:102F30000020464B984703003B60454A3B68110020
:102F40001800424B984703003B603B681800414B18
:102F500098470300DAB2404B1A703D4B190000202D
:102F60003A4B984703003B603B681800394B984741
:102F70000300DAB2384B5A70384B19000020334B3B
:102F8000984703003B603B681800324B98470300AA
:102F9000DAB2314B9A70324B190000202B4B984714
:102FA00003003B603B6818002A4B98470300DAB2E5
:102FB000294BDA702A4B19000020244B9847030054
:102FC0003B603B681800234B98470300DAB2224B62
:102FD0001A71244B190000201C4B984703003B60DA
:102FE0003B6818001B4B98470300DAB21A4B5A7122
:102FF00011E0194B00221A70174B00225A70164B21
:1030000000229A70144B0022DA70134B00221A71BE
:10301000114B00225A71BB681800054B9847FB1DE5
:103020001B781800BD4604B0B0BDC046A9770100AA
:1030300049780100B7780100881300006885010015
:10304000348801006121000040880100A97B010053
:10305000448801009D7701007406002084860100E9
:10306000808601004888010080B500AF314B984749
:10307000031E00D058E0304B9847031E00D051E0AB
:10308000FA23DB0018002D4B98472D4B9847031E61
:1030900046D12C4B9847031E48D12B4B9847031E13
:1030A0003CD1FA23DB001800244B9847274B984764
:1030B000031E31D1264B9847031E2BD1254B984731
:1030C000031E25D1244B9847031E1FD1234B98473D
:1030D000031E19D1224B9847031E13D1214B984749
:1030E000031E0DD1204B9847031E07D11F4B984755
:1030F000031E01D100231AE0102318E0102316E06C
:10310000102314E0102312E0102310E010230EE02F
:1031100010230CE010230AE0102308E0102306E03F
:10312000102304E0102302E0102300E01023180015
:10313000BD4680BD4D23000059250000F9EB00007D
:103140003924000089250000E5230000C92400007F
:10315000F924000029250000B9250000E925000018
:1031600031280000752C0000A52C000099240000D7
:1031700080B584B000AF78600A00FB1C1A700F2382
:10318000FB1800221A7026E01B4B1868FA235A001D
:103190000E23FB181900194B9847031E01D1002379
:1031A00025E00E23FB181B780A2B14D00E23FB18E6
:1031B0001B780D2B14D07B685A1C7A600E22BA182B
:1031C00012781A70FB1C1A78FB1C013A1A700F2334
:1031D000FB1801221A70FB1C1B78012BD4D800E0CD
:1031E000C0467B6800221A700F23FB181B7818005A
:1031F000BD4604B080BDC0461C02002051E1000065
:1032000080B584B000AF78600F23FB1800221A70DD
:10321000174A7B6811001800164B9847031E1BD0F5
:10322000154A7B6811001800144B98470300BB60D7
:10323000114B19000020114B98470300BB60BB687D
:1032400018000F4B9847BB6818000E4B98470200B8
:103250000F23FB181A7003E00F23FB1800221A70CB
:103260000F23FB181B781800BD4604B080BDC04674
:103270004C880100777B010084860100A97B010056
:10328000ED2700009D77010080B582B000AF786027
:10329000074A7B6811001800064B9847031E01D0AF
:1032A000012300E000231800BD4602B080BDC046E7
:1032B00054880100777B010080B584B000AF78604E
:1032C00039601E4A7B68110018001D4B9847031E89
:1032D0002ED01C4A7B68110018001B4B9847030036
:1032E000FB601A4B19000020174B98470300FB6046
:1032F000174AFB6811001800134B98470300FB6046
:10330000134B19000020104B98470300FB60FB682B
:103310002B2118000F4B9847031E01D1002308E012
:10332000FA683B68110018000B4B9847012300E036
:1033300000231800BD4604B080BDC0465C88010073
:10334000777B010080860100A97B01008486010053
:10335000408801001B7B0100377B010080B582B0F3
:1033600000AF7860164A7B6811001800154B98472B
:10337000031E01D001231EE0134A7B6811001800D0
:10338000104B9847031E01D0012314E00F4A7B68BD
:10339000110018000B4B9847031E01D001230AE0CF
:1033A0000B4A7B6811001800064B9847031E01D09A
:1033B000012300E000231800BD4602B080BDC046D6
:1033C00064880100777B0100708801007888010023
:1033D0006085010080B582B000AF7860074A7B68E5
:1033E00011001800064B9847031E01D0012300E08E
:1033F00000231800BD4602B080BDC046848801008D
:10340000777B010080B582B000AF7860074A7B68A7
:1034100011001800064B9847031E01D0012300E05D
:1034200000231800BD4602B080BDC0468C88010054
:10343000777B010080B584B000AF0200FB1D1A70DD
:103440000F23FB18FA1D1278D2091A700E23FB18ED
:10345000FA1D127852091A700D4BBB600F23FB182E
:103460001B78002B0FD10F23FB181B789B00102219
:103470009446BC446344083B1A680E23FB181B782F
:10348000DB01D31800E000231800BD4604B080BD66
:103490000044004180B582B000AF0200FB1D1A70ED
:1034A000FB1D1B781800034B984703001800BD460E
:1034B00002B080BD3534000080B582B000AF7860C6
:1034C0007B6800221A707B6801225A707B68002298
:1034D0009A70C046BD4602B080BD000080B584B081
:1034E00000AF0200FB1D1A70BB1D0A1C1A70FB1DE9
:1034F0001B7818000D4B98470300FB60FB1D1B78E1
:103500001F22134001229A401300BB60BB1D1B7891
:10351000002B03D0FB68BA689A6102E0FB68BA68C6
:103520005A61C046BD4604B080BDC0469534000017
:10353000F0B58BB000AF0B2318229446BC44634413
:1035400010221A700A2318229446BC4463440222B3
:103550001A70904B9847904B3F221A708F4B3E2227
:103560001A708F4B21221A708D4B20225A708C4B6F
:1035700023229A708A4B2222DA708A4B00221A7018
:103580000A2318229446BC4463441B78012B06D9B5
:10359000844B1B7808221343DAB2824B1A70824B99
:1035A0000A2218218C46BC44624412781A700B23FC
:1035B00018229446BC4463441A780B2318218C4685
:1035C000BC4463441B78403340210020774CA04723
:1035D0001C23FB181800764B98471C23FB1801226C
:1035E0001A706D4B1B781C22BA1811001800714B11
:1035F00098476A4B1B781C22BA18110018006D4BB3
:10360000984700237B620CE0654A7B6AD3181B78DD
:103610001C22BA1811001800664B98477B6A0133C8
:103620007B627B6A032BEFDD0020634B984703002E
:103630003B6100237B61614C614A002338697969F1
:10364000A04703000C00190022005E4B0024C9189B
:103650006241080011005C4C5C4A0023A047030053
:103660000C0018005A4B98474B4B1B780021180050
:10367000584B9847494B1B7800211800554B9847E9
:103680000320554B984700204B4B98470300BB60E5
:103690000023FB60494C514A0023B868F968A047F1
:1036A00003000C0019002200464B0024C918624197
:1036B00008001100444C454A0023A04703000C00B9
:1036C0001800434B98470320434B984700203A4B40
:1036D000984703003B6000237B60384C3F4A00233F
:1036E00038687968A04703000C0019002200354BA8
:1036F0000024C918624108001100334C334A0023EA
:10370000A04703000C001800314B98470320324BB0
:1037100098470020284B984703001D0000231E00F7
:10372000264C9622002328003100A04703000C00FD
:1037300019002200234B0024C9186241080011001F
:10374000214C224A0023A04703000C001800204B04
:1037500098470220204B9847124B1B782022134396
:10376000DBB218001E4B98471E4B04221A701E4BEA
:1037700098471E4B98471E4B02221A701C4B1B7811
:1037800004221343DBB21800154B9847C046BD46D0
:103790000BB0F0BD75140100BF060020BE0600206E
:1037A000B8060020BD060020B6060020A1380000A3
:1037B000B9340000C91A010035340100E953010091
:1037C00050C30000BFCF6A00A9530100C0CF6A00F8
:1037D00001000020DD340000DD38000094110000FD
:1037E000213A0000B5060020093C0000C13A000063
:1037F000BC06002080B582B000AF3B1D1800084B0E
:1038000098473B1D01221A703B1D00225A703B1D38
:1038100019002420034B9847C046BD4602B080BD26
:10382000B9340000C91A010080B500AF012124207D
:10383000024B9847C046BD4680BDC046DD340000FF
:1038400080B582B000AF00212420114B984700239F
:103850007B600AE00F4A7B68D3181B7800211800B0
:103860000B4B98477B6801337B607B68032BF1DD52
:10387000094B1B7800211800054B9847074B1B7814
:1038800000211800024B9847C046BD4602B080BDDB
:10389000DD340000B8060020BE060020BF06002070
:1038A00080B584B000AFF860B9607A603B60FB68B7
:1038B000DAB2094B1A70BB68DAB2074B5A707B68F0
:1038C000DAB2054B9A703B68DAB2034BDA70C04645
:1038D000BD4604B080BDC046B006002080B584B0AF
:1038E00000AF0200FB1D1A700023FB6013E00E4ABC
:1038F000FB68D3181878FB1D1A78FB681A4113006F
:10390000012213405A1E9341DBB21900074B98471E
:10391000FB680133FB60FB68032BE8DD044B984731
:10392000C046BD4604B080BDB8060020DD340000AE
:1039300035390000F0B585B000AF314B1B78002160
:103940001800304B984700202F4B98470300BB606E
:103950000023FB602D4B0024B868F968C018614152
:103960002B4C2C4A0023A04703000C0018002A4BC4
:103970009847234B1B7801211800224B98470020C1
:10398000214B984703001D0000231E001F4B0024FD
:1039900028003100C01861411D4C1E4A0023A04779
:1039A00003000C0018001C4B9847154B1B78002196
:1039B0001800144B98470020134B984703003B60B6
:1039C00000237B60154C6422002338687968A04787
:1039D00003000C00190022000C4B0024C91862419E
:1039E000080011000A4C0B4A0023A04703000C00FA
:1039F0001800094B9847C046BD4605B0F0BDC0460B
:103A0000BE060020DD34000035340100BFCF6A005F
:103A1000A9530100C0CF6A0001000020E953010052
:103A200080B582B000AF0200FB1D1A70FB1D1B7831
:103A300000211800024B9847C046BD4602B080BD29
:103A40006D3A000080B582B000AF0200FB1D1A7015
:103A5000FB1D1B7801211800034B98470123180018
:103A6000BD4602B080BDC0466D3A000080B582B050
:103A700000AF0200FB1D1A70BB1D0A1C1A700D4B13
:103A80001A78BB1D1B78591E8B41DBB21900100040
:103A9000094B9847FB1D1B781B09DBB21800074B2D
:103AA0009847FB1D1B781800044B9847C046BD463D
:103AB00002B080BDBF060020DD340000DD3800000C
:103AC000F8B500AF0120134B98470020124B9847E0
:103AD00003001D0000231E00104CFA22D200002318
:103AE00028003100A04703000C00190022000C4BF5
:103AF0000024C9186241080011000A4C0A4A002338
:103B0000A04703000C001800084B9847C046BD466C
:103B1000F8BDC046213A000035340100E9530100E8
:103B2000BFCF6A00A9530100C0CF6A000100002086
:103B300080B584B000AF02003960FB1D1A70FB1D18
:103B4000FA1D127807210A401A70FB1D1B78DB0052
:103B50005BB2402213435BB2DBB218000A4B9847BA
:103B60000023FB6009E0FB683A68D3181B78180053
:103B7000064B9847FB680133FB60FB68072BF2DDBF
:103B8000C046BD4604B080BD213A0000453A000061
:103B900080B584B000AF0200FB1D1A70BB1D0A1C6B
:103BA0001A700423FB60BB1D1A78FB689A4204D389
:103BB000FB68DAB2BB1D013A1A70104B1B78BA1DB4
:103BC00012789A4204D30D4B1A78BB1D013A1A7031
:103BD000BB1D1B780A4AD25CFB1D1B78D318DBB2D5
:103BE0005BB28022524213435BB2DBB21800054B3A
:103BF0009847C046BD4604B080BDC046B60600200A
:103C0000B0060020213A000080B500AF084B1B78B9
:103C100004221343DAB2064B1A70054B1B780822B4
:103C20001343DBB21800034B9847C046BD4680BD26
:103C3000B5060020213A000080B584B000AF78605E
:103C40007B6818000F4B98470300FB600023BB60A4
:103C50000BE07B685A1C7A601B7818000A4B984767
:103C6000031E08D0BB680133BB60FB685A1EFA60B4
:103C7000002BEED100E0C046BB681800BD4604B082
:103C800080BDC046477B0100453A00000FB480B5B7
:103C900084B000AFBB691800114B98470300033391
:103CA000FB60FB6818000F4B98470300BB601C23A8
:103CB000FB187B607A68B969BB6818000A4B9847A3
:103CC000BB681800094B9847BB681800084B984719
:103CD000C046BD4604B080BC08BC04B01847C0460E
:103CE000477B010035780100357E0100393C00003A
:103CF0004978010080B584B000AF78607B68002B04
:103D000028D07B68FB6020E00B23FB18FA68127850
:103D10001A70124B984702000B23FB181B780133D3
:103D2000D3181B781A0003231340022B04D10B2352
:103D3000FB181B78203B02E00B23FB181B78DAB240
:103D4000FB681A70FB680133FB60FB681B78002B73
:103D5000DAD100E0C046BD4604B080BD197801004C
:103D600080B584B000AF786039603B681800104BB4
:103D700098470300FB607B6818000D4B98470300D1
:103D8000BB60BA68FB689A4209D3FA6879683B68F5
:103D90001800084B9847031E01D1012300E00023BF
:103DA0001A1C01231340DBB21800BD4604B080BDCD
:103DB000477B0100557B010080B500AFBFF34F8FFB
:103DC000024B034ADA60BFF34F8FFEE700ED00E0DD
:103DD0000400FA0580B584B000AF0200FB1D1A7024
:103DE0000F23FB18FA1D1278D2091A700E23FB1844
:103DF000FA1D127852091A700D4BBB600F23FB1885
:103E00001B78002B0FD10F23FB181B789B0010226F
:103E10009446BC446344083B1A680E23FB181B7885
:103E2000DB01D31800E000231800BD4604B080BDBC
:103E30000044004180B500AF024B9847C046BD46E4
:103E400080BDC046B93D000080B582B000AF020021
:103E5000FB1D1A70FB1D1B781800034B98470300CD
:103E60001800BD4602B080BDD53D000080B582B0CF
:103E700000AF78607B6800221A707B6801225A705C
:103E80007B6800229A70C046BD4602B080BD00002B
:103E900080B584B000AF0200FB1D1A70FB1D1B78BB
:103EA00018000B4B98470300FB60FB1D1B781F227B
:103EB000134001229A401300BB60FB681B6ABA687A
:103EC00013405A1E9341DBB21800BD4604B080BDBA
:103ED000493E000080B500AF0B4B1B7801225340D8
:103EE000DBB2002B0CD0094B98470200084B1B6833
:103EF000D21AFA239B009A4202D9034B01221A706C
:103F0000C046BD4680BDC046360700205DEF0000BC
:103F1000B407002080B582B000AFFB1D01221A70EB
:103F20001F4B1B78002B03D0FB1D1E4A127A1A7000
:103F30001D4B1B78002B2FD01C4B1B78012B0BD05B
:103F40001B4B984702001B4B1B68D21AFB1D1B78AA
:103F500019494B439A421FD9184BDB78002B1BD0D1
:103F60000F4B1B78002B07D0154B1A78154B1A7086
:103F70000B4B00221A700DE0134B1B78002B09D05D
:103F80000F4B1A78114B1A70114B01221A700E4BFD
:103F900000221A700F4B9847C046BD4602B080BD44
:103FA000860700204C06002036070020C5060020AA
:103FB0005DEF00009807002060EA0000180600206E
:103FC00038070020270700205207002001070020A3
:103FD00007070020D93F000080B500AF074B5B7991
:103FE0004E2B03D1064B1B78002B04D0054B01222E
:103FF0001A70054B9847C046BD4680BD4C06002050
:1040000007070020080700204142000080B500AFEC
:104010006D4B00221A706D4B00221A706C4B984742
:104020000022002100206B4B9847FA239B001800C8
:10403000694B9847694B00221A70694B5B78002BDB
:1040400002D0684B00221A70654BDB78012B1DD122
:10405000654B1B78DBB24E2B04D0634B1B78DBB275
:10406000522B0DD1614B1B78DBB24F2B08D1604B2B
:104070001B7801225340DBB2002B01D0012300E06A
:1040800000231A1C01231340DBB215E0564B1B78AA
:10409000DBB24E2B04D0544B1B78DBB2522B06D133
:1040A000524B1B78DBB24F2B01D1012300E00023E0
:1040B0001A1C01231340DBB2002B21D04D4B1B787F
:1040C000002B1DD14C4B1B7801225340DBB2002B3F
:1040D00016D04A4B5B79542B12D1494B9B78012B5C
:1040E0000ED9444B01221A70464B01221A70464BDE
:1040F00098470200454B1A60454B1A78454B1A7099
:10410000374BDB78002B47D0374B1B78DBB2492B82
:1041100004D0354B1B78DBB2522B37D1334B1B7895
:10412000DBB24F2B32D1324B1B78002B2ED03A4BC7
:104130005B79002B2AD0394B1B780133DAB2374B2D
:104140001A70374B1B78002B06D0364B1B7800219A
:104150001800354B984716E0304B1B78012B0CD8D4
:10416000294B98470200294B1A602E4B1A78294B8D
:104170001A702E4B01221A7005E02A4B1B7803217E
:104180001800294B98471A4B00221A70284B00221E
:104190001A70234B00221A70174B00221A70124B10
:1041A0004E221A70114B4E221A70224B00221A70A6
:1041B000154B98470200204B1A60204B00221A70C2
:1041C000C046BD4680BDC046C40600206007002032
:1041D000712D00003DB90000F9EB00000807002038
:1041E00018060020AF070020940700205307002086
:1041F00007070020C5060020620700204C060020AB
:1042000000060020860700205DEF000098070020D0
:1042100027070020380700204405002087070020DA
:104220000007002001070020FDA900005207002020
:10423000840700205C070020B40700203607002018
:1042400080B586B000AF204B01221A703B1D1800CC
:1042500014231A0000211D4B98471D4B5B79002B3E
:1042600008D01C4B1B78002B04D03B1D18001A4BA8
:1042700098470FE0194B1B78002B07D0184B1A7981
:104280003B1D11001800174B984703E03B1D180019
:10429000154B98473B1D1800144B98473B1D0022B7
:1042A00019000320124B9847124B98470200124BFB
:1042B0001A60124B52221A70114B4F221A70C046CC
:1042C000BD4606B080BDC04660070020B77801003B
:1042D0004405002007070020010B0000C506002050
:1042E0000006002011090000190D0000AD2B000090
:1042F0003DB900005DEF0000B807002094070020E2
:104300005307002080B500AF0A4B00221A700A4BF9
:1043100001221A70094B9847094B49221A70094B20
:1043200049221A7001214D20074B9847C046BD46CF
:1043300080BDC0465C07002062070020452C0000BD
:1043400094070020530700204D43000080B582B041
:1043500000AF0200FB1D1A70BB1D0A1C1A70144B23
:104360009847144B01221A70BB1D1B78002B16D0E6
:10437000114B01221A70114B00221A700F4B1B783F
:1043800019000F4BFA1D12785A540C4B1B7801334D
:104390000B4A0021D1540B4BFA1D12781A700A4BAC
:1043A000FA1D12781A70C046BD4602B080BDC046E4
:1043B000D12D0000FD07002088070020780700208D
:1043C00010070020270700207707002080B500AFE6
:1043D0000D4B1B78002B0ED00C4B984702000C4B5A
:1043E0001B68D31A0B4A1278110064224A43934285
:1043F00001D9012300E000231A1C01231340DBB282
:104400001800BD4680BDC046FD0700205DEF0000DE
:10441000E00700208907002080B500AF0B4B1B7818
:10442000012B06D90A4B1B7800211800094B98472D
:1044300005E0074B1B7801211800064B9847064BF7
:1044400000221A70C046BD4680BDC04688070020C5
:1044500077070020012E0000FD07002080B582B004
:1044600000AF7860184B1B7801225340DBB2002B61
:1044700025D07B681800154B9847031E1FD0144B9E
:104480001B78012B1BD9134B1B781A00104B1B7880
:10449000013B9A420FDA0F4B1B780133DAB20D4B16
:1044A0001A700C4B1B781A000B4B9B5C00211800F8
:1044B0000A4B984703E001214D20084B9847C0461E
:1044C000BD4602B080BDC046FD0700200534000097
:1044D0008807002078070020100700204D430000C7
:1044E00080B582B000AF78607B681800144B9847A5
:1044F00003000E2B1FD8134B00221A707B68180084
:104500000F4B98470300DAB20F4B1A707A680F4BC3
:10451000110018000E4B98470E4B984702000E4BA7
:104520001A60084B1B781A00084B9A5C0B4B1A70E8
:104530000B4B01221A70C046BD4602B080BDC0467A
:10454000477B010078070020880700201007002023
:10455000377B01005DEF0000E007002077070020B7
:10456000FD07002080B500AF094B98470200094BBA
:104570001B68D21A084B1B88190064234B4319008F
:1045800000238A425B41DBB21800BD4680BDC046B5
:104590005DEF0000B80700202807002080B582B03A
:1045A00000AF7860164A7B6811001800154B9847D9
:1045B000031E01D044231EE0134A7B68110018003B
:1045C000104B9847031E01D0522314E00F4A7B681A
:1045D000110018000B4B9847031E01D049230AE035
:1045E0000B4A7B6811001800064B9847031E01D048
:1045F000452300E04E231800BD4602B080BDC046F2
:10460000AC8A0100777B0100BC8A0100CC8A0100E2
:10461000DC8A010080B582B000AF0200FB1D1A7079
:10462000344B9B78002B03D0334B5B794E2B01D15D
:1046300001235BE0314B1B78DBB201225340DBB23C
:10464000002B01D0012351E02D4B1B780122534058
:10465000DBB2002B07D02B4B1B78FA1D12789A4245
:1046600001D1012342E0284B1B78DBB24E2B3CD119
:10467000264B1B78DBB24E2B37D1254B1B78002BFA
:1046800033D01F4B1B7801225340DBB2002B2CD0C0
:10469000204B1B7801225340DBB2002B25D0164B58
:1046A0005B7A002B05D01C4B9847031E01D00123D9
:1046B0001CE01A4B00221A700F4B1B7A002B0CD0F7
:1046C000174B98470200174B1A60174BFA1D1278C8
:1046D0001A700B4B01221A7005E00A4BFA1D127872
:1046E0001A70124B9847012300E000231800BD46C2
:1046F00002B080BD000600204C06002061070020AB
:104700008607002027070020940700205307002079
:10471000360700205207002075690000C5060020FA
:104720005DEF00009807002038070020D93F000007
:1047300080B582B000AF0200FB1D1A70204B1B78C1
:10474000DBB201225340DBB2002B06D0FB1D1B78ED
:10475000002118001B4B98472EE01B4B1B78DBB247
:104760004E2B29D1194B1B78DBB24E2B24D1184B81
:104770001B78002B20D0174B1B7801225340DBB253
:10478000002B19D0144B1B7801225340DBB2002BB5
:1047900012D0FB1D1B78022118000A4B98470F4BC3
:1047A00001221A700E4BFA1D12781A700D4B00225E
:1047B0001A700D4B9847C046BD4602B080BDC0463A
:1047C00061070020FDA90000940700205307002086
:1047D0003607002086070020520700200707002028
:1047E0000107002087070020D93F000080B582B074
:1047F00000AF0200FB1D1A70074B1B78DBB2492B80
:1048000006D1FB1D1B7801211800044B984700E0DE
:10481000C046BD4602B080BD940700204D43000055
:1048200080B582B000AF0200FB1D1A700C4B1B78E4
:1048300001225340DBB2002B0DD00A4B5B79412B98
:1048400009D1094BFA1D12781A70084B0022002179
:104850001800074B9847C046BD4602B080BDC04611
:10486000620700204C06002027070020EC8A010088
:10487000596A000080B500AF044B9847044B984735
:104880000200044B1A60C046BD4680BDD12D000019
:104890005DEF0000B807002080B584B000AF7860FD
:1048A0000F23FB187A6812781A70694BDB78002B9B
:1048B00010D0684B1B78002B00D1C5E00F23FB18EC
:1048C0001B78412B00D0BFE0634B01221A70634B71
:1048D0009847B9E00F23FB181B78312B05D1604BAB
:1048E000984701205F4B9847AEE00F23FB181B78D9
:1048F000322B07D15A4B98470022002101205A4BF6
:104900009847A1E00F23FB181B78332B04D1544B9D
:104910009847564B984797E00F23FB181B78342B8A
:104920000AD14B4B5B79002B00D18DE04C4B984763
:1049300000204F4B984787E00F23FB181B78352B3F
:104940000AD1434B1B79002B00D17DE0444B9847A3
:104950000020484B984777E00F23FB181B78302B3B
:1049600014D13B4B5B78002B00D16DE0424B1B78A0
:10497000002B07D0414B9847394B98473E4B0022BC
:104980001A7061E03C4B01221A705DE00F23FB18A6
:104990001B78372B08D12E4B9B78002B54D0304BF3
:1049A0009847374B98474FE00F23FB181B78442B51
:1049B0000CD10120334B98470120334B98470020FE
:1049C000284B9847FF20314B98473DE00F23FB18B9
:1049D0001B78432B0BD100202A4B98470122002142
:1049E0000020214B9847FF20284B98472CE00F23AD
:1049F000FB181B78382B0CD1194B98470120214B01
:104A000098470120204B984701212920204B9847A7
:104A10001AE00F23FB181B78392B0CD1104B984749
:104A20000020184B98470120174B984701215B2025
:104A3000174B984708E00F23FB181B782A2B03D14C
:104A4000074B9847134B9847C046BD4604B080BDFE
:104A5000180600200707002000070020712D000025
:104A600075480000FDA20000A9A40000ADA8000048
:104A70001D8A0000D5880000AF070020B993000010
:104A8000AD940000A1120000D59E0000156C00003E
:104A90004D430000BDA90000F0B5C64600B5D2B038
:104AA00006AFF8600C0010001900EA4B9422520087
:104AB000944608229046B844C4446344221C1A70A9
:104AC000E54B94225200944608229046B844C444D0
:104AD0006344021C1A70E14B94225200944608224F
:104AE0009046B844C44463440A1C1A702823FF3318
:104AF00008229446BC44634400221A70FB688E224C
:104B0000520008218C46BC4462441360D34B94226B
:104B10005200944608229046B844C44463441B782B
:104B2000002B0ED0CE4AFB6811001800CD4B9847E1
:104B300003001A0001235340DBB2002B01D001F027
:104B400050FEC94AFB6811001800C64B9847031E67
:104B500014D0C64B01225A71C449C54B1822180003
:104B6000C44B9847C24B19000020C34B9847C34B16
:104B700098476420C24B9847C24B9847C24AFB688B
:104B800011001800B74B9847031E47D01C23FF3372
:104B90000822BA18D418BD4B984703002370282365
:104BA000FF3308229446BC44634401221A70AA4B86
:104BB00094225200944608229046B844C444634468
:104BC0001B78002B01D101F0C6FD1C23FF33082206
:104BD0009446BC4463441B78002B0DD1102308225B
:104BE0009446BC446344AA4A13CA13C313CA13C3EA
:104BF00013CA13C301F0AFFD102308229446BC442E
:104C00006344A44A13CA13C313CA13C303CA03C316
:104C10001188198092789A7001F09DFD9E4AFB6878
:104C2000110018008F4B9847031E30D0894B9422F7
:104C30005200944608229046B844C44463441B780A
:104C40001800964B98472823FF3308229446BC440B
:104C5000634401221A70804B942252009446082229
:104C60009046B844C44463441B78002B01D101F042
:104C700072FD102308229446BC446344884A13CA38
:104C800013C313CA13C312781A7001F064FD854A66
:104C9000FB6811001800734B9847031E65D0002075
:104CA000814B9847814B5B79002B0DD00020804BC6
:104CB00098477E4BDB78002B03D000207D4B984734
:104CC00002E000207C4B9847784B5B78002B08D0A3
:104CD00078207A4B98475520794B98470020794B9C
:104CE00098470020784B98470020784B98474320FE
:104CF000774B98473220774B98470220764B98475E
:104D00000120764B98475020754B98470120754BF2
:104D100098470020744B98470120744B98472823EC
:104D2000FF3308229446BC44634401221A704A4B64
:104D300094225200944608229046B844C4446344E6
:104D40001B78002B01D101F006FD102308229446A8
:104D5000BC446344664A13CA13C313CA13C313CAB9
:104D600013C312781A7001F0F6FC624AFB68110056
:104D700018003C4B9847031E38D0374B9422520002
:104D8000944608229046B844C444634401221A70F1
:104D90002823FF3308229446BC44634401221A703E
:104DA000102308229446BC446344FA2200211800D0
:104DB000514B9847514B9B78002B0DD11023082263
:104DC0009446BC4463444E4A13CA13C31168196025
:104DD00092889A8001F0BFFC102308229446BC44BC
:104DE00063441800474B984701F0B5FC464AFB68FE
:104DF000110018001B4B9847031E03D0214B984706
:104E000001F0A9FC414AFB6811001800154B9847B6
:104E1000031E00D180E0104B9422520094460822D9
:104E20009046B844C444634401221A702823FF33D7
:104E300008229446BC44634401221A70344A102369
:104E400008218C46BC44634411001800314B98473C
:104E500001F081FCDBFEFFFFDAFEFFFFD9FEFFFF62
:104E6000F08A0100613D0000F88A0100E805002099
:104E7000740500208178010049250100F126010018
:104E8000F9EB0000353E0000008B0100A12D000071
:104E9000088B01002C8B0100508B010005110000D4
:104EA0005C8B0100788B0100A11200001806002025
:104EB00061140000DD0B0000AD140000F9140000C7
:104EC0006115000059180000F118000039130000A6
:104ED00085130000ED120000A5180000D115000098
:104EE0001D16000069160000D1190000211A0000EB
:104EF000808B0100A88B0100B7780100000600201C
:104F0000AC8B0100F1070000C08B0100C88B0100D1
:104F100020060020377B0100EC4AFB6811001800D6
:104F2000EB4B9847031E27D00120EA4B98470120FE
:104F3000E94B98472823FF3308229446BC44634436
:104F400001221A70E54B94225200944608229046A2
:104F5000B844C44463441B78002B01D101F0FBFB2F
:104F6000102308229446BC446344DD4A13CA13C389
:104F700012681A6001F0EFFBDA4AFB6811001800B2
:104F8000D34B9847031E29D00020D24B98470120CD
:104F9000D14B98472823FF3308229446BC446344EE
:104FA00001221A70CD4B942252009446082290465A
:104FB000B844C44463441B78002B01D101F0CBFBFF
:104FC000102308229446BC446344C74A13CA13C33F
:104FD0001168196012791A7101F0BDFBC34AFB68B0
:104FE00011001800BA4B9847031E2AD0C04B5B79BA
:104FF000002B01D101F0AFFB2823FF330822944698
:10500000BC44634401221A700120BA4B9847B34B49
:1050100094225200944608229046B844C444634403
:105020001B78002B01D101F096FB10230822944637
:10503000BC446344B04A13CA13C312681A6001F037
:105040008AFBAE4AFB6811001800A14B9847031E6B
:105050002CD0A74B5B79002B01D101F07CFB2823DE
:10506000FF3308229446BC44634401221A70002096
:10507000A04B9847994B94225200944608229046A0
:10508000B844C44463441B78002B01D101F063FB96
:10509000102308229446BC446344994A13CA13C39C
:1050A0001168196012791A7101F055FB954AFB6875
:1050B00011001800864B9847031E26D00120924B02
:1050C00098472823FF3308229446BC4463440122B6
:1050D0001A70824B94225200944608229046B8449B
:1050E000C44463441B78002B01D101F034FB10232E
:1050F00008229446BC446344844A1168196091882C
:10510000998092799A7101F026FB814AFB6811001F
:1051100018006F4B9847031E22D000207A4B984707
:105120002823FF3308229446BC44634401221A70AA
:105130006A4B94225200944608229046B844C444D4
:1051400063441B78002B01D101F005FB10230822DA
:105150009446BC4463446F4A03CA03C301F0FBFA9C
:105160006D4AFB6811001800594B9847031E55D033
:10517000FB681C1DFB681800684B98470200FB6821
:1051800021001800664B9847FB681800654B98474C
:10519000020093235B0008218C46BC4463441A70D0
:1051A00093235B0008229446BC4463441B78132B72
:1051B00007D893235B0008229446BC44634414221E
:1051C0001A7093235B0008229446BC4463441B7806
:1051D0009BB21800544B98472823FF33082294466B
:1051E000BC44634401221A703C4B94225200944602
:1051F00008229046B844C44463441B78002B01D174
:1052000001F0A9FA102308229446BC446344474A9B
:1052100013CA13C312781A7001F09DFA444AFB684E
:10522000110018002A4B9847031E22D00120414B41
:1052300098472823FF3308229446BC446344012244
:105240001A70264B94225200944608229046B84485
:10525000C44463441B78002B01D101F07CFA102375
:1052600008229446BC446344334A03CA03C301F092
:1052700072FA324AFB6811001800154B9847031E5A
:1052800060D000202B4B98472823FF3308229446F8
:10529000BC44634401221A70104B9422520094467D
:1052A00008229046B844C44463441B78002B01D1C3
:1052B00001F051FA102308229446BC446344204A6A
:1052C00003CA03C312781A7001F045FACC8B0100AF
:1052D000613D0000A1120000D59E0000DAFEFFFF34
:1052E000D48B0100E48B0100EC8B0100008C0100E9
:1052F0001806002061140000088C0100188C0100C1
:10530000208C0100348C0100D11500003C8C010080
:10531000448C01004C8C0100548C0100477B01003F
:10532000937801009D7701001D1600005C8C010040
:105330006C8C010069160000748C01007C8C0100EB
:10534000848C0100D14AFB6811001800D04B9847AB
:10535000031E6CD0FB681800CE4B98470300032B4C
:1053600001D801F0F8F9FB68DC1CFB681800C94B98
:1053700098470200FB6821001800C74B9847FB685C
:105380001B784C2B09D0FB681B78532B05D0FB688E
:105390001B784F2B01D001F0DEF9FB68DBB218005F
:1053A000BE4B98472823FF3308229446BC446344ED
:1053B00001221A70BA4B9422520094460822904659
:1053C000B844C44463441B78002B01D101F0C3F9F5
:1053D000102308229446BC446344B24A1168196001
:1053E0009188998092799A71FA68102308218C46E5
:1053F000BC44634411001800AB4B984710230822AB
:105400009446BC4463441800A24B984703001A001A
:10541000102308218C46BC4463449A18A34B100007
:10542000190004231A00A24B984701F094F9A14AED
:10543000FB6811001800964B9847031E6CD0FB6860
:105440001800944B98470300042B01D801F083F90E
:10545000FB681C1DFB6818008E4B98470200FB6818
:10546000210018008C4B9847FB681B78432B0DD00C
:10547000FB681B78412B09D0FB681B78542B05D0A7
:10548000FB681B784E2B01D001F065F9FB68DBB29D
:105490001800894B98472823FF3308229446BC44C0
:1054A000634401221A707E4B9422520094460822D3
:1054B0009046B844C44463441B78002B01D101F0EA
:1054C0004AF9102308229446BC4463447B4A03CA29
:1054D00003C3FA68102308218C46BC4463441100BE
:1054E0001800714B9847102308229446BC4463442B
:1054F0001800684B984703001A00102308218C46B7
:10550000BC4463449A18694B1000190004231A0024
:10551000674B984701F01FF9694AFB6811001800B2
:105520005B4B9847031E50D0FB68DC1CFB681800DF
:10553000584B98470200FB6821001800564B9847CB
:10554000FB6818005F4B984702008D235B00082121
:105550008C46BC4463441A708D235B000822944639
:10556000BC4463441B78682B01D801F0F4F88D2308
:105570005B0008229446BC4463441B781800524BDD
:1055800098472823FF3308229446BC4463440122F1
:105590001A70434B94225200944608229046B84415
:1055A000C44463441B78002B01D101F0D4F81023CC
:1055B00008229446BC446344444A03CA03C3118886
:1055C000198092789A7001F0C6F8414AFB68110080
:1055D00018002F4B9847031E00D17FE0FB681C1D6D
:1055E000FB6818002B4B98470200FB68210018004D
:1055F000294B9847FB681800324B984702001A2342
:10560000FF3308218C46BC4463441A701A23FF33CD
:1056100008229446BC4463441B78612B01D901F0F5
:105620009AF81A23FF3308229446BC4463441B783B
:10563000002B01D101F08FF81A23FF330822944682
:10564000BC4463441B781800224B98472823FF333F
:1056500008229446BC44634401221A70104B9422E1
:105660005200944608229046B844C44463441B78D0
:10567000002B01D101F06FF8102308229446BC449E
:105680006344154A13CA13C301F065F8908C0100F6
:10569000613D0000477B0100937801003913000051
:1056A000DAFEFFFF948C0100017B01009C8C01005D
:1056B00081780100A08C010085130000A88C0100F6
:1056C000B08C01009D770100F9140000B48C01003A
:1056D000C08C010061150000C88C0100E44AFB6821
:1056E00011001800E34B9847031E40D0E24B5B7853
:1056F000002B01D101F02FF8E04B9B8A9BB27B601D
:10570000DE4BDB8A9BB23B60DD4B1A69DC4B59698F
:10571000DB4B9B699846DA48407F0500D848007FFC
:105720000600D84C102008239C46BC4460440496D4
:10573000039543460293019100923B687A682100E9
:10574000D14CA047D14B9422520094460822904657
:10575000B844C444634401221A702823FF3308224A
:105760009446BC44634401221A7000F0F4FFC84A16
:10577000FB6811001800BF4B9847031E32D0BE4B88
:105780005B79002B01D100F0E6FFBB4BDB78002BEF
:1057900001D000F0E0FF0120BE4B98472823FF33E3
:1057A00008229446BC44634401221A70B74B9422E9
:1057B0005200944608229046B844C44463441B787F
:1057C000002B01D100F0C7FF102308229446BC44EF
:1057D0006344B14A13CA13C313CA13C312681A60CD
:1057E00000F0B9FFAD4AFB6811001800A14B9847C3
:1057F000031E34D0A04B5B79002B01D100F0ABFF2E
:105800009D4BDB78002B01D000F0A5FF0020A14BC1
:1058100098472823FF3308229446BC44634401225E
:105820001A709A4B94225200944608229046B8442B
:10583000C44463441B78002B01D100F08CFF10237B
:1058400008229446BC446344954A13CA13C313CA3E
:1058500013C31168196012791A7100F07CFF914A24
:10586000FB6811001800834B9847031E5CD0824BE5
:10587000DB78002B01D100F06EFF2823FF330822D4
:105880009446BC44634401221A70874BDB78002B9A
:105890002FD0854B1B79002B0ED17C4B94225200CC
:1058A000944608229046B844C444634400221A70C7
:1058B0007E4B984700F04FFF744B94225200944661
:1058C00008229046B844C444634401221A7010234D
:1058D00008229446BC446344754A13CA13C313CACE
:1058E00013C313CA13C303CA03C312881A8000F078
:1058F00032FF664B94225200944608229046B844E8
:10590000C444634401221A70102308229446BC4404
:105910006344684A13CA13C313CA13C313CA13C315
:1059200012781A7000F017FF634AFB681100180024
:10593000504B9847031E2AD04F4BDB78002B01D1E8
:1059400000F009FF2823FF3308229446BC44634437
:1059500001221A700020594B98474C4B9422520058
:10596000944608229046B844C44463441B78002BF4
:1059700001D100F0F0FE102308229446BC44634499
:105980004F4A13CA13C312681A6000F0E4FE4D4A6E
:10599000FB6811001800374B9847031E1CD02823C2
:1059A000FF3308229446BC44634401221A70374BEB
:1059B00094225200944608229046B844C44463445A
:1059C00001221A70102308229446BC446344180034
:1059D0003D4B984700F0BFFE3C4AFB6811001800A1
:1059E000244B9847031E00D19AE0394B9422520071
:1059F000944608229046B844C44463441B78002B64
:105A00000CD1344B94225200944608229046B8445C
:105A1000C44463441B78002B00D181E02823FF336A
:105A200008229446BC44634401221A702A4B9B7896
:105A3000002B57D00120294B9847144B9422520039
:105A4000944608229046B844C44463441B78002B13
:105A500001D100F07FFE102308229446BC44634429
:105A60001F4A13CA13C303CA03C300F073FEC04620
:105A7000D48C0100613D000018060020C8060020FB
:105A80004C060020DC8C0100BD7A0100DAFEFFFF2D
:105A9000008D0100AD140000088D0100248D01006F
:105AA0002C8D01004C8D010044050020396A000056
:105AB000548D0100848D0100AC8D0100DD0B0000D0
:105AC000B48D0100C48D01002D680000F08A010032
:105AD000DBFEFFFFD9FEFFFF34060020E1110000CE
