S0110000434F4D4D414E4445522E737265637D
S2140100007029002019490200114A0200114A020013
S21401001000000000000000000000000000000000DA
S21401002000000000000000000000000001E80100E0
S214010030000000000000000031E9010079E901003C
S214010040114A0200114A0200711002007DE101000E
S21401005099200200114A020015D70100114A020038
S21401006005210200911E0200A91E0200C11E020007
S214010070D91E0200F11E0200091F0200951002009F
S214010080A9100200BD1002004D110200611102000C
S21401009075110200891102009D110200F5D40100BC
S2140100A05D240200D9D60100114A0200114A02005D
S2140100B00000000010B5064C2378002B07D1054B35
S2140100C0002B02D0044800E000BF0123237010BDBE
S2140100D00002002000000000E4AA0200084B10B550
S2140100E0002B03D00749084800E000BF0748036813
S2140100F0002B00D110BD064B002BFBD09847F9E72B
S2140101000000000004020020E4AA0200E4AA0200A3
S2140101100000000090B583B000AFFC1D0A4B984765
S21401012003002370FB1D1B78162B00D1FEE7FB1D79
S2140101301B78002B03D0054B9847034B9847C046C6
S214010140BD4603B090BDC046D5340200BD350200A1
S21401015080B500AFF64B9847F64B19000020F64BDA
S2140101609847F449F54B18221800F54B9847F34B7E
S2140101701B79552B29D0F14B00221A60EF4B5522E3
S2140101801A71EE4B00225A71EC4B00229A71EB4B1E
S2140101900022DA71EB4B102200211800EA4B984737
S2140101A0E84BEA4A03CA03C31188198092789A7009
S2140101B0E249E04B18221800E14B9847DD4B190045
S2140101C00020E34B9847E34B9847DA4B1900012090
S2140101D0D94B9847D749E04B38221800D84B984757
S2140101E0DD4B1B79552B2ED0DB4B00221A60DA4BE8
S2140101F055221A71D94B1E2200211800D24B98475E
S214010200D64AD74B1000190010231A00CC4B98473A
S214010210D44B142200211800CB4B9847D14AD24B1D
S214010220100019000B231A00C54B9847CA49C14B49
S21401023038221800C24B9847BE4B19000120C44B08
S2140102409847C44B9847BB4B19000220BA4B9847B6
S214010250B849C64B38221800B94B9847C34B1B798F
S214010260552B3CD0C14B00221A60C04B55221A7147
S214010270BF4B102200211800B34B9847BB4B0522F9
S214010280BC499B1810221800AD4B9847BA4B102258
S21401029000211800AC4B9847B84AB94B100019001A
S2140102A00A231A00A64B9847B34B102200211800C8
S2140102B0A54B9847B04AB34B100019000D231A00FE
S2140102C09F4B9847A9499B4B382218009C4B98474F
S2140102D0984B190002209E4B98479E4B9847954B8A
S2140102E019000820944B9847A74A924B1000190012
S2140102F008231A00924B9847A34B1B78552B1DD009
S214010300A14B55221A70A04B0F225A709E4B002209
S2140103109A709D4B0022DA709B4B01221A71854A16
S214010320994B1000190008231A00854B9847814BFA
S21401033019000820864B9847864B9847934B19001F
S2140103400320934B9847934B19000420904B9847F2
S214010350914B190005208E4B9847904B19000620AB
S2140103608B4B98478E4B19000720894B9847774B44
S21401037019000920864B9847744B19000A20844BB4
S2140103809847724B19000B20814B98476F4B190009
S2140103900C207F4B98476D4B19000D207C4B9847DE
S2140103A06A4B19000E207A4B9847684B19000F20AC
S2140103B0774B9847654B19001020754B9847634B50
S2140103C019001120724B9847604B19001220704B90
S2140103D098475E4B190013206D4B98475B4B1900ED
S2140103E014206B4B9847594B19001520684B9847BA
S2140103F0564B19001620664B9847544B1900172088
S214010400634B98474B4B190018204B4B9847654A4E
S214010410484B1000190018231A00494B9847614BA6
S2140104201B78552B25D05F4B55221A705D4B002249
S2140104309A705C4B00225A705B4B14220021180004
S214010440414B9847584A414B100019000B231A009C
S2140104503B4B9847374A534B1000190018231A0094
S214010460374B9847334B19001820394B9847394B6F
S2140104709847304B190019202F4B98474B4A2D4B64
S2140104801000190030231A002D4B9847474B1B7854
S214010490552B3CD0454B55221A70454B1422002152
S2140104A01800294B9847424A284B100019000B2385
S2140104B01A00234B98473F4B142200211800224B69
S2140104C098473C4A214B100019000B231A001C4B7D
S2140104D09847364B00225A70344B00229A70334BA1
S2140104E00022DA70314B00221A71304B00225A7109
S2140104F0104A2E4B1000190030231A00104B984753
S2140105000C4B19001920124B9847124B9847094B70
S21401051019001A20084B98470649274B2C22180029
S214010520074B9847244B1B78552B00D1A5E045E097
S2140105301501010094050020ED3602000806002092
S214010540C589020010060020FB890200FC95020006
S214010550E1350200893702002C0500203105002014
S214010560089602004F05002018960200D0050020CC
S214010570D505002024960200F5050020E50500209B
S2140105803496020040960200200600205096020093
S214010590110701005C96020068960200749602003C
S2140105A080960200480600204C06002064050020C4
S2140105B06C05002080050020600600204D4B55226A
S2140105C01A704C4B00225A704A4B32225A80494BC1
S2140105D04F221A71474B54225A71464B0222DA8037
S2140105E0444B00221A72434B00225A72414B00229E
S2140105F09A72404B0022DA723E4B00221A733D4B30
S21401060000225A733B4B00229A733A4B0022DA734C
S214010610384B00221A61374B00225A61354B0022B3
S2140106209A61344B55221A77324B78225A77314BDE
S21401063000229A772F4B0022DA772E4B20220121B7
S21401064099542C4B50225A842A4B24220121995426
S214010650284B252202219954264B26220021995403
S2140106602449254B2C221800244B9847224B19006D
S2140106701A20234B9847234B98471F4B19001B20E2
S214010680214B98471C49214B102218001B4B9847B9
S2140106901E4B1B78552B2AD01C4B55221A701B4B10
S2140106A001229A70194B01225A70184B00229A7136
S2140106B0164B00225A71154B00221A71134B002259
S2140106C0DA70124B0022DA71104B00229A600F4B3F
S2140106D00022DA600D49084B10221800074B984794
S2140106E0054B19001B20064B9847064B9847C046FA
S2140106F0BD4680BD6006002094050020C589020025
S214010700E135020089370200ED3602003806002086
S21401071080B588B000AF02003960FB1D1A70284B07
S2140107203C2200211800274B9847254AFB1D1B78C1
S21401073011001800244B98470823FA18204B100084
S214010740190018231A00214B98470823FB181B7819
S214010750552B31D00823FB1855221A700823FB1895
S21401076000225A700823FB1800229A700823FB18EF
S2140107700022DA700823FB18043314220021180023
S214010780104B98473A680823FB18043311001800E9
S2140107900F4B98470A4A0823FB1810001900182324
S2140107A01A000A4B9847064AFB1D1B7811001800D1
S2140107B0084B9847084B9847C046BD4608B080BDD1
S2140107C094050020FB890200ED360200C58902006F
S2140107D07B8C0200E13502008937020080B58AB0C1
S2140107E000AF78607B6800221A702723FB1800226E
S2140107F01A7063E0374B3C2200211800364B9847AD
S2140108002723FB181B780933DBB2324A1100180084
S214010810324B98470C23FA182E4B10001900182358
S2140108201A002F4B98472F4BDB782722BA181278DD
S2140108309A420FD17B6818002B4B984703001A0089
S2140108407B689A18294B1000190003231A00244BC1
S214010850984715E0234B1B792722BA1812789A423B
S2140108600ED17B681800204B984703001A007B685E
S2140108709A181F4B1000190003231A00184B9847AB
S2140108800C23FB181A1D7B6811001800194B98479A
S2140108907B681800144B984703001A007B689A1867
S2140108A0154B1000190002231A000D4B98472723F9
S2140108B0FB181A782723FB1801321A70094B9B780C
S2140108C02722BA1812789A4294D3C046BD460AB077
S2140108D080BDC04694050020FB890200ED3602006B
S2140108E0C5890200200600208B8C02008C9602002F
S2140108F090960200458C02009496020080B588B05E
S21401090000AF78600A00FB1C1A707B6800221A7020
S214010910154B9B78FA1C12789A421FD2134B3C2235
S21401092000211800124B9847FB1C1B780933DBB2D9
S2140109300E4A110018000F4B98470823FA180B4B64
S2140109401000190018231A000B4B98470823FB18B0
S2140109501A1D7B6811001800084B98477B68180021
S214010960BD4608B080BDC046200600209405002084
S214010970FB890200ED360200C5890200458C0200A3
S21401098080B588B000AF7860144B9B78002B20D0E0
S2140109900C23FB18180014231A000021104B98474B
S2140109A00E4BDA780C23FB18110018000D4B9847F4
S2140109B00C23FA187B68110018000B4B9847031E8E
S2140109C001D0012306E07B681800084B9847030016
S2140109D000E000231800BD4608B080BD20060020B8
S2140109E0FB890200FD080100BB8C0200F109010031
S2140109F080B582B000AF78600B4B9B78002B0DD092
S214010A000A4B9B78002B09D0094A7B681100180015
S214010A10084B9847031E01D0012300E0002318006D
S214010A20BD4602B080BDC046200600204806002014
S214010A304C060020BB8C020080B582B000AF786007
S214010A40094B5B78002B09D0084A7B681100180017
S214010A50074B9847031E01D0012300E0002318002E
S214010A60BD4602B080BDC046640500206C0500206E
S214010A70BB8C020080B582B000AF7860094BDB7892
S214010A80002B09D0084A7B6811001800074B9847CD
S214010A90031E01D0012300E000231800BD4602B06A
S214010AA080BDC0466405002080050020BB8C020086
S214010AB080B582B000AF7860094B5B78002B06D01A
S214010AC0084A7B6811001800074B984702E07B68CC
S214010AD000221A707B681800BD4602B080BDC04671
S214010AE0640500206C0500207B8C020080B582B076
S214010AF000AF7860094BDB78002B06D0084A7B688C
S214010B0011001800074B984702E07B6800221A7014
S214010B107B681800BD4602B080BDC0466405002053
S214010B20800500207B8C020080B582B000AF0200F9
S214010B30FB1D1A70FB1D1A780A4B9A700A4A094B5C
S214010B401000190030231A00084B9847064B19006D
S214010B501920074B9847074B9847C046BD4602B039
S214010B6080BDC0466405002094050020C5890200AA
S214010B70E13502008937020080B582B000AF02007D
S214010B80FB1D1A70FB1D1A780A4B1A710A4A094B8B
S214010B901000190030231A00084B9847064B19001D
S214010BA01920074B9847074B9847C046BD4602B0E9
S214010BB080BDC0466405002094050020C58902005A
S214010BC0E13502008937020080B582B000AF02002D
S214010BD0FB1D1A70FB1D1A780F4B5A71FB1D1B78F3
S214010BE001225340DBB2002B02D00B4B00221A71BC
S214010BF00A4A094B1000190030231A00084B98477F
S214010C00064B19001920074B9847074B9847C046D3
S214010C10BD4602B080BDC046640500209405002094
S214010C20C5890200E13502008937020080B582B02D
S214010C3000AF78600F4B01225A707A680E4B110094
S214010C4018000E4B98470E4A0A4B10001900302325
S214010C501A000C4B98470A4B190019200A4B984763
S214010C600A4B984700200A4B9847C046BD4602B03B
S214010C7080BDC046640500206C0500207B8C020008
S214010C8094050020C5890200E1350200893702007B
S214010C90290B010080B582B000AF7860104B0122AD
S214010CA0DA707A680F4B110018000F4B98470F4AFD
S214010CB00B4B1000190030231A000D4B98470B4BB5
S214010CC0190019200B4B98470B4B984700200B4BEC
S214010CD0984700200A4B9847C046BD4602B080BDE3
S214010CE064050020800500207B8C0200940500200E
S214010CF0C5890200E135020089370200790B01003F
S214010D00C90B010080B58EB000AF7860284B9B7888
S214010D10002B2BD0274B5B78002B06D0264A7B680E
S214010D2011001800254B98473CE0254B3C2200213A
S214010D301800244B98471E4BDB780933DBB2204A58
S214010D4011001800204B98472023FA181C4B10005E
S214010D50190018231A001D4B98472023FB181A1D4B
S214010D607B6811001800154B98471BE0144B3C227A
S214010D7000211800134B9847114B19000320124B02
S214010D8098470823FA180E4B1000190018231A006A
S214010D900E4B98470823FB181A1D7B681100180094
S214010DA0064B98477B681800BD460EB080BDC0460E
S214010DB020060020480600204C0600207B8C0200FE
S214010DC094050020FB890200ED360200C589020069
S214010DD080B58AB000AF7860334B9B78002B39D052
S214010DE02723FB1800221A702DE0304B3C220021ED
S214010DF018002F4B98472723FB181B780933DBB2C3
S214010E002A4A110018002B4B98470C23FA18274B37
S214010E101000190018231A00274B98470C23FB18BB
S214010E201A1D7B6811001800244B9847031E03D037
S214010E302723FB181B7832E02723FB181A78272371
S214010E40FB1801321A70184B9B782722BA181278B1
S214010E509A42CAD37B681800194B9847031E01D0E3
S214010E60FD231CE0174B9B78002B07D07B681800EE
S214010E70154B9847031E01D0FE2310E0134BDB7879
S214010E80002B0BD00F4B1B79002B07D07B6818006B
S214010E900F4B9847031E01D0FE2300E0FF231800E6
S214010EA0BD460AB080BDC04620060020940500203D
S214010EB0FB890200ED360200C5890200BB8C0200E8
S214010EC0F109010064050020390A010038060020F6
S214010ED0750A010080B588B000AF7860334B9A7808
S214010EE0324B5B789A4201D100235AE07B681800A6
S214010EF02F4B98470300F02B52D92E4B3C22002152
S214010F0018002D4B9847294B9B780933DBB2294AA9
S214010F1011001800294B98470823FA18254B100092
S214010F20190018231A00264B98470823FB18043388
S214010F30142200211800204B98477A680823FB18D2
S214010F400433110018001F4B98471A4A0823FB1850
S214010F501000190018231A00194B9847134B9B7859
S214010F600933DBB2134A11001800174B9847174B89
S214010F7098470E4B9B780133DAB20C4B9A700D4AA8
S214010F800A4B1000190008231A000D4B9847094B0D
S214010F90190008200C4B98470C4B9847012300E09A
S214010FA000231800BD4608B080BDC04620060020BC
S214010FB0D10D010094050020FB890200ED360200E8
S214010FC0C58902007B8C0200E135020089370200E8
S214010FD090B585B000AF78603D4B9B78012B01D86A
S214010FE0002371E00E23FC187B681800394B9847E4
S214010FF003002370364B5B780E22BA1812789A4299
S21401100061D2334BDB780E22BA1812789A425AD044
S2140110100F23FB180E22BA1812781A7022E02E4BF4
S2140110203C22002118002D4B98470F23FB181B78F4
S2140110300A33DBB2284A11001800294B98470F23C0
S214011040FB181B780933DBB2234A11001800254B25
S2140110509847254B98470F23FB181A780F23FB1840
S21401106001321A700F23FB181A78194B9B78013B33
S2140110709A42D4DB164B9B78013BDAB2144B9A703A
S214011080134B1B790E22BA1812789A4207D00E23F8
S214011090FB181A780E4B9B78013B9A4202DD0C4BEB
S2140110A001221A710C4A0A4B1000190008231A0073
S2140110B00E4B9847084B190008200A4B98470A4BD5
S2140110C09847012300E000231800BD4605B090BDF7
S2140110D020060020D10D010094050020FB890200A6
S2140110E0ED360200E135020089370200C5890200AB
S2140110F080B582B000AF0200FB1D1A70FB1D1B7885
S214011100002B03D0284B00229A7018E0274B3C2274
S21401111000211800264B9847234BDB780933DBB2B6
S214011120224A11001800234B9847204B190009202A
S214011130214B9847214B98471B4B01229A701A4B1B
S2140111400022DA70184B01221A71184A164B100049
S214011150190008231A001A4B9847134B0022DA701D
S214011160114B01221A71114B19000820124B984796
S214011170124B98470020134B9847134B00229A7046
S2140111800A4A114B1000190018231A000C4B9847F5
S214011190064B19001820084B9847084B9847C0463D
S2140111A0BD4602B080BDC046200600209405002042
S2140111B0FB890200ED360200E135020089370200A4
S2140111C0C5890200CD1101004806002080B582B015
S2140111D000AF0200FB1D1A70FB1D1A780A4B5A70ED
S2140111E00A4A094B1000190018231A00084B9847A1
S2140111F0064B19001820074B9847074B9847C046DF
S214011200BD4602B080BDC0464806002094050020B9
S214011210C5890200E13502008937020080B582B037
S21401122000AF7860114B9B78002B19D0104B012230
S2140112309A707A680F4B110018000F4B98470F4AA7
S2140112400B4B1000190018231A000D4B98470B4B37
S214011250190018200B4B98470B4B9847012300E0C9
S21401126000231800BD4602B080BDC04620060020FF
S214011270480600204C0600207B8C020094050020C6
S214011280C5890200E13502008937020080B582B0C7
S21401129000AF0200FB1D1A70FB1D1A78094B5A702D
S2140112A00849094B2C221800084B9847064B190091
S2140112B01A20074B9847074B9847C046BD4602B0D1
S2140112C080BDC0466006002094050020C589020046
S2140112D0E13502008937020080B582B000AF020016
S2140112E0BB1D1A800A4BBA1D12885A800849094B41
S2140112F02C221800084B9847064B19001A20074B5A
S2140113009847074B9847C046BD4602B080BDC046C9
S2140113106006002094050020C5890200E135020020
S2140113208937020080B582B000AF0200FB1D1A703B
S2140113300A4BFA1D12781A710849094B2C2218001B
S214011340084B9847064B19001A20074B9847074B3E
S2140113509847C046BD4602B080BDC0466006002024
S21401136094050020C5890200E13502008937020094
S21401137080B582B000AF0200FB1D1A700A4BFA1D41
S21401138012785A710849094B2C221800084B9847C5
S214011390064B19001A20074B9847074B9847C0463B
S2140113A0BD4602B080BDC046600600209405002000
S2140113B0C5890200E135020089370200B0B582B066
S2140113C000AF05000C0010001900FB1D2A1C1A7046
S2140113D0BB1D221C1A707B1D021C1A703B1D0A1CA9
S2140113E01A70FB1D1A78144B5A72134B5B7A002B3A
S2140113F010D0114BBA1D12789A720F4B7A1D1278C3
S214011400DA720D4B3A1D12781A730B4B1822BA1862
S21401141012785A730849094B2C221800084B984732
S214011420064B19001A20074B9847074B9847C046AA
S214011430BD4602B0B0BDC04660060020940500203F
S214011440C5890200E13502008937020080B582B005
S21401145000AF0200FB1D1A70FB1D1A78094BDA77E4
S2140114600849094B2C221800084B9847064B1900CF
S2140114701A20074B9847074B9847C046BD4602B00F
S21401148080BDC0466006002094050020C589020084
S214011490E13502008937020080B582B000AF020054
S2140114A0FB1D1A70FB1D1A78094B9A770849094BE0
S2140114B02C221800084B9847064B19001A20074B98
S2140114C09847074B9847C046BD4602B080BDC04608
S2140114D06006002094050020C5890200E13502005F
S2140114E08937020080B582B000AF0200FB1D1A707A
S2140114F0FB1D1B78642B18D90E4BFA1D12785A77F0
S2140115000C490D4B2C2218000C4B98470A4B19001E
S2140115101A200B4B98470B4B9847064BDB7B002B4F
S21401152001D0094B9847012300E000231800BD466F
S21401153002B080BD6006002094050020C589020027
S214011540E135020089370200ED16010080B582B050
S21401155000AF0200FB1D1A70FB1D1B78002B1CD070
S214011560FB1D1B78632B18D80E4BFA1D12781A77C1
S2140115700C490D4B2C2218000C4B98470A4B1900AE
S2140115801A200B4B98470B4B9847064BDB7B002BDF
S21401159001D0094B9847012300E000231800BD46FF
S2140115A002B080BD6006002094050020C5890200B7
S2140115B0E135020089370200ED16010080B582B0E0
S2140115C000AF0200FB1D1A70FB1D1978094B202283
S2140115D099540849084B2C221800084B9847064B8B
S2140115E019001A20064B9847064B9847C046BD4639
S2140115F002B080BD6006002094050020C589020067
S214011600E13502008937020080B582B000AF0200E2
S214011610BB1D1A800A4BBA1D12885A840849094B09
S2140116202C221800084B9847064B19001A20074B26
S2140116309847074B9847C046BD4602B080BDC04696
S2140116406006002094050020C5890200E1350200ED
S2140116508937020080B582B000AF0200FB1D1A7008
S214011660FB1D1978094B242299540849084B2C2252
S2140116701800084B9847064B19001A20064B984746
S214011680064B9847C046BD4602B080BD60060020A6
S21401169094050020C5890200E13502008937020061
S2140116A080B582B000AF0200FB1D1A700A4BFA1D0E
S2140116B0252112785A540849084B2C221800084B49
S2140116C09847064B19001A20064B9847064B984731
S2140116D0C046BD4602B080BD6006002094050020CD
S2140116E0C5890200E13502008937020090B583B052
S2140116F000AF2B4B1A692B4B10009847041C284B44
S2140117001A7F284B10009847021C274B111C201CDF
S2140117109847031C1A1C254B101C9847244C002282
S214011720244BA04703000C0019002200BC1D224BCD
S21401173008001100984703002380BB1D1B88180072
S2140117401E4B9847164B1A69164B10009847041CF7
S214011750134B5A7F134B10009847021C124B111C57
S214011760201C9847031C1A1C104B101C9847104C41
S2140117700022104BA04703000C0019002200BC1DDC
S2140117800D4B08001100984703002380BB1D1B88E2
S21401179018000B4B9847C046BD4603B090BDC046E7
S2140117A0600600200D6C02002D690200E987020028
S2140117B0B972020000005940E1640200C517010039
S2140117C00918010080B582B000AF7860094B7A68CD
S2140117D09A610849084B2C221800084B9847064B7B
S2140117E019001A20064B9847064B9847C046BD4637
S2140117F002B080BD6006002094050020C589020065
S214011800E13502008937020080B582B000AF78600A
S214011810094B7A685A610849084B2C221800084B74
S2140118209847064B19001A20064B9847064B9847CF
S214011830C046BD4602B080BD60060020940500206B
S214011840C5890200E13502008937020080B582B001
S21401185000AF7860094B7A681A610849084B2C2258
S2140118601800084B9847064B19001A20064B984754
S214011870064B9847C046BD4602B080BD60060020B4
S21401188094050020C5890200E1350200893702006F
S21401189080B582B000AF0200FB1D1A70FB1D1A78DE
S2140118A0094BDA730849094B2C221800084B984754
S2140118B0064B19001A20074B9847074B9847C04616
S2140118C0BD4602B080BDC0466006002094050020DB
S2140118D0C5890200E13502008937020080B582B071
S2140118E000AF0200BB1D1A800A4BBA1D1288DA80AF
S2140118F00849094B2C221800084B9847064B19003B
S2140119001A20074B9847074B9847C046BD4602B07A
S21401191080BDC0466006002094050020C5890200EF
S214011920E13502008937020080B582B000AF0200BF
S214011930FB1D1A700A4BFA1D12781A720849094BD8
S2140119402C221800084B9847064B19001A20074B03
S2140119509847074B9847C046BD4602B080BDC04673
S2140119606006002094050020C5890200E1350200CA
S2140119708937020080B58AB000AF78602723FB184C
S21401198000221A702BE01B4B3C22002118001A4B38
S21401199098472723FB181B780333DBB2154A11003F
S2140119A01800164B98470C23FA18124B1000190012
S2140119B018231A00124B98470C23FB181A1D7B6834
S2140119C0110018000F4B9847031E01D001230CE0AD
S2140119D02723FB181A782723FB1801321A702723AE
S2140119E0FB181B78042BCED900231800BD460AB07D
S2140119F080BDC04694050020FB890200ED3602003A
S214011A00C5890200BB8C020080B582B000AF02001F
S214011A10FB1D1A700B4BFA1D1278DA700A4A094B35
S214011A201000190008231A00084B9847064B1900A6
S214011A300820074B9847074B9847C046BD4602B05B
S214011A4080BDC0462006002094050020C5890200FE
S214011A50E13502008937020080B582B000AF02008E
S214011A60FB1D1A700B4BFA1D12781A710A4A094BA4
S214011A701000190008231A00084B9847064B190056
S214011A800820074B9847074B9847C046BD4602B00B
S214011A9080BDC0462006002094050020C5890200AE
S214011AA0E13502008937020090B585B000AF786055
S214011AB00E23FC187B681800214B984703002370FF
S214011AC00F23FB18FF221A701E4B5B780E22BA18E2
S214011AD012789A4209D30F23FB181A4A92781A7081
S214011AE07B681800184B98470CE0164B5B780E2263
S214011AF0BA1812789A4205D20F23FB180E22BA188A
S214011B0012781A700F4B5B780F22BA1812789A4225
S214011B1010D20C4B9B78012B04D90A4BDB781800AA
S214011B200A4B98470F23FB181B781800084B984759
S214011B30012300E000231800BD4605B090BDC04655
S214011B40D10D010020060020D50E0100591A010012
S214011B50091A010090B585B000AF7860214B9B78DB
S214011B60012B01D8002339E00E23FC187B681800EE
S214011B701D4B9847030023700F23FB18FF221A7092
S214011B80184B5B780E22BA1812789A4209D30F23A3
S214011B90FB18144A92781A707B681800134B984702
S214011BA00CE0104B5B780E22BA1812789A4205D2D6
S214011BB00F23FB180E22BA1812781A70094B5B789D
S214011BC00F22BA1812789A4207D20F23FB181B78F5
S214011BD01800074B9847012300E000231800BD4674
S214011BE005B090BD20060020D10D0100D50E0100E4
S214011BF0591A010080B582B000AF0200FB1D1A70B1
S214011C00064BFA1D127811001F220A40012191404D
S214011C100A001A60C046BD4602B080BD00E100E081
S214011C2080B582B000AF0200FB1D1A70074AFB1D8B
S214011C301B7819001F230B40012199400B00190046
S214011C408023D150C046BD4602B080BD00E100E011
S214011C5080B584B000AF0200FB1D1A700F23FB187D
S214011C60FA1D1278D2091A700E23FB18FA1D127883
S214011C7052091A700D4BBB600F23FB181B78002B03
S214011C800FD10F23FB181B789B0010229446BC44EF
S214011C906344083B1A680E23FB181B78DB01D31834
S214011CA000E000231800BD4604B080BD004400419A
S214011CB080B582B000AF0200FB1D1A70FB1D1B78B9
S214011CC01800034B984703001800BD4602B080BDBC
S214011CD0511C010080B582B000AF78607B6800229D
S214011CE01A707B6801225A707B6800229A70C0467F
S214011CF0BD4602B080BD000080B584B000AF0200D2
S214011D00FB1D1A70FB1D1B7818000B4B9847030030
S214011D10FB60FB1D1B781F22134001229A40130013
S214011D20BB60FB681B6ABA6813405A1E9341DBB25C
S214011D301800BD4604B080BDB11C010080B584B05A
S214011D4000AF0200FB1D1A70BB1D0A1C1A70FB1D9A
S214011D501B7818000D4B98470300FB60FB1D1B7892
S214011D601F22134001229A401300BB60BB1D1B7843
S214011D70002B03D0FB68BA689A6102E0FB68BA6878
S214011D805A61C046BD4604B080BDC046B11C0100C4
S214011D9080B584B000AF78607B681B68FB60FB6829
S214011DA0DB695A1E9341DBB21800BD4604B080BD04
S214011DB080B582B000AF7860C0467B681800044BDF
S214011DC09847031EF9D1C046BD4602B080BDC04645
S214011DD0911D010080B582B000AF78607B688022DB
S214011DE0D2051A607B6800225A607B68FF221A813E
S214011DF07B6800229A727B680022DA727B689622E0
S214011E0092011A627B682422012199547B6825225B
S214011E10012199547B682622002199547B68272248
S214011E20002199547B6800229A627B6888225203BB
S214011E30DA607B682C22002199547B682D220021D0
S214011E4099547B6800221A637B6800225A637B6878
S214011E5000229A637B680022DA637B6800225A615B
S214011E607B6800221A827B680022DA767B68002271
S214011E701A767B6800221A777B6800225A767B687E
S214011E8013229A767B6800225A77C046BD4602B076
S214011E9080BD000080B584B000AF78607B681B68A9
S214011EA0FB607B681B681800094B98470300180005
S214011EB0084B98477B681800074B9847FB681B68D8
S214011EC002221A43FB681A60C046BD4604B080BDB4
S214011ED04D1E0200F51B0100B11D010080B584B046
S214011EE000AF78607B681B68FB607B681B68180026
S214011EF00A4B984703001800094B98477B6818005F
S214011F00084B9847FB681B68022293431A00FB683C
S214011F101A60C046BD4604B080BDC0464D1E0200D4
S214011F20211C0100B11D010080B584B000AF7860AE
S214011F307B681B68FB607B681800064B98477B68CC
S214011F401800054B9847FB6801221A60C046BD463B
S214011F5004B080BDDD1E0100B11D010080B582B058
S214011F6000AF7860C046BD4602B080BD80B582B085
S214011F7000AF094B1B68F91C00221800074B984755
S214011F8003007B607B68002B00D0F2E7C046C046AA
S214011F90BD4602B080BDC0462002002031F00100DF
S214011FA090B585B000AF0200FB1D1A70194BFB609F
S214011FB0FB681B7EDBB21A000423134026D0FB68A5
S214011FC05B8B9BB2DAB20B23FB1806210A401A7010
S214011FD00B23FB181B78002B06D00B23FB181B7852
S214011FE09AB2FB685A8311E0FB681B8D9BB2DAB28A
S214011FF00A23FB181A70084B18680A23F9180023DD
S2140120000022064CA0470120054B9847C046BD4616
S21401201005B090BD001400422002002011EF01001F
S2140120200D22010080B500AF3120094B984703000F
S2140120305A1E9341DBB201225340DBB21A1C012324
S2140120401340DAB2034B1A70C046BD4680BDC04687
S214012050F91C01009606002090B597B002AF4C23FC
S214012060FB1818004D4B98474C23FB1801221A7099
S2140120704C23FB1819001420494B984700211420C3
S214012080484B98474023FB181800474B9847402376
S214012090FB1831221A604023FB1800225A604023A5
S2140120A0FB1801221A724023FB180322DA7240231E
S2140120B0FB18190001203D4B9847002101203C4B9D
S2140120C098473C4B0022012118003B4B98470022C1
S2140120D00121F020394B98470200394B1A603949E3
S2140120E039483A4B009300230022394CA04702009E
S2140120F0384B1A60032200210120304B984702001A
S214012100354B1A60344B1B68002B06D0324B1868CF
S214012110002300220021314CA0473B001800304B21
S21401212098473B00E12252021A623B00802252038A
S214012130DA603B002B4A1A633B002B4A5A633B008A
S214012140012252429A633B0001225242DA633B006B
S2140121502C220121995403E0244B1800244B984764
S2140121603A002449214B1800234B9847031EF3D10C
S2140121701E4B1800214B98471E4B1800204B9847C2
S21401218003001A001F4B190010001F4B9847194BEC
S21401219004229A75C046BD4615B090BDD51C0100F7
S2140121A0612B02003D1D0100F9DA01002DDB010063
S2140121B05120020025200100ED1F020075EC0100F0
S2140121C020020020881300009C9602005D1F01007B
S2140121D0F9090200240200202802002031ED010046
S2140121E0D51D010002001600020017009806002007
S2140121F0291F01000014004245160200951E010029
S2140122000DE70100A11F0100E11D020080B582B0AB
S21401221000AF0200FB1D1A70104B1B78DBB20122C7
S2140122205340DBB2002B10D0012114200C4B9847F1
S2140122300A4B01221A70FB1D1B7801225340DBB2A8
S214012240002B02D06420074B9847074B98470200A3
S214012250064B1A60C046BD4602B080BD8C06002003
S2140122603D1D0100D9FA01003DFE01001C020020BF
S21401227080B500AF00211420034B9847034B002282
S2140122801A70C046BD4680BD3D1D01008C0600206B
S21401229080B582B000AF0E4B1B78DBB2002B11D09D
S2140122A0FB1D00221A700B4B984702000A4B1B6855
S2140122B0D21AFB1D09499142924152421A70FB1DE6
S2140122C01B7800E001231800BD4602B080BDC04661
S2140122D08C0600203DFE01001C0200201F4E00005F
S2140122E090B58BB002AFF860B9607A601A00FB1C3B
S2140122F01A70664B1B6801211800654B9847031E30
S21401230001D10223BDE00020624B9847624B9847FB
S2140123101F23FB1800221A701E23FB1800221A70B6
S2140123201323FB1800221A700121F0205B4B9847FB
S2140123300300BB61BB69002B01D10023A1E0BB698F
S214012340F02200211800564B9847FB681800554BA1
S214012350984703009AB2F968534B1800534B9847B5
S214012360534B18687A6801235B42009300230421CB
S214012370504CA0474E4B1B6818004F4B9847031E06
S2140123803ED01E23FB181B78EF2B1CD84B4B1B682B
S2140123901322B91800221800494B984703007B61A5
S2140123A07B69002B0FD01E23FB181B78BA69D31844
S2140123B01322BA1812781A701E23FB181A781E23D5
S2140123C0FB1801321A70BB68002B0CD0BA68BB69C7
S2140123D0110018003B4B9847031E04D01F23FB181F
S2140123E000221A7024E0384ABB6911001800354BE8
S2140123F09847031EBED01F23FB180B221A7017E046
S2140124002B4B186801235B42009300230022032113
S214012410284CA0471E23FB181B78002B04D11F2332
S214012420FB1807221A7003E01F23FB1808221A70F4
S214012430FB1C1B78002B16D03B6B002B13D0FA1C11
S2140124401E23FB1812781B789A420CD91F23FB18FF
S2140124501B78002B07D11E23FB181A78B9693B6B32
S21401246018001A4B9847094B1868002300220021D0
S214012470174CA047BB691800164B98471F23FB183B
S2140124801B781800BD4609B090BDC0462802002042
S214012490D1F101000D2201006D1F0100ED8802003F
S2140124A0FB8902008B8C0200980600201D19020091
S2140124B0240200209D0A02001910020020020020BA
S2140124C031F00100BB8C0200A8960200C58902000B
S2140124D031ED01008D89020090B583B002AF064A46
S2140124E006490748002300930023064CA047030033
S2140124F01800BD4601B090BD88130000B0960200DA
S214012500B4960200E1220100B0B584B002AFFC1D12
S214012510124A13491348002300930023124DA8477B
S21401252003002370FB1D1B78002B01D1092311E04A
S214012530BC1D0A4A0D490B480023009300230A4D8F
S214012540A84703002370BB1D1B78002B01D109236C
S21401255000E00A231800BD4602B0B0BD8813000093
S214012560C4960200D0960200E1220100DC96020029
S21401257090B589B002AF3B1D180014231A00002144
S2140125800A4B9847E1235A0209493B1D1800094B9B
S2140125909847094A0949381D002300930023084C2F
S2140125A0A04703001800BD4607B090BDFB89020096
S2140125B0E8960200018C020088130000B096020023
S2140125C0E122010090B583B002AF064A06490748EA
S2140125D0002300930023064CA04703001800BD46C5
S2140125E001B090BD8813000058970200689702005A
S2140125F0E122010090B583B002AF064A06490748BA
S214012600002300930023064CA04703001800BD4694
S21401261001B090BDA8610000B09602007497020058
S214012620E122010090B583B002AF064A0649074889
S214012630002300930023064CA04703001800BD4664
S21401264001B090BD88130000B09602008897020082
S214012650E122010090B583B002AF064A0649074859
S214012660002300930023064CA04703001800BD4634
S21401267001B090BD983A0000B09602009097020013
S214012680E122010090B583B002AF064A0649074829
S214012690002300930023064CA04703001800BD4604
S2140126A001B090BD88130000B09602009C9702000E
S2140126B0E122010090B583B002AF064A06490748F9
S2140126C0002300930023064CA04703001800BD46D4
S2140126D001B090BD88130000B0960200D0970200AA
S2140126E0E122010090B583B002AF064A06490748C9
S2140126F0002300930023064CA04703001800BD46A4
S21401270001B090BD983A0000B0960200DC97020036
S214012710E122010090B583B002AF064A0649074898
S214012720002300930023064CA04703001800BD4673
S21401273001B090BD88130000B0960200E497020035
S214012740E122010090B583B002AF064A0649074868
S214012750002300930023064CA04703001800BD4643
S21401276001B090BD88130000B0960200EC970200FD
S214012770E122010090B583B002AF064A0649074838
S214012780002300930023064CA04703001800BD4613
S21401279001B090BD581B0000B0960200F8970200E9
S2140127A0E1220100B0B588B002AF1623FB186422FF
S2140127B01A701623FB181B7801211800604B9847E6
S2140127C003003B613B69002B05D13B6918005D4B5B
S2140127D098470023AFE01623FB181A783B690021BF
S2140127E01800594B98470F23FC181623FB181A7824
S2140127F0564D574957483B69009313002A00564DDA
S214012800A847030023700F23FB181B78002B00D06A
S21401281086E0524A3B6911001800514B9847031E47
S21401282000D078E04F4A3B69110018004E4B98479C
S2140128300300BB604B4B190000204B4B984703002D
S214012840BB604A4ABB6811001800474B9847030013
S214012850BB60BB681800464B9847BB681800454BE1
S21401286098470200FB1D1A70FB1D1B78002B07D032
S214012870FB1D1B78012B03D0FB1D1B78632B04D19A
S2140128801723FB1800221A704EE0FB1D1B78012B44
S21401289008D9FB1D1B78072B04D81723FB18012228
S2140128A01A7041E0FB1D1B78072B08D9FB1D1B780E
S2140128B00D2B04D81723FB1802221A7034E0FB1DD7
S2140128C01B780D2B08D9FB1D1B78132B04D8172357
S2140128D0FB1803221A7027E0FB1D1B78132B08D95F
S2140128E0FB1D1B78192B04D81723FB1804221A701A
S2140128F01AE0FB1D1B78192B08D9FB1D1B781F2B13
S21401290004D81723FB1805221A700DE01723FB18AD
S21401291000221A7008E01723FB1800221A7003E041
S2140129201723FB1800221A703B691800054B9847BD
S2140129301723FB181B781800BD4606B0B0BDC0466D
S214012940ED8802008D890200FB89020088130000D1
S214012950B096020024980200E12201002C980200A1
S214012960BB8C0200C8970200ED8C0200CC970200D7
S21401297079290100E188020080B584B000AF786053
S2140129807B68FB607B68BB600CE0BB685A1CBA6066
S2140129901A78FB681A70FB681B78202B02D0FB683C
S2140129A00133FB60BB681B78002BEED1FB6800226D
S2140129B01A70C046BD4604B080BD000090B583B015
S2140129C002AF064A06490748002300930023064C37
S2140129D0A04703001800BD4601B090BD8813000053
S2140129E0B096020030980200E1220100B0B588B02E
S2140129F002AF786039603B6818003B4B984703008C
S214012A00FA2B01D903236BE07B681800364B9847F5
S214012A100300052B01D8042362E01723FB18FA22D2
S214012A201A701723FB181B78012118002F4B9847A3
S214012A3003003B613B69002B01D1002350E01723C3
S214012A40FB181A783B6900211800294B9847172371
S214012A50FB1819787B68274A3869274CA047274A0C
S214012A6027493869002300930023264CA047031EFC
S214012A7031D1FA235B001800234B98471723FB1824
S214012A801A783B6900211800194B98471723FB1841
S214012A9019783B681D4A3869174CA0470F23FC1864
S214012AA0164A1B493869002300930023154DA84791
S214012AB0030023700F23FB181B78002B05D13B69FD
S214012AC01800144B984700230AE03B691800114B85
S214012AD09847062304E03B6918000E4B98470623E7
S214012AE01800BD4606B0B0BD8B8C0200ED88020012
S214012AF0FB890200589802009D8B020060EA0000E4
S214012B0068980200E1220100D9FA01006C980200DF
S214012B10B09602008D89020090B58FB002AFB96001
S214012B2011007B600F23FB18021C1A700E23FB1882
S214012B300A1C1A702F23FB18E6221A702F23FB1883
S214012B401B78012118006E4B98470300BB62BB6AD5
S214012B50002B05D1BB6A18006A4B98470023CAE0D0
S214012B602F23FB181A78BB6A00211800664B98477A
S214012B701023FB1818000A231A000021624B9847FD
S214012B802F23FB1819780F23FB181B785F4A102098
S214012B9038185F4CA0472F23FB181A785D4C5E4906
S214012BA01023F818BB6A0093130022005B4CA04761
S214012BB0031E00D094E05A4ABB6A11001800594B14
S214012BC0984703007B627B6A002B00D182E0BB6AD8
S214012BD02C211800544B984703003B623B6A023392
S214012BE0FB61FB69222118004F4B984703003B62AB
S214012BF03B6A002B2AD03B6A00221A70FB69180038
S214012C004A4B984702001B23FB181A701B23FA181D
S214012C100E23FB1812781B789A4206D2FA69BB6813
S214012C2011001800424B984710E00E23FB181B7842
S214012C30013B1A00F969BB6818003E4B98470E2302
S214012C40FB181B78BA68D31800221A703B6A013346
S214012C500A211800344B984703003B623B6A002B5D
S214012C6044D03B6A01333B623B6A0D2118002E4B70
S214012C7098470300FB61FB69002B02D0FB69002229
S214012C801A703B6A1800294B984702001B23FB1851
S214012C901A701B23FB184022B9181A780B789A422F
S214012CA006D23A6A7B6811001800214B98471DE04E
S214012CB04023FB181B78013B1A00396A7B68180011
S214012CC01C4B98474023FB181B787A68D3180022C0
S214012CD01A700BE0BB6A18000A4B98470C230AE0EF
S214012CE0BB6A1800074B98470C2304E0BB6A180020
S214012CF0044B984700231800BD460DB090BDC04652
S214012D00ED8802008D890200FB890200B898020056
S214012D109D8B020088130000B0960200E12201009C
S214012D20C4980200BB8C02005F8C02008B8C0200F0
S214012D307B8C0200C5890200B0B588B002AF78600E
S214012D401723FB181E221A701723FB181B78012164
S214012D501800184B984703003B613B69002B01D1D3
S214012D60002323E01723FB181A783B69002118007B
S214012D70114B98471723FB1819787B680F4A386957
S214012D800F4CA0470F23FC18FA23DA000D493869C7
S214012D900023009300230C4DA847030023703B69D2
S214012DA018000A4B98470F23FB181B781800BD46DE
S214012DB006B0B0BDED880200FB890200CC98020087
S214012DC09D8B0200B0960200E12201008D8902006F
S214012DD090B583B002AF064A064907480023009320
S214012DE00023064CA04703001800BD4601B090BD65
S214012DF088130000B0960200D4980200E122010078
S214012E0090B583B002AF064A0649074800230093EF
S214012E100023064CA04703001800BD4601B090BD34
S214012E2010270000B0960200DC980200E1220100A3
S214012E3090B583B002AF064A0649074800230093BF
S214012E400023064CA04703001800BD4601B090BD04
S214012E5088130000B0960200F4980200E1220100F7
S214012E60B0B588B002AF78601723FB181E221A701F
S214012E701723FB181B7801211800184B98470300ED
S214012E803B613B69002B01D1002322E01723FB188D
S214012E901A783B6900211800114B98471723FB1835
S214012EA019787B680F4A38690F4CA0470F23FC1826
S214012EB00E4A0F4938690023009300230D4DA84799
S214012EC0030023703B6918000B4B98470F23FB1830
S214012ED01B781800BD4606B0B0BDC046ED8802009E
S214012EE0FB890200009902009D8B020088130000F6
S214012EF0B0960200E12201008D89020090B583B0F0
S214012F0002AF064A06490748002300930023064CF1
S214012F10A04703001800BD4601B090BD881300000D
S214012F20B096020010990200E122010090B583B02C
S214012F3002AF064A06490748002300930023064CC1
S214012F40A04703001800BD4601B090BD50460000E2
S214012F50B09602001C990200E122010090B583B0F0
S214012F6002AFFA23DA00064906480023009300233D
S214012F70054CA04703001800BD4601B090BDC046F1
S214012F80B09602004C990200E122010090B587B08C
S214012F9002AF78600A00FB1C1A700F23FB18002290
S214012FA01A70FB1C1B78002B03D00F23FB18012281
S214012FB01A700E23FB1832221A700E23FB181B7888
S214012FC001211800174B98470300BB60BB68002B14
S214012FD001D1002322E00E23FB181A78BB680021DA
S214012FE01800114B98470E23FB1819780F23FB186E
S214012FF01B787C680D4AB868009323000C4CA047E8
S214013000FA23DA000B49B8680023009300230A4C20
S214013010A047BB681800094B984700231800BD4617
S21401302005B090BDED880200FB89020058990200A8
S2140130309D8B0200B0960200E12201008D890200FC
S214013040B0B586B002AF0F23FB1846221A700F23C5
S214013050FB181B7801211800574B98470300BB60EB
S214013060BB68002B05D1BB681800544B984700235A
S2140130709DE00F23FB181A78BB6800211800504BFF
S2140130809847FC1D0F23FB181A784E4D4E494F48A2
S214013090BB68009313002A004D4DA8470300237018
S2140130A0FB1D1B78002B6AD14A4ABB681100180029
S2140130B0494B984703003B60464B19000020464B9E
S2140130C0984703003B60454A3B6811001800424B95
S2140130D0984703003B603B681800414B9847030044
S2140130E0DAB2404B1A703D4B190000203A4B984714
S2140130F003003B603B681800394B98470300DAB27F
S214013100384B5A70384B19000020334B9847030050
S2140131103B603B681800324B98470300DAB2314BEC
S2140131209A70324B190000202B4B984703003B60E6
S2140131303B6818002A4B98470300DAB2294BDA702D
S2140131402A4B19000020244B984703003B603B683C
S2140131501800234B98470300DAB2224B1A71244B0E
S214013160190000201C4B984703003B603B68180081
S2140131701B4B98470300DAB21A4B5A7111E0194BF0
S21401318000221A70174B00225A70164B00229A70B2
S214013190144B0022DA70134B00221A71114B0022D5
S2140131A05A71BB681800054B9847FB1D1B78180021
S2140131B0BD4604B0B0BDC046ED8802008D89020050
S2140131C0FB89020088130000B09602007C99020079
S2140131D0E122010088990200ED8C02008C99020020
S2140131E0E188020090060020CC970200C8970200F2
S2140131F09099020080B500AF314B9847031E00D06E
S21401320058E0304B9847031E00D051E0FA23DB000C
S21401321018002D4B98472D4B9847031E46D12C4B33
S2140132209847031E48D12B4B9847031E3CD1FA23DF
S214013230DB001800244B9847274B9847031E31D1D3
S214013240264B9847031E2BD1254B9847031E25D1A5
S214013250244B9847031E1FD1234B9847031E19D1B1
S214013260224B9847031E13D1214B9847031E0DD1BD
S214013270204B9847031E07D11F4B9847031E01D1C9
S21401328000231AE0102318E0102316E0102314E0A0
S214013290102312E0102310E010230EE010230CE0A0
S2140132A010230AE0102308E0102306E0102304E0B0
S2140132B0102302E0102300E010231800BD4680BD55
S2140132C0D9240100E5260100D9FA0100C52501002F
S2140132D015270100712501005526010085260100EC
S2140132E0B52601004527010075270100BD2901000B
S2140132F0012E0100312E01002526010080B584B083
S21401330000AF78600A00FB1C1A700F23FB1800221E
S2140133101A7026E01B4B1868FA235A000E23FB1876
S2140133201900194B9847031E01D1002325E00E23EF
S214013330FB181B780A2B14D00E23FB181B780D2BB9
S21401334014D07B685A1C7A600E22BA1812781A704A
S214013350FB1C1A78FB1C013A1A700F23FB1801227A
S2140133601A70FB1C1B78012BD4D800E0C0467B6882
S21401337000221A700F23FB181B781800BD4604B0F4
S21401338080BDC0462002002031F0010080B584B027
S21401339000AF78600F23FB1800221A70174A7B686B
S2140133A011001800164B9847031E1BD0154A7B6860
S2140133B011001800144B98470300BB60114B19000D
S2140133C00020114B98470300BB60BB6818000F4BE9
S2140133D09847BB6818000E4B984702000F23FB184E
S2140133E01A7003E00F23FB1800221A700F23FB1834
S2140133F01B781800BD4604B080BDC04694990200F3
S214013400BB8C0200CC970200ED8C020079290100EA
S214013410E188020080B582B000AF7860074A7B6819
S21401342011001800064B9847031E01D0012300E047
S21401343000231800BD4602B080BDC0469C9902001C
S214013440BB8C020080B584B000AF786039601E4A3C
S2140134507B68110018001D4B9847031E2ED01C4A8E
S2140134607B68110018001B4B98470300FB601A4B42
S21401347019000020174B98470300FB60174AFB68AA
S21401348011001800134B98470300FB60134B1900FB
S2140134900020104B98470300FB60FB682B211800A7
S2140134A00F4B9847031E01D1002308E0FA683B68DA
S2140134B0110018000B4B9847012300E00023180069
S2140134C0BD4604B080BDC046A4990200BB8C020074
S2140134D0C8970200ED8C0200CC9702008899020082
S2140134E05F8C02007B8C020080B582B000AF7860F2
S2140134F0164A7B6811001800154B9847031E01D029
S21401350001231EE0134A7B6811001800104B9847F0
S214013510031E01D0012314E00F4A7B681100180036
S2140135200B4B9847031E01D001230AE00B4A7B6828
S21401353011001800064B9847031E01D0012300E036
S21401354000231800BD4602B080BDC046AC990200FB
S214013550BB8C0200B8990200C0990200A89602002E
S21401356080B582B000AF7860074A7B68110018000A
S214013570064B9847031E01D0012300E000231800E4
S214013580BD4602B080BDC046CC990200BB8C02008D
S21401359080B582B000AF7860074A7B6811001800DA
S2140135A0064B9847031E01D0012300E000231800B4
S2140135B0BD4602B080BDC046D4990200BB8C020055
S2140135C080B584B000AF0200FB1D1A700F23FB18F4
S2140135D0FA1D1278D2091A700E23FB18FA1D1278FA
S2140135E052091A700D4BBB600F23FB181B78002B7A
S2140135F00FD10F23FB181B789B0010229446BC4466
S2140136006344083B1A680E23FB181B78DB01D318AA
S21401361000E000231800BD4604B080BD0044004110
S21401362080B582B000AF0200FB1D1A70FB1D1B782F
S2140136301800034B984703001800BD4602B080BD32
S214013640C135010080B582B000AF78607B6800228A
S2140136501A707B6801225A707B6800229A70C046F5
S214013660BD4602B080BD000080B584B000AF020048
S214013670FB1D1A70BB1D0A1C1A70FB1D1B78180057
S2140136800D4B98470300FB60FB1D1B781F22134060
S21401369001229A401300BB60BB1D1B78002B03D090
S2140136A0FB68BA689A6102E0FB68BA685A61C0466C
S2140136B0BD4604B080BDC04621360100F0B58BB0D2
S2140136C000AF0B2318229446BC44634410221A70A0
S2140136D00A2318229446BC44634402221A70904B73
S2140136E09847904B3F221A708F4B3E221A708F4B91
S2140136F021221A708D4B20225A708C4B23229A70ED
S2140137008A4B2222DA708A4B00221A700A23182268
S2140137109446BC4463441B78012B06D9844B1B7822
S21401372008221343DAB2824B1A70824B0A221821FE
S2140137308C46BC44624412781A700B2318229446B5
S214013740BC4463441A780B2318218C46BC4463445A
S2140137501B78403340210020774CA0471C23FB18E0
S2140137601800764B98471C23FB1801221A706D4BE4
S2140137701B781C22BA1811001800714B98476A4B27
S2140137801B781C22BA18110018006D4B98470023AD
S2140137907B620CE0654A7B6AD3181B781C22BA1838
S2140137A011001800664B98477B6A01337B627B6A7F
S2140137B0032BEFDD0020634B984703003B6100239A
S2140137C07B61614C614A002338697969A04703002F
S2140137D00C00190022005E4B0024C9186241080043
S2140137E011005C4C5C4A0023A04703000C00180043
S2140137F05A4B98474B4B1B7800211800584B98475B
S214013800494B1B7800211800554B98470320554B10
S214013810984700204B4B98470300BB600023FB6092
S214013820494C514A0023B868F968A04703000C00C8
S21401383019002200464B0024C918624108001100F5
S214013840444C454A0023A04703000C001800434B94
S21401385098470320434B984700203A4B984703006C
S2140138603B6000237B60384C3F4A00233868796808
S214013870A04703000C0019002200354B0024C9188C
S214013880624108001100334C334A0023A04703006D
S2140138900C001800314B98470320324B9847002004
S2140138A0284B984703001D0000231E00264C962235
S2140138B0002328003100A04703000C001900220055
S2140138C0234B0024C918624108001100214C224AEA
S2140138D00023A04703000C001800204B9847022045
S2140138E0204B9847124B1B7820221343DBB218005B
S2140138F01E4B98471E4B04221A701E4B98471E4BB0
S21401390098471E4B02221A701C4B1B780422134345
S214013910DBB21800154B9847C046BD460BB0F0BD4C
S2140139200D250200DB060020DA060020D406002062
S214013930D9060020D20600202D3A010045360100A6
S214013940612B0200CD4402008D64020050C30000CA
S214013950BFCF6A004D640200C0CF6A00010000209C
S21401396069360100693A010094110000AD3B01007F
S214013970D1060020953D01004D3C0100D8060020EF
S21401398080B582B000AF3B1D1800084B98473B1D21
S21401399001221A703B1D00225A703B1D190024207B
S2140139A0034B9847C046BD4602B080BD4536010070
S2140139B0612B020080B500AF01212420024B9847FD
S2140139C0C046BD4680BDC0466936010080B582B09E
S2140139D000AF00212420114B984700237B600AE0AA
S2140139E00F4A7B68D3181B78002118000B4B9847A9
S2140139F07B6801337B607B68032BF1DD094B1B7809
S214013A0000211800054B9847074B1B78002118002A
S214013A10024B9847C046BD4602B080BD69360100DC
S214013A20D4060020DA060020DB06002080B584B02C
S214013A3000AFF860B9607A603B60FB68DAB2094BA8
S214013A401A70BB68DAB2074B5A707B68DAB2054B5C
S214013A509A703B68DAB2034BDA70C046BD4604B0D2
S214013A6080BDC046CC06002080B584B000AF020001
S214013A70FB1D1A700023FB6013E00E4AFB68D31887
S214013A801878FB1D1A78FB681A41130001221340AF
S214013A905A1E9341DBB21900074B9847FB68013366
S214013AA0FB60FB68032BE8DD044B9847C046BD4628
S214013AB004B080BDD406002069360100C13A010079
S214013AC0F0B585B000AF314B1B7800211800304BA4
S214013AD0984700202F4B98470300BB600023FB60EC
S214013AE02D4B0024B868F968C01861412B4C2C4A4C
S214013AF00023A04703000C0018002A4B9847234BCD
S214013B001B7801211800224B98470020214B98472B
S214013B1003001D0000231E001F4B00242800310057
S214013B20C01861411D4C1E4A0023A04703000C002B
S214013B3018001C4B9847154B1B7800211800144B96
S214013B4098470020134B984703003B6000237B6097
S214013B50154C6422002338687968A04703000C00DE
S214013B60190022000C4B0024C918624108001100FC
S214013B700A4C0B4A0023A04703000C001800094B0F
S214013B809847C046BD4605B0F0BDC046DA060020DF
S214013B9069360100CD440200BFCF6A004D640200C1
S214013BA0C0CF6A00010000208D64020080B582B09B
S214013BB000AF0200FB1D1A70FB1D1B7800211800C8
S214013BC0024B9847C046BD4602B080BDF93B010096
S214013BD080B582B000AF0200FB1D1A70FB1D1B787A
S214013BE001211800034B984701231800BD4602B077
S214013BF080BDC046F93B010080B582B000AF02002F
S214013C00FB1D1A70BB1D0A1C1A700D4B1A78BB1DC2
S214013C101B78591E8B41DBB219001000094B9847DF
S214013C20FB1D1B781B09DBB21800074B9847FB1DD1
S214013C301B781800044B9847C046BD4602B080BDAD
S214013C40DB06002069360100693A0100F8B500AFCD
S214013C500120134B98470020124B984703001D0084
S214013C6000231E00104CFA22D20000232800310047
S214013C70A04703000C00190022000C4B0024C918B1
S214013C806241080011000A4C0A4A0023A0470300BB
S214013C900C001800084B9847C046BD46F8BDC04604
S214013CA0AD3B0100CD4402008D640200BFCF6A0027
S214013CB04D640200C0CF6A000100002080B584B0C8
S214013CC000AF02003960FB1D1A70FB1DFA1D127849
S214013CD007210A401A70FB1D1B78DB005BB24022ED
S214013CE013435BB2DBB218000A4B98470023FB6014
S214013CF009E0FB683A68D3181B781800064B98470A
S214013D00FB680133FB60FB68072BF2DDC046BD464E
S214013D1004B080BDAD3B0100D13B010080B584B04D
S214013D2000AF0200FB1D1A70BB1D0A1C1A7004238B
S214013D30FB60BB1D1A78FB689A4204D3FB68DAB2B3
S214013D40BB1D013A1A70104B1B78BA1D12789A42A5
S214013D5004D30D4B1A78BB1D013A1A70BB1D1B7894
S214013D600A4AD25CFB1D1B78D318DBB25BB28022F9
S214013D70524213435BB2DBB21800054B9847C0466C
S214013D80BD4604B080BDC046D2060020CC06002049
S214013D90AD3B010080B500AF084B1B7804221343EE
S214013DA0DAB2064B1A70054B1B7808221343DBB2B6
S214013DB01800034B9847C046BD4680BDD10600207B
S214013DC0AD3B010080B584B000AF78607B68180019
S214013DD00F4B98470300FB600023BB600BE07B683A
S214013DE05A1C7A601B7818000A4B9847031E08D0A5
S214013DF0BB680133BB60FB685A1EFA60002BEED12C
S214013E0000E0C046BB681800BD4604B080BDC04691
S214013E108B8C0200D13B01000FB480B584B000AF9B
S214013E20BB691800114B984703000333FB60FB681E
S214013E3018000F4B98470300BB601C23FB187B60E0
S214013E407A68B969BB6818000A4B9847BB681800BE
S214013E50094B9847BB681800084B9847C046BD46B3
S214013E6004B080BC08BC04B01847C0468B8C020066
S214013E7079890200798F0200C53D01008D89020013
S214013E8080B584B000AF78607B68002B28D07B6853
S214013E90FB6020E00B23FB18FA6812781A70124BAD
S214013EA0984702000B23FB181B780133D3181B78A5
S214013EB01A0003231340022B04D10B23FB181B7893
S214013EC0203B02E00B23FB181B78DAB2FB681A7062
S214013ED0FB680133FB60FB681B78002BDAD100E03E
S214013EE0C046BD4604B080BD5D89020080B584B081
S214013EF000AF786039603B681800104B98470300A4
S214013F00FB607B6818000D4B98470300BB60BA68DE
S214013F10FB689A4209D3FA6879683B681800084B2F
S214013F209847031E01D1012300E000231A1C012338
S214013F301340DBB21800BD4604B080BD8B8C020076
S214013F40998C020080B500AFBFF34F8F024B034A36
S214013F50DA60BFF34F8FFEE700ED00E00400FA05DC
S214013F6080B584B000AF0200FB1D1A700F23FB184A
S214013F70FA1D1278D2091A700E23FB18FA1D127850
S214013F8052091A700D4BBB600F23FB181B78002BD0
S214013F900FD10F23FB181B789B0010229446BC44BC
S214013FA06344083B1A680E23FB181B78DB01D31801
S214013FB000E000231800BD4604B080BD0044004167
S214013FC080B500AF024B9847C046BD4680BDC0468F
S214013FD0453F010080B582B000AF0200FB1D1A709C
S214013FE0FB1D1B781800034B984703001800BD46BD
S214013FF002B080BD613F010080B582B000AF78603D
S2140140007B6800221A707B6801225A707B68002246
S2140140109A70C046BD4602B080BD000080B584B02F
S21401402000AF0200FB1D1A70FB1D1B7818000B4B1E
S21401403098470300FB60FB1D1B781F2213400122DB
S2140140409A401300BB60FB681B6ABA6813405A1E8D
S2140140509341DBB21800BD4604B080BDD53F0100D8
S21401406080B584B000AF0200FB1D1A70BB1D0A1C90
S2140140701A70FB1D1B7818000D4B98470300FB6058
S214014080FB1D1B781F22134001229A401300BB60C0
S214014090BB1D1B78002B03D0FB68BA689A6102E04F
S2140140A0FB68BA685A61C046BD4604B080BDC046CA
S2140140B0D53F010080B500AF0B4B1B780122534062
S2140140C0DBB2002B0CD0094B98470200084B1B684B
S2140140D0D21AFA239B009A4202D9034B01221A7084
S2140140E0C046BD4680BDC046660700203DFE0100B5
S2140140F0F007002080B582B000AFFB1D01221A70C8
S214014100234B1B78002B03D0FB1D224A127A1A7010
S214014110214B1B78002B37D0204B1B78012B0BD063
S2140141201F4B984702001F4B1B68D21AFB1D1B78BA
S2140141301D494B439A4227D91C4BDB78002B1AD0DA
S214014140134B1B78002B07D0194B1A78194B1A7092
S2140141500F4B00221A7015E0174B1B78002B11D05D
S214014160134B1A78154B1A70154B01221A70124B05
S21401417000221A7006E00E4B1A780E4B1A70044B8A
S21401418000221A700F4B9847C046BD4602B080BD4C
S214014190B60700206006002066070020E106002022
S2140141A03DFE0100D007002060EA0000380600202E
S2140141B0680700205B0700207A07002029070020F7
S2140141C03B070020C941010080B500AF074B5B7972
S2140141D04E2B03D1064B1B78002B04D0054B012236
S2140141E01A70054B9847C046BD4680BD6006002044
S2140141F03B0700203C0700203144010080B500AF9A
S2140142006D4B00221A706D4B00221A706C4B98474A
S2140142100022002100206B4B9847FA239B001800D0
S214014220694B9847694B00221A70694B5B78002BE3
S21401423002D0684B00221A70654BDB78012B1DD12A
S214014240654B1B78DBB24E2B04D0634B1B78DBB27D
S214014250522B0DD1614B1B78DBB24F2B08D1604B33
S2140142601B7801225340DBB2002B01D0012300E072
S21401427000231A1C01231340DBB215E0564B1B78B2
S214014280DBB24E2B04D0544B1B78DBB2522B06D13B
S214014290524B1B78DBB24F2B01D1012300E00023E8
S2140142A01A1C01231340DBB2002B21D04D4B1B7887
S2140142B0002B1DD14C4B1B7801225340DBB2002B47
S2140142C016D04A4B5B79542B12D1494B9B78012B64
S2140142D00ED9444B01221A70464B01221A70464BE6
S2140142E098470200454B1A60454B1A78454B1A70A1
S2140142F0374BDB78002B47D0374B1B78DBB2492B8B
S21401430004D0354B1B78DBB2522B37D1334B1B789D
S214014310DBB24F2B32D1324B1B78002B2ED03A4BCF
S2140143205B79002B2AD0394B1B780133DAB2374B35
S2140143301A70374B1B78002B06D0364B1B780021A2
S2140143401800354B984716E0304B1B78012B0CD8DC
S214014350294B98470200294B1A602E4B1A78294B95
S2140143601A702E4B01221A7005E02A4B1B78032186
S2140143701800294B98471A4B00221A70284B002226
S2140143801A70234B00221A70174B00221A70124B18
S2140143904E221A70114B4E221A70224B00221A70AE
S2140143A0154B98470200204B1A60204B00221A70CA
S2140143B0C046BD4680BDC046E006002088070020F6
S2140143C0FD2E010029C70100D9FA01003C07002093
S2140143D038060020EB070020C00700207B070020DE
S2140143E03B070020E10600208A0700206006002027
S2140143F020060020B60700203DFE0100D007002061
S2140144005B0700206807002064050020B70700202E
S21401441028070020290700203DB601007A07002062
S214014420B407002084070020F0070020660700205C
S21401443080B586B000AF204B01221A703B1D1800D4
S21401444014231A0000211D4B98471D4B5B79002B46
S21401445008D01C4B1B78002B04D03B1D18001A4BB0
S21401446098470FE0194B1B78002B07D0184B1A7989
S2140144703B1D11001800174B984703E03B1D180021
S214014480154B98473B1D1800144B98473B1D0022BF
S21401449019000320124B9847124B98470200124B03
S2140144A01A60124B52221A70114B4F221A70C046D4
S2140144B0BD4606B080BDC04688070020FB890200C5
S2140144C0640500203B070020ED0A0100E1060020FC
S2140144D020060020FD080100050D0100392D010010
S2140144E029C701003DFE0100F4070020C007002097
S2140144F07B07002080B500AF0A4B00221A700A4BDA
S21401450001221A70094B9847094B49221A70094B28
S21401451049221A7001214D20074B9847C046BD46D7
S21401452080BDC046840700208A070020D12D0100E7
S214014530C00700207B0700203D45010080B582B002
S21401454000AF0200FB1D1A70BB1D0A1C1A70144B2B
S2140145509847144B01221A70BB1D1B78002B16D0EE
S214014560114B01221A70114B00221A700F4B1B7847
S21401457019000F4BFA1D12785A540C4B1B78013355
S2140145800B4A0021D1540B4BFA1D12781A700A4BB4
S214014590FA1D12781A70C046BD4602B080BDC046EC
S2140145A05D2F010041080020B8070020A807002061
S2140145B0440700205B070020A707002080B500AF56
S2140145C00D4B1B78002B0ED00C4B984702000C4B62
S2140145D01B68D31A0B4A1278110064224A4393428D
S2140145E001D9012300E000231A1C01231340DBB28A
S2140145F01800BD4680BDC046410800203DFE0100B2
S2140146001C080020B907002080B500AF0B4B1B78B3
S214014610012B06D90A4B1B7800211800094B984735
S21401462005E0074B1B7801211800064B9847064BFF
S21401463000221A70C046BD4680BDC046B80700209D
S214014640A70700208D2F01004108002080B582B009
S21401465000AF7860184B1B7801225340DBB2002B69
S21401466025D07B681800154B9847031E1FD0144BA6
S2140146701B78012B1BD9134B1B781A00104B1B7888
S214014680013B9A420FDA0F4B1B780133DAB20D4B1E
S2140146901A700C4B1B781A000B4B9B5C0021180000
S2140146A00A4B984703E001214D20084B9847C04626
S2140146B0BD4602B080BDC0464108002091350100CC
S2140146C0B8070020A8070020440700203D45010048
S2140146D080B582B000AF78607B681800144B9847AD
S2140146E003000E2B1FD8134B00221A707B6818008C
S2140146F00F4B98470300DAB20F4B1A707A680F4BCC
S214014700110018000E4B98470E4B984702000E4BAF
S2140147101A60084B1B781A00084B9A5C0B4B1A70F0
S2140147200B4B01221A70C046BD4602B080BDC04682
S2140147308B8C0200A8070020B80700204407002041
S2140147407B8C02003DFE01001C080020A70700200C
S2140147504108002080B500AF094B98470200094B7D
S2140147601B68D21A084B1B88190064234B43190097
S21401477000238A425B41DBB21800BD4680BDC046BD
S2140147803DFE0100F40700205C07002080B582B0E2
S21401479000AF7860164A7B6811001800154B9847E1
S2140147A0031E01D044231EE0134A7B681100180043
S2140147B0104B9847031E01D0522314E00F4A7B6822
S2140147C0110018000B4B9847031E01D049230AE03D
S2140147D00B4A7B6811001800064B9847031E01D050
S2140147E0452300E04E231800BD4602B080BDC046FA
S2140147F0F49B0200BB8C0200049C0200149C020085
S214014800249C020080B582B000AF0200FB1D1A7026
S214014810344B9B78002B03D0334B5B794E2B01D165
S21401482001235BE0314B1B78DBB201225340DBB244
S214014830002B01D0012351E02D4B1B780122534060
S214014840DBB2002B07D02B4B1B78FA1D12789A424D
S21401485001D1012342E0284B1B78DBB24E2B3CD121
S214014860264B1B78DBB24E2B37D1254B1B78002B02
S21401487033D01F4B1B7801225340DBB2002B2CD0C8
S214014880204B1B7801225340DBB2002B25D0164B60
S2140148905B7A002B05D01C4B9847031E01D00123E1
S2140148A01CE01A4B00221A700F4B1B7A002B0CD0FF
S2140148B0174B98470200174B1A60174BFA1D1278D0
S2140148C01A700B4B01221A7005E00A4BFA1D12787A
S2140148D01A70124B9847012300E000231800BD46CA
S2140148E002B080BD20060020600600208907002057
S2140148F0B60700205B070020C00700207B070020CA
S214014900660700207A0700208D6D0100E106002071
S2140149103DFE0100D007002068070020C9410100C4
S21401492080B582B000AF0200FB1D1A70204B1B78C9
S214014930DBB201225340DBB2002B06D0FB1D1B78F5
S214014940002118001B4B98472EE01B4B1B78DBB24F
S2140149504E2B29D1194B1B78DBB24E2B24D1184B89
S2140149601B78002B20D0174B1B7801225340DBB25B
S214014970002B19D0144B1B7801225340DBB2002BBD
S21401498012D0FB1D1B78022118000A4B98470F4BCB
S21401499001221A700E4BFA1D12781A700D4B002266
S2140149A01A700D4B9847C046BD4602B080BDC04642
S2140149B0890700203DB60100C00700207B070020C4
S2140149C066070020B60700207A0700203B07002074
S2140149D029070020B7070020C941010080B582B031
S2140149E000AF0200FB1D1A70074B1B78DBB2492B88
S2140149F006D1FB1D1B7801211800044B984700E0E7
S214014A00C046BD4602B080BDC00700203D4501003E
S214014A1080B582B000AF0200FB1D1A700C4B1B78EC
S214014A2001225340DBB2002B0DD00A4B5B79412BA0
S214014A3009D1094BFA1D12781A70084B0022002181
S214014A401800074B9847C046BD4602B080BDC04619
S214014A508A070020600600205B070020349C0200C5
S214014A60716E010080B500AF044B9847044B984720
S214014A700200044B1A60C046BD4680BD5D2F010092
S214014A803DFE0100F407002080B584B000AF7860D9
S214014A900F23FB187A6812781A706A4BDB78002BA2
S214014AA010D0694B1B78002B00D1C7E00F23FB18F1
S214014AB01B78412B00D0C1E0644B01221A70644B75
S214014AC09847BBE00F23FB181B78312B06D1614BAF
S214014AD0984700210120604B9847AFE00F23FB1851
S214014AE01B78322B07D15B4B98470022002101200F
S214014AF05A4B9847A2E00F23FB181B78332B04D19F
S214014B00544B9847564B984798E00F23FB181B7851
S214014B10342B0AD14B4B5B79002B00D18EE04D4BE9
S214014B20984700204F4B984788E00F23FB181B78C7
S214014B30352B0AD1434B1B79002B00D17EE0454B28
S214014B4098470020484B984778E00F23FB181B78BE
S214014B50302B14D13B4B5B78002B00D16EE0434BDE
S214014B601B78002B07D0424B98473A4B98473F4B50
S214014B7000221A7062E03D4B01221A705EE00F239C
S214014B80FB181B78372B08D12E4B9B78002B55D062
S214014B90304B9847374B984750E00F23FB181B784C
S214014BA0442B0DD10120344B98470120334B9847B5
S214014BB000210020284B9847FF20314B98473DE0C5
S214014BC00F23FB181B78432B0BD100202A4B984749
S214014BD0012200210020214B9847FF20284B9847AF
S214014BE02CE00F23FB181B78382B0CD1194B984758
S214014BF00120214B98470120204B9847012129206D
S214014C00204B98471AE00F23FB181B78392B0CD141
S214014C10104B98470020184B98470120174B984790
S214014C2001215B20174B984708E00F23FB181B78E0
S214014C302A2B03D1074B9847134B9847C046BD46CE
S214014C4004B080BD380600203B070020280700205E
S214014C50FD2E0100654A0100F1AE0100B5B001006C
S214014C60EDB4010045900100FD8E0100EB07002028
S214014C700D9B0100019C01008D120100BDAA0100DF
S214014C802D7001003D450100FDB50100F0B5C64699
S214014C9000B5D2B006AFF8600C0010001900EB4B5F
S214014CA094225200944608229046B844C444634471
S214014CB0221C1A70E64B9422520094460822904613
S214014CC0B844C4446344021C1A70E24B9422520056
S214014CD0944608229046B844C44463440A1C1A7099
S214014CE02823FF3308229446BC44634400221A70EA
S214014CF0FB688C22520008218C46BC446244136037
S214014D00D44B94225200944608229046B844C44498
S214014D1063441B78002B0ED0CF4AFB6811001800A5
S214014D20CE4B984703001A0001235340DBB2002BF9
S214014D3001D001F069FFCA4AFB6811001800C74B91
S214014D409847031E14D0C74B01225A71C549C64B5A
S214014D5018221800C54B9847C34B19000020C44BB6
S214014D609847C44B98476420C34B9847C34B984712
S214014D70C34AFB6811001800B84B9847031E47D07A
S214014D801823FF330822BA18D418BE4B98470300DD
S214014D9023702823FF3308229446BC44634401222F
S214014DA01A70AB4B94225200944608229046B8449F
S214014DB0C44463441B78002B01D101F0DFFE1823A5
S214014DC0FF3308229446BC4463441B78002B0DD164
S214014DD00C2308229446BC446344AB4A13CA13C34B
S214014DE013CA13C313CA13C301F0C8FE0C23082247
S214014DF09446BC446344A54A13CA13C313CA13C3D7
S214014E0003CA03C31188198092789A7001F0B6FE1E
S214014E109F4AFB6811001800904B9847031E30D03C
S214014E208A4B94225200944608229046B844C444C1
S214014E3063441B781800974B98472823FF330822B2
S214014E409446BC44634401221A70814B942252005A
S214014E50944608229046B844C44463441B78002B09
S214014E6001D101F08BFE0C2308229446BC44634416
S214014E70894A13CA13C313CA13C312781A7001F0EE
S214014E807DFE864AFB6811001800744B9847031E86
S214014E9065D00020824B9847824B5B79002B0DD062
S214014EA00020814B98477F4BDB78002B03D00020F6
S214014EB07E4B984702E000207D4B9847794B5B7804
S214014EC0002B08D078207B4B984755207A4B984783
S214014ED000207A4B98470020794B98470020794B61
S214014EE098474320784B98473220784B98470220C2
S214014EF0774B98470120774B98475020764B984739
S214014F000120764B98470020754B98470120754B3A
S214014F1098472823FF3308229446BC446344012261
S214014F201A704B4B94225200944608229046B8447D
S214014F30C44463441B78002B01D101F01FFE0C23EF
S214014F4008229446BC446344674A13CA13C313CA6F
S214014F5013C313CA13C312781A7001F00FFE634A03
S214014F60FB68110018003D4B9847031E38D0384B9C
S214014F7094225200944608229046B844C44463449E
S214014F8001221A702823FF3308229446BC44634446
S214014F9001221A700C2308229446BC446344FA2268
S214014FA000211800524B9847524B9B78002B0DD18D
S214014FB00C2308229446BC4463444F4A13CA13C3C5
S214014FC01168196092889A8001F0D8FD0C23082296
S214014FD09446BC4463441800484B984701F0CEFD04
S214014FE0474AFB68110018001C4B9847031E03D064
S214014FF0224B984701F0C2FD424AFB681100180097
S214015000164B9847031E00D182E0114B94225200A2
S214015010944608229046B844C444634401221A7058
S2140150202823FF3308229446BC44634401221A70A5
S2140150301C4B9A6834490C2308208446BC446344BC
S2140150401800324B984701F099FDC046DBFEFFFF82
S214015050DAFEFFFFD9FEFFFF389C0200ED3E01009D
S214015060409C02000806002094050020C589020025
S214015070E135020089370200D9FA0100C13F01007B
S214015080489C02002D2F0100509C0200749C0200D7
S214015090989C0200F1100100A49C0200C09C020032
S2140150A08D120100380600204D140100C90B0100C5
S2140150B099140100E51401004D1501009118010035
S2140150C0291901002513010071130100D9120100ED
S2140150D0DD180100BD150100091601005516010075
S2140150E0091A0100591A0100C89C0200F09C02002E
S2140150F0FB89020020060020F49C0200DD07010067
S214015100089D0200109D0200149D0200018C020001
S214015110EC4AFB6811001800EB4B9847031E27D09A
S2140151200120EA4B98470120E94B98472823FF3393
S21401513008229446BC44634401221A70E54B94222B
S2140151405200944608229046B844C44463441B78EF
S214015150002B01D101F012FD0C2308229446BC4419
S2140151606344DD4A13CA13C312681A6001F006FDD0
S214015170DA4AFB6811001800D34B9847031E29D062
S2140151800020D24B98470120D14B98472823FF3364
S21401519008229446BC44634401221A70CD4B9422E3
S2140151A05200944608229046B844C44463441B788F
S2140151B0002B01D101F0E2FC0C2308229446BC44EA
S2140151C06344C74A13CA13C31168196012791A7166
S2140151D001F0D4FCC34AFB6811001800BA4B98478B
S2140151E0031E2AD0C04B5B79002B01D101F0C6FC0F
S2140151F02823FF3308229446BC44634401221A70D4
S2140152000120BA4B9847B34B942252009446082289
S2140152109046B844C44463441B78002B01D101F086
S214015220ADFC0C2308229446BC446344B04A13CA1E
S21401523013C312681A6001F0A1FCAE4AFB681100A4
S2140152401800A14B9847031E2CD0A74B5B79002B67
S21401525001D101F093FC2823FF3308229446BC4475
S214015260634401221A700020A04B9847994B942260
S2140152705200944608229046B844C44463441B78BE
S214015280002B01D101F07AFC0C2308229446BC4481
S2140152906344994A13CA13C31168196012791A71C3
S2140152A001F06CFC954AFB6811001800864B984784
S2140152B0031E26D00120924B98472823FF3308224D
S2140152C09446BC44634401221A70824B94225200D5
S2140152D0944608229046B844C44463441B78002B85
S2140152E001D101F04BFC0C2308229446BC446344D4
S2140152F0844A116819609188998092799A7101F0AF
S2140153003DFC814AFB68110018006F4B9847031E4D
S21401531022D000207A4B98472823FF330822944650
S214015320BC44634401221A706A4B9422520094468C
S21401533008229046B844C44463441B78002B01D12C
S21401534001F01CFC0C2308229446BC4463446F4ABB
S21401535003CA03C301F012FC6D4AFB681100180072
S214015360594B9847031E55D0FB681C1DFB68180057
S214015370684B98470200FB6821001800664B984767
S214015380FB681800654B9847020093235B000821D1
S2140153908C46BC4463441A7093235B0008229446EF
S2140153A0BC4463441B78132B07D893235B00082265
S2140153B09446BC44634414221A7093235B0008226B
S2140153C09446BC4463441B789BB21800544B9847E0
S2140153D02823FF3308229446BC44634401221A70F2
S2140153E03C4B94225200944608229046B844C4444A
S2140153F063441B78002B01D101F0C0FB0C2308226B
S2140154009446BC446344474A13CA13C312781A70BD
S21401541001F0B4FB444AFB68110018002A4B984778
S214015420031E22D00120414B98472823FF33082230
S2140154309446BC44634401221A70264B94225200BF
S214015440944608229046B844C44463441B78002B13
S21401545001D101F093FB0C2308229446BC4463441B
S214015460334A03CA03C301F089FB324AFB681100C1
S2140154701800154B9847031E60D000202B4B984709
S2140154802823FF3308229446BC44634401221A7041
S214015490104B94225200944608229046B844C444C5
S2140154A063441B78002B01D101F068FB0C23082212
S2140154B09446BC446344204A03CA03C312781A7054
S2140154C001F05CFB189D0200ED3E01008D1201000B
S2140154D0BDAA0100DAFEFFFF209D0200309D0200FA
S2140154E0389D02004C9D0200380600204D14010034
S2140154F0549D0200649D02006C9D0200809D020086
S214015500BD150100889D0200909D0200989D020035
S214015510A09D02008B8C0200D7890200E188020060
S21401552009160100A89D0200B89D0200551601004B
S214015530C09D0200C89D0200D09D0200EC4AFB6897
S21401554011001800EB4B9847031E6CD0FB6818003F
S214015550E94B98470300032B01D801F00FFBFB68CA
S214015560DC1CFB681800E44B98470200FB6821002E
S2140155701800E24B9847FB681B784C2B09D0FB6858
S2140155801B78532B05D0FB681B784F2B01D001F0FD
S214015590F5FAFB68DBB21800D94B98472823FF338E
S2140155A008229446BC44634401221A70D54B9422C7
S2140155B05200944608229046B844C44463441B787B
S2140155C0002B01D101F0DAFA0C2308229446BC44E0
S2140155D06344CD4A116819609188998092799A71CD
S2140155E0FA680C2308218C46BC4463441100180059
S2140155F0C64B98470C2308229446BC4463441800C3
S214015600BD4B984703001A000C2308218C46BC4466
S21401561063449A18BE4B1000190004231A00BD4BB0
S214015620984701F0ABFABC4AFB6811001800B14B71
S2140156309847031E72D0FB681800AF4B98470300CB
S214015640042B01D801F09AFAFB681C1DFB681800B0
S214015650A94B98470200FB6821001800A74B984702
S214015660FB681800AD4B984702002623FF3308213C
S2140156708C46BC4463441A702623FF3308229446A2
S214015680BC4463441B78022B01D901F077FA262328
S214015690FF3308229446BC4463441B78012B0BD18C
S2140156A09F4B5B78002B07D12623FF3308229446B5
S2140156B0BC44634400221A702623FF330822944612
S2140156C0BC4463441B781800964B98472823FF3345
S2140156D008229446BC44634401221A70894B9422E2
S2140156E05200944608229046B844C44463441B784A
S2140156F0002B01D101F042FA2623FF3308229446FB
S214015700BC4463441A7888490C2308208446BC4468
S21401571063441800854B984701F030FA844AFB68C9
S21401572011001800734B9847031E6BD0FB681800D6
S214015730714B98470300082B01D801F01FFAFB684C
S21401574008331C00FB6818006B4B98470200FB6887
S21401575021001800694B9847714B5B78002B01D1EB
S21401576001F00CFAFB681B78502B05D0FB681B7800
S214015770432B01D001F002FAFB68DBB218006D4B37
S21401578098472823FF3308229446BC4463440122E9
S2140157901A705C4B94225200944608229046B844F4
S2140157A0C44463441B78002B01D101F0E7F90C23B4
S2140157B008229446BC4463445F4A13CA13C3FA687A
S2140157C00C2308218C46BC446344110018004F4B3F
S2140157D098470C2308229446BC4463441800464B61
S2140157E0984703001A000C2308218C46BC446344E6
S2140157F09A18474B1000190004231A00454B984786
S21401580001F0BCF94D4AFB6811001800394B984766
S214015810031E00D196E0FB681800374B984703003B
S214015820042B01D801F0AAF9FB681C1DFB681800BF
S214015830314B98470200FB68210018002F4B984710
S214015840FB681B78432B0DD0FB681B78412B09D0D6
S214015850FB681B78542B05D0FB681B784E2B01D0B8
S21401586001F08CF9FB68DBB21800324B984728230D
S214015870FF3308229446BC44634401221A70214B2C
S21401588094225200944608229046B844C444634485
S2140158901B78002B01D101F071F90C2308229446E4
S2140158A0BC446344264A03CA03C3FA680C2308218E
S2140158B08C46BC44634411001800144B98470C23D3
S2140158C008229446BC44634418000B4B98470300D7
