S0110000434F4D4D414E4445522E737265637D
S2140100000830002089550200815602008156020000
S21401001000000000000000000000000000000000DA
S21401002000000000000000000000000089F601004A
S2140100300000000000000000C1F7010009F80100FF
S2140100408156020081560200011F020005F00100E0
S214010050292F0200815602001DEA01008156020086
S214010060952F0200212D0200392D0200512D02008C
S214010070692D0200812D0200992D0200251F020024
S214010080391F02004D1F0200DD1F0200F11F020092
S21401009005200200192002002D200200FDE70100C4
S2140100A0CD300200E1E901008156020081560200CE
S2140100B00000000010B5064C2378002B07D1054B35
S2140100C0002B02D0044800E000BF0123237010BDBE
S2140100D000040020000000009CB90200084B10B587
S2140100E0002B03D00749084800E000BF0748036813
S2140100F0002B00D110BD064B002BFBD09847F9E72B
S21401010000000000040400209CB902009CB9020013
S2140101100000000090B583B000AFFC1D0A4B984765
S21401012003002370FB1D1B78162B00D1FEE7FB1D79
S2140101301B78002B03D0054B9847034B9847C046C6
S214010140BD4603B090BDC046454102002D420200A7
S21401015080B500AFF74B9847F74B19000020F74BD7
S2140101609847F549F64B1C221800F64B9847F44B76
S2140101701B79552B2CD0F24B00221A60F04B5522DE
S2140101801A71EF4B00225A71ED4B00229A71EC4B1B
S2140101900022DA71EA4B00221A72EB4B1022002180
S2140101A01800EA4B9847E84BE94A03CA03C311888B
S2140101B0198092789A70E249DF4B1C221800E14BB5
S2140101C09847DD4B19000020E24B9847E24B9847D1
S2140101D0D94B19000120D94B9847D749DF4B382214
S2140101E01800D84B9847DD4B1B79552B2ED0DB4B8F
S2140101F000221A60D94B55221A71D94B1E220021B2
S2140102001800D24B9847D64AD64B10001900102337
S2140102101A00CC4B9847D44B142200211800CB4B24
S2140102209847D14AD14B100019000B231A00C54B31
S2140102309847CA49C04B38221800C24B9847BE4B54
S21401024019000120C34B9847C34B9847BA4B190076
S2140102500220BA4B9847B849C54B38221800B94B0B
S2140102609847C34B1B79552B3CD0C14B00221A60D3
S214010270BF4B55221A71BF4B102200211800B34BF9
S2140102809847BB4B0522BC499B1810221800AD4B62
S2140102909847BA4B102200211800AC4B9847B84A31
S2140102A0B84B100019000A231A00A64B9847B34B07
S2140102B0102200211800A54B9847B04AB24B1000F7
S2140102C019000D231A009F4B9847A9499A4B3822CB
S2140102D018009C4B9847984B190002209D4B984755
S2140102E09D4B9847944B19000820944B9847A74A72
S2140102F0914B1000190008231A00924B9847A34B04
S2140103001B78552B1DD0A14B55221A709F4B0F22DF
S2140103105A709E4B00229A709C4B0022DA709B4BBF
S21401032001221A71844A994B1000190008231A00F9
S214010330844B9847804B19000820864B9847864B7C
S2140103409847934B19000320924B9847924B1900FC
S2140103500420904B9847914B190005208D4B9847E8
S2140103608F4B190006208B4B98478E4B19000720A0
S214010370884B9847764B19000920864B9847744B53
S21401038019000A20834B9847714B19000B20814BAB
S21401039098476F4B19000C207E4B98476C4B190001
S2140103A00D207C4B98476A4B19000E20794B9847D5
S2140103B0674B19000F20774B9847654B19001020A3
S2140103C0744B9847624B19001120724B9847604B4B
S2140103D0190012206F4B98475D4B190013206D4B87
S2140103E098475B4B190014206A4B9847584B1900E5
S2140103F01520684B9847564B19001620654B9847B1
S214010400534B19001720634B98474B4B1900182084
S2140104104A4B9847644A484B1000190018231A00A3
S214010420484B9847604B1B78552B25D05E4B552281
S2140104301A705D4B00229A705B4B00225A705B4B20
S214010440142200211800414B9847584A404B10008F
S21401045019000B231A003B4B9847374A524B1000A2
S214010460190018231A00374B9847334B19001820E8
S214010470384B9847384B98472F4B190019202F4B6C
S21401048098474B4A2C4B1000190030231A002D4B6D
S2140104909847474B1B78552B3CD0454B55221A7035
S2140104A0444B142200211800284B9847414A284BF8
S2140104B0100019000B231A00224B98473E4B1422BA
S2140104C000211800214B98473B4A214B1000190088
S2140104D00B231A001B4B9847354B00225A70344B9E
S2140104E000229A70324B0022DA70314B00221A71C8
S2140104F02F4B00225A71104A2D4B10001900302341
S2140105001A00104B98470C4B19001920114B9847AD
S214010510114B9847084B19001A20084B9847064973
S214010520264B30221800074B9847244B1B78DBB22A
S21401053046E0C04615010100840700205D43020025
S214010540F8070020219602000408002057960200B2
S21401055058A2020051420200F94302001C07002083
S2140105602107002064A202003F07002074A20200B7
S214010570C0070020C507002080A20200E507002072
S214010580D507002090A202009CA2020014080020B9
S214010590ACA202002D070100B8A20200C4A202000C
S2140105A0D0A20200DCA202003C0800204008002085
S2140105B0540700205C070020700700205408002024
S2140105C0552B65D0514B55221A70504B00225A704C
S2140105D04E4B32225A804D4B4F221A714B4B5422AE
S2140105E05A714A4B0222DA80484B00221A72474B54
S2140105F000225A72454B00229A72444B0022DA724C
S214010600424B00221A73414B00225A733F4B002281
S2140106109A733E4B0022DA733C4B00221A613B4B25
S21401062000225A61394B00229A61384B55221A77BB
S214010630364B78225A77354B00229A77334B002275
S214010640DA77324B202201219954304B50225A84BA
S2140106502E4B2422012199542C4B252202219954F8
S2140106602A4B262202219954284B272200219954ED
S214010670264B274A9A622549264B30221800264BDC
S2140106809847244B19001A20244B9847244B984727
S214010690204B19001B20234B98471E49224B102242
S2140106A018001D4B9847204B1B78552B2AD01E4B04
S2140106B055221A701C4B01229A701B4B01225A704C
S2140106C0194B00229A71184B00225A71164B0022C0
S2140106D01A71154B0022DA70134B0022DA71124B95
S2140106E000229A60104B0022DA600F49094B102253
S2140106F01800094B9847074B19001B20074B9847D2
S214010700074B9847C046BD4680BDC04654080020EA
S21401071010270000840700202196020051420200A3
S214010720F94302005D4302002C08002080B588B022
S21401073000AF02003960FB1D1A70284B3C220021D5
S2140107401800274B9847254AFB1D1B7811001800F7
S214010750244B98470823FA18204B10001900182339
S2140107601A00214B98470823FB181B78552B31D0CC
S2140107700823FB1855221A700823FB1800225A700A
S2140107800823FB1800229A700823FB180022DA704F
S2140107900823FB180433142200211800104B984735
S2140107A03A680823FB180433110018000F4B9847CA
S2140107B00A4A0823FB181000190018231A000A4BCE
S2140107C09847064AFB1D1B7811001800084B9847EE
S2140107D0084B9847C046BD4608B080BD8407002038
S2140107E0579602005D43020021960200D798020048
S2140107F051420200F943020080B58AB000AF78602A
S2140108007B6800221A702723FB1800221A7063E007
S214010810374B3C2200211800364B98472723FB18FC
S2140108201B780933DBB2324A11001800324B984765
S2140108300C23FA182E4B1000190018231A002F4B00
S21401084098472F4BDB782722BA1812789A420FD195
S2140108507B6818002B4B984703001A007B689A1890
S214010860294B1000190003231A00244B984715E062
S214010870234B1B792722BA1812789A420ED17B682D
S2140108801800204B984703001A007B689A181F4BE4
S2140108901000190003231A00184B98470C23FB1865
S2140108A01A1D7B6811001800194B98477B681800C1
S2140108B0144B984703001A007B689A18154B1000D2
S2140108C0190002231A000D4B98472723FB181A78A4
S2140108D02723FB1801321A70094B9B782722BA1876
S2140108E012789A4294D3C046BD460AB080BDC0462F
S2140108F084070020579602005D43020021960200FD
S21401090014080020E7980200E8A20200ECA2020008
S214010910A1980200F0A2020080B588B000AF78600E
S2140109200A00FB1C1A707B6800221A70154B9B7814
S214010930FA1C12789A421FD2134B3C22002118004F
S214010940124B9847FB1C1B780933DBB20E4A110089
S21401095018000F4B98470823FA180B4B1000190084
S21401096018231A000B4B98470823FB181A1D7B689F
S21401097011001800084B98477B681800BD4608B060
S21401098080BDC04614080020840700205796020048
S2140109905D43020021960200A198020080B588B04E
S2140109A000AF7860144B9B78002B20D00C23FB18EB
S2140109B0180014231A000021104B98470E4BDA78C2
S2140109C00C23FB18110018000D4B98470C23FA183E
S2140109D07B68110018000B4B9847031E01D00123BA
S2140109E006E07B681800084B9847030000E00023E8
S2140109F01800BD4608B080BD1408002057960200B6
S214010A0019090100179902000D0A010080B582B08C
S214010A1000AF78600B4B9B78002B0DD00A4B9B7870
S214010A20002B09D0094A7B6811001800084B98472B
S214010A30031E01D0012300E000231800BD4602B0CA
S214010A4080BDC046140800203C0800204008002055
S214010A501799020080B582B000AF7860094B5B78C9
S214010A60002B09D0084A7B6811001800074B9847ED
S214010A70031E01D0012300E000231800BD4602B08A
S214010A8080BDC046540700205C070020179902006D
S214010A9080B582B000AF7860094BDB78002B09D0B7
S214010AA0084A7B6811001800074B9847031E01D0BF
S214010AB0012300E000231800BD4602B080BDC046F9
S214010AC054070020700700201799020080B582B0F5
S214010AD000AF7860094B5B78002B06D0084A7B682C
S214010AE011001800074B984702E07B6800221A7035
S214010AF07B681800BD4602B080BDC0465407002082
S214010B005C070020D798020080B582B000AF7860FD
S214010B10094BDB78002B06D0084A7B6811001800C9
S214010B20074B984702E07B6800221A707B68180022
S214010B30BD4602B080BDC0465407002070070020A5
S214010B40D798020080B582B000AF0200FB1D1A7074
S214010B50FB1D1A780A4B9A700A4A094B10001900B5
S214010B6030231A00084B9847064B19001920074BEB
S214010B709847074B9847C046BD4602B080BDC04661
S214010B8054070020840700202196020051420200EB
S214010B90F943020080B582B000AF0200FB1D1A7057
S214010BA0FB1D1A780A4B1A710A4A094B10001900E4
S214010BB030231A00084B9847064B19001920074B9B
S214010BC09847074B9847C046BD4602B080BDC04611
S214010BD0540700208407002021960200514202009B
S214010BE0F943020080B582B000AF0200FB1D1A7007
S214010BF0FB1D1A780F4B5A71FB1D1B7801225340BF
S214010C00DBB2002B02D00B4B00221A710A4A094BA9
S214010C101000190030231A00084B9847064B19009C
S214010C201920074B9847074B9847C046BD4602B068
S214010C3080BDC0465407002084070020219602008C
S214010C4051420200F943020080B582B000AF7860DD
S214010C500F4B01225A707A680E4B110018000E4B8A
S214010C6098470E4A0A4B1000190030231A000C4B05
S214010C7098470A4B190019200A4B98470A4B984780
S214010C8000200A4B9847C046BD4602B080BDC0460C
S214010C90540700205C070020D79802008407002034
S214010CA02196020051420200F9430200450B010061
S214010CB080B582B000AF7860104B0122DA707A6896
S214010CC00F4B110018000F4B98470F4A0B4B1000A3
S214010CD0190030231A000D4B98470B4B19001920A9
S214010CE00B4B98470B4B984700200B4B984700201F
S214010CF00A4B9847C046BD4602B080BD5407002047
S214010D0070070020D7980200840700202196020071
S214010D1051420200F9430200950B0100E50B010068
S214010D2080B58EB000AF7860284B9B78002B2BD017
S214010D30274B5B78002B06D0264A7B6811001800EB
S214010D40254B98473CE0254B3C2200211800244BBC
S214010D5098471E4BDB780933DBB2204A1100180096
S214010D60204B98472023FA181C4B10001900182313
S214010D701A001D4B98472023FB181A1D7B6811008B
S214010D801800154B98471BE0144B3C220021180015
S214010D90134B9847114B19000320124B9847082311
S214010DA0FA180E4B1000190018231A000E4B98471C
S214010DB00823FB181A1D7B6811001800064B98477C
S214010DC07B681800BD460EB080BDC04614080020E2
S214010DD03C08002040080020D79802008407002025
S214010DE0579602005D4302002196020080B58AB044
S214010DF000AF7860334B9B78002B39D02723FB1844
S214010E0000221A702DE0304B3C22002118002F4B97
S214010E1098472723FB181B780933DBB22A4A1100AF
S214010E2018002B4B98470C23FA18274B1000190073
S214010E3018231A00274B98470C23FB181A1D7B68AA
S214010E4011001800244B9847031E03D02723FB18D4
S214010E501B7832E02723FB181A782723FB18013268
S214010E601A70184B9B782722BA1812789A42CAD35E
S214010E707B681800194B9847031E01D0FD231CE020
S214010E80174B9B78002B07D07B681800154B9847AB
S214010E90031E01D0FE2310E0134BDB78002B0BD092
S214010EA00F4B1B79002B07D07B6818000F4B984718
S214010EB0031E01D0FE2300E0FF231800BD460AB042
S214010EC080BDC04614080020840700205796020003
S214010ED05D43020021960200179902000D0A0100E7
S214010EE054070020550A01002C080020910A010031
S214010EF080B588B000AF7860334B9A78324B5B7818
S214010F009A4201D100235AE07B6818002F4B98477C
S214010F100300F02B52D92E4B3C22002118002D4BFA
S214010F209847294B9B780933DBB2294A11001800F0
S214010F30294B98470823FA18254B10001900182347
S214010F401A00264B98470823FB1804331422002165
S214010F501800204B98477A680823FB1804331100C1
S214010F6018001F4B98471A4A0823FB18100019004F
S214010F7018231A00194B9847134B9B780933DBB299
S214010F80134A11001800174B9847174B98470E4BFA
S214010F909B780133DAB20C4B9A700D4A0A4B10005B
S214010FA0190008231A000D4B9847094B1900082011
S214010FB00C4B98470C4B9847012300E00023180080
S214010FC0BD4608B080BDC04614080020ED0D0100E6
S214010FD084070020579602005D4302002196020016
S214010FE0D798020051420200F943020090B585B03D
S214010FF000AF78603D4B9B78012B01D8002371E050
S2140110000E23FC187B681800394B984703002370A1
S214011010364B5B780E22BA1812789A4261D2334B5D
S214011020DB780E22BA1812789A425AD00F23FB1890
S2140110300E22BA1812781A7022E02E4B3C2200219A
S21401104018002D4B98470F23FB181B780A33DBB289
S214011050284A11001800294B98470F23FB181B78C4
S2140110600933DBB2234A11001800254B9847254B5C
S21401107098470F23FB181A780F23FB1801321A70B2
S2140110800F23FB181A78194B9B78013B9A42D4DB45
S214011090164B9B78013BDAB2144B9A70134B1B79B3
S2140110A00E22BA1812789A4207D00E23FB181A7825
S2140110B00E4B9B78013B9A4202DD0C4B01221A71C2
S2140110C00C4A0A4B1000190008231A000E4B9847C9
S2140110D0084B190008200A4B98470A4B98470123EA
S2140110E000E000231800BD4605B090BD140800209E
S2140110F0ED0D010084070020579602005D430200B3
S21401110051420200F94302002196020080B582B0E6
S21401111000AF0200FB1D1A70FB1D1B78002B03D0CD
S214011120284B00229A7018E0274B3C220021180019
S214011130264B9847234BDB780933DBB2224A110052
S2140111401800234B9847204B19000920214B98473C
S214011150214B98471B4B01229A701A4B0022DA70DA
S214011160184B01221A71184A164B10001900082351
S2140111701A001A4B9847134B0022DA70114B0122C2
S2140111801A71114B19000820124B9847124B9847B9
S2140111900020134B9847134B00229A700A4A114BB2
S2140111A01000190018231A000C4B9847064B19001B
S2140111B01820084B9847084B9847C046BD4602B0D2
S2140111C080BDC04614080020840700205796020000
S2140111D05D43020051420200F943020021960200DB
S2140111E0E91101003C08002080B582B000AF020082
S2140111F0FB1D1A70FB1D1A780A4B5A700A4A094BD6
S2140112001000190018231A00084B9847064B1900BE
S2140112101820074B9847074B9847C046BD4602B073
S21401122080BDC0463C0800208407002021960200AD
S21401123051420200F943020080B582B000AF7860E7
S214011240114B9B78002B19D0104B01229A707A68AB
S2140112500F4B110018000F4B98470F4A0B4B10000D
S214011260190018231A000D4B98470B4B190018202C
S2140112700B4B98470B4B9847012300E000231800BF
S214011280BD4602B080BDC046140800203C080020C0
S21401129040080020D798020084070020219602000B
S2140112A051420200F943020080B582B000AF02004D
S2140112B0FB1D1A70FB1D1A78094B5A700849094B19
S2140112C030221800084B9847064B19001A20074B86
S2140112D09847074B9847C046BD4602B080BDC046FA
S2140112E05408002084070020219602005142020083
S2140112F0F943020080B582B000AF0200BB1D1A8020
S2140113000A4BBA1D12885A800849094B3022180028
S214011310084B9847064B19001A20074B9847074B6E
S2140113209847C046BD4602B080BDC046540800205E
S214011330840700202196020051420200F943020070
S21401134080B582B000AF0200FB1D1A700A4BFA1D71
S21401135012781A710849094B30221800084B984731
S214011360064B19001A20074B9847074B9847C0466B
S214011370BD4602B080BDC046540800208407002048
S2140113802196020051420200F943020080B582B064
S21401139000AF0200FB1D1A700A4BFA1D12785A7133
S2140113A00849094B30221800084B9847064B19008C
S2140113B01A20074B9847074B9847C046BD4602B0D0
S2140113C080BDC046540800208407002021960200F4
S2140113D051420200F9430200B0B582B000AF0500E9
S2140113E00C0010001900FB1D2A1C1A70BB1D221CC4
S2140113F01A707B1D021C1A703B1D0A1C1A70FB1DFD
S2140114001A78144B5A72134B5B7ADBB2002B10D04E
S214011410104BBA1D12789A720E4B7A1D1278DA7238
S2140114200C4B3A1D12781A730A4B1822BA18127806
S2140114305A730849084B30221800084B9847064B48
S21401144019001A20064B9847064B9847C046BD46DA
S21401145002B0B0BD54080020840700202196020087
S21401146051420200F943020080B582B000AF02008B
S214011470FB1D1A70FB1D1A78094BDA770849094BD0
S21401148030221800084B9847064B19001A20074BC4
S2140114909847074B9847C046BD4602B080BDC04638
S2140114A054080020840700202196020051420200C1
S2140114B0F943020080B582B000AF0200FB1D1A702E
S2140114C0FB1D1A78094B9A770849094B30221800F8
S2140114D0084B9847064B19001A20074B9847074BAD
S2140114E09847C046BD4602B080BDC046540800209D
S2140114F0840700202196020051420200F9430200AF
S21401150080B582B000AF0200FB1D1A70FB1D1B7870
S214011510642B19D90F4BFA1D12785A770D490E4BC9
S214011520302218000D4B98470B4B19001A200C4B14
S21401153098470C4B9847074BDB7BDBB2002B01D05F
S214011540094B9847012300E000231800BD4602B06E
S21401155080BDC04654080020840700202196020062
S21401156051420200F9430200ED17010080B582B036
S21401157000AF0200FB1D1A70FB1D1B78002B1DD04F
S214011580FB1D1B78632B19D80F4BFA1D12781A779F
S2140115900D490E4B302218000D4B98470B4B190086
S2140115A01A200C4B98470C4B9847074BDB7BDBB25A
S2140115B0002B01D0094B9847012300E000231800B7
S2140115C0BD4602B080BDC0465408002084070020F6
S2140115D02196020051420200F9430200ED17010074
S2140115E080B582B000AF0200FB1D1A70FB1D197892
S2140115F0094B202299540849084B30221800084B01
S2140116009847064B19001A20064B9847064B9847F1
S214011610C046BD4602B080BD5408002084070020A5
S2140116202196020051420200F943020080B582B0C1
S21401163000AF0200BB1D1A800A4BBA1D12885A84DD
S2140116400849094B30221800084B9847064B1900E9
S2140116501A20074B9847074B9847C046BD4602B02D
S21401166080BDC04654080020840700202196020051
S21401167051420200F943020080B582B000AF020079
S214011680FB1D1A70FB1D1978094B24229954084931
S214011690084B30221800084B9847064B19001A20B1
S2140116A0064B9847064B9847C046BD4602B080BDDC
S2140116B054080020840700202196020051420200AF
S2140116C0F943020080B582B000AF0200FB1D1A701C
S2140116D00A4BFA1D262112785A540849084B302223
S2140116E01800084B9847064B19001A20064B9847D6
S2140116F0064B9847C046BD4602B080BD5408002040
S214011700840700202196020051420200F94302009C
S21401171080B582B000AF0200FB1D1A70FB1D197860
S214011720094B272299540849084B30221800084BC8
S2140117309847064B19001A20064B9847064B9847C0
S214011740C046BD4602B080BD540800208407002074
S2140117502196020051420200F943020080B582B090
S21401176000AF7860094B7A689A620849084B3022C4
S2140117701800084B9847064B19001A20064B984745
S214011780064B9847C046BD4602B080BD54080020AF
S214011790840700202196020051420200F94302000C
S2140117A080B582B000AF0200FB1D1A700A4BFA1D0D
S2140117B0252112785A540849084B30221800084B44
S2140117C09847064B19001A20064B9847064B984730
S2140117D0C046BD4602B080BD5408002084070020E4
S2140117E02196020051420200F943020090B583B0EF
S2140117F000AF2C4B1A692C4B10009847041C294B40
S2140118001B7FDAB2284B10009847021C274B111C8D
S214011810201C9847031C1A1C254B101C9847254C66
S2140118200022254BA04703000C0019002200BC1D16
S214011830224B08001100984703002380BB1D1B881C
S21401184018001F4B9847174B1A69174B10009847FB
S214011850041C144B5B7FDAB2134B10009847021C32
S214011860124B111C201C9847031C1A1C104B101CF1
S2140118709847104C0022104BA04703000C0019009B
S2140118802200BC1D0D4B0800110098470300238061
S214011890BB1D1B8818000B4B9847C046BD4603B0BE
S2140118A090BDC046540800206978020029760200DF
S2140118B045940200157F020000005940DD710200C8
S2140118C0C91801000D19010080B582B000AF78601B
S2140118D0094B7A689A610849084B30221800084B70
S2140118E09847064B19001A20064B9847064B98470F
S2140118F0C046BD4602B080BD5408002084070020C3
S2140119002196020051420200F943020080B582B0DE
S21401191000AF7860094B7A685A610849084B302253
S2140119201800084B9847064B19001A20064B984793
S214011930064B9847C046BD4602B080BD54080020FD
S214011940840700202196020051420200F94302005A
S21401195080B582B000AF7860094B7A681A61084991
S214011960084B30221800084B9847064B19001A20DE
S214011970064B9847064B9847C046BD4602B080BD09
S21401198054080020840700202196020051420200DC
S214011990F943020080B582B000AF0200FB1D1A7049
S2140119A0FB1D1A78094BDA730849094B30221800D7
S2140119B0084B9847064B19001A20074B9847074BC8
S2140119C09847C046BD4602B080BDC04654080020B8
S2140119D0840700202196020051420200F9430200CA
S2140119E080B582B000AF0200BB1D1A800A4BBA1D3B
S2140119F01288DA800849094B30221800084B9847AC
S214011A00064B19001A20074B9847074B9847C046C4
S214011A10BD4602B080BDC0465408002084070020A1
S214011A202196020051420200F943020080B582B0BD
S214011A3000AF0200FB1D1A700A4BFA1D12781A72CB
S214011A400849094B30221800084B9847064B1900E5
S214011A501A20074B9847074B9847C046BD4602B029
S214011A6080BDC0465408002084070020219602004D
S214011A7051420200F943020080B58AB000AF786097
S214011A802723FB1800221A702BE01B4B3C22002157
S214011A9018001A4B98472723FB181B780333DBB231
S214011AA0154A11001800164B98470C23FA18124BCA
S214011AB01000190018231A00124B98470C23FB1824
S214011AC01A1D7B68110018000F4B9847031E01D0A2
S214011AD001230CE02723FB181A782723FB18013271
S214011AE01A702723FB181B78042BCED90023180065
S214011AF0BD460AB080BDC046840700205796020046
S214011B005D430200219602001799020080B582B05B
S214011B1000AF0200FB1D1A700B4BFA1D1278DA702B
S214011B200A4A094B1000190008231A00084B984767
S214011B30064B19000820074B9847074B9847C046A5
S214011B40BD4602B080BDC0461408002084070020B0
S214011B502196020051420200F943020080B582B08C
S214011B6000AF0200FB1D1A700B4BFA1D12781A719A
S214011B700A4A094B1000190008231A00084B984717
S214011B80064B19000820074B9847074B9847C04655
S214011B90BD4602B080BDC046140800208407002060
S214011BA02196020051420200F943020090B585B029
S214011BB000AF78600E23FC187B681800214B98470D
S214011BC0030023700F23FB18FF221A701E4B5B784D
S214011BD00E22BA1812789A4209D30F23FB181A4A12
S214011BE092781A707B681800184B98470CE0164BD1
S214011BF05B780E22BA1812789A4205D20F23FB1888
S214011C000E22BA1812781A700F4B5B780F22BA1888
S214011C1012789A4210D20C4B9B78012B04D90A4BAE
S214011C20DB7818000A4B98470F23FB181B7818001F
S214011C30084B9847012300E000231800BD4605B075
S214011C4090BDC046ED0D010014080020F10E010004
S214011C505D1B01000D1B010090B585B000AF7860DB
S214011C60214B9B78012B01D8002339E00E23FC1869
S214011C707B6818001D4B9847030023700F23FB1841
S214011C80FF221A70184B5B780E22BA1812789A4205
S214011C9009D30F23FB18144A92781A707B68180030
S214011CA0134B98470CE0104B5B780E22BA1812784B
S214011CB09A4205D20F23FB180E22BA1812781A7010
S214011CC0094B5B780F22BA1812789A4207D20F2373
S214011CD0FB181B781800074B9847012300E00023E8
S214011CE01800BD4605B090BD14080020ED0D01009A
S214011CF0F10E01005D1B010080B582B000AF02004D
S214011D00FB1D1A70064BFA1D127811001F220A409D
S214011D10012191400A001A60C046BD4602B080BD4E
S214011D2000E100E080B582B000AF0200FB1D1A7032
S214011D30074AFB1D1B7819001F230B400121994000
S214011D400B0019008023D150C046BD4602B080BDAD
S214011D5000E100E080B584B000AF0200FB1D1A7000
S214011D600F23FB18FA1D1278D2091A700E23FB18DE
S214011D70FA1D127852091A700D4BBB600F23FB181F
S214011D801B78002B0FD10F23FB181B789B0010220A
S214011D909446BC446344083B1A680E23FB181B7820
S214011DA0DB01D31800E000231800BD4604B080BD57
S214011DB00044004180B582B000AF0200FB1D1A70DE
S214011DC0FB1D1B781800034B984703001800BD46FF
S214011DD002B080BD551D010080B582B000AF7860AD
S214011DE07B6800221A707B6801225A707B68002289
S214011DF09A70C046BD4602B080BD000080B584B072
S214011E0000AF0200FB1D1A70FB1D1B7818000B4B60
S214011E1098470300FB60FB1D1B781F22134001221D
S214011E209A401300BB60FB681B6ABA6813405A1ECF
S214011E309341DBB21800BD4604B080BDB51D01005C
S214011E4080B584B000AF0200FB1D1A70BB1D0A1CD2
S214011E501A70FB1D1B7818000D4B98470300FB609A
S214011E60FB1D1B781F22134001229A401300BB6002
S214011E70BB1D1B78002B03D0FB68BA689A6102E091
S214011E80FB68BA685A61C046BD4604B080BDC0460C
S214011E90B51D010080B584B000AF78607B681B6813
S214011EA0FB60FB68DB695A1E9341DBB21800BD4636
S214011EB004B080BD80B582B000AF7860C0467B6854
S214011EC01800044B9847031EF9D1C046BD4602B020
S214011ED080BDC046951E010080B582B000AF786017
S214011EE07B688022D2051A607B6800225A607B6874
S214011EF0FF221A817B6800229A727B680022DA72BE
S214011F007B68962292011A627B68242201219954E9
S214011F107B682522012199547B6826220021995449
S214011F207B682722002199547B6800229A627B688D
S214011F3088225203DA607B682C22002199547B6840
S214011F402D22002199547B6800221A637B680022A7
S214011F505A637B6800229A637B680022DA637B6897
S214011F6000225A617B6800221A827B680022DA7698
S214011F707B6800221A767B6800221A777B6800222B
S214011F805A767B6813229A767B6800225A77C04677
S214011F90BD4602B080BD000080B584B000AF786059
S214011FA07B681B68FB607B681B681800094B9847B9
S214011FB003001800084B98477B681800074B9847A2
S214011FC0FB681B6802221A43FB681A60C046BD46BE
S214011FD004B080BDDD2C0200F91C0100B51E010015
S214011FE080B584B000AF78607B681B68FB607B6857
S214011FF01B6818000A4B984703001800094B9847BE
S2140120007B681800084B9847FB681B6802229343BD
S2140120101A00FB681A60C046BD4604B080BDC046C3
S214012020DD2C0200251D0100B51E010080B584B01F
S21401203000AF78607B681B68FB607B681800064B06
S21401204098477B681800054B9847FB6801221A6081
S214012050C046BD4604B080BDE11F0100B51E0100AB
S21401206080B582B000AF7860C046BD4602B080BD84
S21401207080B582B000AF094B1B68F91C002218001E
S214012080074B984703007B607B68002B00D0F2E784
S214012090C046C046BD4602B080BDC0461C040020F6
S2140120A0C1FE010090B585B000AF0200FB1D1A709D
S2140120B0184BFB60FB681B7EDBB21A00042313403F
S2140120C023D0FB685B8B9BB2DAB20B23FB1806218D
S2140120D00A401A700B23FB181B78002B06D00B2323
S2140120E0FB181B789AB2FB685A830EE0FB681B8DBF
S2140120F09BB2DAB20A23FB181A70074B18680A2338
S214012100F91800230022054CA047C046BD4605B07D
S21401211090BDC046001400421C040020A1FD010031
S21401212080B500AF31200B4B984703005A1E9341F0
S214012130DBB201225340DBB21A1C01231340DAB290
S214012140054B1A70054B98470200054B1A60C046AE
S214012150BD4680BDFD1D01008E080020E90C020071
S214012160CC08002090B597B002AF4C23FB1818009E
S2140121704D4B98474C23FB1801221A704C23FB1831
S21401218019001420494B984700211420484B9847C2
S2140121904023FB181800474B98474023FB18312271
S2140121A01A604023FB1800225A604023FB180122C4
S2140121B01A724023FB180322DA724023FB18190017
S2140121C001203D4B9847002101203C4B98473C4B52
S2140121D00022012118003B4B984700220121F020E4
S2140121E0394B98470200394B1A60394939483A4BFE
S2140121F0009300230022394CA0470200384B1A6096
S214012200032200210120304B98470200354B1A600B
S214012210344B1B68002B06D0324B18680023002273
S2140122200021314CA0473B001800304B98473B003B
S2140122309622D2011A623B0080225203DA603B00EA
S2140122402B4A1A633B002B4A5A633B000122524237
S2140122509A633B0001225242DA633B002C220121A1
S214012260995403E0244B1800244B98473A0024491C
S214012270214B1800234B9847031EF3D11E4B180021
S214012280214B98471E4B1800204B984703001A0015
S2140122901F4B190010001F4B9847194B04229A75C3
S2140122A0C046BD4615B090BDD91D0100D13702000C
S2140122B0411E010001EE010035EE0100E12E020093
S2140122C0212101007D2E020005FB01001C040020D7
S2140122D088130000F8A2020061200100891802009C
S2140122E02004002024040020C1FB0100D91E0100A7
S2140122F00200160002001700980800202D20010099
S21401230000140042D5240200991F010095F5010032
S214012310A5200100712C020080B582B000AF02003A
S214012320FB1D1A70124B1B78DBB201225340DBB245
S214012330002B10D0012114200E4B98470C4B012284
S2140123401A70FB1D1B7801225340DBB2002B02D012
S2140123506420094B9847094B1A68094B1A60094BC8
S21401236098470200054B1A60C046BD4602B080BDC4
S21401237084080020411E010069090200940800201B
S21401238090080020CD0C020080B500AF024B002261
S2140123901A70C046BD4680BD8408002080B582B054
S2140123A000AF0E4B1B78DBB2002B11D0FB1D0022B9
S2140123B01A700B4B984702000A4B1B68D21AFB1D7A
S2140123C009499142924152421A70FB1D1B7800E066
S2140123D001231800BD4602B080BDC0468408002017
S2140123E0CD0C0200940800202F75000090B58BB02C
S2140123F002AFF860B9607A601A00FB1C1A70694B6C
S2140124001B6801211800684B9847031E01D102235F
S214012410C4E00020654B9847654B98471F23FB187F
S21401242000221A701E23FB1800221A701323FB18B1
S21401243000221A700121F0205E4B98470300BB6111
S214012440BB69002B08D1574B1868002300220021D6
S214012450594CA0470023A1E0BB69F02200211800D7
S214012460564B9847FB681800554B984703009AB29D
S214012470F968544B1800544B9847544B18687A68BF
S21401248001235B42009300230421514CA0474F4B8C
S2140124901B6818004F4B9847031E3ED01E23FB189F
S2140124A01B78EF2B1CD84C4B1B681322B918002243
S2140124B018004A4B984703007B617B69002B0FD0BD
S2140124C01E23FB181B78BA69D3181322BA18127880
S2140124D01A701E23FB181A781E23FB1801321A7075
S2140124E0BB68002B0CD0BA68BB69110018003C4BC6
S2140124F09847031E04D01F23FB1800221A7024E0FD
S214012500384ABB6911001800354B9847031EBED0E8
S2140125101F23FB180B221A7017E02C4B1868012397
S2140125205B420093002300220321294CA0471E236F
S214012530FB181B78002B04D11F23FB1807221A70E7
S21401254003E01F23FB1808221A70FB1C1B78002BC4
S21401255016D03B6B002B13D0FA1C1E23FB181278E7
S2140125601B789A420CD91F23FB181B78002B07D126
S2140125701E23FB181A78B9693B6B18001A4B98474B
S214012580084B18680023002200210B4CA047BB69AA
S2140125901800164B98471F23FB181B781800BD46DA
S2140125A009B090BD24040020610002001923010037
S2140125B07120010049950200C1FB010057960200F7
S2140125C0E798020098080020AD27020020040020AA
S2140125D02D190200A91E02001C040020C1FE0100E4
S2140125E01799020004A3020021960200E995020051
S2140125F090B583B002AF064A064907480023009308
S2140126000023064CA04703001800BD4601B090BD4C
S214012610881300000CA3020010A30200ED230100A2
S214012620B0B584B002AFFC1D124A1349134800230B
S21401263000930023124DA84703002370FB1D1B784F
S214012640002B01D1092311E0BC1D0A4A0D490B4894
S2140126500023009300230A4DA84703002370BB1DE7
S2140126601B78002B01D1092300E00A231800BD4680
S21401267002B0B0BD8813000020A302002CA3020004
S214012680ED23010038A3020090B589B002AF3B1DCF
S214012690180014231A0000210A4B98479623DA01E2
S2140126A009493B1D1800094B9847094A0949381D35
S2140126B0002300930023084CA04703001800BD46E2
S2140126C007B090BD5796020044A302005D98020031
S2140126D0881300000CA30200ED23010090B583B01F
S2140126E002AF064A06490748002300930023064C1A
S2140126F0A04703001800BD4601B090BD8813000036
S214012700B4A30200C4A30200ED23010090B583B078
S21401271002AF064A06490748002300930023064CE9
S214012720A04703001800BD4601B090BDA861000097
S2140127300CA30200D0A30200ED23010090B583B0E4
S21401274002AF064A06490748002300930023064CB9
S214012750A04703001800BD4601B090BD88130000D5
S2140127600CA30200E4A30200ED23010090B583B0A0
S21401277002AF064A06490748002300930023064C89
S214012780A04703001800BD4601B090BD983A00006E
S2140127900CA30200ECA30200ED23010090B583B068
S2140127A002AF064A06490748002300930023064C59
S2140127B0A04703001800BD4601B090BD8813000075
S2140127C00CA30200F8A30200ED23010090B583B02C
S2140127D002AF064A06490748002300930023064C29
S2140127E0A04703001800BD4601B090BD10270000A9
S2140127F00CA3020004A40200ED23010090B583B0EF
S21401280002AF064A06490748002300930023064CF8
S214012810A04703001800BD4601B090BD8813000014
S2140128200CA302002CA40200ED23010090B583B096
S21401283002AF064A06490748002300930023064CC8
S214012840A04703001800BD4601B090BD983A0000AD
S2140128500CA3020038A40200ED23010090B583B05A
S21401286002AF064A06490748002300930023064C98
S214012870A04703001800BD4601B090BD88130000B4
S2140128800CA3020040A40200ED23010090B583B022
S21401289002AF064A06490748002300930023064C68
S2140128A0A04703001800BD4601B090BD8813000084
S2140128B00CA3020048A40200ED23010090B583B0EA
S2140128C002AF064A06490748002300930023064C38
S2140128D0A04703001800BD4601B090BD581B00007C
S2140128E00CA3020054A40200ED230100B0B588B089
S2140128F002AF1623FB1864221A701623FB181B78E6
S21401290001211800624B984703003B613B69002B8D
S21401291005D13B6918005F4B98470023B4E01623A6
S214012920FB181A783B69002118005B4B98470F2368
S214012930FC181623FB181A78584D594959483B6913
S214012940009313002A00584DA847030023700F2355
S214012950FB181B78002B00D08BE0544A3B69110012
S2140129601800534B9847031E00D186E0514A3B6935
S214012970110018004E4B9847031E00D074E04E4AD3
S2140129803B69110018004D4B98470300BB604A4B4A
S21401299019000020494B98470300BB60484ABB68B2
S2140129A011001800454B98470300BB60BB68180030
S2140129B0444B98470200FB1D1A70FB1D1B78002B29
S2140129C007D0FB1D1B78012B03D0FB1D1B78632B47
S2140129D004D11723FB1800221A704EE0FB1D1B784A
S2140129E0012B08D9FB1D1B78072B04D81723FB18CE
S2140129F001221A7041E0FB1D1B78072B08D9FB1D2D
S214012A001B780D2B04D81723FB1802221A7034E00A
S214012A10FB1D1B780D2B08D9FB1D1B78132B04D827
S214012A201723FB1803221A7027E0FB1D1B78132BB4
S214012A3008D9FB1D1B78192B04D81723FB18042271
S214012A401A701AE0FB1D1B78192B08D9FB1D1B7881
S214012A501F2B04D81723FB1805221A700DE0172325
S214012A60FB1800221A7008E01723FB1800221A70C0
S214012A7003E01723FB1800221A703B691800054B68
S214012A8098471723FB181B781800BD4606B0B0BD43
S214012A9049950200E9950200579602008813000046
S214012AA00CA3020080A40200ED23010088A402000A
S214012AB01799020090A4020024A40200499902007A
S214012AC028A402003D95020080B584B000AF78606E
S214012AD07B68FB607B68BB600CE0BB685A1CBA6015
S214012AE01A78FB681A70FB681B78202B02D0FB68EB
S214012AF00133FB60BB681B78002BEED1FB6800221C
S214012B001A70C046BD4604B080BD000090B583B0C3
S214012B1002AF064A06490748002300930023064CE5
S214012B20A04703001800BD4601B090BD8813000001
S214012B300CA3020094A40200ED23010090B583B01B
S214012B4002AFFA239A0006490648002300930023A1
S214012B50054CA04703001800BD4601B090BDC04615
S214012B600CA30200BCA40200ED23010090B583B0C3
S214012B7002AFFA239A000649064800230093002371
S214012B80054CA04703001800BD4601B090BDC046E5
S214012B900CA30200D0A40200ED230100B0B588B05A
S214012BA002AF786039603B6818003B4B98470300DA
S214012BB0FA2B01D903236BE07B681800364B984744
S214012BC00300052B01D8042362E01723FB18FA2221
S214012BD01A701723FB181B78012118002F4B9847F2
S214012BE003003B613B69002B01D1002350E0172312
S214012BF0FB181A783B6900211800294B98471723C0
S214012C00FB1819787B68274A3869274CA047274A5A
S214012C1027493869002300930023264CA047031E4A
S214012C2031D1FA235B001800234B98471723FB1872
S214012C301A783B6900211800194B98471723FB188F
S214012C4019783B681D4A3869174CA0470F23FC18B2
S214012C50164A1B493869002300930023154DA847DF
S214012C60030023700F23FB181B78002B05D13B694B
S214012C701800144B984700230AE03B691800114BD3
S214012C809847062304E03B6918000E4B9847062335
S214012C901800BD4606B0B0BDE7980200499502008F
S214012CA057960200E4A40200F997020060EA0000C9
S214012CB0F4A40200ED23010069090200F8A4020051
S214012CC00CA30200E995020090B58FB002AFB9607F
S214012CD011007B600F23FB18021C1A700E23FB18D1
S214012CE00A1C1A702F23FB18E6221A702F23FB18D2
S214012CF01B78012118006E4B98470300BB62BB6A24
S214012D00002B05D1BB6A18006A4B98470023CAE01E
S214012D102F23FB181A78BB6A00211800664B9847C8
S214012D201023FB1818000A231A000021624B98474B
S214012D302F23FB1819780F23FB181B785F4A1020E6
S214012D4038185F4CA0472F23FB181A785D4C5E4954
S214012D501023F818BB6A0093130022005B4CA047AF
S214012D60031E00D094E05A4ABB6A11001800594B62
S214012D70984703007B627B6A002B00D182E0BB6A26
S214012D802C211800544B984703003B623B6A0233E0
S214012D90FB61FB69222118004F4B984703003B62F9
S214012DA03B6A002B2AD03B6A00221A70FB69180086
S214012DB04A4B984702001B23FB181A701B23FA186C
S214012DC00E23FB1812781B789A4206D2FA69BB6862
S214012DD011001800424B984710E00E23FB181B7891
S214012DE0013B1A00F969BB6818003E4B98470E2351
S214012DF0FB181B78BA68D31800221A703B6A013395
S214012E000A211800344B984703003B623B6A002BAB
S214012E1044D03B6A01333B623B6A0D2118002E4BBE
S214012E2098470300FB61FB69002B02D0FB69002277
S214012E301A703B6A1800294B984702001B23FB189F
S214012E401A701B23FB184022B9181A780B789A427D
S214012E5006D23A6A7B6811001800214B98471DE09C
S214012E604023FB181B78013B1A00396A7B6818005F
S214012E701C4B98474023FB181B787A68D31800220E
S214012E801A700BE0BB6A18000A4B98470C230AE03D
S214012E90BB6A1800074B98470C2304E0BB6A18006E
S214012EA0044B984700231800BD460DB090BDC046A0
S214012EB049950200E99502005796020044A50200D2
S214012EC0F9970200881300000CA30200ED2301000D
S214012ED050A5020017990200BB980200E79802006D
S214012EE0D798020021960200B0B588B002AF78608C
S214012EF01723FB181E221A701723FB181B780121B3
S214012F001800184B984703003B613B69002B01D121
S214012F10002323E01723FB181A783B6900211800C9
S214012F20114B98471723FB1819787B680F4A3869A5
S214012F300F4CA0470F23FC18FA23DA000D49386915
S214012F400023009300230C4DA847030023703B6920
S214012F5018000A4B98470F23FB181B781800BD462C
S214012F6006B0B0BD499502005796020058A502006A
S214012F70F99702000CA30200ED230100E995020077
S214012F8090B583B002AF064A06490748002300936E
S214012F900023064CA04703001800BD4601B090BDB3
S214012FA0881300000CA3020060A50200ED230100B7
S214012FB090B583B002AF064A06490748002300933E
S214012FC00023064CA04703001800BD4601B090BD83
S214012FD0102700000CA3020068A50200ED230100E3
S214012FE090B583B002AF064A06490748002300930E
S214012FF00023064CA04703001800BD4601B090BD53
S214013000881300000CA3020080A50200ED23010036
S214013010B0B588B002AF78601723FB181E221A706D
S2140130201723FB181B7801211800184B984703003B
S2140130303B613B69002B01D1002322E01723FB18DB
S2140130401A783B6900211800114B98471723FB1883
S21401305019787B680F4A38690F4CA0470F23FC1874
S2140130600E4A0F4938690023009300230D4DA847E7
S214013070030023703B6918000B4B98470F23FB187E
S2140130801B781800BD4606B0B0BDC0464995020083
S214013090579602008CA50200F997020088130000DB
S2140130A00CA30200ED230100E995020090B583B060
S2140130B002AF064A06490748002300930023064C40
S2140130C0A04703001800BD4601B090BD881300005C
S2140130D00CA302009CA50200ED23010090B583B06D
S2140130E002AF064A06490748002300930023064C10
S2140130F0A04703001800BD4601B090BD5046000031
S2140131000CA30200A8A50200ED23010090B583B030
S21401311002AFFA235A00064906480023009300230B
S214013120054CA04703001800BD4601B090BDC0463F
S2140131300CA30200D8A50200ED23010090B587B0CC
S21401314002AF78600A00FB1C1A700F23FB180022DE
S2140131501A70FB1C1B78002B03D00F23FB180122CF
S2140131601A700E23FB1832221A700E23FB181B78D6
S21401317001211800174B98470300BB60BB68002B62
S21401318001D1002322E00E23FB181A78BB68002128
S2140131901800114B98470E23FB1819780F23FB18BC
S2140131A01B787C680D4AB868009323000C4CA04736
S2140131B0FA23DA000B49B8680023009300230A4C6F
S2140131C0A047BB681800094B984700231800BD4666
S2140131D005B090BD4995020057960200E4A502008D
S2140131E0F99702000CA30200ED230100E995020005
S2140131F0B0B586B002AF0F23FB1846221A700F2314
S214013200FB181B7801211800574B98470300BB6039
S214013210BB68002B05D1BB681800544B98470023A8
S2140132209DE00F23FB181A78BB6800211800504B4D
S2140132309847FC1D0F23FB181A784E4D4E494F48F0
S214013240BB68009313002A004D4DA8470300237066
S214013250FB1D1B78002B6AD14A4ABB681100180077
S214013260494B984703003B60464B19000020464BEC
S214013270984703003B60454A3B6811001800424BE3
S214013280984703003B603B681800414B9847030092
S214013290DAB2404B1A703D4B190000203A4B984762
S2140132A003003B603B681800394B98470300DAB2CD
S2140132B0384B5A70384B19000020334B984703009F
S2140132C03B603B681800324B98470300DAB2314B3B
S2140132D09A70324B190000202B4B984703003B6035
S2140132E03B6818002A4B98470300DAB2294BDA707C
S2140132F02A4B19000020244B984703003B603B688B
S2140133001800234B98470300DAB2224B1A71244B5C
S214013310190000201C4B984703003B603B681800CF
S2140133201B4B98470300DAB21A4B5A7111E0194B3E
S21401333000221A70174B00225A70164B00229A7000
S214013340144B0022DA70134B00221A71114B002223
S2140133505A71BB681800054B9847FB1D1B7818006F
S214013360BD4604B0B0BDC04649950200E9950200CD
S21401337057960200881300000CA3020008A602005C
S214013380ED23010014A602004999020018A60200C6
S2140133903D9502008808002028A4020024A402000B
S2140133A01CA6020080B500AF344B9847031E00D020
S2140133B05EE0334B9847031E00D057E0FA23DB004C
S2140133C01800304B9847304B9847031E4CD12F4B73
S2140133D09847031E4ED12E4B9847031E42D1FA231F
S2140133E0DB001800274B98472A4B9847031E37D116
S2140133F0294B9847031E31D1284B9847031E2BD1E2
S214013400274B9847031E25D1264B9847031E1FD1ED
S214013410254B9847031E19D1244B9847031E13D1F9
S214013420234B9847031E0DD1224B9847031E07D105
S214013430214B9847031E01D100231CE010231AE0FC
S214013440102318E0102316E0102314E0102312E0D6
S214013450102310E010230EE010230CE010230AE0E6
S214013460102308E0102306E0102304E0102302E0F6
S214013470102300E010231800BD4680BDF125010091
S2140134802D28010069090200DD2601005D280100E2
S214013490892601006D2701009D270100FD270100F7
S2140134A08D280100BD2801000D2B0100B12F010060
S2140134B0E12F0100CD2701003D27010080B584B032
S2140134C000AF78600A00FB1C1A700F23FB1800225D
S2140134D01A7026E01F4B1868FA235A000E23FB18B1
S2140134E019001D4B9847031E01D100232DE00E2322
S2140134F0FB181B780A2B14D00E23FB181B780D2BF8
S21401350014D07B685A1C7A600E22BA1812781A7088
S214013510FB1C1A78FB1C013A1A700F23FB180122B8
S2140135201A70FB1C1B78012BD4D800E0C0460F2371
S214013530FB181B78002B02D00120084B98477B68AC
S21401354000221A700F23FB181B781800BD4604B022
S21401355080BDC0461C040020C1FE010019230100E5
S21401356080B584B000AF78600F23FB1800221A7074
S214013570154A7B6811001800144B9847031E17D094
S214013580134A7B6811001800124B98470300BB6072
S2140135900F4B190000200F4B98470300BB60BB6818
S2140135A018000D4B984702000F23FB181A7003E012
S2140135B00F23FB1800221A700F23FB181B78180024
S2140135C0BD4604B080BDC04620A602001799020081
S2140135D028A40200499902003D95020080B582B0F8
S2140135E000AF7860074A7B6811001800064B9847C1
S2140135F0031E01D0012300E000231800BD4602B0DF
S21401360080BDC04628A602001799020080B584B086
S21401361000AF786039604C4A7B68110018004B4B4C
S2140136209847031E00D189E0494A7B6811001800BB
S214013630464B9847031E00D07BE0464A7B68110044
S2140136401800454B98470300FB60424B19000020C9
S214013650414B98470300FB60404AFB681100180085
S2140136603D4B98470300FB60FB6818003C4B9847AE
S21401367002000B23FB181A700B23FB181B78002B78
S21401368009D00B23FB181B78012B04D00B23FB1846
S2140136901B78632B03D13B6800221A704CE00B2386
S2140136A0FB181B78012B08D90B23FB181B78072B5B
S2140136B003D83B6801221A703EE00B23FB181B78E7
S2140136C0072B08D90B23FB181B780D2B03D83B6857
S2140136D002221A7030E00B23FB181B780D2B08D939
S2140136E00B23FB181B78132B03D83B6803221A7095
S2140136F022E00B23FB181B78132B08D90B23FB188E
S2140137001B78192B03D83B6804221A7014E00B238C
S214013710FB181B78192B08D90B23FB181B781F2BBA
S21401372003D83B6805221A7006E03B6800221A702F
S21401373002E03B6800221A70012300E00023180013
S214013740BD4604B080BDC04630A6020017990200EF
S21401375090A4020024A402004999020028A40200B1
S2140137603D95020080B584B000AF786039601E4A8E
S2140137707B68110018001D4B9847031E2ED01C4A6B
S2140137807B68110018001B4B98470300FB601A4B1F
S21401379019000020174B98470300FB60174AFB6887
S2140137A011001800134B98470300FB60134B1900D8
S2140137B00020104B98470300FB60FB682B21180084
S2140137C00F4B9847031E01D1002308E0FA683B68B7
S2140137D0110018000B4B9847012300E00023180046
S2140137E0BD4604B080BDC04638A602001799020047
S2140137F024A402004999020028A4020014A602008B
S214013800BB980200D798020080B582B000AF7860FE
S214013810164A7B6811001800154B9847031E01D005
S21401382001231EE0134A7B6811001800104B9847CD
S214013830031E01D0012314E00F4A7B681100180013
S2140138400B4B9847031E01D001230AE00B4A7B6805
S21401385011001800064B9847031E01D0012300E013
S21401386000231800BD4602B080BDC04640A6020037
S214013870179902004CA6020054A6020004A30200F7
S21401388080B582B000AF7860074A7B6811001800E7
S214013890064B9847031E01D0012300E000231800C1
S2140138A0BD4602B080BDC04660A602001799020060
S2140138B080B582B000AF7860074A7B6811001800B7
S2140138C0064B9847031E01D0012300E00023180091
S2140138D0BD4602B080BDC04668A602001799020028
S2140138E080B584B000AF0200FB1D1A700F23FB18D1
S2140138F0FA1D1278D2091A700E23FB18FA1D1278D7
S21401390052091A700D4BBB600F23FB181B78002B56
S2140139100FD10F23FB181B789B0010229446BC4442
S2140139206344083B1A680E23FB181B78DB01D31887
S21401393000E000231800BD4604B080BD00440041ED
S21401394080B582B000AF0200FB1D1A70FB1D1B780C
S2140139501800034B984703001800BD4602B080BD0F
S214013960E138010080B582B000AF78607B68002244
S2140139701A707B6801225A707B6800229A70C046D2
S214013980BD4602B080BD000080B584B000AF020025
S214013990FB1D1A70BB1D0A1C1A70FB1D1B78180034
S2140139A00D4B98470300FB60FB1D1B781F2213403D
S2140139B001229A401300BB60BB1D1B78002B03D06D
S2140139C0FB68BA689A6102E0FB68BA685A61C04649
S2140139D0BD4604B080BDC04641390100F0B58BB08C
S2140139E000AF0B2318229446BC44634410221A707D
S2140139F00A2318229446BC44634402221A70904B50
S214013A009847904B3F221A708F4B3E221A708F4B6D
S214013A1021221A708D4B20225A708C4B23229A70C9
S214013A208A4B2222DA708A4B00221A700A23182245
S214013A309446BC4463441B78012B06D9844B1B78FF
S214013A4008221343DAB2824B1A70824B0A221821DB
S214013A508C46BC44624412781A700B231822944692
S214013A60BC4463441A780B2318218C46BC44634437
S214013A701B78403340210020774CA0471C23FB18BD
S214013A801800764B98471C23FB1801221A706D4BC1
S214013A901B781C22BA1811001800714B98476A4B04
S214013AA01B781C22BA18110018006D4B984700238A
S214013AB07B620CE0654A7B6AD3181B781C22BA1815
S214013AC011001800664B98477B6A01337B627B6A5C
S214013AD0032BEFDD0020634B984703003B61002377
S214013AE07B61614C614A002338697969A04703000C
S214013AF00C00190022005E4B0024C9186241080020
S214013B0011005C4C5C4A0023A04703000C0018001F
S214013B105A4B98474B4B1B7800211800584B984737
S214013B20494B1B7800211800554B98470320554BED
S214013B30984700204B4B98470300BB600023FB606F
S214013B40494C514A0023B868F968A04703000C00A5
S214013B5019002200464B0024C918624108001100D2
S214013B60444C454A0023A04703000C001800434B71
S214013B7098470320434B984700203A4B9847030049
S214013B803B6000237B60384C3F4A002338687968E5
S214013B90A04703000C0019002200354B0024C91869
S214013BA0624108001100334C334A0023A04703004A
S214013BB00C001800314B98470320324B98470020E1
S214013BC0284B984703001D0000231E00264C962212
S214013BD0002328003100A04703000C001900220032
S214013BE0234B0024C918624108001100214C224AC7
S214013BF00023A04703000C001800204B9847022022
S214013C00204B9847124B1B7820221343DBB2180037
S214013C101E4B98471E4B04221A701E4B98471E4B8C
S214013C2098471E4B02221A701C4B1B780422134322
S214013C30DBB21800154B9847C046BD460BB0F0BD29
S214013C407D310200E0080020DF080020D8080020AF
S214013C50DD080020D60800204D3D01006539010031
S214013C60D13702003D5102008971020050C30000A5
S214013C70BFCF6A0049710200C0CF6A000100002070
S214013C8089390100893D010094110000CD3E0100F3
S214013C90D5080020B54001006D3F0100DC0800207A
S214013CA080B582B000AF3B1D1800084B98473B1DFE
S214013CB001221A703B1D00225A703B1D1900242058
S214013CC0034B9847C046BD4602B080BD653901002A
S214013CD0D137020080B500AF01212420024B98475E
S214013CE0C046BD4680BDC0468939010080B582B058
S214013CF000AF00212420114B984700237B600AE087
S214013D000F4A7B68D3181B78002118000B4B984785
S214013D107B6801337B607B68032BF1DD094B1B78E5
S214013D2000211800054B9847074B1B780021180007
S214013D30024B9847C046BD4602B080BD8939010096
S214013D40D8080020DF080020E008002080B584B0F5
S214013D5000AFF860B9607A603B60FB68DAB2094B85
S214013D601A70BB68DAB2074B5A707B68DAB2054B39
S214013D709A703B68DAB2034BDA70C046BD4604B0AF
S214013D8080BDC046D008002080B584B000AF0200D8
S214013D90FB1D1A700023FB6013E00E4AFB68D31864
S214013DA01878FB1D1A78FB681A411300012213408C
S214013DB05A1E9341DBB21900074B9847FB68013343
S214013DC0FB60FB68032BE8DD044B9847C046BD4605
S214013DD004B080BDD808002089390100E13D01000A
S214013DE0F0B585B000AF314B1B7800211800304B81
S214013DF0984700202F4B98470300BB600023FB60C9
S214013E002D4B0024B868F968C01861412B4C2C4A28
S214013E100023A04703000C0018002A4B9847234BA9
S214013E201B7801211800224B98470020214B984708
S214013E3003001D0000231E001F4B00242800310034
S214013E40C01861411D4C1E4A0023A04703000C0008
S214013E5018001C4B9847154B1B7800211800144B73
S214013E6098470020134B984703003B6000237B6074
S214013E70154C6422002338687968A04703000C00BB
S214013E80190022000C4B0024C918624108001100D9
S214013E900A4C0B4A0023A04703000C001800094BEC
S214013EA09847C046BD4605B0F0BDC046DF080020B5
S214013EB0893901003D510200BFCF6A0049710200F5
S214013EC0C0CF6A00010000208971020080B582B06F
S214013ED000AF0200FB1D1A70FB1D1B7800211800A5
S214013EE0024B9847C046BD4602B080BD193F01004F
S214013EF080B582B000AF0200FB1D1A70FB1D1B7857
S214013F0001211800034B984701231800BD4602B053
S214013F1080BDC046193F010080B582B000AF0200E7
S214013F20FB1D1A70BB1D0A1C1A700D4B1A78BB1D9F
S214013F301B78591E8B41DBB219001000094B9847BC
S214013F40FB1D1B781B09DBB21800074B9847FB1DAE
S214013F501B781800044B9847C046BD4602B080BD8A
S214013F60E008002089390100893D0100F8B500AF5D
S214013F700120134B98470020124B984703001D0061
S214013F8000231E00104CFA22D20000232800310024
S214013F90A04703000C00190022000C4B0024C9188E
S214013FA06241080011000A4C0A4A0023A047030098
S214013FB00C001800084B9847C046BD46F8BDC046E1
S214013FC0CD3E01003D51020089710200BFCF6A005B
S214013FD049710200C0CF6A000100002080B584B09C
S214013FE000AF02003960FB1D1A70FB1DFA1D127826
S214013FF007210A401A70FB1D1B78DB005BB24022CA
S21401400013435BB2DBB218000A4B98470023FB60F0
S21401401009E0FB683A68D3181B781800064B9847E6
S214014020FB680133FB60FB68072BF2DDC046BD462B
S21401403004B080BDCD3E0100F13E010080B584B0E4
S21401404000AF0200FB1D1A70BB1D0A1C1A70042368
S214014050FB60BB1D1A78FB689A4204D3FB68DAB290
S214014060BB1D013A1A70104B1B78BA1D12789A4282
S21401407004D30D4B1A78BB1D013A1A70BB1D1B7871
S2140140800A4AD25CFB1D1B78D318DBB25BB28022D6
S214014090524213435BB2DBB21800054B9847C04649
S2140140A0BD4604B080BDC046D6080020D00800201A
S2140140B0CD3E010080B500AF084B1B7804221343A8
S2140140C0DAB2064B1A70054B1B7808221343DBB293
S2140140D01800034B9847C046BD4680BDD508002052
S2140140E0CD3E010080B584B000AF78607B681800D3
S2140140F00F4B98470300FB600023BB600BE07B6817
S2140141005A1C7A601B7818000A4B9847031E08D081
S214014110BB680133BB60FB685A1EFA60002BEED108
S21401412000E0C046BB681800BD4604B080BDC0466E
S214014130E7980200F13E01000FB480B584B000AFED
S214014140BB691800114B984703000333FB60FB68FB
S21401415018000F4B98470300BB601C23FB187B60BD
S2140141607A68B969BB6818000A4B9847BB6818009B
S214014170094B9847BB681800084B9847C046BD4690
S21401418004B080BC08BC04B01847C046E7980200DB
S214014190D5950200D59B0200E5400100E995020095
S2140141A080B584B000AF78607B68002B28D07B6830
S2140141B0FB6020E00B23FB18FA6812781A70124B8A
S2140141C0984702000B23FB181B780133D3181B7882
S2140141D01A0003231340022B04D10B23FB181B7870
S2140141E0203B02E00B23FB181B78DAB2FB681A703F
S2140141F0FB680133FB60FB681B78002BDAD100E01B
S214014200C046BD4604B080BDB995020080B584B0F5
S21401421000AF786039603B681800104B9847030080
S214014220FB607B6818000D4B98470300BB60BA68BB
S214014230FB689A4209D3FA6879683B681800084B0C
S2140142409847031E01D1012300E000231A1C012315
S2140142501340DBB21800BD4604B080BDE7980200EB
S214014260F598020080B500AFBFF34F8F024B034AAB
S214014270DA60BFF34F8FFEE700ED00E00400FA05B9
S21401428080B584B000AF0200FB1D1A700F23FB1827
S214014290FA1D1278D2091A700E23FB18FA1D12782D
S2140142A052091A700D4BBB600F23FB181B78002BAD
S2140142B00FD10F23FB181B789B0010229446BC4499
S2140142C06344083B1A680E23FB181B78DB01D318DE
S2140142D000E000231800BD4604B080BD0044004144
S2140142E080B500AF024B9847C046BD4680BDC0466C
S2140142F06542010080B582B000AF0200FB1D1A7056
S214014300FB1D1B781800034B984703001800BD4699
S21401431002B080BD8142010080B582B000AF7860F6
S2140143207B6800221A707B6801225A707B68002223
S2140143309A70C046BD4602B080BD000080B584B00C
S21401434000AF0200FB1D1A70FB1D1B7818000B4BFB
S21401435098470300FB60FB1D1B781F2213400122B8
S2140143609A401300BB60FB681B6ABA6813405A1E6A
S2140143709341DBB21800BD4604B080BDF542010092
S21401438080B584B000AF0200FB1D1A70BB1D0A1C6D
S2140143901A70FB1D1B7818000D4B98470300FB6035
S2140143A0FB1D1B781F22134001229A401300BB609D
S2140143B0BB1D1B78002B03D0FB68BA689A6102E02C
S2140143C0FB68BA685A61C046BD4604B080BDC046A7
S2140143D0F542010080B500AF0B4B1B78012253401C
S2140143E0DBB2002B0CD0094B98470200084B1B6828
S2140143F0D21AFA239B009A4202D9034B01221A7061
S214014400C046BD4680BDC04672090020CD0C0200E4
S214014410140A002080B582B000AFFB1D01221A707D
S214014420234B1B78002B03D0FB1D224A127A1A70ED
S214014430214B1B78002B37D0204B1B78012B0BD040
S2140144401F4B984702001F4B1B68D21AFB1D1B7897
S2140144501D494B439A4227D91C4BDB78002B1AD0B7
S214014460134B1B78002B07D0194B1A78194B1A706F
S2140144700F4B00221A7015E0174B1B78002B11D03A
S214014480134B1A78154B1A70154B01221A70124BE2
S21401449000221A7006E00E4B1A780E4B1A70044B67
S2140144A000221A700F4B9847C046BD4602B080BD29
S2140144B0D70900205408002072090020E5080020D2
S2140144C0CD0C0200F409002060EA00002C08002050
S2140144D075090020630900208E0900202D0900209F
S2140144E043090020E944010080B500AF084B5B7921
S2140144F0DBB24E2B03D1074B1B78002B04D0064BA7
S21401450001221A70054B9847C046BD4680BDC0467D
S21401451054080020430900204409002055470100A3
S21401452080B500AF6D4B00221A706D4B00221A70D9
S2140145306C4B98470022002100206B4B9847FA23CA
S2140145409B001800694B9847694B00221A70694B0B
S2140145505B78002B02D0684B00221A70654BDB7823
S214014560012B1DD1654B1B78DBB24E2B04D0634B60
S2140145701B78DBB2522B0DD1614B1B78DBB24F2B74
S21401458008D1604B1B7801225340DBB2002B01D0CF
S214014590012300E000231A1C01231340DBB215E0BF
S2140145A0564B1B78DBB24E2B04D0544B1B78DBB238
S2140145B0522B06D1524B1B78DBB24F2B01D1012374
S2140145C000E000231A1C01231340DBB2002B22D08B
S2140145D04D4B1B78002B1ED14C4B1B7801225340B0
S2140145E0DBB2002B17D04A4B5B79DBB2542B12D1CE
S2140145F0484B9B78012B0ED9434B01221A70464B30
S21401460001221A70454B98470200454B1A60454BEC
S2140146101A78454B1A70374BDB78002B47D0374B4F
S2140146201B78DBB2492B04D0344B1B78DBB2522B00
S21401463037D1334B1B78DBB24F2B32D1314B1B7842
S214014640002B2ED0394B5B79002B2AD0384B1B78A8
S2140146500133DAB2364B1A70364B1B78002B06D074
S214014660354B1B7800211800344B984716E0304B29
S2140146701B78012B0CD8294B98470200284B1A604F
S2140146802D4B1A78284B1A702D4B01221A7005E013
S214014690294B1B7803211800284B9847194B0022F9
S2140146A01A70284B00221A70224B00221A70174BE0
S2140146B000221A70114B4E221A70114B4E221A709C
S2140146C0214B00221A70154B984702001F4B1A60A7
S2140146D01F4B00221A70C046BD4680BDE40800206C
S2140146E09C090020AD3001002DDA010069090200A5
S2140146F0440900202C0800200F0A0020E0090020B1
S2140147008F09002043090020E50800209E090020AB
S2140147105408002014080020D7090020CD0C020000
S214014720F4090020630900207509002054070020C1
S214014730D80900202C0900202D090020ADC9010050
S2140147408E090020D409002098090020140A0020B0
S2140147507209002080B586B000AF204B01221A7086
S2140147603B1D180014231A0000211D4B98471D4BB2
S2140147705B79002B08D01C4B1B78002B04D03B1D0B
S21401478018001A4B98470FE0194B1B78002B07D0DF
S214014790184B1A793B1D11001800174B984703E078
S2140147A03B1D1800154B98473B1D1800144B9847A6
S2140147B03B1D002219000320124B9847124B9847C5
S2140147C00200124B1A60124B52221A70114B4F22E2
S2140147D01A70C046BD4606B080BDC0469C09002082
S2140147E0579602005407002043090020090B0100D8
S2140147F0E50800201408002019090100210D010018
S214014800E92E01002DDA0100CD0C0200180A002065
S214014810E00900208F09002080B500AF0A4B002276
S2140148201A700A4B01221A70094B9847094B492204
S2140148301A70094B49221A7001214D20074B9847DF
S214014840C046BD4680BDC046980900209E0900208E
S214014850812F0100E00900208F0900206148010036
S21401486080B582B000AF0200FB1D1A70BB1D0A1C8A
S2140148701A70144B9847144B01221A70BB1D1B78F3
S214014880002B16D0114B01221A70114B00221A7000
S2140148900F4B1B7819000F4BFA1D12785A540C4B0C
S2140148A01B7801330B4A0021D1540B4BFA1D1278A9
S2140148B01A700A4BFA1D12781A70C046BD4602B02D
S2140148C080BDC0460D310100660A0020D9090020CE
S2140148D0C90900204C09002063090020C7090020EF
S2140148E080B500AF0D4B1B78002B0ED00C4B9847B4
S2140148F002000C4B1B68D31A0B4A12781100642273
S2140149004A43934201D9012300E000231A1C0123E4
S2140149101340DBB21800BD4680BDC046660A0020C3
S214014920CD0C0200400A0020DA09002080B500AF55
S2140149300B4B1B78012B06D90A4B1B78002118005C
S214014940094B984705E0074B1B7801211800064BD9
S2140149509847064B00221A70C046BD4680BDC04629
S214014960D9090020C70900203D310100660A002050
S21401497080B582B000AF78601C4B1B780122534093
S214014980DBB2002B2ED07B681800194B9847031E0C
S21401499028D0184B1B78012B1CD9174B1B781A00F3
S2140149A0144B1B78013B9A420FDA134B1B780133E9
S2140149B0DAB2114B1A70104B1B781A000F4B9B5C26
S2140149C0002118000E4B98470CE001214D200C4B9E
S2140149D0984707E0074B1B78012B03D101214D2097
S2140149E0074B9847C046BD4602B080BD660A002008
S2140149F0B1380100D9090020C90900204C0900205E
S214014A006148010080B582B000AF78607B6818000D
S214014A10144B984703000E2B1FD8134B00221A7015
S214014A207B6818000F4B98470300DAB20F4B1A70D9
S214014A307A680F4B110018000E4B98470E4B98479B
S214014A4002000E4B1A60084B1B781A00084B9A5C42
S214014A500B4B1A700B4B01221A70C046BD4602B0B2
S214014A6080BDC046E7980200C9090020D909002088
S214014A704C090020D7980200CD0C0200400A002005
S214014A80C7090020660A002080B500AF124B1B78CC
S214014A90DBB2002B0AD0114B98470200104B1B6863
S214014AA0D31A104A934212D9012311E00B4B9847AF
S214014AB002000D4B1B68D21A0C4B1B88190064238D
S214014AC04B43190000238A425B41DBB200E000231E
S214014AD01800BD4680BDC0468E080020CD0C0200E1
S214014AE0CC080020B80B0000180A0020640900203A
S214014AF080B582B000AF7860164A7B681100180056
S214014B00154B9847031E01D044231EE0134A7B68C9
S214014B1011001800104B9847031E01D0522314E0D1
S214014B200F4A7B68110018000B4B9847031E01D0F3
S214014B3049230AE00B4A7B6811001800064B984788
S214014B40031E01D0452300E04E231800BD4602B0E7
S214014B5080BDC04688A802001799020098A80200E6
S214014B60A8A80200B8A8020080B582B000AF020073
S214014B70FB1D1A70364B9B78002B04D0354B5B79A6
S214014B80DBB24E2B01D101235DE0334B1B78DBB248
S214014B9001225340DBB2002B01D0012353E02F4BFF
S214014BA01B7801225340DBB2002B07D02C4B1B781D
S214014BB0FA1D12789A4201D1012344E0294B1B7851
S214014BC0DBB24E2B3ED1284B1B78DBB24E2B39D1B4
S214014BD0264B1B78002B35D0204B1B7801225340E7
S214014BE0DBB2002B2ED0224B1B7801225340DBB2C6
S214014BF0002B27D0174B5B7ADBB2002B05D01D4B61
S214014C009847031E01D001231DE01B4B00221A709A
S214014C10104B1B7ADBB2002B0CD0184B98470200C6
S214014C20174B1A60174BFA1D12781A700B4B01229C
S214014C301A7005E00A4BFA1D12781A70124B984743
S214014C40012300E000231800BD4602B080BDC04627
S214014C5014080020540800209D090020D7090020D0
S214014C6063090020E00900208F0900207209002056
S214014C708E090020C97B0100E5080020CD0C02004A
S214014C80F409002075090020E944010080B582B0CE
S214014C9000AF0200FB1D1A70204B1B78DBB201220D
S214014CA05340DBB2002B06D0FB1D1B7800211800F9
S214014CB01B4B98472EE01B4B1B78DBB24E2B29D1A2
S214014CC0194B1B78DBB24E2B24D1184B1B78002BCB
S214014CD020D0174B1B7801225340DBB2002B19D092
S214014CE0144B1B7801225340DBB2002B12D0FB1D64
S214014CF01B78022118000A4B98470F4B01221A70A5
S214014D000E4BFA1D12781A700D4B00221A700D4BBD
S214014D109847C046BD4602B080BDC0469D090020EA
S214014D20ADC90100E00900208F09002072090020AA
S214014D30D70900208E090020430900202D090020F4
S214014D40D8090020E944010080B582B000AF020016
S214014D50FB1D1A70074B1B78DBB2492B06D1FB1DD6
S214014D601B7801211800044B984700E0C046BD4659
S214014D7002B080BDE00900206148010080B582B024
S214014D8000AF0200FB1D1A700C4B1B78012253402A
S214014D90DBB2002B0ED00A4B5B79DBB2412B09D17B
S214014DA0084BFA1D12781A70074B002200211800D2
S214014DB0064B9847C046BD4602B080BD9E090020FE
S214014DC05408002063090020C8A80200C57C010021
S214014DD080B500AF044B9847044B98470200044B3C
S214014DE01A60C046BD4680BD0D310100CD0C0200E3
S214014DF0180A002080B584B000AF78600F23FB1836
S214014E007A6812781A706A4BDB78002B10D0694BDF
S214014E101B78002B00D1C7E00F23FB181B78412B12
S214014E2000D0C1E0644B01221A70644B9847BBE086
S214014E300F23FB181B78312B06D1614B98470021B5
S214014E400120604B9847AFE00F23FB181B78322BED
S214014E5007D15B4B98470022002101205A4B984707
S214014E60A2E00F23FB181B78332B04D1544B984731
S214014E70564B984798E00F23FB181B78342B0AD122
S214014E804B4B5B79002B00D18EE04D4B98470020B1
S214014E904F4B984788E00F23FB181B78352B0AD118
S214014EA0434B1B79002B00D17EE0454B98470020F1
S214014EB0484B984778E00F23FB181B78302B14D10A
S214014EC03B4B5B78002B00D16EE0434B1B78002BED
S214014ED007D0424B98473A4B98473F4B00221A70EF
S214014EE062E03D4B01221A705EE00F23FB181B782F
S214014EF0372B08D12E4B9B78002B55D0304B98473B
S214014F00374B984750E00F23FB181B78442B0DD1E5
S214014F100120344B98470120334B9847002100204D
S214014F20284B9847FF20314B98473DE00F23FB184D
S214014F301B78432B0BD100202A4B984701220021D6
S214014F400020214B9847FF20284B98472CE00F2341
S214014F50FB181B78382B0CD1194B98470120214B95
S214014F6098470120204B984701212920204B98473C
S214014F701AE00F23FB181B78392B0CD1104B9847DE
S214014F800020184B98470120174B984701215B20BA
S214014F90174B984708E00F23FB181B782A2B03D1E1
S214014FA0074B9847134B9847C046BD4604B080BD93
S214014FB02C080020430900202C090020AD300100F8
S214014FC0D14D010029C2010011C401005DC80100D4
S214014FD061A2010019A101000F0A0020DDAD010048
S214014FE0D5AE0100A912010015BE0100817E0100A7
S214014FF0614801006DC90100F0B5DE4657464E46D0
S2140150004546E0B5E7B010AFF8620C001000190095
S214015010EB4B982252009446202290460822914655
S214015020B944C844C4446344221C1A70E54B982210
S214015030520094462022904608229146B944C8441C
S214015040C4446344021C1A70DF4B982252009446F3
S2140150502022904608229146B944C844C444634479
S2140150600A1C1A703023FF332022944608229046E9
S214015070B844C444634400221A70FB6A8C2252006E
S21401508020218C4608218846B844C44462441360F3
S214015090CD4B9822520094462022904608229146F3
S2140150A0B944C844C44463441B78002B0ED0C74A95
S2140150B0FB6A11001800C64B984703001A0001232B
S2140150C05340DBB2002B01D002F0BBFCC14AFB6AA5
S2140150D011001800BE4B9847031E2CD0BE4B012270
S2140150E05A71BE4B102200211800BD4B9847AC23C5
S2140150F05B002022944608229046B844C444634488
S2140151001A68B64B11001800B64B98470020B64BEC
S2140151109847B149B54B1C221800B54B9847B34B7D
S21401512019000020B34B9847B34B98476420B34B04
S2140151309847B34B9847B34AFB6A11001800A44B33
S2140151409847031E5BD01823FF33202208218C4684
S214015150BC446244D418AC4B9847030023703023F8
S214015160FF332022944608229046B844C444634440
S21401517001221A70934B98225200944620229046A0
S21401518008229146B944C844C44463441B78002BA2
S21401519001D102F0F0FB1823FF33202294460822A7
S2140151A09046B844C44463441B78002B12D10C23A8
S2140151B02022944608229046B844C4446344934A45
S2140151C013CA13C313CA13C31168196012791A716B
S2140151D002F0D1FB0C232022944608229046B844C4
S2140151E0C44463448A4A13CA13C313CA13C3116857
S2140151F019609188998092799A7102F0BCFB854A70
S214015200FB6A11001800724B9847031E77D03023B3
S214015210FF332022944608229046B844C44463448F
S21401522001221A707C4B9B689A467C4B5B78DBB2FA
S2140152309B467A4B20229B5CDBB27B62774B5B8C76
S2140152409BB23B62754B24229B5CDBB2FB61734BCA
S2140152501B79DBB2BB61714B25229B5CDBB27B61A8
S2140152606E4B26229B5CDBB23B616C4B27229B5C20
S214015270DBB2FB60694B9E6A684B5B79DBB2994691
S214015280664B1B7FDBB23B60644B5B7FDBB2BB6074
S214015290624B1B7ADBB21D00604BDB889BB21C00A5
S2140152A05E4B5B889BB27B605D4A5E490C20202387
S2140152B09C4608239846B844C44460447B680E93D1
S2140152C00D940C95BC680B943C680A944C46099462
S2140152D00896FC6807943C6906947C690594BC6949
S2140152E00494FC6903943C6A02947B6A01935B46CE
S2140152F00093130052464C4CA04702F03CFB4B4A2D
S214015300FB6A11001800324B9847031E3CD02C4B09
S2140153109822520094462022904608229146B9448B
S214015320C844C44463441B781800414B9847302353
S214015330FF332022944608229046B844C44463446E
S21401534001221A701F4B9822520094462022904642
S21401535008229146B944C844C44463441B78002BD0
S21401536001D102F008FB0C23202294460822904625
S214015370B844C44463442F4A13CA13C313CA13C39D
S21401538012781A7002F0F7FA2B4AFB6A110018001D
S2140153900F4B9847031E00D1C2E00020274B9847C9
S2140153A01D4B5B79002B52D00020254B98471A4B9A
S2140153B0DB78002B48D00020224B984747E0C046B8
S2140153C0D3FEFFFFD2FEFFFFD1FEFFFFCCA80200F7
S2140153D00D420100D4A80200F807002004080020AE
S2140153E057960200D798020019230100840700206F
S2140153F02196020051420200F943020069090200A7
S214015400E1420100DCA80200DD300100E4A8020050
S21401541004A9020024A902002C0800205408002038
S2140154202CA9020040A902005D980200CCA9020046
S2140154300D110100D8A90200F4A90200A912010069
S21401544069140100E50B01000020D44B9847D44BAA
S2140154505B78002B08D07820D24B98475520D24B4A
S21401546098470020D14B98470120D14B98475020B0
S214015470D04B98470120D04B98470020CF4B9847F8
S2140154800220CF4B98470220CE4B98470020CE4BA8
S2140154909847CE4B1800CE4B98475420CD4B984793
S2140154A0002300930023002200210020CA4CA047BD
S2140154B00020CA4B98473220C94B98470220C94B57
S2140154C098473023FF332022944608229046B8445A
S2140154D0C444634401221A70C34B98225200944676
S2140154E02022904608229146B944C844C4446344E5
S2140154F01B78002B01D102F03EFA0C2320229446A1
S21401550008229046B844C4446344B84A13CA13C335
S21401551013CA13C313CA13C312781A7002F02BFAF4
S214015520B34AFB6A11001800B24B9847031E47D0D6
S214015530AD4B98225200944620229046082291466E
S214015540B944C844C444634401221A703023FF336B
S2140155502022944608229046B844C444634401225B
S2140155601A700C232022944608229046B844C4445C
S2140155706344FA22002118009F4B98479F4B9B7863
S214015580002B10D10C232022944608229046B844C2
S214015590C44463449A4A13CA13C3116819609288B3
S2140155A09A8002F0E8F90C232022944608229046BD
S2140155B0B844C44463441800924B984702F0DBF9A0
S2140155C0914AFB6A110018008A4B9847031E03D0C4
S2140155D08E4B984702F0CFF98D4AFB6A11001800EE
S2140155E0844B9847031E28D07F4B9822520094463E
S2140155F02022904608229146B944C844C4446344D4
S21401560001221A703023FF33202294460822904646
S214015610B844C444634401221A70614B9A687D4BB6
S2140156207D490C202024A4460824A046B844C4443E
S21401563060447A4CA04702F09EF9794AFB6A110051
S21401564018006C4B9847031E30D00120754B9847C5
S2140156500120754B98473023FF33202294460822B9
S2140156609046B844C444634401221A705E4B9822A3
S214015670520094462022904608229146B944C844D6
S214015680C44463441B78002B01D102F074F90C2347
S2140156902022944608229046B844C4446344634A90
S2140156A013CA13C312681A6002F065F9604AFB6AEE
S2140156B0110018004F4B9847031E32D00020594B5B
S2140156C098470120584B98473023FF3320229446B1
S2140156D008229046B844C444634401221A70424BDF
S2140156E09822520094462022904608229146B944B8
S2140156F0C844C44463441B78002B01D102F03BF933
S2140157000C232022944608229046B844C44463449D
S214015710484A13CA13C31168196012791A7102F044
S2140157202AF9454AFB6A11001800324B9847031EB6
S21401573000D187E01A4B5B79002B01D102F01BF9EF
S2140157403023FF332022944608229046B844C444AE
S214015750634401221A700120384B9847224B982245
S214015760520094462022904608229146B944C844E5
S214015770C44463441B78002B01D102F0FCF80C23CF
S2140157802022944608229046B844C44463442C4AD6
S21401579013CA13C312681A6002F0EDF8B5140100BB
S2140157A02C080020011501006D1501009519010056
S2140157B0E11501002D1601007916010041130100C3
S2140157C0A1170100C51601001117010010270000DE
S2140157D05D1701008D130100D91301002D1A010078
S2140157E0F5120100E1190100D2FEFFFFFCA902003B
S2140157F024AA02000D420100579602001408002058
S21401580028AA0200F90701003CAA0200E1420100B1
S21401581044AA02002CA9020048AA02005D980200D0
S21401582050AA0200A912010015BE010058AA0200E2
S21401583068AA020070AA020084AA02006914010084
S2140158408CAA0200D04AFB6A11001800CF4B984779
S214015850031E35D0CE4B5B79002B01D102F08BF8BD
S2140158603023FF332022944608229046B844C4448D
S214015870634401221A700020C64B9847C64B9822F3
S214015880520094462022904608229146B944C844C4
S214015890C44463441B78002B01D102F06CF80C233E
S2140158A02022944608229046B844C4446344BB4A26
S2140158B013CA13C31168196012791A7102F05BF8E2
S2140158C0B74AFB6A11001800B04B9847031E2FD049
