S0110000434F4D4D414E4445522E737265637D
S21401000090290020294D0200214E0200214E0200B7
S21401001000000000000000000000000000000000DA
S21401002000000000000000000000000009EC0100D4
S214010030000000000000000041ED010089ED010014
S214010040214E0200214E02008114020085E50100C6
S214010050A9240200214E02001DDB0100214E0200F0
S21401006015250200A1220200B9220200D1220200B7
S214010070E92202000123020019230200A51402004E
S214010080B9140200CD1402005D15020071150200BC
S2140100908515020099150200AD150200FDD8010074
S2140100A06D280200E1DA0100214E0200214E020015
S2140100B00000000010B5064C2378002B07D1054B35
S2140100C0002B02D0044800E000BF0123237010BDBE
S2140100D0000200200000000074AF0200084B10B5BB
S2140100E0002B03D00749084800E000BF0748036813
S2140100F0002B00D110BD064B002BFBD09847F9E72B
S214010100000000000402002074AF020074AF020079
S2140101100000000090B583B000AFFC1D0A4B984765
S21401012003002370FB1D1B78162B00D1FEE7FB1D79
S2140101301B78002B03D0054B9847034B9847C046C6
S214010140BD4603B090BDC046E5380200CD39020079
S21401015080B500AFF64B9847F64B19000020F64BDA
S2140101609847F449F54B18221800F54B9847F34B7E
S2140101701B79552B29D0F14B00221A60EF4B5522E3
S2140101801A71EE4B00225A71EC4B00229A71EB4B1E
S2140101900022DA71EB4B102200211800EA4B984737
S2140101A0E84BEA4A03CA03C31188198092789A7009
S2140101B0E249E04B18221800E14B9847DD4B190045
S2140101C00020E34B9847E34B9847DA4B1900012090
S2140101D0D94B9847D749E04B38221800D84B984757
S2140101E0DD4B1B79552B2ED0DB4B00221A60DA4BE8
S2140101F055221A71D94B1E2200211800D24B98475E
S214010200D64AD74B1000190010231A00CC4B98473A
S214010210D44B142200211800CB4B9847D14AD24B1D
S214010220100019000B231A00C54B9847CA49C14B49
S21401023038221800C24B9847BE4B19000120C44B08
S2140102409847C44B9847BB4B19000220BA4B9847B6
S214010250B849C64B38221800B94B9847C34B1B798F
S214010260552B3CD0C14B00221A60C04B55221A7147
S214010270BF4B102200211800B34B9847BB4B0522F9
S214010280BC499B1810221800AD4B9847BA4B102258
S21401029000211800AC4B9847B84AB94B100019001A
S2140102A00A231A00A64B9847B34B102200211800C8
S2140102B0A54B9847B04AB34B100019000D231A00FE
S2140102C09F4B9847A9499B4B382218009C4B98474F
S2140102D0984B190002209E4B98479E4B9847954B8A
S2140102E019000820944B9847A74A924B1000190012
S2140102F008231A00924B9847A34B1B78552B1DD009
S214010300A14B55221A70A04B0F225A709E4B002209
S2140103109A709D4B0022DA709B4B01221A71854A16
S214010320994B1000190008231A00854B9847814BFA
S21401033019000820864B9847864B9847934B19001F
S2140103400320934B9847934B19000420904B9847F2
S214010350914B190005208E4B9847904B19000620AB
S2140103608B4B98478E4B19000720894B9847774B44
S21401037019000920864B9847744B19000A20844BB4
S2140103809847724B19000B20814B98476F4B190009
S2140103900C207F4B98476D4B19000D207C4B9847DE
S2140103A06A4B19000E207A4B9847684B19000F20AC
S2140103B0774B9847654B19001020754B9847634B50
S2140103C019001120724B9847604B19001220704B90
S2140103D098475E4B190013206D4B98475B4B1900ED
S2140103E014206B4B9847594B19001520684B9847BA
S2140103F0564B19001620664B9847544B1900172088
S214010400634B98474B4B190018204B4B9847654A4E
S214010410484B1000190018231A00494B9847614BA6
S2140104201B78552B25D05F4B55221A705D4B002249
S2140104309A705C4B00225A705B4B14220021180004
S214010440414B9847584A414B100019000B231A009C
S2140104503B4B9847374A534B1000190018231A0094
S214010460374B9847334B19001820394B9847394B6F
S2140104709847304B190019202F4B98474B4A2D4B64
S2140104801000190030231A002D4B9847474B1B7854
S214010490552B3CD0454B55221A70454B1422002152
S2140104A01800294B9847424A284B100019000B2385
S2140104B01A00234B98473F4B142200211800224B69
S2140104C098473C4A214B100019000B231A001C4B7D
S2140104D09847364B00225A70344B00229A70334BA1
S2140104E00022DA70314B00221A71304B00225A7109
S2140104F0104A2E4B1000190030231A00104B984753
S2140105000C4B19001920124B9847124B9847094B70
S21401051019001A20084B98470649274B3022180025
S214010520074B9847244B1B78552B00D1ACE045E090
S2140105301501010084050020FD3A0200F80500209F
S214010540DD8D020000060020138E0200149A0200C0
S214010550F1390200993B02001C050020210500200C
S214010560209A02003F050020309A0200C0050020B4
S214010570C50500203C9A0200E5050020D5050020AF
S2140105804C9A0200589A020010060020689A02004F
S21401059021070100749A0200809A02008C9A0200D8
S2140105A0989A0200380600203C06002054050020D8
S2140105B05C0500207005002050060020514B552296
S2140105C01A70504B00225A704E4B32225A804D4BB5
S2140105D04F221A714B4B54225A714A4B0222DA802F
S2140105E0484B00221A72474B00225A72454B002292
S2140105F09A72444B0022DA72424B00221A73414B24
S21401060000225A733F4B00229A733E4B0022DA7344
S2140106103C4B00221A613B4B00225A61394B0022A7
S2140106209A61384B55221A77364B78225A77354BD2
S21401063000229A77334B0022DA77324B20220121AF
S2140106409954304B50225A842E4B2422012199541E
S2140106502C4B2522022199542A4B262202219954F9
S214010660284B272200219954264B0A229A622549B3
S214010670254B30221800254B9847234B19001A208A
S214010680234B9847234B98471F4B19001B20224B9F
S21401069098471D49214B102218001C4B98471F4BA9
S2140106A01B78552B2AD01D4B55221A701B4B012245
S2140106B09A701A4B01225A70184B00229A71174BE6
S2140106C000225A71154B00221A71144B0022DA705F
S2140106D0124B0022DA71114B00229A600F4B002256
S2140106E0DA600E49084B10221800084B9847064B53
S2140106F019001B20064B9847064B9847C046BD4637
S21401070080BDC0465006002084050020DD8D020015
S214010710F1390200993B0200FD3A0200280600204A
S21401072080B588B000AF02003960FB1D1A70284BF7
S2140107303C2200211800274B9847254AFB1D1B78B1
S21401074011001800244B98470823FA18204B100074
S214010750190018231A00214B98470823FB181B7809
S214010760552B31D00823FB1855221A700823FB1885
S21401077000225A700823FB1800229A700823FB18DF
S2140107800022DA700823FB18043314220021180013
S214010790104B98473A680823FB18043311001800D9
S2140107A00F4B98470A4A0823FB1810001900182314
S2140107B01A000A4B9847064AFB1D1B7811001800C1
S2140107C0084B9847084B9847C046BD4608B080BDC1
S2140107D084050020138E0200FD3A0200DD8D020022
S2140107E093900200F1390200993B020080B58AB06D
S2140107F000AF78607B6800221A702723FB1800225E
S2140108001A7063E0374B3C2200211800364B98479C
S2140108102723FB181B780933DBB2324A1100180074
S214010820324B98470C23FA182E4B10001900182348
S2140108301A002F4B98472F4BDB782722BA181278CD
S2140108409A420FD17B6818002B4B984703001A0079
S2140108507B689A18294B1000190003231A00244BB1
S214010860984715E0234B1B792722BA1812789A422B
S2140108700ED17B681800204B984703001A007B684E
S2140108809A181F4B1000190003231A00184B98479B
S2140108900C23FB181A1D7B6811001800194B98478A
S2140108A07B681800144B984703001A007B689A1857
S2140108B0154B1000190002231A000D4B98472723E9
S2140108C0FB181A782723FB1801321A70094B9B78FC
S2140108D02722BA1812789A4294D3C046BD460AB067
S2140108E080BDC04684050020138E0200FD3A02003A
S2140108F0DD8D020010060020A3900200A49A0200DB
S214010900A89A02005D900200AC9A020080B588B0F9
S21401091000AF78600A00FB1C1A707B6800221A7010
S214010920154B9B78FA1C12789A421FD2134B3C2225
S21401093000211800124B9847FB1C1B780933DBB2C9
S2140109400E4A110018000F4B98470823FA180B4B54
S2140109501000190018231A000B4B98470823FB18A0
S2140109601A1D7B6811001800084B98477B68180011
S214010970BD4608B080BDC046100600208405002094
S214010980138E0200FD3A0200DD8D02005D9002002A
S21401099080B588B000AF7860144B9B78002B20D0D0
S2140109A00C23FB18180014231A000021104B98473B
S2140109B00E4BDA780C23FB18110018000D4B9847E4
S2140109C00C23FA187B68110018000B4B9847031E7E
S2140109D001D0012306E07B681800084B9847030006
S2140109E000E000231800BD4608B080BD10060020B8
S2140109F0138E02000D090100D3900200010A0100C6
S214010A0080B582B000AF78600B4B9B78002B0DD081
S214010A100A4B9B78002B09D0094A7B681100180005
S214010A20084B9847031E01D0012300E0002318005D
S214010A30BD4602B080BDC046100600203806002024
S214010A403C060020D390020080B582B000AF7860EB
S214010A50094B5B78002B09D0084A7B681100180007
S214010A60074B9847031E01D0012300E0002318001E
S214010A70BD4602B080BDC046540500205C0500207E
S214010A80D390020080B582B000AF7860094BDB7866
S214010A90002B09D0084A7B6811001800074B9847BD
S214010AA0031E01D0012300E000231800BD4602B05A
S214010AB080BDC0465405002070050020D39002007A
S214010AC080B582B000AF7860094B5B78002B06D00A
S214010AD0084A7B6811001800074B984702E07B68BC
S214010AE000221A707B681800BD4602B080BDC04661
S214010AF0540500205C0500209390020080B582B06A
S214010B0000AF7860094BDB78002B06D0084A7B687B
S214010B1011001800074B984702E07B6800221A7004
S214010B207B681800BD4602B080BDC0465405002053
S214010B30700500209390020080B582B000AF0200DD
S214010B40FB1D1A70FB1D1A780A4B9A700A4A094B4C
S214010B501000190030231A00084B9847064B19005D
S214010B601920074B9847074B9847C046BD4602B029
S214010B7080BDC0465405002084050020DD8D02009E
S214010B80F1390200993B020080B582B000AF020045
S214010B90FB1D1A70FB1D1A780A4B1A710A4A094B7B
S214010BA01000190030231A00084B9847064B19000D
S214010BB01920074B9847074B9847C046BD4602B0D9
S214010BC080BDC0465405002084050020DD8D02004E
S214010BD0F1390200993B020080B582B000AF0200F5
S214010BE0FB1D1A70FB1D1A780F4B5A71FB1D1B78E3
S214010BF001225340DBB2002B02D00B4B00221A71AC
S214010C000A4A094B1000190030231A00084B98476E
S214010C10064B19001920074B9847074B9847C046C3
S214010C20BD4602B080BDC0465405002084050020A4
S214010C30DD8D0200F1390200993B020080B582B0D9
S214010C4000AF78600F4B01225A707A680E4B110084
S214010C5018000E4B98470E4A0A4B10001900302315
S214010C601A000C4B98470A4B190019200A4B984753
S214010C700A4B984700200A4B9847C046BD4602B02B
S214010C8080BDC046540500205C05002093900200FC
S214010C9084050020DD8D0200F1390200993B020037
S214010CA0390B010080B582B000AF7860104B01228D
S214010CB0DA707A680F4B110018000F4B98470F4AED
S214010CC00B4B1000190030231A000D4B98470B4BA5
S214010CD0190019200B4B98470B4B984700200B4BDC
S214010CE0984700200A4B9847C046BD4602B080BDD3
S214010CF05405002070050020939002008405002012
S214010D00DD8D0200F1390200993B0200890B0100DA
S214010D10D90B010080B58EB000AF7860284B9B7868
S214010D20002B2BD0274B5B78002B06D0264A7B68FE
S214010D3011001800254B98473CE0254B3C2200212A
S214010D401800244B98471E4BDB780933DBB2204A48
S214010D5011001800204B98472023FA181C4B10004E
S214010D60190018231A001D4B98472023FB181A1D3B
S214010D707B6811001800154B98471BE0144B3C226A
S214010D8000211800134B9847114B19000320124BF2
S214010D9098470823FA180E4B1000190018231A005A
S214010DA00E4B98470823FB181A1D7B681100180084
S214010DB0064B98477B681800BD460EB080BDC046FE
S214010DC010060020380600203C0600209390020002
S214010DD084050020138E0200FD3A0200DD8D02001C
S214010DE080B58AB000AF7860334B9B78002B39D042
S214010DF02723FB1800221A702DE0304B3C220021DD
S214010E0018002F4B98472723FB181B780933DBB2B2
S214010E102A4A110018002B4B98470C23FA18274B27
S214010E201000190018231A00274B98470C23FB18AB
S214010E301A1D7B6811001800244B9847031E03D027
S214010E402723FB181B7832E02723FB181A78272361
S214010E50FB1801321A70184B9B782722BA181278A1
S214010E609A42CAD37B681800194B9847031E01D0D3
S214010E70FD231CE0174B9B78002B07D07B681800DE
S214010E80154B9847031E01D0FE2310E0134BDB7869
S214010E90002B0BD00F4B1B79002B07D07B6818005B
S214010EA00F4B9847031E01D0FE2300E0FF231800D6
S214010EB0BD460AB080BDC04610060020840500204D
S214010EC0138E0200FD3A0200DD8D0200D39002006F
S214010ED0010A010054050020490A010028060020E5
S214010EE0850A010080B588B000AF7860334B9A78E8
S214010EF0324B5B789A4201D100235AE07B68180096
S214010F002F4B98470300F02B52D92E4B3C22002141
S214010F1018002D4B9847294B9B780933DBB2294A99
S214010F2011001800294B98470823FA18254B100082
S214010F30190018231A00264B98470823FB18043378
S214010F40142200211800204B98477A680823FB18C2
S214010F500433110018001F4B98471A4A0823FB1840
S214010F601000190018231A00194B9847134B9B7849
S214010F700933DBB2134A11001800174B9847174B79
S214010F8098470E4B9B780133DAB20C4B9A700D4A98
S214010F900A4B1000190008231A000D4B9847094BFD
S214010FA0190008200C4B98470C4B9847012300E08A
S214010FB000231800BD4608B080BDC04610060020BC
S214010FC0E10D010084050020138E0200FD3A0200A7
S214010FD0DD8D020093900200F1390200993B020078
S214010FE090B585B000AF78603D4B9B78012B01D85A
S214010FF0002371E00E23FC187B681800394B9847D4
S21401100003002370364B5B780E22BA1812789A4288
S21401101061D2334BDB780E22BA1812789A425AD034
S2140110200F23FB180E22BA1812781A7022E02E4BE4
S2140110303C22002118002D4B98470F23FB181B78E4
S2140110400A33DBB2284A11001800294B98470F23B0
S214011050FB181B780933DBB2234A11001800254B15
S2140110609847254B98470F23FB181A780F23FB1830
S21401107001321A700F23FB181A78194B9B78013B23
S2140110809A42D4DB164B9B78013BDAB2144B9A702A
S214011090134B1B790E22BA1812789A4207D00E23E8
S2140110A0FB181A780E4B9B78013B9A4202DD0C4BDB
S2140110B001221A710C4A0A4B1000190008231A0063
S2140110C00E4B9847084B190008200A4B98470A4BC5
S2140110D09847012300E000231800BD4605B090BDE7
S2140110E010060020E10D010084050020138E020089
S2140110F0FD3A0200F1390200993B0200DD8D020043
S21401110080B582B000AF0200FB1D1A70FB1D1B7874
S214011110002B03D0284B00229A7018E0274B3C2264
S21401112000211800264B9847234BDB780933DBB2A6
S214011130224A11001800234B9847204B190009201A
S214011140214B9847214B98471B4B01229A701A4B0B
S2140111500022DA70184B01221A71184A164B100039
S214011160190008231A001A4B9847134B0022DA700D
S214011170114B01221A71114B19000820124B984786
S214011180124B98470020134B9847134B00229A7036
S2140111900A4A114B1000190018231A000C4B9847E5
S2140111A0064B19001820084B9847084B9847C0462D
S2140111B0BD4602B080BDC046100600208405002052
S2140111C0138E0200FD3A0200F1390200993B02003B
S2140111D0DD8D0200DD1101003806002080B582B0E9
S2140111E000AF0200FB1D1A70FB1D1A780A4B5A70DD
S2140111F00A4A094B1000190018231A00084B984791
S214011200064B19001820074B9847074B9847C046CE
S214011210BD4602B080BDC0463806002084050020C9
S214011220DD8D0200F1390200993B020080B582B0E3
S21401123000AF7860114B9B78002B19D0104B012220
S2140112409A707A680F4B110018000F4B98470F4A97
S2140112500B4B1000190018231A000D4B98470B4B27
S214011260190018200B4B98470B4B9847012300E0B9
S21401127000231800BD4602B080BDC04610060020FF
S214011280380600203C0600209390020084050020CA
S214011290DD8D0200F1390200993B020080B582B073
S2140112A000AF0200FB1D1A70FB1D1A78094B5A701D
S2140112B00849094B30221800084B9847064B19007D
S2140112C01A20074B9847074B9847C046BD4602B0C1
S2140112D080BDC0465006002084050020DD8D02003A
S2140112E0F1390200993B020080B582B000AF0200DE
S2140112F0BB1D1A800A4BBA1D12885A800849094B31
S21401130030221800084B9847064B19001A20074B45
S2140113109847074B9847C046BD4602B080BDC046B9
S2140113205006002084050020DD8D0200F139020000
S214011330993B020080B582B000AF0200FB1D1A7017
S2140113400A4BFA1D12781A710849094B3022180007
S214011350084B9847064B19001A20074B9847074B2E
S2140113609847C046BD4602B080BDC0465006002024
S21401137084050020DD8D0200F1390200993B020050
S21401138080B582B000AF0200FB1D1A700A4BFA1D31
S21401139012785A710849094B30221800084B9847B1
S2140113A0064B19001A20074B9847074B9847C0462B
S2140113B0BD4602B080BDC046500600208405002010
S2140113C0DD8D0200F1390200993B0200B0B582B012
S2140113D000AF05000C0010001900FB1D2A1C1A7036
S2140113E0BB1D221C1A707B1D021C1A703B1D0A1C99
S2140113F01A70FB1D1A78144B5A72134B5B7A002B2A
S21401140010D0114BBA1D12789A720F4B7A1D1278B2
S214011410DA720D4B3A1D12781A730B4B1822BA1852
S21401142012785A730849094B30221800084B98471E
S214011430064B19001A20074B9847074B9847C0469A
S214011440BD4602B0B0BDC04650060020840500204F
S214011450DD8D0200F1390200993B020080B582B0B1
S21401146000AF0200FB1D1A70FB1D1A78094BDA77D4
S2140114700849094B30221800084B9847064B1900BB
S2140114801A20074B9847074B9847C046BD4602B0FF
S21401149080BDC0465006002084050020DD8D020078
S2140114A0F1390200993B020080B582B000AF02001C
S2140114B0FB1D1A70FB1D1A78094B9A770849094BD0
S2140114C030221800084B9847064B19001A20074B84
S2140114D09847074B9847C046BD4602B080BDC046F8
S2140114E05006002084050020DD8D0200F13902003F
S2140114F0993B020080B582B000AF0200FB1D1A7056
S214011500FB1D1B78642B18D90E4BFA1D12785A77DF
S2140115100C490D4B302218000C4B98470A4B19000A
S2140115201A200B4B98470B4B9847064BDB7B002B3F
S21401153001D0094B9847012300E000231800BD465F
S21401154002B080BD5006002084050020DD8D02001B
S214011550F1390200993B0200D917010080B582B02B
S21401156000AF0200FB1D1A70FB1D1B78002B1CD060
S214011570FB1D1B78632B18D80E4BFA1D12781A77B1
S2140115800C490D4B302218000C4B98470A4B19009A
S2140115901A200B4B98470B4B9847064BDB7B002BCF
S2140115A001D0094B9847012300E000231800BD46EF
S2140115B002B080BD5006002084050020DD8D0200AB
S2140115C0F1390200993B0200D917010080B582B0BB
S2140115D000AF0200FB1D1A70FB1D1978094B202273
S2140115E099540849084B30221800084B9847064B77
S2140115F019001A20064B9847064B9847C046BD4629
S21401160002B080BD5006002084050020DD8D02005A
S214011610F1390200993B020080B582B000AF0200AA
S214011620BB1D1A800A4BBA1D12885A840849094BF9
S21401163030221800084B9847064B19001A20074B12
S2140116409847074B9847C046BD4602B080BDC04686
S2140116505006002084050020DD8D0200F1390200CD
S214011660993B020080B582B000AF0200FB1D1A70E4
S214011670FB1D1978094B242299540849084B30223E
S2140116801800084B9847064B19001A20064B984736
S214011690064B9847C046BD4602B080BD50060020A6
S2140116A084050020DD8D0200F1390200993B02001D
S2140116B080B582B000AF0200FB1D1A700A4BFA1DFE
S2140116C0262112785A540849084B30221800084B34
S2140116D09847064B19001A20064B9847064B984721
S2140116E0C046BD4602B080BD5006002084050020DD
S2140116F0DD8D0200F1390200993B020080B582B00F
S21401170000AF0200FB1D1A70FB1D1978094B27223A
S21401171099540849084B30221800084B9847064B45
S21401172019001A20064B9847064B9847C046BD46F7
S21401173002B080BD5006002084050020DD8D020029
S214011740F1390200993B020080B582B000AF7860A3
S214011750094B7A689A620849084B30221800084BF0
S2140117609847064B19001A20064B9847064B984790
S214011770C046BD4602B080BD50060020840500204C
S214011780DD8D0200F1390200993B020080B582B07E
S21401179000AF0200FB1D1A700A4BFA1D25211278B4
S2140117A05A540849084B30221800084B9847064BF4
S2140117B019001A20064B9847064B9847C046BD4667
S2140117C002B080BD5006002084050020DD8D020099
S2140117D0F1390200993B020090B583B000AF2B4B64
S2140117E01A692B4B10009847041C284B1A7F284B6C
S2140117F010009847021C274B111C201C9847031CFD
S2140118001A1C254B101C9847244C0022244BA04739
S21401181003000C0019002200BC1D224B0800110019
S214011820984703002380BB1D1B8818001E4B984752
S214011830164B1A69164B10009847041C134B5A7F17
S214011840134B10009847021C124B111C201C984782
S214011850031C1A1C104B101C9847104C0022104BEE
S214011860A04703000C0019002200BC1D0D4B080008
S2140118701100984703002380BB1D1B8818000B4BE3
S2140118809847C046BD4603B090BDC04650060020EE
S21401189025700200456D0200018C0200D17602001F
S2140118A000005940F9680200B1180100F51801005E
S2140118B080B582B000AF7860094B7A689A610849B2
S2140118C0084B30221800084B9847064B19001A207F
S2140118D0064B9847064B9847C046BD4602B080BDAA
S2140118E05006002084050020DD8D0200F13902003B
S2140118F0993B020080B582B000AF7860094B7A68E8
S2140119005A610849084B30221800084B9847064B85
S21401191019001A20064B9847064B9847C046BD4605
S21401192002B080BD5006002084050020DD8D020037
S214011930F1390200993B020080B582B000AF7860B1
S214011940094B7A681A610849084B30221800084B7F
S2140119509847064B19001A20064B9847064B98479E
S214011960C046BD4602B080BD50060020840500205A
S214011970DD8D0200F1390200993B020080B582B08C
S21401198000AF0200FB1D1A70FB1D1A78094BDA73B3
S2140119900849094B30221800084B9847064B190096
S2140119A01A20074B9847074B9847C046BD4602B0DA
S2140119B080BDC0465006002084050020DD8D020053
S2140119C0F1390200993B020080B582B000AF0200F7
S2140119D0BB1D1A800A4BBA1D1288DA800849094BCA
S2140119E030221800084B9847064B19001A20074B5F
S2140119F09847074B9847C046BD4602B080BDC046D3
S214011A005006002084050020DD8D0200F139020019
S214011A10993B020080B582B000AF0200FB1D1A7030
S214011A200A4BFA1D12781A720849094B302218001F
S214011A30084B9847064B19001A20074B9847074B47
S214011A409847C046BD4602B080BDC046500600203D
S214011A5084050020DD8D0200F1390200993B020069
S214011A6080B58AB000AF78602723FB1800221A7071
S214011A702BE01B4B3C22002118001A4B98472723CA
S214011A80FB181B780333DBB2154A11001800164BFE
S214011A9098470C23FA18124B1000190018231A0045
S214011AA0124B98470C23FB181A1D7B68110018006F
S214011AB00F4B9847031E01D001230CE02723FB1888
S214011AC01A782723FB1801321A702723FB181B7874
S214011AD0042BCED900231800BD460AB080BDC046EF
S214011AE084050020138E0200FD3A0200DD8D0200FF
S214011AF0D390020080B582B000AF0200FB1D1A70C1
S214011B000B4BFA1D1278DA700A4A094B10001900BD
S214011B1008231A00084B9847064B19000820074B64
S214011B209847074B9847C046BD4602B080BDC046A1
S214011B301006002084050020DD8D0200F139020028
S214011B40993B020080B582B000AF0200FB1D1A70FF
S214011B500B4BFA1D12781A710A4A094B100019002C
S214011B6008231A00084B9847064B19000820074B14
S214011B709847074B9847C046BD4602B080BDC04651
S214011B801006002084050020DD8D0200F1390200D8
S214011B90993B020090B585B000AF78600E23FC1823
S214011BA07B681800214B9847030023700F23FB180E
S214011BB0FF221A701E4B5B780E22BA1812789A42D0
S214011BC009D30F23FB181A4A92781A707B681800FB
S214011BD0184B98470CE0164B5B780E22BA18127811
S214011BE09A4205D20F23FB180E22BA1812781A70E1
S214011BF00F4B5B780F22BA1812789A4210D20C4B10
S214011C009B78012B04D90A4BDB7818000A4B9847BE
S214011C100F23FB181B781800084B9847012300E098
S214011C2000231800BD4605B090BDC046E10D010079
S214011C3010060020E50E0100451B0100F51A010003
S214011C4090B585B000AF7860214B9B78012B01D809
S214011C50002339E00E23FC187B6818001D4B9847BB
S214011C60030023700F23FB18FF221A70184B5B78B2
S214011C700E22BA1812789A4209D30F23FB18144A77
S214011C8092781A707B681800134B98470CE0104B3B
S214011C905B780E22BA1812789A4205D20F23FB18E7
S214011CA00E22BA1812781A70094B5B780F22BA18EE
S214011CB012789A4207D20F23FB181B781800074B9D
S214011CC09847012300E000231800BD4605B090BDEB
S214011CD010060020E10D0100E50E0100451B010084
S214011CE080B582B000AF0200FB1D1A70064BFA1DCC
S214011CF0127811001F220A40012191400A001A6041
S214011D00C046BD4602B080BD00E100E080B582B0AD
S214011D1000AF0200FB1D1A70074AFB1D1B78190055
S214011D201F230B40012199400B0019008023D1503D
S214011D30C046BD4602B080BD00E100E080B584B07B
S214011D4000AF0200FB1D1A700F23FB18FA1D127854
S214011D50D2091A700E23FB18FA1D127852091A704E
S214011D600D4BBB600F23FB181B78002B0FD10F23E5
S214011D70FB181B789B0010229446BC446344083B26
S214011D801A680E23FB181B78DB01D31800E000232A
S214011D901800BD4604B080BD0044004180B582B045
S214011DA000AF0200FB1D1A70FB1D1B781800034BC9
S214011DB0984703001800BD4602B080BD3D1D0100D6
S214011DC080B582B000AF78607B6800221A707B68AD
S214011DD001225A707B6800229A70C046BD4602B046
S214011DE080BD000080B584B000AF0200FB1D1A70F4
S214011DF0FB1D1B7818000B4B98470300FB60FB1D6F
S214011E001B781F22134001229A401300BB60FB6817
S214011E101B6ABA6813405A1E9341DBB21800BD46CE
S214011E2004B080BD9D1D010080B584B000AF0200E6
S214011E30FB1D1A70BB1D0A1C1A70FB1D1B781800AF
S214011E400D4B98470300FB60FB1D1B781F221340B8
S214011E5001229A401300BB60BB1D1B78002B03D0E8
S214011E60FB68BA689A6102E0FB68BA685A61C046C4
S214011E70BD4604B080BDC0469D1D010080B584B03E
S214011E8000AF78607B681B68FB60FB68DB695A1EE5
S214011E909341DBB21800BD4604B080BD80B582B068
S214011EA000AF7860C0467B681800044B9847031E55
S214011EB0F9D1C046BD4602B080BDC0467D1E0100B8
S214011EC080B582B000AF78607B688022D2051A6048
S214011ED07B6800225A607B68FF221A817B68002299
S214011EE09A727B680022DA727B68962292011A62E5
S214011EF07B682422012199547B682522012199546B
S214011F007B682622002199547B6827220021995458
S214011F107B6800229A627B6888225203DA607B68BB
S214011F202C22002199547B682D22002199547B682C
S214011F3000221A637B6800225A637B6800229A6338
S214011F407B680022DA637B6800225A617B68002284
S214011F501A827B680022DA767B6800221A767B6812
S214011F6000221A777B6800225A767B6813229A76BB
S214011F707B6800225A77C046BD4602B080BD00008D
S214011F8080B584B000AF78607B681B68FB607B68B7
S214011F901B681800094B984703001800084B984720
S214011FA07B681800074B9847FB681B6802221A4398
S214011FB0FB681A60C046BD4604B080BD5D220200C3
S214011FC0E11C01009D1E010080B584B000AF786061
S214011FD07B681B68FB607B681B6818000A4B984788
S214011FE003001800094B98477B681800084B984770
S214011FF0FB681B68022293431A00FB681A60C046FE
S214012000BD4604B080BDC0465D2202000D1D010024
S2140120109D1E010080B584B000AF78607B681B68A8
S214012020FB607B681800064B98477B681800054BD9
S2140120309847FB6801221A60C046BD4604B080BDC1
S214012040C91F01009D1E010080B582B000AF7860F7
S214012050C046BD4602B080BD80B582B000AF094B18
S2140120601B68F91C00221800074B984703007B6089
S2140120707B68002B00D0F2E7C046C046BD4602B0E2
S21401208080BDC0462002002041F4010090B585B015
S21401209000AF0200FB1D1A70194BFB60FB681B7E2C
S2140120A0DBB21A000423134026D0FB685B8B9BB27D
S2140120B0DAB20B23FB1806210A401A700B23FB1811
S2140120C01B78002B06D00B23FB181B789AB2FB68F3
S2140120D05A8311E0FB681B8D9BB2DAB20A23FB1808
S2140120E01A70084B18680A23F91800230022064CB8
S2140120F0A0470120054B9847C046BD4605B090BD98
S214012100001400422002002021F30100F922010000
S21401211080B500AF3120094B984703005A1E934102
S214012120DBB201225340DBB21A1C01231340DAB2A0
S214012130034B1A70C046BD4680BDC046E51D010072
S2140121408A06002090B597B002AF4C23FB18180002
S2140121504D4B98474C23FB1801221A704C23FB1851
S21401216019001420494B984700211420484B9847E2
S2140121704023FB181800474B98474023FB18312291
S2140121801A604023FB1800225A604023FB180122E4
S2140121901A724023FB180322DA724023FB18190037
S2140121A001203D4B9847002101203C4B98473C4B72
S2140121B00022012118003B4B984700220121F02004
S2140121C0394B98470200394B1A60394939483A4B1E
S2140121D0009300230022394CA0470200384B1A60B6
S2140121E0032200210120304B98470200354B1A602C
S2140121F0344B1B68002B06D0324B18680023002294
S2140122000021314CA0473B001800304B98473B005B
S214012210E12252021A623B0080225203DA603B003E
S2140122202B4A1A633B002B4A5A633B000122524257
S2140122309A633B0001225242DA633B002C220121C1
S214012240995403E0244B1800244B98473A0024493C
S214012250214B1800234B9847031EF3D11E4B180041
S214012260214B98471E4B1800204B984703001A0035
S2140122701F4B190010001F4B9847194B04229A75E3
S214012280C046BD4615B090BDC11D0100712F0200AC
S214012290291E010001DF010035DF01006124020073
S2140122A011210100FD23020085F00100200200201B
S2140122B088130000B49A020049200100090E0200AA
S2140122C0240200202802002041F10100C11E010065
S2140122D002001600020017008C06002015200100DF
S2140122E000140042551A0200811F010015EB01007F
S2140122F08D200100F121020080B582B000AF0200FE
S214012300FB1D1A70104B1B78DBB201225340DBB267
S214012310002B10D0012114200C4B98470A4B0122A8
S2140123201A70FB1D1B7801225340DBB2002B02D032
S2140123306420074B9847074B98470200064B1A60E4
S214012340C046BD4602B080BD80060020291E0100A1
S214012350E9FE01004D0202001C02002080B500AF1C
S21401236000211420034B9847034B00221A70C046E5
S214012370BD4680BD291E01008006002080B582B0C2
S21401238000AF0E4B1B78DBB2002B11D0FB1D0022D9
S2140123901A700B4B984702000A4B1B68D21AFB1D9A
S2140123A009499142924152421A70FB1D1B7800E086
S2140123B001231800BD4602B080BDC046800600203D
S2140123C04D0202001C0200204FC3000090B58BB0E6
S2140123D002AFF860B9607A601A00FB1C1A70664B8F
S2140123E01B6801211800654B9847031E01D1022383
S2140123F0BDE00020624B9847624B98471F23FB18AD
S21401240000221A701E23FB1800221A701323FB18D1
S21401241000221A700121F0205B4B98470300BB6134
S214012420BB69002B01D10023A1E0BB69F02200218A
S2140124301800564B9847FB681800554B9847030001
S2140124409AB2F968534B1800534B9847534B186888
S2140124507A6801235B42009300230421504CA04775
S2140124604E4B1B6818004F4B9847031E3ED01E2349
S214012470FB181B78EF2B1CD84B4B1B681322B91883
S21401248000221800494B984703007B617B69002BAB
S2140124900FD01E23FB181B78BA69D3181322BA185B
S2140124A012781A701E23FB181A781E23FB180132A5
S2140124B01A70BB68002B0CD0BA68BB6911001800F3
S2140124C03B4B9847031E04D01F23FB1800221A70AB
S2140124D024E0384ABB6911001800354B9847031EA3
S2140124E0BED01F23FB180B221A7017E02B4B18685F
S2140124F001235B420093002300220321284CA047BE
S2140125001E23FB181B78002B04D11F23FB18072260
S2140125101A7003E01F23FB1808221A70FB1C1B7895
S214012520002B16D03B6B002B13D0FA1C1E23FB1876
S21401253012781B789A420CD91F23FB181B78002BA4
S21401254007D11E23FB181A78B9693B6B18001A4B82
S2140125509847094B1868002300220021174CA04712
S214012560BB691800164B98471F23FB181B781800E9
S214012570BD4609B090BDC04628020020E1F5010025
S214012580F922010059200100058D0200138E020078
S214012590A39002008C0600202D1D020024020020BC
S2140125A0AD0E0200291402002002002041F40100B1
S2140125B0D3900200C09A0200DD8D020041F10100B5
S2140125C0A58D020090B583B002AF064A06490748BA
S2140125D0002300930023064CA04703001800BD46C5
S2140125E001B090BD88130000C89A0200CC9A020080
S2140125F0CD230100B0B584B002AFFC1D124A1349C9
S2140126001348002300930023124DA84703002370AC
S214012610FB1D1B78002B01D1092311E0BC1D0A4AC2
S2140126200D490B480023009300230A4DA8470300D9
S2140126302370BB1D1B78002B01D1092300E00A2360
S2140126401800BD4602B0B0BD88130000DC9A020037
S214012650E89A0200CD230100F49A020090B589B0F1
S21401266002AF3B1D180014231A0000210A4B98479D
S214012670E1235A0209493B1D1800094B9847094AAC
S2140126800949381D002300930023084CA047030086
S2140126901800BD4607B090BD138E0200009B0200D5
S2140126A01990020088130000C89A0200CD23010089
S2140126B090B583B002AF064A064907480023009347
S2140126C00023064CA04703001800BD4601B090BD8C
S2140126D088130000709B0200809B0200CD2301003E
S2140126E090B583B002AF064A064907480023009317
S2140126F00023064CA04703001800BD4601B090BD5C
S214012700A8610000C89A02008C9B0200CD2301003C
S21401271090B583B002AF064A0649074800230093E6
S2140127200023064CA04703001800BD4601B090BD2B
S21401273088130000C89A0200A09B0200CD23010066
S21401274090B583B002AF064A0649074800230093B6
S2140127500023064CA04703001800BD4601B090BDFB
S214012760983A0000C89A0200A89B0200CD230100F7
S21401277090B583B002AF064A064907480023009386
S2140127800023064CA04703001800BD4601B090BDCB
S21401279088130000C89A0200B49B0200CD230100F2
S2140127A090B583B002AF064A064907480023009356
S2140127B00023064CA04703001800BD4601B090BD9B
S2140127C010270000C89A0200C09B0200CD2301001A
S2140127D090B583B002AF064A064907480023009326
S2140127E00023064CA04703001800BD4601B090BD6B
S2140127F088130000C89A0200E89B0200CD2301005E
S21401280090B583B002AF064A0649074800230093F5
S2140128100023064CA04703001800BD4601B090BD3A
S214012820983A0000C89A0200F49B0200CD230100EA
S21401283090B583B002AF064A0649074800230093C5
S2140128400023064CA04703001800BD4601B090BD0A
S21401285088130000C89A0200FC9B0200CD230100E9
S21401286090B583B002AF064A064907480023009395
S2140128700023064CA04703001800BD4601B090BDDA
S21401288088130000C89A0200049C0200CD230100B0
S21401289090B583B002AF064A064907480023009365
S2140128A00023064CA04703001800BD4601B090BDAA
S2140128B0581B0000C89A0200109C0200CD2301009C
S2140128C0B0B588B002AF1623FB1864221A7016231F
S2140128D0FB181B7801211800604B984703003B61E9
S2140128E03B69002B05D13B6918005D4B98470023D7
S2140128F0AFE01623FB181A783B6900211800594BE4
S21401290098470F23FC181623FB181A78564D57497B
S21401291057483B69009313002A00564DA847030009
S21401292023700F23FB181B78002B00D086E0524A39
S2140129303B6911001800514B9847031E00D078E000
S2140129404F4A3B69110018004E4B98470300BB6085
S2140129504B4B190000204B4B98470300BB604A4A7B
S214012960BB6811001800474B98470300BB60BB6863
S2140129701800464B9847BB681800454B984702001D
S214012980FB1D1A70FB1D1B78002B07D0FB1D1B7847
S214012990012B03D0FB1D1B78632B04D11723FB18D7
S2140129A000221A704EE0FB1D1B78012B08D9FB1D77
S2140129B01B78072B04D81723FB1801221A7041E055
S2140129C0FB1D1B78072B08D9FB1D1B780D2B04D884
S2140129D01723FB1802221A7034E0FB1D1B780D2BFF
S2140129E008D9FB1D1B78132B04D81723FB180322C9
S2140129F01A7027E0FB1D1B78132B08D9FB1D1B78CB
S214012A00192B04D81723FB1804221A701AE0FB1D91
S214012A101B78192B08D9FB1D1B781F2B04D81723ED
S214012A20FB1805221A700DE01723FB1800221A70F6
S214012A3008E01723FB1800221A7003E01723FB187F
S214012A4000221A703B691800054B98471723FB189C
S214012A501B781800BD4606B0B0BDC046058D020005
S214012A60A58D0200138E020088130000C89A02008A
S214012A703C9C0200CD230100449C0200D39002003E
S214012A80E09B020005910200E49B0200952A0100EA
S214012A90F98C020080B584B000AF78607B68FB607B
S214012AA07B68BB600CE0BB685A1CBA601A78FB688E
S214012AB01A70FB681B78202B02D0FB680133FB6081
S214012AC0BB681B78002BEED1FB6800221A70C0464B
S214012AD0BD4604B080BD000090B583B002AF064A83
S214012AE006490748002300930023064CA04703002D
S214012AF01800BD4601B090BD88130000C89A0200B8
S214012B00489C0200CD230100B0B588B002AF7860C2
S214012B1039603B6818003B4B98470300FA2B01D9F4
S214012B2003236BE07B681800364B98470300052BA0
S214012B3001D8042362E01723FB18FA221A70172320
S214012B40FB181B78012118002F4B984703003B61A7
S214012B503B69002B01D1002350E01723FB181A789C
S214012B603B6900211800294B98471723FB18197851
S214012B707B68274A3869274CA047274A274938697E
S214012B80002300930023264CA047031E31D1FA23CD
S214012B905B001800234B98471723FB181A783B69EC
S214012BA000211800194B98471723FB1819783B6822
S214012BB01D4A3869174CA0470F23FC18164A1B49B3
S214012BC03869002300930023154DA847030023709E
S214012BD00F23FB181B78002B05D13B691800144BFB
S214012BE0984700230AE03B691800114B98470623D3
S214012BF004E03B6918000E4B984706231800BD46B3
S214012C0006B0B0BDA3900200058D0200138E02002F
S214012C10709C0200B58F020060EA0000809C0200F2
S214012C20CD230100E9FE0100849C0200C89A02003F
S214012C30A58D020090B58FB002AFB96011007B6020
S214012C400F23FB18021C1A700E23FB180A1C1A709D
S214012C502F23FB18E6221A702F23FB181B7801215D
S214012C6018006E4B98470300BB62BB6A002B05D168
S214012C70BB6A18006A4B98470023CAE02F23FB184B
S214012C801A78BB6A00211800664B98471023FB1878
S214012C9018000A231A000021624B98472F23FB18BD
S214012CA019780F23FB181B785F4A102038185F4CE1
S214012CB0A0472F23FB181A785D4C5E491023F8189D
S214012CC0BB6A0093130022005B4CA047031E00D092
S214012CD094E05A4ABB6A11001800594B9847030002
S214012CE07B627B6A002B00D182E0BB6A2C21180034
S214012CF0544B984703003B623B6A0233FB61FB6916
S214012D00222118004F4B984703003B623B6A002B79
S214012D102AD03B6A00221A70FB6918004A4B984772
S214012D2002001B23FB181A701B23FA180E23FB182C
S214012D3012781B789A4206D2FA69BB68110018000D
S214012D40424B984710E00E23FB181B78013B1A00F4
S214012D50F969BB6818003E4B98470E23FB181B7891
S214012D60BA68D31800221A703B6A01330A21180088
S214012D70344B984703003B623B6A002B44D03B6AC6
S214012D8001333B623B6A0D2118002E4B9847030026
S214012D90FB61FB69002B02D0FB6900221A703B6ABB
S214012DA01800294B984702001B23FB181A701B2397
S214012DB0FB184022B9181A780B789A4206D23A6A5A
S214012DC07B6811001800214B98471DE04023FB1833
S214012DD01B78013B1A00396A7B6818001C4B984720
S214012DE04023FB181B787A68D31800221A700BE070
S214012DF0BB6A18000A4B98470C230AE0BB6A180006
S214012E00074B98470C2304E0BB6A1800044B98470D
S214012E1000231800BD460DB090BDC046058D0200CA
S214012E20A58D0200138E0200D09C0200B58F020011
S214012E3088130000C89A0200CD230100DC9C020022
S214012E40D390020077900200A390020093900200B4
S214012E50DD8D0200B0B588B002AF78601723FB188D
S214012E601E221A701723FB181B7801211800184B15
S214012E70984703003B613B69002B01D1002323E007
S214012E801723FB181A783B6900211800114B984745
S214012E901723FB1819787B680F4A38690F4CA0472F
S214012EA00F23FC18FA23DA000D4938690023009332
S214012EB000230C4DA847030023703B6918000A4BFA
S214012EC098470F23FB181B781800BD4606B0B0BD07
S214012ED0058D0200138E0200E49C0200B58F0200ED
S214012EE0C89A0200CD230100A58D020090B583B0DB
S214012EF002AF064A06490748002300930023064C02
S214012F00A04703001800BD4601B090BD881300001D
S214012F10C89A0200EC9C0200CD23010090B583B054
S214012F2002AF064A06490748002300930023064CD1
S214012F30A04703001800BD4601B090BD1027000051
S214012F40C89A0200F49C0200CD23010090B583B01C
S214012F5002AF064A06490748002300930023064CA1
S214012F60A04703001800BD4601B090BD88130000BD
S214012F70C89A02000C9D0200CD230100B0B588B0AE
S214012F8002AF78601723FB181E221A701723FB184E
S214012F901B7801211800184B984703003B613B69D9
S214012FA0002B01D1002322E01723FB181A783B6976
S214012FB000211800114B98471723FB1819787B68D6
S214012FC00F4A38690F4CA0470F23FC180E4A0F49C9
S214012FD038690023009300230D4DA8470300237092
S214012FE03B6918000B4B98470F23FB181B781800FA
S214012FF0BD4606B0B0BDC046058D0200138E020068
S214013000189D0200B58F020088130000C89A0200BE
S214013010CD230100A58D020090B583B002AF064A0C
S21401302006490748002300930023064CA0470300E7
S2140130301800BD4601B090BD88130000C89A020072
S214013040289D0200CD23010090B583B002AF064A49
S21401305006490748002300930023064CA0470300B7
S2140130601800BD4601B090BD50460000C89A020047
S214013070349D0200CD23010090B583B002AFFA2340
S214013080DA0006490648002300930023054CA047B2
S21401309003001800BD4601B090BDC046C89A0200A4
S2140130A0649D0200CD23010090B587B002AF786021
S2140130B00A00FB1C1A700F23FB1800221A70FB1C57
S2140130C01B78002B03D00F23FB1801221A700E2346
S2140130D0FB1832221A700E23FB181B7801211800E8
S2140130E0174B98470300BB60BB68002B01D1002338
S2140130F022E00E23FB181A78BB6800211800114B3A
S21401310098470E23FB1819780F23FB181B787C6849
S2140131100D4AB868009323000C4CA047FA23DA0046
S2140131200B49B8680023009300230A4CA047BB68EC
S2140131301800094B984700231800BD4605B090BDFE
S214013140058D0200138E0200709D0200B58F0200ED
S214013150C89A0200CD230100A58D0200B0B586B045
S21401316002AF0F23FB1846221A700F23FB181B7899
S21401317001211800574B98470300BB60BB68002B22
S21401318005D1BB681800544B984700239DE00F23D8
S214013190FB181A78BB6800211800504B9847FC1D95
S2140131A00F23FB181A784E4D4E494F48BB680093C3
S2140131B013002A004D4DA84703002370FB1D1B7802
S2140131C0002B6AD14A4ABB6811001800494B984740
S2140131D003003B60464B19000020464B984703000E
S2140131E03B60454A3B6811001800424B9847030074
S2140131F03B603B681800414B98470300DAB2404BEE
S2140132001A703D4B190000203A4B984703003B606B
S2140132103B681800394B98470300DAB2384B5A70AE
S214013220384B19000020334B984703003B603B683E
S2140132301800324B98470300DAB2314B9A70324B82
S214013240190000202B4B984703003B603B68180091
S2140132502A4B98470300DAB2294BDA702A4B190039
S2140132600020244B984703003B603B681800234B23
S21401327098470300DAB2224B1A71244B190000203A
S2140132801C4B984703003B603B6818001B4B984754
S2140132900300DAB21A4B5A7111E0194B00221A7068
S2140132A0174B00225A70164B00229A70144B0022BC
S2140132B0DA70134B00221A71114B00225A71BB6847
S2140132C01800054B9847FB1D1B781800BD4604B037
S2140132D0B0BDC046058D0200A58D0200138E02000A
S2140132E088130000C89A0200949D0200CD230100B5
S2140132F0A09D020005910200A49D0200F98C020027
S21401330084060020E49B0200E09B0200A89D0200C8
S21401331080B500AF344B9847031E00D05EE0334BB8
S2140133209847031E00D057E0FA23DB001800304B05
S2140133309847304B9847031E4CD12F4B9847031E96
S2140133404ED12E4B9847031E42D1FA23DB001800BC
S214013350274B98472A4B9847031E37D1294B984746
S214013360031E31D1284B9847031E2BD1274B984774
S214013370031E25D1264B9847031E1FD1254B984780
S214013380031E19D1244B9847031E13D1234B98478C
S214013390031E0DD1224B9847031E07D1214B984798
S2140133A0031E01D100231CE010231AE0102318E0AD
S2140133B0102316E0102314E0102312E0102310E06F
S2140133C010230EE010230CE010230AE0102308E07F
S2140133D0102306E0102304E0102302E0102300E08F
S2140133E010231800BD4680BDC52501000128010037
S2140133F0E9FE0100B1260100312801005D26010029
S2140134004127010071270100D12701006128010031
S21401341091280100D92A01001D2F01004D2F01001E
S214013420A12701001127010080B584B000AF7860A4
S2140134300A00FB1C1A700F23FB1800221A7026E0E4
S2140134401B4B1868FA235A000E23FB181900194B58
S2140134509847031E01D1002325E00E23FB181B7895
S2140134600A2B14D00E23FB181B780D2B14D07B6867
S2140134705A1C7A600E22BA1812781A70FB1C1A7837
S214013480FB1C013A1A700F23FB1801221A70FB1C51
S2140134901B78012BD4D800E0C0467B6800221A7046
S2140134A00F23FB181B781800BD4604B080BDC0462C
S2140134B02002002041F4010080B584B000AF78609E
S2140134C00F23FB1800221A70174A7B681100180098
S2140134D0164B9847031E1BD0154A7B68110018002F
S2140134E0144B98470300BB60114B19000020114B89
S2140134F098470300BB60BB6818000F4B9847BB6832
S21401350018000E4B984702000F23FB181A7003E0B1
S2140135100F23FB1800221A700F23FB181B781800C4
S214013520BD4604B080BDC046AC9D0200D3900200EB
S214013530E49B020005910200952A0100F98C020025
S21401354080B582B000AF7860074A7B68110018002A
S214013550064B9847031E01D0012300E00023180004
S214013560BD4602B080BDC046B49D0200D3900200A5
S21401357080B584B000AF786039601E4A7B68110060
S21401358018001D4B9847031E2ED01C4A7B6811005D
S21401359018001B4B98470300FB601A4B19000020CC
S2140135A0174B98470300FB60174AFB681100180089
S2140135B0134B98470300FB60134B19000020104B78
S2140135C098470300FB60FB682B2118000F4B9847B8
S2140135D0031E01D1002308E0FA683B6811001800B9
S2140135E00B4B9847012300E000231800BD4604B0AA
S2140135F080BDC046BC9D0200D3900200E09B020045
S21401360005910200E49B0200A09D02007790020053
S2140136109390020080B582B000AF7860164A7B684E
S21401362011001800154B9847031E01D001231EE018
S214013630134A7B6811001800104B9847031E01D0EF
S214013640012314E00F4A7B68110018000B4B9847C2
S214013650031E01D001230AE00B4A7B681100180003
S214013660064B9847031E01D0012300E000231800F3
S214013670BD4602B080BDC046C49D0200D390020084
S214013680D09D0200D89D0200C09A020080B582B08B
S21401369000AF7860074A7B6811001800064B984710
S2140136A0031E01D0012300E000231800BD4602B02E
S2140136B080BDC046E49D0200D390020080B582B072
S2140136C000AF7860074A7B6811001800064B9847E0
S2140136D0031E01D0012300E000231800BD4602B0FE
S2140136E080BDC046EC9D0200D390020080B584B038
S2140136F000AF0200FB1D1A700F23FB18FA1D12788B
S214013700D2091A700E23FB18FA1D127852091A7084
S2140137100D4BBB600F23FB181B78002B0FD10F231B
S214013720FB181B789B0010229446BC446344083B5C
S2140137301A680E23FB181B78DB01D31800E0002360
S2140137401800BD4604B080BD0044004180B582B07B
S21401375000AF0200FB1D1A70FB1D1B781800034BFF
S214013760984703001800BD4602B080BDED36010043
S21401377080B582B000AF78607B6800221A707B68E3
S21401378001225A707B6800229A70C046BD4602B07C
S21401379080BD000080B584B000AF0200FB1D1A702A
S2140137A0BB1D0A1C1A70FB1D1B7818000D4B984791
S2140137B00300FB60FB1D1B781F22134001229A4069
S2140137C01300BB60BB1D1B78002B03D0FB68BA68D7
S2140137D09A6102E0FB68BA685A61C046BD4604B009
S2140137E080BDC0464D370100F0B58BB000AF0B234E
S2140137F018229446BC44634410221A700A231822E5
S2140138009446BC44634402221A70904B9847904BEE
S2140138103F221A708F4B3E221A708F4B21221A704C
S2140138208D4B20225A708C4B23229A708A4B22226F
S214013830DA708A4B00221A700A2318229446BC4476
S21401384063441B78012B06D9844B1B78082213434B
S214013850DAB2824B1A70824B0A2218218C46BC447B
S214013860624412781A700B2318229446BC446344AF
S2140138701A780B2318218C46BC4463441B784033CA
S21401388040210020774CA0471C23FB181800764BDC
S21401389098471C23FB1801221A706D4B1B781C22BB
S2140138A0BA1811001800714B98476A4B1B781C22F6
S2140138B0BA18110018006D4B984700237B620CE084
S2140138C0654A7B6AD3181B781C22BA1811001800A7
S2140138D0664B98477B6A01337B627B6A032BEFDD7D
S2140138E00020634B984703003B6100237B61614CDA
S2140138F0614A002338697969A04703000C00190062
S21401390022005E4B0024C9186241080011005C4C7D
S2140139105C4A0023A04703000C0018005A4B984746
S2140139204B4B1B7800211800584B9847494B1B7886
S21401393000211800554B98470320554B9847002007
S2140139404B4B98470300BB600023FB60494C514A30
S2140139500023B868F968A04703000C00190022008C
S214013960464B0024C918624108001100444C454AE0
S2140139700023A04703000C001800434B9847032080
S214013980434B984700203A4B984703003B6000237F
S2140139907B60384C3F4A002338687968A0470300AB
S2140139A00C0019002200354B0024C918624108009A
S2140139B01100334C334A0023A04703000C001800C3
S2140139C0314B98470320324B98470020284B9847A5
S2140139D003001D0000231E00264C9622002328000B
S2140139E03100A04703000C0019002200234B0024DD
S2140139F0C918624108001100214C224A0023A04741
S214013A0003000C001800204B98470220204B9847D3
S214013A10124B1B7820221343DBB218001E4B98472B
S214013A201E4B04221A701E4B98471E4B98471E4B7E
S214013A3002221A701C4B1B7804221343DBB21800B7
S214013A40154B9847C046BD460BB0F0BD1D29020078
S214013A50CF060020CE060020C8060020CD06002096
S214013A60C6060020593B010071370100712F020084
S214013A70DD480200A568020050C30000BFCF6A00FF
S214013A8065680200C0CF6A0001000020953701007A
S214013A90953B010094110000D93C0100C5060020A9
S214013AA0C13E0100793D0100CC06002080B582B000
S214013AB000AF3B1D1800084B98473B1D01221A70AA
S214013AC03B1D00225A703B1D19002420034B9847CA
S214013AD0C046BD4602B080BD71370100712F02009D
S214013AE080B500AF01212420024B9847C046BD4651
S214013AF080BDC0469537010080B582B000AF002179
S214013B002420114B984700237B600AE00F4A7B680C
S214013B10D3181B78002118000B4B98477B6801339C
S214013B207B607B68032BF1DD094B1B7800211800B5
S214013B30054B9847074B1B7800211800024B984706
S214013B40C046BD4602B080BD95370100C8060020BC
S214013B50CE060020CF06002080B584B000AFF86006
S214013B60B9607A603B60FB68DAB2094B1A70BB68D1
S214013B70DAB2074B5A707B68DAB2054B9A703B682B
S214013B80DAB2034BDA70C046BD4604B080BDC0460B
S214013B90C006002080B584B000AF0200FB1D1A707D
S214013BA00023FB6013E00E4AFB68D3181878FB1D50
S214013BB01A78FB681A411300012213405A1E9341DA
S214013BC0DBB21900074B9847FB680133FB60FB68C3
S214013BD0032BE8DD044B9847C046BD4604B080BDC4
S214013BE0C806002095370100ED3B0100F0B585B011
S214013BF000AF314B1B7800211800304B984700204E
S214013C002F4B98470300BB600023FB602D4B00241D
S214013C10B868F968C01861412B4C2C4A0023A047AC
S214013C2003000C0018002A4B9847234B1B780121F0
S214013C301800224B98470020214B984703001D008F
S214013C4000231E001F4B002428003100C0186141CC
S214013C501D4C1E4A0023A04703000C0018001C4BF5
S214013C609847154B1B7800211800144B98470020E5
S214013C70134B984703003B6000237B60154C64227E
S214013C80002338687968A04703000C001900220059
S214013C900C4B0024C9186241080011000A4C0B4A5B
S214013CA00023A04703000C001800094B9847C046A4
S214013CB0BD4605B0F0BDC046CE06002095370100D2
S214013CC0DD480200BFCF6A0065680200C0CF6A0007
S214013CD001000020A568020080B582B000AF020096
S214013CE0FB1D1A70FB1D1B7800211800024B98471C
S214013CF0C046BD4602B080BD253D010080B582B0FC
S214013D0000AF0200FB1D1A70FB1D1B780121180075
S214013D10034B984701231800BD4602B080BDC0463C
S214013D20253D010080B582B000AF0200FB1D1A7070
S214013D30BB1D0A1C1A700D4B1A78BB1D1B78591E29
S214013D408B41DBB219001000094B9847FB1D1B780D
S214013D501B09DBB21800074B9847FB1D1B781800A0
S214013D60044B9847C046BD4602B080BDCF06002032
S214013D7095370100953B0100F8B500AF0120134BC4
S214013D8098470020124B984703001D0000231E0091
S214013D90104CFA22D200002328003100A04703006D
S214013DA00C00190022000C4B0024C91862410800BF
S214013DB011000A4C0A4A0023A04703000C00180011
S214013DC0084B9847C046BD46F8BDC046D93C0100E1
S214013DD0DD480200A5680200BFCF6A0065680200E0
S214013DE0C0CF6A000100002080B584B000AF020099
S214013DF03960FB1D1A70FB1DFA1D127807210A4057
S214013E001A70FB1D1B78DB005BB2402213435BB2CA
S214013E10DBB218000A4B98470023FB6009E0FB68F9
S214013E203A68D3181B781800064B9847FB6801338D
S214013E30FB60FB68072BF2DDC046BD4604B080BDC3
S214013E40D93C0100FD3C010080B584B000AF020002
S214013E50FB1D1A70BB1D0A1C1A700423FB60BB1DD8
S214013E601A78FB689A4204D3FB68DAB2BB1D013AA2
S214013E701A70104B1B78BA1D12789A4204D30D4B58
S214013E801A78BB1D013A1A70BB1D1B780A4AD25C10
S214013E90FB1D1B78D318DBB25BB280225242134360
S214013EA05BB2DBB21800054B9847C046BD4604B06E
S214013EB080BDC046C6060020C0060020D93C0100D1
S214013EC080B500AF084B1B7804221343DAB2064BC9
S214013ED01A70054B1B7808221343DBB21800034BFC
S214013EE09847C046BD4680BDC5060020D93C0100A6
S214013EF080B584B000AF78607B6818000F4B984798
S214013F000300FB600023BB600BE07B685A1C7A60F1
S214013F101B7818000A4B9847031E08D0BB6801336C
S214013F20BB60FB685A1EFA60002BEED100E0C0466B
S214013F30BB681800BD4604B080BDC046A390020011
S214013F40FD3C01000FB480B584B000AFBB6918001A
S214013F50114B984703000333FB60FB6818000F4BB7
S214013F6098470300BB601C23FB187B607A68B9691D
S214013F70BB6818000A4B9847BB681800094B98475E
S214013F80BB681800084B9847C046BD4604B080BCC5
S214013F9008BC04B01847C046A3900200918D0200E9
S214013FA091930200F13E0100A58D020080B584B018
S214013FB000AF78607B68002B28D07B68FB6020E030
S214013FC00B23FB18FA6812781A70124B98470200F6
S214013FD00B23FB181B780133D3181B781A00032315
S214013FE01340022B04D10B23FB181B78203B02E065
S214013FF00B23FB181B78DAB2FB681A70FB680133D7
S214014000FB60FB681B78002BDAD100E0C046BD469A
S21401401004B080BD758D020080B584B000AF7860B5
S21401402039603B681800104B98470300FB607B68BB
S21401403018000D4B98470300BB60BA68FB689A42AC
S21401404009D3FA6879683B681800084B9847031E3D
S21401405001D1012300E000231A1C01231340DBB227
S2140140601800BD4604B080BDA3900200B1900200C6
S21401407080B500AFBFF34F8F024B034ADA60BFF340
S2140140804F8FFEE700ED00E00400FA0580B584B02E
S21401409000AF0200FB1D1A700F23FB18FA1D1278E1
S2140140A0D2091A700E23FB18FA1D127852091A70DB
S2140140B00D4BBB600F23FB181B78002B0FD10F2372
S2140140C0FB181B789B0010229446BC446344083BB3
S2140140D01A680E23FB181B78DB01D31800E00023B7
S2140140E01800BD4604B080BD0044004180B500AF55
S2140140F0024B9847C046BD4680BDC0467140010090
S21401410080B582B000AF0200FB1D1A70FB1D1B7844
S2140141101800034B984703001800BD4602B080BD47
S2140141208D40010080B582B000AF78607B680022C8
S2140141301A707B6801225A707B6800229A70C0460A
S214014140BD4602B080BD000080B584B000AF02005D
S214014150FB1D1A70FB1D1B7818000B4B98470300BC
S214014160FB60FB1D1B781F22134001229A4013009F
S214014170BB60FB681B6ABA6813405A1E9341DBB2E8
S2140141801800BD4604B080BD0141010080B584B071
S21401419000AF0200FB1D1A70BB1D0A1C1A70FB1D26
S2140141A01B7818000D4B98470300FB60FB1D1B781E
S2140141B01F22134001229A401300BB60BB1D1B78CF
S2140141C0002B03D0FB68BA689A6102E0FB68BA6804
S2140141D05A61C046BD4604B080BDC04601410100DB
S2140141E080B500AF0B4B1B7801225340DBB2002B8E
S2140141F00CD0094B98470200084B1B68D21AFA23C9
S2140142009B009A4202D9034B01221A70C046BD4652
S21401421080BDC046660700204D0202000C08002043
S21401422080B582B000AFFB1D01221A70234B1B78AC
S214014230002B03D0FB1D224A127A1A70214B1B78E1
S214014240002B37D0204B1B78012B0BD01F4B9847E8
S21401425002001F4B1B68D21AFB1D1B781D494B43DE
S2140142609A4227D91C4BDB78002B1AD0134B1B78AC
S214014270002B07D0194B1A78194B1A700F4B0022D6
S2140142801A7015E0174B1B78002B11D0134B1A78B8
S214014290154B1A70154B01221A70124B00221A7018
S2140142A006E00E4B1A780E4B1A70044B00221A7059
S2140142B00F4B9847C046BD4602B080BDCA070020D6
S2140142C05006002066070020D50600204D02020099
S2140142D0EC07002060EA000028060020690700209D
S2140142E057070020820700201D07002037070020FF
S2140142F0F542010080B500AF074B5B794E2B03D129
S214014300064B1B78002B04D0054B01221A70054B77
S2140143109847C046BD4680BD50060020370700209E
S214014320380700205D45010080B500AF6D4B0022C7
S2140143301A706D4B00221A706C4B984700220021B0
S21401434000206B4B9847FA239B001800694B98474F
S214014350694B00221A70694B5B78002B02D0684BC0
S21401436000221A70654BDB78012B1DD1654B1B783B
S214014370DBB24E2B04D0634B1B78DBB2522B0DD134
S214014380614B1B78DBB24F2B08D1604B1B780122A7
S2140143905340DBB2002B01D0012300E000231A1C9E
S2140143A001231340DBB215E0564B1B78DBB24E2BD4
S2140143B004D0544B1B78DBB2522B06D1524B1B78E0
S2140143C0DBB24F2B01D1012300E000231A1C01238D
S2140143D01340DBB2002B21D04D4B1B78002B1DD197
S2140143E04C4B1B7801225340DBB2002B16D04A4BB4
S2140143F05B79542B12D1494B9B78012B0ED9444B38
S21401440001221A70464B01221A70464B9847020049
S214014410454B1A60454B1A78454B1A70374BDB787B
S214014420002B47D0374B1B78DBB2492B04D0354BDA
S2140144301B78DBB2522B37D1334B1B78DBB24F2BB9
S21401444032D1324B1B78002B2ED03A4B5B79002BA6
S2140144502AD0394B1B780133DAB2374B1A70374BF7
S2140144601B78002B06D0364B1B7800211800354BE5
S214014470984716E0304B1B78012B0CD8294B9847F0
S2140144800200294B1A602E4B1A78294B1A702E4BB4
S21401449001221A7005E02A4B1B7803211800294BCC
S2140144A098471A4B00221A70284B00221A70234B89
S2140144B000221A70174B00221A70124B4E221A70E5
S2140144C0114B4E221A70224B00221A70154B984738
S2140144D00200204B1A60204B00221A70C046BD46CF
S2140144E080BDC046D4060020900700201930010088
S2140144F031CB0100E9FE0100380700202806002024
S21401450007080020D4070020830700203707002073
S214014510D506002092070020500600201006002035
S214014520CA0700204D020200EC07002057070020B2
S2140145306907002054050020CB0700201C07002037
S2140145401D070020C9B9010082070020C807002006
S2140145508C0700200C0800206607002080B586B076
S21401456000AF204B01221A703B1D180014231A00BD
S21401457000211D4B98471D4B5B79002B08D01C4B27
S2140145801B78002B04D03B1D18001A4B98470FE0F0
S214014590194B1B78002B07D0184B1A793B1D1100BD
S2140145A01800174B984703E03B1D1800154B98471A
S2140145B03B1D1800144B98473B1D00221900032091
S2140145C0124B9847124B98470200124B1A60124B37
S2140145D052221A70114B4F221A70C046BD4606B0C1
S2140145E080BDC04690070020138E020054050020AF
S2140145F037070020FD0A0100D5060020100600201E
S2140146000D090100150D0100552E010031CB0100E9
S2140146104D02020010080020D40700208307002066
S21401462080B500AF0A4B00221A700A4B01221A709D
S214014630094B9847094B49221A70094B49221A70AF
S21401464001214D20074B9847C046BD4680BDC04658
S2140146508C07002092070020ED2E0100D4070020D1
S214014660830700206946010080B582B000AF0200D2
S214014670FB1D1A70BB1D0A1C1A70144B9847144B6D
S21401468001221A70BB1D1B78002B16D0114B01227C
S2140146901A70114B00221A700F4B1B7819000F4B22
S2140146A0FA1D12785A540C4B1B7801330B4A002121
S2140146B0D1540B4BFA1D12781A700A4BFA1D127858
S2140146C01A70C046BD4602B080BDC04679300100B2
S2140146D05D080020CC070020BC0700204007002012
S2140146E057070020BB07002080B500AF0D4B1B7895
S2140146F0002B0ED00C4B984702000C4B1B68D31AAC
S2140147000B4A1278110064224A43934201D90123CD
S21401471000E000231A1C01231340DBB21800BD463B
S21401472080BDC0465D0800204D020200380800200A
S214014730CD07002080B500AF0B4B1B78012B06D9A7
S2140147400A4B1B7800211800094B984705E0074BD8
S2140147501B7801211800064B9847064B00221A7059
S214014760C046BD4680BDC046CC070020BB07002022
S214014770A93001005D08002080B582B000AF7860E6
S214014780184B1B7801225340DBB2002B25D07B68E7
S2140147901800154B9847031E1FD0144B1B78012B8E
S2140147A01BD9134B1B781A00104B1B78013B9A42FE
S2140147B00FDA0F4B1B780133DAB20D4B1A700C4B24
S2140147C01B781A000B4B9B5C002118000A4B98477C
S2140147D003E001214D20084B9847C046BD4602B074
S2140147E080BDC0465D080020BD360100CC07002014
S2140147F0BC070020400700206946010080B582B052
S21401480000AF78607B681800144B984703000E2BA6
S2140148101FD8134B00221A707B6818000F4B98475D
S2140148200300DAB20F4B1A707A680F4B11001800AA
S2140148300E4B98470E4B984702000E4B1A60084BDA
S2140148401B781A00084B9A5C0B4B1A700B4B012213
S2140148501A70C046BD4602B080BDC046A390020095
S214014860BC070020CC0700204007002093900200E0
S2140148704D02020038080020BB0700205D0800201A
S21401488080B500AF094B98470200094B1B68D21A46
S214014890084B1B88190064234B43190000238A42E6
S2140148A05B41DBB21800BD4680BDC0464D0202002A
S2140148B0100800205807002080B582B000AF78604D
S2140148C0164A7B6811001800154B9847031E01D045
S2140148D044231EE0134A7B6811001800104B9847CA
S2140148E0031E01D0522314E00F4A7B681100180002
S2140148F00B4B9847031E01D049230AE00B4A7B68FD
S21401490011001800064B9847031E01D0452300E00E
S2140149104E231800BD4602B080BDC0460CA0020062
S214014920D39002001CA002002CA002003CA00200B2
S21401493080B582B000AF0200FB1D1A70344B9B7825
S214014940002B03D0334B5B794E2B01D101235BE067
S214014950314B1B78DBB201225340DBB2002B01D076
S214014960012351E02D4B1B7801225340DBB2002B73
S21401497007D02B4B1B78FA1D12789A4201D10123DE
S21401498042E0284B1B78DBB24E2B3CD1264B1B78E2
S214014990DBB24E2B37D1254B1B78002B33D01F4B68
S2140149A01B7801225340DBB2002B2CD0204B1B7806
S2140149B001225340DBB2002B25D0164B5B7A002B2D
S2140149C005D01C4B9847031E01D001231CE01A4B4F
S2140149D000221A700F4B1B7A002B0CD0174B9847EE
S2140149E00200174B1A60174BFA1D12781A700B4B00
S2140149F001221A7005E00A4BFA1D12781A70124B42
S214014A009847012300E000231800BD4602B080BD90
S214014A10100600205006002091070020CA0700203B
S214014A2057070020D40700208307002066070020D0
S214014A3082070020B1700100D50600204D02020059
S214014A40EC07002069070020F542010080B582B01E
S214014A5000AF0200FB1D1A70204B1B78DBB201224F
S214014A605340DBB2002B06D0FB1D1B78002118003B
S214014A701B4B98472EE01B4B1B78DBB24E2B29D1E4
S214014A80194B1B78DBB24E2B24D1184B1B78002B0D
S214014A9020D0174B1B7801225340DBB2002B19D0D4
S214014AA0144B1B7801225340DBB2002B12D0FB1DA6
S214014AB01B78022118000A4B98470F4B01221A70E7
S214014AC00E4BFA1D12781A700D4B00221A700D4B00
S214014AD09847C046BD4602B080BDC046910700203B
S214014AE0C9B90100D407002083070020660700200B
S214014AF0CA07002082070020370700201D07002074
S214014B00CB070020F542010080B582B000AF02005D
S214014B10FB1D1A70074B1B78DBB2492B06D1FB1D18
S214014B201B7801211800044B984700E0C046BD469B
S214014B3002B080BDD40700206946010080B582B06E
S214014B4000AF0200FB1D1A700C4B1B78012253406C
S214014B50DBB2002B0DD00A4B5B79412B09D1094BF7
S214014B60FA1D12781A70084B002200211800074B14
S214014B709847C046BD4602B080BDC0469207002099
S214014B8050060020570700204CA002009571010036
S214014B9080B500AF044B9847044B98470200044B7E
S214014BA01A60C046BD4680BD793001004D02020044
S214014BB01008002080B584B000AF78600F23FB1882
S214014BC07A6812781A706A4BDB78002B10D0694B22
S214014BD01B78002B00D1C7E00F23FB181B78412B55
S214014BE000D0C1E0644B01221A70644B9847BBE0C9
S214014BF00F23FB181B78312B06D1614B98470021F8
S214014C000120604B9847AFE00F23FB181B78322B2F
S214014C1007D15B4B98470022002101205A4B984749
S214014C20A2E00F23FB181B78332B04D1544B984773
S214014C30564B984798E00F23FB181B78342B0AD164
S214014C404B4B5B79002B00D18EE04D4B98470020F3
S214014C504F4B984788E00F23FB181B78352B0AD15A
S214014C60434B1B79002B00D17EE0454B9847002033
S214014C70484B984778E00F23FB181B78302B14D14C
S214014C803B4B5B78002B00D16EE0434B1B78002B2F
S214014C9007D0424B98473A4B98473F4B00221A7031
S214014CA062E03D4B01221A705EE00F23FB181B7871
S214014CB0372B08D12E4B9B78002B55D0304B98477D
S214014CC0374B984750E00F23FB181B78442B0DD128
S214014CD00120344B98470120334B98470021002090
S214014CE0284B9847FF20314B98473DE00F23FB1890
S214014CF01B78432B0BD100202A4B98470122002119
S214014D000020214B9847FF20284B98472CE00F2383
S214014D10FB181B78382B0CD1194B98470120214BD7
S214014D2098470120204B984701212920204B98477E
S214014D301AE00F23FB181B78392B0CD1104B984720
S214014D400020184B98470120174B984701215B20FC
S214014D50174B984708E00F23FB181B782A2B03D123
S214014D60074B9847134B9847C046BD4604B080BDD5
S214014D7028060020370700201C07002019300100F4
S214014D80914B010051B2010039B4010079B801001C
S214014D90919301004992010007080020599E0100E5
S214014DA04D9F01009D1201001DAE010051730100CF
S214014DB06946010089B90100F0B5C64600B5D2B012
S214014DC006AFF8600C0010001900EB4B942252005D
S214014DD0944608229046B844C4446344221C1A7080
S214014DE0E64B94225200944608229046B844C444A6
S214014DF06344021C1A70E24B942252009446082225
S214014E009046B844C44463440A1C1A702823FF33EE
S214014E1008229446BC44634400221A70FB688C2224
S214014E20520008218C46BC4462441360D44B942241
S214014E305200944608229046B844C44463441B7802
S214014E40002B0ED0CF4AFB6811001800CE4B9847B6
S214014E5003001A0001235340DBB2002B01D002F0FD
S214014E605EF8CA4AFB6811001800C74B9847031E34
S214014E7014D0C74B01225A71C549C64B18221800D7
S214014E80C54B9847C34B19000020C44B9847C44BE9
S214014E9098476420C34B9847C34B9847C34AFB685F
S214014EA011001800B84B9847031E47D01823FF334C
S214014EB00822BA18D418BE4B98470300237028233B
S214014EC0FF3308229446BC44634401221A70AB4B5C
S214014ED094225200944608229046B844C44463443F
S214014EE01B78002B01D101F0D4FF1823FF330822D1
S214014EF09446BC4463441B78002B0DD10C23082236
S214014F009446BC446344AB4A13CA13C313CA13C3BF
S214014F1013CA13C301F0BDFF0C2308229446BC44F8
S214014F206344A54A13CA13C313CA13C303CA03C3EC
S214014F301188198092789A7001F0ABFF9F4AFB683E
S214014F4011001800904B9847031E30D08A4B9422CC
S214014F505200944608229046B844C44463441B78E1
S214014F601800974B98472823FF3308229446BC44E1
S214014F70634401221A70814B9422520094460822FF
S214014F809046B844C44463441B78002B01D101F019
S214014F9080FF0C2308229446BC446344894A13CA02
S214014FA013C313CA13C312781A7001F072FF864A2C
S214014FB0FB6811001800744B9847031E65D000204B
S214014FC0824B9847824B5B79002B0DD00020814B9A
S214014FD098477F4BDB78002B03D000207E4B984709
S214014FE002E000207D4B9847794B5B78002B08D078
S214014FF078207B4B984755207A4B984700207A4B70
S21401500098470020794B98470020794B98474320D2
S214015010784B98473220784B98470220774B984731
S2140150200120774B98475020764B98470120764BC6
S21401503098470020754B98470120754B98472823C1
S214015040FF3308229446BC44634401221A704B4B3A
S21401505094225200944608229046B844C4446344BD
S2140150601B78002B01D101F014FF0C230822944673
S214015070BC446344674A13CA13C313CA13C313CA8F
S21401508013C312781A7001F004FF634AFB6811001B
S21401509018003D4B9847031E38D0384B94225200D7
S2140150A0944608229046B844C444634401221A70C8
S2140150B02823FF3308229446BC44634401221A7015
S2140150C00C2308229446BC446344FA2200211800AB
S2140150D0524B9847524B9B78002B0DD10C2308223C
S2140150E09446BC4463444F4A13CA13C311681960FB
S2140150F092889A8001F0CDFE0C2308229446BC4487
S21401510063441800484B984701F0C3FE474AFB68C2
S214015110110018001C4B9847031E03D0224B9847DA
S21401512001F0B7FE424AFB6811001800164B98477B
S214015130031E00D182E0114B9422520094460822AD
S2140151409046B844C444634401221A702823FF33AE
S21401515008229446BC44634401221A701C4B9A6888
S21401516034490C2308208446BC4463441800324B5F
S214015170984701F08EFEC046DBFEFFFFDAFEFFFF1A
S214015180D9FEFFFF50A002001940010058A00200FE
S214015190F805002084050020DD8D0200F1390200AB
S2140151A0993B0200E9FE0100ED40010060A002000B
S2140151B04930010068A002008CA00200B0A00200E5
S2140151C001110100BCA00200D8A002009D1201003E
S2140151D0280600205D140100D90B0100A914010066
S2140151E0F51401005D1501007D190100151A010075
S2140151F03513010081130100E9120100C9190100EC
S214015200CD1501001916010065160100F51A0100F9
S214015210451B0100E0A0020008A10200138E020057
S214015220100600200CA10200ED07010020A10200DB
S21401523028A102002CA1020019900200EC4AFB688A
S21401524011001800EB4B9847031E27D00120EA4BAC
S21401525098470120E94B98472823FF3308229446B4
S214015260BC44634401221A70E54B942252009446D2
S21401527008229046B844C44463441B78002B01D1ED
S21401528001F007FE0C2308229446BC446344DD4A21
S21401529013CA13C312681A6001F0FBFDDA4AFB68F1
S2140152A011001800D34B9847031E29D00020D24B7B
S2140152B098470120D14B98472823FF33082294466C
S2140152C0BC44634401221A70CD4B9422520094468A
S2140152D008229046B844C44463441B78002B01D18D
S2140152E001F0D7FD0C2308229446BC446344C74A08
S2140152F013CA13C31168196012791A7101F0C9FD36
S214015300C34AFB6811001800BA4B9847031E2AD0FF
S214015310C04B5B79002B01D101F0BBFD2823FF3385
S21401532008229446BC44634401221A700120BA4BF9
S2140153309847B34B94225200944608229046B844AC
S214015340C44463441B78002B01D101F0A2FD0C2359
S21401535008229446BC446344B04A13CA13C3126875
S2140153601A6001F096FDAE4AFB6811001800A14BC9
S2140153709847031E2CD0A74B5B79002B01D101F077
S21401538088FD2823FF3308229446BC446344012247
S2140153901A700020A04B9847994B942252009446CD
S2140153A008229046B844C44463441B78002B01D1BC
S2140153B001F06FFD0C2308229446BC446344994ACD
S2140153C013CA13C31168196012791A7101F061FDCD
S2140153D0954AFB6811001800864B9847031E26D095
S2140153E00120924B98472823FF3308229446BC4459
S2140153F0634401221A70824B94225200944608227A
S2140154009046B844C44463441B78002B01D101F094
S21401541040FD0C2308229446BC446344844A116828
S21401542019609188998092799A7101F032FD814ACA
S214015430FB68110018006F4B9847031E22D000200E
S2140154407A4B98472823FF3308229446BC4463448A
S21401545001221A706A4B9422520094460822904602
S214015460B844C44463441B78002B01D101F011FDFC
S2140154700C2308229446BC4463446F4A03CA03C300
S21401548001F007FD6D4AFB6811001800594B98475B
S214015490031E55D0FB681C1DFB681800684B984717
S2140154A00200FB6821001800664B9847FB6818004D
S2140154B0654B9847020093235B0008218C46BC4449
S2140154C063441A7093235B0008229446BC446344E9
S2140154D01B78132B07D893235B0008229446BC4401
S2140154E0634414221A7093235B0008229446BC443A
S2140154F063441B789BB21800544B98472823FF330C
S21401550008229446BC44634401221A703C4B942200
S2140155105200944608229046B844C44463441B781B
S214015520002B01D101F0B5FC0C2308229446BC44A3
S2140155306344474A13CA13C312781A7001F0A9FCD0
S214015540444AFB68110018002A4B9847031E22D0D4
S2140155500120414B98472823FF3308229446BC4438
S214015560634401221A70264B942252009446082264
S2140155709046B844C44463441B78002B01D101F023
S21401558088FC0C2308229446BC446344334A03CA6D
S21401559003C301F07EFC324AFB6811001800154B6C
S2140155A09847031E60D000202B4B98472823FF33D3
S2140155B008229446BC44634401221A70104B94227C
S2140155C05200944608229046B844C44463441B786B
S2140155D0002B01D101F05DFC0C2308229446BC444B
S2140155E06344204A03CA03C312781A7001F051FCBF
S2140155F030A10200194001009D1201001DAE0100FC
S214015600DAFEFFFF38A1020048A1020050A1020005
S21401561064A10200280600205D1401006CA10200AE
S2140156207CA1020084A1020098A10200CD15010010
S214015630A0A10200A8A10200B0A10200B8A1020028
S214015640A3900200EF8D0200F98C020019160100EA
S214015650C0A10200D0A1020065160100D8A1020077
S214015660E0A10200E8A10200DC4AFB681100180074
S214015670DB4B9847031E6CD0FB681800D94B984744
S2140156800300032B01D801F004FCFB68DC1CFB685B
S2140156901800D44B98470200FB6821001800D24B33
S2140156A09847FB681B784C2B09D0FB681B78532B5B
S2140156B005D0FB681B784F2B01D001F0EAFBFB6895
S2140156C0DBB21800C94B98472823FF3308229446BB
S2140156D0BC44634401221A70C54B9422520094467E
S2140156E008229046B844C44463441B78002B01D179
S2140156F001F0CFFB0C2308229446BC446344BD4A08
S214015700116819609188998092799A71FA680C23C8
S21401571008218C46BC44634411001800B64B9847D8
S2140157200C2308229446BC4463441800AD4B9847AA
S21401573003001A000C2308218C46BC4463449A18C3
S214015740AE4B1000190004231A00AD4B984701F028
S214015750A0FBAC4AFB6811001800A14B9847031E3A
S21401576072D0FB6818009F4B98470300042B01D8A2
S21401577001F08FFBFB681C1DFB681800994B9847CE
S2140157800200FB6821001800974B9847FB68180039
S2140157909D4B984702002623FF3308218C46BC44C4
S2140157A063441A702623FF3308229446BC4463449C
S2140157B01B78022B01D901F06CFB2623FF3308224C
S2140157C09446BC4463441B78012B0BD18F4B5B780A
S2140157D0002B07D12623FF3308229446BC4463449A
S2140157E000221A702623FF3308229446BC446344E1
S2140157F01B781800864B98472823FF3308229446C7
S214015800BC44634401221A70794B94225200944698
S21401581008229046B844C44463441B78002B01D147
S21401582001F037FB2623FF3308229446BC44634429
S2140158301A7878490C2308208446BC44634418002F
S214015840754B984701F025FB744AFB681100180058
S214015850634B9847031E00D192E0FB681800614B2A
S21401586098470300082B01D801F013FBFB680833A7
S2140158701C00FB6818005B4B98470200FB68210080
S2140158801800594B9847614B5B78002B01D101F00A
S21401589000FB92235B0008229446BC44634400222A
S2140158A01A70FB681B78432B08D192235B000822F1
S2140158B09446BC44634402221A700BE0FB681B78D2
S2140158C0502B07D192235B0008229446BC446344C4
