S0110000434F4D4D414E4445522E737265637D
S214010000A0290020194F02001150020011500200D1
S21401001000000000000000000000000000000000DA
S21401002000000000000000000000000001EE0100DA
S214010030000000000000000031EF010079EF010030
S2140100401150020011500200711602007DE70100F6
S214010050992602001150020015DD01001150020020
S2140100600527020091240200A9240200C1240200EF
S214010070D9240200F1240200092502009516020087
S214010080A9160200BD1602004D17020061170200F4
S21401009075170200891702009D170200F5DA0100A4
S2140100A05D2A0200D9DC0100115002001150020045
S2140100B00000000010B5064C2378002B07D1054B35
S2140100C0002B02D0044800E000BF0123237010BDBE
S2140100D00002002000000000BCB10200084B10B571
S2140100E0002B03D00749084800E000BF0748036813
S2140100F0002B00D110BD064B002BFBD09847F9E72B
S2140101000000000004020020BCB10200BCB10200E5
S2140101100000000090B583B000AFFC1D0A4B984765
S21401012003002370FB1D1B78162B00D1FEE7FB1D79
S2140101301B78002B03D0054B9847034B9847C046C6
S214010140BD4603B090BDC046D53A0200BD3B020095
S21401015080B500AFF64B9847F64B19000020F64BDA
S2140101609847F449F54B1C221800F54B9847F34B7A
S2140101701B79552B2CD0F14B00221A60EF4B5522E0
S2140101801A71EE4B00225A71EC4B00229A71EB4B1E
S2140101900022DA71E94B00221A72EA4B1022002182
S2140101A01800E94B9847E74BE84A03CA03C311888E
S2140101B0198092789A70E149DE4B1C221800E04BB8
S2140101C09847DC4B19000020E14B9847E14B9847D4
S2140101D0D84B19000120D84B9847D649DE4B382218
S2140101E01800D74B9847DC4B1B79552B2ED0DA4B92
S2140101F000221A60D84B55221A71D84B1E220021B4
S2140102001800D14B9847D54AD54B1000190010233A
S2140102101A00CB4B9847D34B142200211800CA4B27
S2140102209847D04AD04B100019000B231A00C44B34
S2140102309847C949BF4B38221800C14B9847BD4B58
S21401024019000120C24B9847C24B9847B94B190079
S2140102500220B94B9847B749C44B38221800B84B0F
S2140102609847C24B1B79552B3CD0C04B00221A60D5
S214010270BE4B55221A71BE4B102200211800B24BFC
S2140102809847BA4B0522BB499B1810221800AC4B65
S2140102909847B94B102200211800AB4B9847B74A34
S2140102A0B74B100019000A231A00A54B9847B24B0A
S2140102B0102200211800A44B9847AF4AB14B1000FA
S2140102C019000D231A009E4B9847A849994B3822CE
S2140102D018009B4B9847974B190002209C4B984758
S2140102E09C4B9847934B19000820934B9847A64A76
S2140102F0904B1000190008231A00914B9847A24B07
S2140103001B78552B1DD0A04B55221A709E4B0F22E1
S2140103105A709D4B00229A709B4B0022DA709A4BC2
S21401032001221A71834A984B1000190008231A00FB
S214010330834B98477F4B19000820854B9847854B80
S2140103409847924B19000320914B9847914B1900FF
S21401035004208F4B9847904B190005208C4B9847EB
S2140103608E4B190006208A4B98478D4B19000720A3
S214010370874B9847754B19000920854B9847734B57
S21401038019000A20824B9847704B19000B20804BAE
S21401039098476E4B19000C207D4B98476B4B190004
S2140103A00D207B4B9847694B19000E20784B9847D8
S2140103B0664B19000F20764B9847644B19001020A6
S2140103C0734B9847614B19001120714B98475F4B4F
S2140103D0190012206E4B98475C4B190013206C4B8A
S2140103E098475A4B19001420694B9847574B1900E8
S2140103F01520674B9847554B19001620644B9847B4
S214010400524B19001720624B98474A4B1900182087
S214010410494B9847634A474B1000190018231A00A6
S214010420474B98475F4B1B78552B25D05D4B552284
S2140104301A705C4B00229A705A4B00225A705A4B23
S214010440142200211800404B9847574A3F4B100092
S21401045019000B231A003A4B9847364A514B1000A5
S214010460190018231A00364B9847324B19001820EA
S214010470374B9847374B98472E4B190019202E4B70
S21401048098474A4A2B4B1000190030231A002C4B70
S2140104909847464B1B78552B3CD0444B55221A7037
S2140104A0434B142200211800274B9847404A274BFC
S2140104B0100019000B231A00214B98473D4B1422BC
S2140104C000211800204B98473A4A204B100019008B
S2140104D00B231A001A4B9847344B00225A70334BA1
S2140104E000229A70314B0022DA70304B00221A71CA
S2140104F02E4B00225A710F4A2C4B10001900302344
S2140105001A000F4B98470B4B19001920104B9847B0
S214010510104B9847074B19001A20074B9847054977
S214010520254B30221800064B9847234B1B7845E095
S2140105301501010084050020ED3C0200F8050020AD
S214010540CD8F02000406002003900200049C0200E6
S214010550E13B0200893D02001C0500202105002028
S214010560109C02003F050020209C0200C0050020D0
S214010570C50500202C9C0200E5050020D5050020BD
S2140105803C9C0200489C020014060020589C020075
S21401059029070100649C0200709C02007C9C0200FA
S2140105A0889C02003C0600204006002054050020DE
S2140105B05C0500207005002054060020552B65D0F0
S2140105C0514B55221A70504B00225A704E4B322214
S2140105D05A804D4B4F221A714B4B54225A714A4B3B
S2140105E00222DA80484B00221A72474B00225A72C6
S2140105F0454B00229A72444B0022DA72424B00228B
S2140106001A73414B00225A733F4B00229A733E4B9A
S2140106100022DA733C4B00221A613B4B00225A61DE
S214010620394B00229A61384B55221A77364B78227D
S2140106305A77354B00229A77334B0022DA77324BC2
S214010640202201219954304B64225A842E4B2422B5
S214010650012199542C4B2522022199542A4B2622FA
S21401066002219954284B272200219954264B274AC8
S2140106709A622549264B30221800264B9847244B70
S21401068019001A20244B9847244B9847204B1900F1
S2140106901B20234B98471E49224B102218001D4B46
S2140106A09847204B1B78552B2AD01E4B55221A7083
S2140106B01C4B01229A701B4B01225A70194B0022C7
S2140106C09A71184B00225A71164B00221A71154B5B
S2140106D00022DA70134B0022DA71124B00229A6064
S2140106E0104B0022DA600F49094B10221800094B03
S2140106F09847074B19001B20074B9847074B98470D
S214010700C046BD4680BDC0465406002010270000E6
S21401071084050020CD8F0200E13B0200893D0200E6
S214010720ED3C02002C06002080B588B000AF020028
S2140107303960FB1D1A70284B3C2200211800274BFC
S2140107409847254AFB1D1B7811001800244B984733
S2140107500823FA18204B1000190018231A00214B01
S21401076098470823FB181B78552B31D00823FB1814
S21401077055221A700823FB1800225A700823FB180A
S21401078000229A700823FB180022DA700823FB184F
S2140107900433142200211800104B98473A680823A6
S2140107A0FB180433110018000F4B98470A4A082318
S2140107B0FB181000190018231A000A4B9847064A1E
S2140107C0FB1D1B7811001800084B9847084B9847EB
S2140107D0C046BD4608B080BD8405002003900200D7
S2140107E0ED3C0200CD8F020083920200E13B020045
S2140107F0893D020080B58AB000AF78607B68002230
S2140108001A702723FB1800221A7063E0374B3C222C
S21401081000211800364B98472723FB181B7809330D
S214010820DBB2324A11001800324B98470C23FA18F3
S2140108302E4B1000190018231A002F4B98472F4BE8
S214010840DB782722BA1812789A420FD17B681800F3
S2140108502B4B984703001A007B689A18294B100007
S214010860190003231A00244B984715E0234B1B79E4
S2140108702722BA1812789A420ED17B681800204BAC
S214010880984703001A007B689A181F4B100019003E
S21401089003231A00184B98470C23FB181A1D7B6874
S2140108A011001800194B98477B681800144B98479D
S2140108B003001A007B689A18154B100019000223D2
S2140108C01A000D4B98472723FB181A782723FB1885
S2140108D001321A70094B9B782722BA1812789A426D
S2140108E094D3C046BD460AB080BDC04684050020EC
S2140108F003900200ED3C0200CD8F0200140600209A
S21401090093920200949C0200989C02004D92020071
S2140109109C9C020080B588B000AF78600A00FB1C82
S2140109201A707B6800221A70154B9B78FA1C127895
S2140109309A421FD2134B3C2200211800124B9847B3
S214010940FB1C1B780933DBB20E4A110018000F4B53
S21401095098470823FA180B4B1000190018231A00A1
S2140109600B4B98470823FB181A1D7B6811001800CB
S214010970084B98477B681800BD4608B080BDC04646
S214010980140600208405002003900200ED3C0200BE
S214010990CD8F02004D92020080B588B000AF78601E
S2140109A0144B9B78002B20D00C23FB181800142323
S2140109B01A000021104B98470E4BDA780C23FB18CF
S2140109C0110018000D4B98470C23FA187B6811008C
S2140109D018000B4B9847031E01D0012306E07B68E5
S2140109E01800084B9847030000E000231800BD4696
S2140109F008B080BD1406002003900200150901000E
S214010A00C3920200090A010080B582B000AF786087
S214010A100B4B9B78002B0DD00A4B9B78002B09D0F3
S214010A20094A7B6811001800084B9847031E01D03D
S214010A30012300E000231800BD4602B080BDC04679
S214010A40140600203C06002040060020C392020047
S214010A5080B582B000AF7860094B5B78002B09D077
S214010A60084A7B6811001800074B9847031E01D0FF
S214010A70012300E000231800BD4602B080BDC04639
S214010A80540500205C050020C392020080B582B0A8
S214010A9000AF7860094BDB78002B09D0084A7B68E9
S214010AA011001800074B9847031E01D0012300E0F0
S214010AB000231800BD4602B080BDC0465405002084
S214010AC070050020C392020080B582B000AF786046
S214010AD0094B5B78002B06D0084A7B68110018008A
S214010AE0074B984702E07B6800221A707B68180063
S214010AF0BD4602B080BDC046540500205C050020FE
S214010B008392020080B582B000AF7860094BDB7833
S214010B10002B06D0084A7B6811001800074B98473F
S214010B2002E07B6800221A707B681800BD4602B09E
S214010B3080BDC04654050020700500208392020047
S214010B4080B582B000AF0200FB1D1A70FB1D1A783B
S214010B500A4B9A700A4A094B1000190030231A00F2
S214010B60084B9847064B19001920074B9847074B27
S214010B709847C046BD4602B080BDC0465405002019
S214010B8084050020CD8F0200E13B0200893D020072
S214010B9080B582B000AF0200FB1D1A70FB1D1A78EB
S214010BA00A4B1A710A4A094B1000190030231A0021
S214010BB0084B9847064B19001920074B9847074BD7
S214010BC09847C046BD4602B080BDC04654050020C9
S214010BD084050020CD8F0200E13B0200893D020022
S214010BE080B582B000AF0200FB1D1A70FB1D1A789B
S214010BF00F4B5A71FB1D1B7801225340DBB2002BB1
S214010C0002D00B4B00221A710A4A094B1000190038
S214010C1030231A00084B9847064B19001920074B3A
S214010C209847074B9847C046BD4602B080BDC046B0
S214010C305405002084050020CD8F0200E13B020010
S214010C40893D020080B582B000AF78600F4B01226B
S214010C505A707A680E4B110018000E4B98470E4AD0
S214010C600A4B1000190030231A000C4B98470A4B08
S214010C70190019200A4B98470A4B984700200A4B3F
S214010C809847C046BD4602B080BDC0465405002008
S214010C905C0500208392020084050020CD8F0200AF
S214010CA0E13B0200893D0200410B010080B582B0A4
S214010CB000AF7860104B0122DA707A680F4B110092
S214010CC018000F4B98470F4A0B4B100019003023A2
S214010CD01A000D4B98470B4B190019200B4B9847E0
S214010CE00B4B984700200B4B984700200A4B984720
S214010CF0C046BD4602B080BD5405002070050020E8
S214010D008392020084050020CD8F0200E13B0200A1
S214010D10893D0200910B0100E10B010080B58EB008
S214010D2000AF7860284B9B78002B2BD0274B5B7845
S214010D30002B06D0264A7B6811001800254B9847E1
S214010D403CE0254B3C2200211800244B98471E4BC3
S214010D50DB780933DBB2204A11001800204B984794
S214010D602023FA181C4B1000190018231A001D4BDB
S214010D7098472023FB181A1D7B6811001800154B95
S214010D8098471BE0144B3C2200211800134B984750
S214010D90114B19000320124B98470823FA180E4BE3
S214010DA01000190018231A000E4B98470823FB1849
S214010DB01A1D7B6811001800064B98477B681800BF
S214010DC0BD460EB080BDC046140600203C0600207D
S214010DD04006002083920200840500200390020052
S214010DE0ED3C0200CD8F020080B58AB000AF78607E
S214010DF0334B9B78002B39D02723FB1800221A701F
S214010E002DE0304B3C22002118002F4B984727231A
S214010E10FB181B780933DBB22A4A110018002B4B4A
S214010E2098470C23FA18274B1000190018231A00AC
S214010E30274B98470C23FB181A1D7B6811001800D6
S214010E40244B9847031E03D02723FB181B7832E058
S214010E502723FB181A782723FB1801321A70184B20
S214010E609B782722BA1812789A42CAD37B68180050
S214010E70194B9847031E01D0FD231CE0174B9B78A6
S214010E80002B07D07B681800154B9847031E01D02E
S214010E90FE2310E0134BDB78002B0BD00F4B1B7996
S214010EA0002B07D07B6818000F4B9847031E01D014
S214010EB0FE2300E0FF231800BD460AB080BDC046F1
S214010EC0140600208405002003900200ED3C020079
S214010ED0CD8F0200C3920200090A010054050020CA
S214010EE0510A01002C0600208D0A010080B588B049
S214010EF000AF7860334B9A78324B5B789A4201D1D7
S214010F0000235AE07B6818002F4B98470300F02B0C
S214010F1052D92E4B3C22002118002D4B9847294BC5
S214010F209B780933DBB2294A11001800294B9847F0
S214010F300823FA18254B1000190018231A00264B0F
S214010F4098470823FB180433142200211800204B6D
S214010F5098477A680823FB180433110018001F4BC2
S214010F6098471A4A0823FB181000190018231A007C
S214010F70194B9847134B9B780933DBB2134A110080
S214010F801800174B9847174B98470E4B9B78013321
S214010F90DAB20C4B9A700D4A0A4B1000190008235E
S214010FA01A000D4B9847094B190008200C4B98471F
S214010FB00C4B9847012300E000231800BD4608B0FB
S214010FC080BDC04614060020E90D010084050020FE
S214010FD003900200ED3C0200CD8F020083920200D6
S214010FE0E13B0200893D020090B585B000AF786014
S214010FF03D4B9B78012B01D8002371E00E23FC1892
S2140110007B681800394B984703002370364B5B7892
S2140110100E22BA1812789A4261D2334BDB780E222E
S214011020BA1812789A425AD00F23FB180E22BA1811
S21401103012781A7022E02E4B3C22002118002D4B0C
S21401104098470F23FB181B780A33DBB2284A110096
S2140110501800294B98470F23FB181B780933DBB27E
S214011060234A11001800254B9847254B98470F2314
S214011070FB181A780F23FB1801321A700F23FB187E
S2140110801A78194B9B78013B9A42D4DB164B9B7816
S214011090013BDAB2144B9A70134B1B790E22BA1825
S2140110A012789A4207D00E23FB181A780E4B9B78BB
S2140110B0013B9A4202DD0C4B01221A710C4A0A4B83
S2140110C01000190008231A000E4B9847084B190008
S2140110D008200A4B98470A4B9847012300E0002353
S2140110E01800BD4605B090BD14060020E90D0100AC
S2140110F08405002003900200ED3C0200E13B020063
S214011100893D0200CD8F020080B582B000AF02009B
S214011110FB1D1A70FB1D1B78002B03D0284B0022E9
S2140111209A7018E0274B3C2200211800264B98475E
S214011130234BDB780933DBB2224A11001800234B1C
S2140111409847204B19000920214B9847214B984777
S2140111501B4B01229A701A4B0022DA70184B01229F
S2140111601A71184A164B1000190008231A001A4B58
S2140111709847134B0022DA70114B01221A71114B5A
S21401118019000820124B9847124B98470020134B22
S2140111909847134B00229A700A4A114B1000190007
S2140111A018231A000C4B9847064B19001820084BB9
S2140111B09847084B9847C046BD4602B080BDC0461A
S2140111C0140600208405002003900200ED3C020076
S2140111D0E13B0200893D0200CD8F0200E5110100CE
S2140111E03C06002080B582B000AF0200FB1D1A70DD
S2140111F0FB1D1A780A4B5A700A4A094B100019004F
S21401120018231A00084B9847064B19001820074B5D
S2140112109847074B9847C046BD4602B080BDC046BA
S2140112203C06002084050020CD8F0200E13B020031
S214011230893D020080B582B000AF7860114B9B7883
S214011240002B19D0104B01229A707A680F4B1100AF
S21401125018000F4B98470F4A0B4B10001900182324
S2140112601A000D4B98470B4B190018200B4B98474B
S2140112700B4B9847012300E000231800BD4602B03F
S21401128080BDC046140600203C0600204006002013
S2140112908392020084050020CD8F0200E13B02000C
S2140112A0893D020080B582B000AF0200FB1D1A70B6
S2140112B0FB1D1A78094B5A700849094B3022180051
S2140112C0084B9847064B19001A20074B9847074BBF
S2140112D09847C046BD4602B080BDC04654060020B1
S2140112E084050020CD8F0200E13B0200893D02000B
S2140112F080B582B000AF0200BB1D1A800A4BBA1D32
S21401130012885A800849094B30221800084B984722
S214011310064B19001A20074B9847074B9847C046BB
S214011320BD4602B080BDC04654060020840500209C
S214011330CD8F0200E13B0200893D020080B582B0FC
S21401134000AF0200FB1D1A700A4BFA1D12781A71C3
S2140113500849094B30221800084B9847064B1900DC
S2140113601A20074B9847074B9847C046BD4602B020
S21401137080BDC0465406002084050020CD8F0200A3
S214011380E13B0200893D020080B582B000AF020059
S214011390FB1D1A700A4BFA1D12785A710849094B3F
S2140113A030221800084B9847064B19001A20074BA5
S2140113B09847074B9847C046BD4602B080BDC04619
S2140113C05406002084050020CD8F0200E13B020078
S2140113D0893D0200B0B582B000AF05000C001000D8
S2140113E01900FB1D2A1C1A70BB1D221C1A707B1DBE
S2140113F0021C1A703B1D0A1C1A70FB1D1A78144B2E
S2140114005A72134B5B7A002B10D0114BBA1D12780F
S2140114109A720F4B7A1D1278DA720D4B3A1D1278BA
S2140114201A730B4B1822BA1812785A730849094BCB
S21401143030221800084B9847064B19001A20074B14
S2140114409847074B9847C046BD4602B0B0BDC04658
S2140114505406002084050020CD8F0200E13B0200E7
S214011460893D020080B582B000AF0200FB1D1A70F4
S214011470FB1D1A78094BDA770849094B3022180008
S214011480084B9847064B19001A20074B9847074BFD
S2140114909847C046BD4602B080BDC04654060020EF
S2140114A084050020CD8F0200E13B0200893D020049
S2140114B080B582B000AF0200FB1D1A70FB1D1A78C2
S2140114C0094B9A770849094B30221800084B984770
S2140114D0064B19001A20074B9847074B9847C046FA
S2140114E0BD4602B080BDC0465406002084050020DB
S2140114F0CD8F0200E13B0200893D020080B582B03B
S21401150000AF0200FB1D1A70FB1D1B78642B18D957
S2140115100E4BFA1D12785A770C490D4B30221800E3
S2140115200C4B98470A4B19001A200B4B98470B4B4C
S2140115309847064BDB7B002B01D0094B98470123CC
S21401154000E000231800BD4602B080BD540600200E
S21401155084050020CD8F0200E13B0200893D020098
S214011560E117010080B582B000AF0200FB1D1A70C2
S214011570FB1D1B78002B1CD0FB1D1B78632B18D87A
S2140115800E4BFA1D12781A770C490D4B30221800B3
S2140115900C4B98470A4B19001A200B4B98470B4BDC
S2140115A09847064BDB7B002B01D0094B984701235C
S2140115B000E000231800BD4602B080BD540600209E
S2140115C084050020CD8F0200E13B0200893D020028
S2140115D0E117010080B582B000AF0200FB1D1A7052
S2140115E0FB1D1978094B202299540849084B3022D3
S2140115F01800084B9847064B19001A20064B9847C7
S214011600064B9847C046BD4602B080BD5406002032
S21401161084050020CD8F0200E13B0200893D0200D7
S21401162080B582B000AF0200BB1D1A800A4BBA1DFE
S21401163012885A840849094B30221800084B9847EB
S214011640064B19001A20074B9847074B9847C04688
S214011650BD4602B080BDC046540600208405002069
S214011660CD8F0200E13B0200893D020080B582B0C9
S21401167000AF0200FB1D1A70FB1D1978094B2422CE
S21401168099540849084B30221800084B9847064BD6
S21401169019001A20064B9847064B9847C046BD4688
S2140116A002B080BD5406002084050020CD8F0200C4
S2140116B0E13B0200893D020080B582B000AF020026
S2140116C0FB1D1A700A4BFA1D262112785A54084936
S2140116D0084B30221800084B9847064B19001A2071
S2140116E0064B9847064B9847C046BD4602B080BD9C
S2140116F05406002084050020CD8F0200E13B020045
S214011700893D020080B582B000AF0200FB1D1A7051
S214011710FB1D1978094B272299540849084B30229A
S2140117201800084B9847064B19001A20064B984795
S214011730064B9847C046BD4602B080BD5406002001
S21401174084050020CD8F0200E13B0200893D0200A6
S21401175080B582B000AF7860094B7A689A62084912
S214011760084B30221800084B9847064B19001A20E0
S214011770064B9847064B9847C046BD4602B080BD0B
S2140117805406002084050020CD8F0200E13B0200B4
S214011790893D020080B582B000AF0200FB1D1A70C1
S2140117A00A4BFA1D252112785A540849084B302253
S2140117B01800084B9847064B19001A20064B984705
S2140117C0064B9847C046BD4602B080BD5406002071
S2140117D084050020CD8F0200E13B0200893D020016
S2140117E090B583B000AF2B4B1A692B4B100098476E
S2140117F0041C284B1A7F284B10009847021C274BC5
S214011800111C201C9847031C1A1C254B101C9847BA
S214011810244C0022244BA04703000C001900220090
S214011820BC1D224B08001100984703002380BB1DF6
S2140118301B8818001E4B9847164B1A69164B10004A
S2140118409847041C134B5A7F134B10009847021CF1
S214011850124B111C201C9847031C1A1C104B101C01
S2140118609847104C0022104BA04703000C001900AB
S2140118702200BC1D0D4B0800110098470300238071
S214011880BB1D1B8818000B4B9847C046BD4603B0CE
S21401189090BDC0465406002015720200356F020046
S2140118A0F18D0200C178020000005940E96A020089
S2140118B0B9180100FD18010080B582B000AF78604C
S2140118C0094B7A689A610849084B30221800084B80
S2140118D09847064B19001A20064B9847064B98471F
S2140118E0C046BD4602B080BD5406002084050020D7
S2140118F0CD8F0200E13B0200893D020080B582B037
S21401190000AF7860094B7A685A610849084B302263
S2140119101800084B9847064B19001A20064B9847A3
S214011920064B9847C046BD4602B080BD540600200F
S21401193084050020CD8F0200E13B0200893D0200B4
S21401194080B582B000AF7860094B7A681A610849A1
S214011950084B30221800084B9847064B19001A20EE
S214011960064B9847064B9847C046BD4602B080BD19
S2140119705406002084050020CD8F0200E13B0200C2
S214011980893D020080B582B000AF0200FB1D1A70CF
S214011990FB1D1A78094BDA730849094B30221800E7
S2140119A0084B9847064B19001A20074B9847074BD8
S2140119B09847C046BD4602B080BDC04654060020CA
S2140119C084050020CD8F0200E13B0200893D020024
S2140119D080B582B000AF0200BB1D1A800A4BBA1D4B
S2140119E01288DA800849094B30221800084B9847BC
S2140119F0064B19001A20074B9847074B9847C046D5
S214011A00BD4602B080BDC0465406002084050020B5
S214011A10CD8F0200E13B0200893D020080B582B015
S214011A2000AF0200FB1D1A700A4BFA1D12781A72DB
S214011A300849094B30221800084B9847064B1900F5
S214011A401A20074B9847074B9847C046BD4602B039
S214011A5080BDC0465406002084050020CD8F0200BC
S214011A60E13B0200893D020080B58AB000AF786094
S214011A702723FB1800221A702BE01B4B3C22002167
S214011A8018001A4B98472723FB181B780333DBB241
S214011A90154A11001800164B98470C23FA18124BDA
S214011AA01000190018231A00124B98470C23FB1834
S214011AB01A1D7B68110018000F4B9847031E01D0B2
S214011AC001230CE02723FB181A782723FB18013281
S214011AD01A702723FB181B78042BCED90023180075
S214011AE0BD460AB080BDC0468405002003900200B2
S214011AF0ED3C0200CD8F0200C392020080B582B099
S214011B0000AF0200FB1D1A700B4BFA1D1278DA703B
S214011B100A4A094B1000190008231A00084B984777
S214011B20064B19000820074B9847074B9847C046B5
S214011B30BD4602B080BDC0461406002084050020C4
S214011B40CD8F0200E13B0200893D020080B582B0E4
S214011B5000AF0200FB1D1A700B4BFA1D12781A71AA
S214011B600A4A094B1000190008231A00084B984727
S214011B70064B19000820074B9847074B9847C04665
S214011B80BD4602B080BDC046140600208405002074
S214011B90CD8F0200E13B0200893D020090B585B081
S214011BA000AF78600E23FC187B681800214B98471D
S214011BB0030023700F23FB18FF221A701E4B5B785D
S214011BC00E22BA1812789A4209D30F23FB181A4A22
S214011BD092781A707B681800184B98470CE0164BE1
S214011BE05B780E22BA1812789A4205D20F23FB1898
S214011BF00E22BA1812781A700F4B5B780F22BA1899
S214011C0012789A4210D20C4B9B78012B04D90A4BBE
S214011C10DB7818000A4B98470F23FB181B7818002F
S214011C20084B9847012300E000231800BD4605B085
S214011C3090BDC046E90D010014060020ED0E01001E
S214011C404D1B0100FD1A010090B585B000AF78600C
S214011C50214B9B78012B01D8002339E00E23FC1879
S214011C607B6818001D4B9847030023700F23FB1851
S214011C70FF221A70184B5B780E22BA1812789A4215
S214011C8009D30F23FB18144A92781A707B68180040
S214011C90134B98470CE0104B5B780E22BA1812785B
S214011CA09A4205D20F23FB180E22BA1812781A7020
S214011CB0094B5B780F22BA1812789A4207D20F2383
S214011CC0FB181B781800074B9847012300E00023F8
S214011CD01800BD4605B090BD14060020E90D0100B0
S214011CE0ED0E01004D1B010080B582B000AF020071
S214011CF0FB1D1A70064BFA1D127811001F220A40AE
S214011D00012191400A001A60C046BD4602B080BD5E
S214011D1000E100E080B582B000AF0200FB1D1A7042
S214011D20074AFB1D1B7819001F230B400121994010
S214011D300B0019008023D150C046BD4602B080BDBD
S214011D4000E100E080B584B000AF0200FB1D1A7010
S214011D500F23FB18FA1D1278D2091A700E23FB18EE
S214011D60FA1D127852091A700D4BBB600F23FB182F
S214011D701B78002B0FD10F23FB181B789B0010221A
S214011D809446BC446344083B1A680E23FB181B7830
S214011D90DB01D31800E000231800BD4604B080BD67
S214011DA00044004180B582B000AF0200FB1D1A70EE
S214011DB0FB1D1B781800034B984703001800BD460F
S214011DC002B080BD451D010080B582B000AF7860CD
S214011DD07B6800221A707B6801225A707B68002299
S214011DE09A70C046BD4602B080BD000080B584B082
S214011DF000AF0200FB1D1A70FB1D1B7818000B4B71
S214011E0098470300FB60FB1D1B781F22134001222D
S214011E109A401300BB60FB681B6ABA6813405A1EDF
S214011E209341DBB21800BD4604B080BDA51D01007C
S214011E3080B584B000AF0200FB1D1A70BB1D0A1CE2
S214011E401A70FB1D1B7818000D4B98470300FB60AA
S214011E50FB1D1B781F22134001229A401300BB6012
S214011E60BB1D1B78002B03D0FB68BA689A6102E0A1
S214011E70FB68BA685A61C046BD4604B080BDC0461C
S214011E80A51D010080B584B000AF78607B681B6833
S214011E90FB60FB68DB695A1E9341DBB21800BD4646
S214011EA004B080BD80B582B000AF7860C0467B6864
S214011EB01800044B9847031EF9D1C046BD4602B030
S214011EC080BDC046851E010080B582B000AF786037
S214011ED07B688022D2051A607B6800225A607B6884
S214011EE0FF221A817B6800229A727B680022DA72CE
S214011EF07B68962292011A627B68242201219954FA
S214011F007B682522012199547B6826220021995459
S214011F107B682722002199547B6800229A627B689D
S214011F2088225203DA607B682C22002199547B6850
S214011F302D22002199547B6800221A637B680022B7
S214011F405A637B6800229A637B680022DA637B68A7
S214011F5000225A617B6800221A827B680022DA76A8
S214011F607B6800221A767B6800221A777B6800223B
S214011F705A767B6813229A767B6800225A77C04687
S214011F80BD4602B080BD000080B584B000AF786069
S214011F907B681B68FB607B681B681800094B9847C9
S214011FA003001800084B98477B681800074B9847B2
S214011FB0FB681B6802221A43FB681A60C046BD46CE
S214011FC004B080BD4D240200E91C0100A51E0100DD
S214011FD080B584B000AF78607B681B68FB607B6867
S214011FE01B6818000A4B984703001800094B9847CE
S214011FF07B681800084B9847FB681B6802229343CE
S2140120001A00FB681A60C046BD4604B080BDC046D3
S2140120104D240200151D0100A51E010080B584B0E7
S21401202000AF78607B681B68FB607B681800064B16
S21401203098477B681800054B9847FB6801221A6091
S214012040C046BD4604B080BDD11F0100A51E0100DB
S21401205080B582B000AF7860C046BD4602B080BD94
S21401206080B582B000AF094B1B68F91C002218002E
S214012070074B984703007B607B68002B00D0F2E794
S214012080C046C046BD4602B080BDC0462002002004
S21401209031F6010090B585B000AF0200FB1D1A7045
S2140120A0194BFB60FB681B7EDBB21A00042313404E
S2140120B026D0FB685B8B9BB2DAB20B23FB1806219A
S2140120C00A401A700B23FB181B78002B06D00B2333
S2140120D0FB181B789AB2FB685A8311E0FB681B8DCC
S2140120E09BB2DAB20A23FB181A70084B18680A2347
S2140120F0F91800230022064CA0470120054B9847FB
S214012100C046BD4605B090BD001400422002002026
S21401211011F501000123010080B500AF3120094B04
S214012120984703005A1E9341DBB201225340DBB2AB
S2140121301A1C01231340DAB2034B1A70C046BD467F
S21401214080BDC046ED1D01008E06002090B597B0FB
S21401215002AF4C23FB1818004D4B98474C23FB1835
S21401216001221A704C23FB1819001420494B98477A
S21401217000211420484B98474023FB181800474B72
S21401218098474023FB1831221A604023FB1800228F
S2140121905A604023FB1801221A724023FB180322BF
S2140121A0DA724023FB18190001203D4B98470021A5
S2140121B001203C4B98473C4B0022012118003B4B29
S2140121C0984700220121F020394B98470200394BED
S2140121D01A60394939483A4B009300230022394C9A
S2140121E0A0470200384B1A60032200210120304B21
S2140121F098470200354B1A60344B1B68002B06D0FB
S214012200324B1868002300220021314CA0473B00C6
S2140122101800304B98473B009622D2011A623B00C9
S21401222080225203DA603B002B4A1A633B002B4A9A
S2140122305A633B00012252429A633B0001225242FA
S214012240DA633B002C220121995403E0244B180049
S214012250244B98473A002449214B1800234B9847B2
S214012260031EF3D11E4B1800214B98471E4B180036
S214012270204B984703001A001F4B190010001F4BF4
S2140122809847194B04229A75C046BD4615B090BDB5
S214012290C91D010061310200311E0100F9E0010093
S2140122A02DE101005126020019210100ED25020051
S2140122B075F201002002002088130000A49C020091
S2140122C051200100F90F02002402002028020020FC
S2140122D031F30100C91E01000200160002001700BA
S2140122E0900600201D20010000140042451C02003B
S2140122F0891F01000DED010095200100E123020078
S21401230080B582B000AF0200FB1D1A70104B1B781F
S214012310DBB201225340DBB2002B10D00121142086
S2140123200C4B98470A4B01221A70FB1D1B780122A1
S2140123305340DBB2002B02D06420074B9847074B73
S21401234098470200064B1A60C046BD4602B080BDE3
S21401235084060020311E0100D90002003D0402005F
S2140123601C02002080B500AF024B00221A70C04646
S214012370BD4680BD8406002080B582B000AF0E4BFE
S2140123801B78DBB2002B11D0FB1D00221A700B4B01
S214012390984702000A4B1B68D21AFB1D0949914255
S2140123A0924152421A70FB1D1B7800E0012318006F
S2140123B0BD4602B080BDC046840600203D04020032
S2140123C01C0200204FC3000090B58BB002AFF8602E
S2140123D0B9607A601A00FB1C1A70664B1B680121F3
S2140123E01800654B9847031E01D10223BDE000206B
S2140123F0624B9847624B98471F23FB1800221A70BE
S2140124001E23FB1800221A701323FB1800221A70D1
S2140124100121F0205B4B98470300BB61BB69002B91
S21401242001D10023A1E0BB69F02200211800564B20
S2140124309847FB681800554B984703009AB2F9680D
S214012440534B1800534B9847534B18687A6801232F
S2140124505B42009300230421504CA0474E4B1B685F
S21401246018004F4B9847031E3ED01E23FB181B78BF
S214012470EF2B1CD84B4B1B681322B91800221800EF
S214012480494B984703007B617B69002B0FD01E23C5
S214012490FB181B78BA69D3181322BA1812781A7067
S2140124A01E23FB181A781E23FB1801321A70BB680C
S2140124B0002B0CD0BA68BB69110018003B4B98473B
S2140124C0031E04D01F23FB1800221A7024E0384A8A
S2140124D0BB6911001800354B9847031EBED01F2359
S2140124E0FB180B221A7017E02B4B186801235B426E
S2140124F00093002300220321284CA0471E23FB182B
S2140125001B78002B04D11F23FB1807221A7003E047
S2140125101F23FB1808221A70FB1C1B78002B16D0F1
S2140125203B6B002B13D0FA1C1E23FB1812781B786A
S2140125309A420CD91F23FB181B78002B07D11E23A8
S214012540FB181A78B9693B6B18001A4B9847094B68
S2140125501868002300220021174CA047BB69180009
S214012560164B98471F23FB181B781800BD4609B069
S21401257090BDC04628020020D1F7010001230100CA
S21401258061200100F58E0200039002009392020082
S214012590900600201D1F0200240200209D1002004C
S2140125A0191602002002002031F60100C392020033
S2140125B0B09C0200CD8F020031F30100958F02001E
S2140125C090B583B002AF064A064907480023009338
S2140125D00023064CA04703001800BD4601B090BD7D
S2140125E088130000B89C0200BC9C0200C9230100AD
S2140125F0B0B584B002AFFC1D124A1349134800233C
S21401260000930023124DA84703002370FB1D1B787F
S214012610002B01D1092311E0BC1D0A4A0D490B48C4
S2140126200023009300230A4DA84703002370BB1D17
S2140126301B78002B01D1092300E00A231800BD46B0
S21401264002B0B0BD88130000CC9C0200D89C0200EA
S214012650C9230100E49C020090B589B002AF3B1D7E
S214012660180014231A0000210A4B98479623DA0112
S21401267009493B1D1800094B9847094A0949381D65
S214012680002300930023084CA04703001800BD4612
S21401269007B090BD03900200F09C02000992020070
S2140126A088130000B89C0200C923010090B583B0CE
S2140126B002AF064A06490748002300930023064C4A
S2140126C0A04703001800BD4601B090BD8813000066
S2140126D0609D0200709D0200C923010090B583B081
S2140126E002AF064A06490748002300930023064C1A
S2140126F0A04703001800BD4601B090BDA8610000C8
S214012700B89C02007C9D0200C923010090B583B0ED
S21401271002AF064A06490748002300930023064CE9
S214012720A04703001800BD4601B090BD8813000005
S214012730B89C0200909D0200C923010090B583B0A9
S21401274002AF064A06490748002300930023064CB9
S214012750A04703001800BD4601B090BD983A00009E
S214012760B89C0200989D0200C923010090B583B071
S21401277002AF064A06490748002300930023064C89
S214012780A04703001800BD4601B090BD88130000A5
S214012790B89C0200A49D0200C923010090B583B035
S2140127A002AF064A06490748002300930023064C59
S2140127B0A04703001800BD4601B090BD10270000D9
S2140127C0B89C0200B09D0200C923010090B583B0F9
S2140127D002AF064A06490748002300930023064C29
S2140127E0A04703001800BD4601B090BD8813000045
S2140127F0B89C0200E49D0200C923010090B583B095
S21401280002AF064A06490748002300930023064CF8
S214012810A04703001800BD4601B090BD983A0000DD
S214012820B89C0200F09D0200C923010090B583B058
S21401283002AF064A06490748002300930023064CC8
S214012840A04703001800BD4601B090BD88130000E4
S214012850B89C0200F89D0200C923010090B583B020
S21401286002AF064A06490748002300930023064C98
S214012870A04703001800BD4601B090BD88130000B4
S214012880B89C0200009E0200C923010090B583B0E7
S21401289002AF064A06490748002300930023064C68
S2140128A0A04703001800BD4601B090BD581B0000AC
S2140128B0B89C02000C9E0200C9230100B0B588B086
S2140128C002AF1623FB1864221A701623FB181B7816
S2140128D001211800604B984703003B613B69002BC0
S2140128E005D13B6918005D4B98470023AFE01623DE
S2140128F0FB181A783B6900211800594B98470F239B
S214012900FC181623FB181A78564D574957483B6949
S214012910009313002A00564DA847030023700F2387
S214012920FB181B78002B00D086E0524A3B69110049
S2140129301800514B9847031E00D078E04F4A3B6978
S214012940110018004E4B98470300BB604B4B190013
S21401295000204B4B98470300BB604A4ABB681100F6
S2140129601800474B98470300BB60BB681800464BEE
S2140129709847BB681800454B98470200FB1D1A7024
S214012980FB1D1B78002B07D0FB1D1B78012B03D0EA
S214012990FB1D1B78632B04D11723FB1800221A702A
S2140129A04EE0FB1D1B78012B08D9FB1D1B78072B5E
S2140129B004D81723FB1801221A7041E0FB1D1B786F
S2140129C0072B08D9FB1D1B780D2B04D81723FB18E2
S2140129D002221A7034E0FB1D1B780D2B08D9FB1D53
S2140129E01B78132B04D81723FB1803221A7027E031
S2140129F0FB1D1B78132B08D9FB1D1B78192B04D83C
S214012A001723FB1804221A701AE0FB1D1B78192BDA
S214012A1008D9FB1D1B781F2B04D81723FB1805228A
S214012A201A700DE01723FB1800221A7008E017230E
S214012A30FB1800221A7003E01723FB1800221A70F5
S214012A403B691800054B98471723FB181B7818009D
S214012A50BD4606B0B0BDC046F58E0200958F020099
S214012A600390020088130000B89C0200389E020002
S214012A70C9230100409E0200C3920200DC9D0200B1
S214012A80F5920200E09D0200912A0100E98E020003
S214012A9080B584B000AF78607B68FB607B68BB6004
S214012AA00CE0BB685A1CBA601A78FB681A70FB689F
S214012AB01B78202B02D0FB680133FB60BB681B78B8
S214012AC0002BEED1FB6800221A70C046BD4604B04A
S214012AD080BD000090B583B002AF064A064907489C
S214012AE0002300930023064CA04703001800BD46B0
S214012AF001B090BD88130000B89C0200449E0200FD
S214012B00C9230100B0B588B002AF786039603B6870
S214012B1018003B4B98470300FA2B01D903236BE0BF
S214012B207B681800364B98470300052B01D8042311
S214012B3062E01723FB18FA221A701723FB181B787A
S214012B40012118002F4B984703003B613B69002B7E
S214012B5001D1002350E01723FB181A783B690021A6
S214012B601800294B98471723FB1819787B68274AC2
S214012B703869274CA047274A27493869002300931C
S214012B800023264CA047031E31D1FA235B00180010
S214012B90234B98471723FB181A783B690021180026
S214012BA0194B98471723FB1819783B681D4A386953
S214012BB0174CA0470F23FC18164A1B4938690023F7
S214012BC000930023154DA847030023700F23FB181D
S214012BD01B78002B05D13B691800144B984700233E
S214012BE00AE03B691800114B9847062304E03B694D
S214012BF018000E4B984706231800BD4606B0B0BD18
S214012C0093920200F58E0200039002006C9E020071
S214012C10A591020060EA00007C9E0200C923010023
S214012C20D9000200809E0200B89C0200958F020027
S214012C3090B58FB002AFB96011007B600F23FB180F
S214012C40021C1A700E23FB180A1C1A702F23FB187D
S214012C50E6221A702F23FB181B78012118006E4BF1
S214012C6098470300BB62BB6A002B05D1BB6A1800FC
S214012C706A4B98470023CAE02F23FB181A78BB6AD1
S214012C8000211800664B98471023FB1818000A23EA
S214012C901A000021624B98472F23FB1819780F233F
S214012CA0FB181B785F4A102038185F4CA0472F236B
S214012CB0FB181A785D4C5E491023F818BB6A00931E
S214012CC0130022005B4CA047031E00D094E05A4A32
S214012CD0BB6A11001800594B984703007B627B6A58
S214012CE0002B00D182E0BB6A2C211800544B984778
S214012CF003003B623B6A0233FB61FB692221180039
S214012D004F4B984703003B623B6A002B2AD03B6A35
S214012D1000221A70FB6918004A4B984702001B23D1
S214012D20FB181A701B23FA180E23FB1812781B784F
S214012D309A4206D2FA69BB6811001800424B9847BE
S214012D4010E00E23FB181B78013B1A00F969BB68DB
S214012D5018003E4B98470E23FB181B78BA68D31809
S214012D6000221A703B6A01330A211800344B984737
S214012D7003003B623B6A002B44D03B6A01333B6253
S214012D803B6A0D2118002E4B98470300FB61FB6937
S214012D90002B02D0FB6900221A703B6A1800294BEF
S214012DA0984702001B23FB181A701B23FB184022AE
S214012DB0B9181A780B789A4206D23A6A7B681100DB
S214012DC01800214B98471DE04023FB181B78013B58
S214012DD01A00396A7B6818001C4B98474023FB1879
S214012DE01B787A68D31800221A700BE0BB6A1800A9
S214012DF00A4B98470C230AE0BB6A1800074B984712
S214012E000C2304E0BB6A1800044B98470023180003
S214012E10BD460DB090BDC046F58E0200958F0200EE
S214012E2003900200CC9E0200A591020088130000C8
S214012E30B89C0200C9230100D89E0200C39202007A
S214012E40679202009392020083920200CD8F0200E5
S214012E50B0B588B002AF78601723FB181E221A702F
S214012E601723FB181B7801211800184B98470300FD
S214012E703B613B69002B01D1002323E01723FB189C
S214012E801A783B6900211800114B98471723FB1845
S214012E9019787B680F4A38690F4CA0470F23FC1836
S214012EA0FA23DA000D4938690023009300230C4DFC
S214012EB0A847030023703B6918000A4B98470F2365
S214012EC0FB181B781800BD4606B0B0BDF58E020093
S214012ED003900200E09E0200A5910200B89C020049
S214012EE0C9230100958F020090B583B002AF064A50
S214012EF006490748002300930023064CA047030019
S214012F001800BD4601B090BD88130000B89C0200B1
S214012F10E89E0200C923010090B583B002AF064ABD
S214012F2006490748002300930023064CA0470300E8
S214012F301800BD4601B090BD10270000B89C0200E5
S214012F40F09E0200C923010090B583B002AF064A85
S214012F5006490748002300930023064CA0470300B8
S214012F601800BD4601B090BD88130000B89C020051
S214012F70089F0200C9230100B0B588B002AF78608F
S214012F801723FB181E221A701723FB181B78012122
S214012F901800184B984703003B613B69002B01D191
S214012FA0002322E01723FB181A783B69002118003A
S214012FB0114B98471723FB1819787B680F4A386915
S214012FC00F4CA0470F23FC180E4A0F4938690023FF
S214012FD0009300230D4DA847030023703B6918009A
S214012FE00B4B98470F23FB181B781800BD4606B0FD
S214012FF0B0BDC046F58E020003900200149F020089
S214013000A591020088130000B89C0200C9230100A4
S214013010958F020090B583B002AF064A064907486D
S214013020002300930023064CA04703001800BD466A
S21401303001B090BD88130000B89C0200249F0200D6
S214013040C923010090B583B002AF064A0649074876
S214013050002300930023064CA04703001800BD463A
S21401306001B090BD50460000B89C0200309F02009F
S214013070C923010090B583B002AFFA23DA000649EE
S2140130800648002300930023054CA04703001800C0
S214013090BD4601B090BDC046B89C0200609F0200CC
S2140130A0C923010090B587B002AF78600A00FB1C07
S2140130B01A700F23FB1800221A70FB1C1B78002BBA
S2140130C003D00F23FB1801221A700E23FB1832229D
S2140130D01A700E23FB181B7801211800174B98470E
S2140130E00300BB60BB68002B01D1002322E00E2346
S2140130F0FB181A78BB6800211800114B98470E235D
S214013100FB1819780F23FB181B787C680D4AB868E2
S214013110009323000C4CA047FA23DA000B49B86849
S2140131200023009300230A4CA047BB681800094BF4
S214013130984700231800BD4605B090BDF58E0200E5
S214013140039002006C9F0200A5910200B89C020049
S214013150C9230100958F0200B0B586B002AF0F23D8
S214013160FB1846221A700F23FB181B780121180042
S214013170574B98470300BB60BB68002B05D1BB6863
S2140131801800544B984700239DE00F23FB181A782C
S214013190BB6800211800504B9847FC1D0F23FB18F5
S2140131A01A784E4D4E494F48BB68009313002A00CB
S2140131B04D4DA84703002370FB1D1B78002B6AD1D9
S2140131C04A4ABB6811001800494B984703003B6008
S2140131D0464B19000020464B984703003B60454A82
S2140131E03B6811001800424B984703003B603B6860
S2140131F01800414B98470300DAB2404B1A703D4B1A
S214013200190000203A4B984703003B603B681800C2
S214013210394B98470300DAB2384B5A70384B1900CD
S2140132200020334B984703003B603B681800324B45
S21401323098470300DAB2314B9A70324B19000020DE
S2140132402B4B984703003B603B6818002A4B984776
S2140132500300DAB2294BDA702A4B19000020244BFE
S214013260984703003B603B681800234B98470300D0
S214013270DAB2224B1A71244B190000201C4B9847D6
S21401328003003B603B6818001B4B98470300DAB20B
S2140132901A4B5A7111E0194B00221A70174B002273
S2140132A05A70164B00229A70144B0022DA70134B98
S2140132B000221A71114B00225A71BB681800054B87
S2140132C09847FB1D1B781800BD4604B0B0BDC0462C
S2140132D0F58E0200958F020003900200881300000D
S2140132E0B89C0200909F0200C92301009C9F020027
S2140132F0F5920200A09F0200E98E020088060020D7
S214013300E09D0200DC9D0200A49F020080B500AF94
S214013310344B9847031E00D05EE0334B9847031E9C
S21401332000D057E0FA23DB001800304B9847304BAB
S2140133309847031E4CD12F4B9847031E4ED12E4B58
S2140133409847031E42D1FA23DB001800274B984703
S2140133502A4B9847031E37D1294B9847031E31D174
S214013360284B9847031E2BD1274B9847031E25D180
S214013370264B9847031E1FD1254B9847031E19D18C
S214013380244B9847031E13D1234B9847031E0DD198
S214013390224B9847031E07D1214B9847031E01D1A4
S2140133A000231CE010231AE0102318E0102316E077
S2140133B0102314E0102312E0102310E010230EE077
S2140133C010230CE010230AE0102308E0102306E087
S2140133D0102304E0102302E0102300E0102318005D
S2140133E0BD4680BDC1250100FD270100D9000200B0
S2140133F0AD2601002D280100592601003D270100B8
S2140134006D270100CD2701005D2801008D280100F0
S214013410D52A0100192F0100492F01009D2701001F
S2140134200D27010080B584B000AF78600A00FB1C50
S2140134301A700F23FB1800221A7026E01B4B18681F
S214013440FA235A000E23FB181900194B9847031E3E
S21401345001D1002325E00E23FB181B780A2B14D07C
S2140134600E23FB181B780D2B14D07B685A1C7A6030
S2140134700E22BA1812781A70FB1C1A78FB1C013A35
S2140134801A700F23FB1801221A70FB1C1B78012BE4
S214013490D4D800E0C0467B6800221A700F23FB18C0
S2140134A01B781800BD4604B080BDC046200200202F
S2140134B031F6010080B584B000AF78600F23FB18A9
S2140134C000221A70174A7B6811001800164B98479D
S2140134D0031E1BD0154A7B6811001800144B984731
S2140134E00300BB60114B19000020114B98470300E5
S2140134F0BB60BB6818000F4B9847BB6818000E4BA3
S214013500984702000F23FB181A7003E00F23FB18DD
S21401351000221A700F23FB181B781800BD4604B052
S21401352080BDC046A89F0200C3920200E09D020033
S214013530F5920200912A0100E98E020080B582B060
S21401354000AF7860074A7B6811001800064B984761
S214013550031E01D0012300E000231800BD4602B07F
S21401356080BDC046B09F0200C392020080B584B001
S21401357000AF786039601E4A7B68110018001D4B49
S2140135809847031E2ED01C4A7B68110018001B4B5F
S21401359098470300FB601A4B19000020174B984709
S2140135A00300FB60174AFB6811001800134B98478D
S2140135B00300FB60134B19000020104B98470300D3
S2140135C0FB60FB682B2118000F4B9847031E01D1A7
S2140135D0002308E0FA683B68110018000B4B984777
S2140135E0012300E000231800BD4604B080BDC0469C
S2140135F0B89F0200C3920200DC9D0200F592020011
S214013600E09D02009C9F02006792020083920200E6
S21401361080B582B000AF7860164A7B68110018004A
S214013620154B9847031E01D001231EE0134A7B6801
S21401363011001800104B9847031E01D0012314E017
S2140136400F4A7B68110018000B4B9847031E01D0E8
S21401365001230AE00B4A7B6811001800064B9847C5
S214013660031E01D0012300E000231800BD4602B06E
S21401367080BDC046C09F0200C3920200CC9F0200DC
S214013680D49F0200B09C020080B582B000AF786083
S214013690074A7B6811001800064B9847031E01D0A5
S2140136A0012300E000231800BD4602B080BDC046DD
S2140136B0E09F0200C392020080B582B000AF78603E
S2140136C0074A7B6811001800064B9847031E01D075
S2140136D0012300E000231800BD4602B080BDC046AD
S2140136E0E89F0200C392020080B584B000AF0200DA
S2140136F0FB1D1A700F23FB18FA1D1278D2091A70D7
S2140137000E23FB18FA1D127852091A700D4BBB6076
S2140137100F23FB181B78002B0FD10F23FB181B78E8
S2140137209B0010229446BC446344083B1A680E234F
S214013730FB181B78DB01D31800E000231800BD46F8
S21401374004B080BD0044004180B582B000AF0200E5
S214013750FB1D1A70FB1D1B781800034B98470300CE
S2140137601800BD4602B080BDE936010080B582B0C2
S21401377000AF78607B6800221A707B6801225A705D
S2140137807B6800229A70C046BD4602B080BD00002C
S21401379080B584B000AF0200FB1D1A70BB1D0A1C69
S2140137A01A70FB1D1B7818000D4B98470300FB6031
S2140137B0FB1D1B781F22134001229A401300BB6099
S2140137C0BB1D1B78002B03D0FB68BA689A6102E028
S2140137D0FB68BA685A61C046BD4604B080BDC046A3
S2140137E049370100F0B58BB000AF0B231822944681
S2140137F0BC44634410221A700A2318229446BC441F
S214013800634402221A70904B9847904B3F221A70DD
S2140138108F4B3E221A708F4B21221A708D4B20221D
S2140138205A708C4B23229A708A4B2222DA708A4B6A
S21401383000221A700A2318229446BC4463441B785B
S214013840012B06D9844B1B7808221343DAB2824B2C
S2140138501A70824B0A2218218C46BC4462441278A4
S2140138601A700B2318229446BC4463441A780B231F
S21401387018218C46BC4463441B7840334021002009
S214013880774CA0471C23FB181800764B98471C233F
S214013890FB1801221A706D4B1B781C22BA181100F6
S2140138A01800714B98476A4B1B781C22BA181100F6
S2140138B018006D4B984700237B620CE0654A7B6AD3
S2140138C0D3181B781C22BA1811001800664B9847AB
S2140138D07B6A01337B627B6A032BEFDD0020634B3F
S2140138E0984703003B6100237B61614C614A0023DA
S2140138F038697969A04703000C00190022005E4B65
S2140139000024C9186241080011005C4C5C4A00237F
S214013910A04703000C0018005A4B98474B4B1B78E6
S21401392000211800584B9847494B1B780021180076
S214013930554B98470320554B984700204B4B9847CB
S2140139400300BB600023FB60494C514A0023B86862
S214013950F968A04703000C0019002200464B00241A
S214013960C918624108001100444C454A0023A0478B
S21401397003000C001800434B98470320434B98471D
S21401398000203A4B984703003B6000237B60384C8D
S2140139903F4A002338687968A04703000C001900E5
S2140139A02200354B0024C918624108001100334C2F
S2140139B0334A0023A04703000C001800314B9847F8
S2140139C00320324B98470020284B984703001D00E0
S2140139D000231E00264C9622002328003100A04713
S2140139E003000C0019002200234B0024C918624171
S2140139F008001100214C224A0023A04703000C00B6
S214013A001800204B98470220204B9847124B1B78F2
S214013A1020221343DBB218001E4B98471E4B04228C
S214013A201A701E4B98471E4B98471E4B02221A705F
S214013A301C4B1B7804221343DBB21800154B984726
S214013A40C046BD460BB0F0BD0D2B0200D3060020CC
S214013A50D2060020CC060020D1060020CA0600208F
S214013A60553B01006D37010061310200CD4A02006D
S214013A70956A020050C30000BFCF6A00556A020073
S214013A80C0CF6A000100002091370100913B010080
S214013A9094110000D53C0100C9060020BD3E01007E
S214013AA0753D0100D006002080B582B000AF3B1DF9
S214013AB01800084B98473B1D01221A703B1D002237
S214013AC05A703B1D19002420034B9847C046BD463B
S214013AD002B080BD6D3701006131020080B500AFD4
S214013AE001212420024B9847C046BD4680BDC046F2
S214013AF09137010080B582B000AF00212420114B20
S214013B00984700237B600AE00F4A7B68D3181B782E
S214013B10002118000B4B98477B6801337B607B685C
S214013B20032BF1DD094B1B7800211800054B984744
S214013B30074B1B7800211800024B9847C046BD462C
S214013B4002B080BD91370100CC060020D2060020CD
S214013B50D306002080B584B000AFF860B9607A6003
S214013B603B60FB68DAB2094B1A70BB68DAB2074BE6
S214013B705A707B68DAB2054B9A703B68DAB2034B2F
S214013B80DA70C046BD4604B080BDC046C4060020FB
S214013B9080B584B000AF0200FB1D1A700023FB60E5
S214013BA013E00E4AFB68D3181878FB1D1A78FB68D9
S214013BB01A411300012213405A1E9341DBB2190029
S214013BC0074B9847FB680133FB60FB68032BE8DD76
S214013BD0044B9847C046BD4604B080BDCC060020C5
S214013BE091370100E93B0100F0B585B000AF314BDC
S214013BF01B7800211800304B984700202F4B984720
S214013C000300BB600023FB602D4B0024B868F968F5
S214013C10C01861412B4C2C4A0023A04703000C001E
S214013C2018002A4B9847234B1B7801211800224B7A
S214013C3098470020214B984703001D0000231E00D3
S214013C401F4B002428003100C01861411D4C1E4A3C
S214013C500023A04703000C0018001C4B9847154B87
S214013C601B7800211800144B98470020134B9847E7
S214013C7003003B6000237B60154C642200233868F8
S214013C807968A04703000C00190022000C4B0024A1
S214013C90C9186241080011000A4C0B4A0023A047CC
S214013CA003000C001800094B9847C046BD4605B0F6
S214013CB0F0BDC046D206002091370100CD4A020071
S214013CC0BFCF6A00556A0200C0CF6A00010000201B
S214013CD0956A020080B582B000AF0200FB1D1A7023
S214013CE0FB1D1B7800211800024B9847C046BD46B5
S214013CF002B080BD213D010080B582B000AF020058
S214013D00FB1D1A70FB1D1B7801211800034B9847F9
S214013D1001231800BD4602B080BDC046213D01000A
S214013D2080B582B000AF0200FB1D1A70BB1D0A1CD5
S214013D301A700D4B1A78BB1D1B78591E8B41DBB2CE
S214013D4019001000094B9847FB1D1B781B09DBB2B5
S214013D501800074B9847FB1D1B781800044B984723
S214013D60C046BD4602B080BDD30600209137010093
S214013D70913B0100F8B500AF0120134B9847002096
S214013D80124B984703001D0000231E00104CFA2218
S214013D90D200002328003100A04703000C001900C0
S214013DA022000C4B0024C9186241080011000A4C7D
S214013DB00A4A0023A04703000C001800084B984746
S214013DC0C046BD46F8BDC046D53C0100CD4A0200FE
S214013DD0956A0200BFCF6A00556A0200C0CF6A002A
S214013DE00100002080B584B000AF02003960FB1DE1
S214013DF01A70FB1DFA1D127807210A401A70FB1D66
S214013E001B78DB005BB2402213435BB2DBB21800C7
S214013E100A4B98470023FB6009E0FB683A68D31811
S214013E201B781800064B9847FB680133FB60FB685C
S214013E30072BF2DDC046BD4604B080BDD53C01006F
S214013E40F93C010080B584B000AF0200FB1D1A707A
S214013E50BB1D0A1C1A700423FB60BB1D1A78FB6885
S214013E609A4204D3FB68DAB2BB1D013A1A70104BB2
S214013E701B78BA1D12789A4204D30D4B1A78BB1DD3
S214013E80013A1A70BB1D1B780A4AD25CFB1D1B78CF
S214013E90D318DBB25BB28022524213435BB2DBB271
S214013EA01800054B9847C046BD4604B080BDC046C5
S214013EB0CA060020C4060020D53C010080B500AF2C
S214013EC0084B1B7804221343DAB2064B1A70054BD3
S214013ED01B7808221343DBB21800034B9847C046F1
S214013EE0BD4680BDC9060020D53C010080B584B022
S214013EF000AF78607B6818000F4B98470300FB60A3
S214013F000023BB600BE07B685A1C7A601B781800A4
S214013F100A4B9847031E08D0BB680133BB60FB6899
S214013F205A1EFA60002BEED100E0C046BB681800AE
S214013F30BD4604B080BDC04693920200F93C010024
S214013F400FB480B584B000AFBB691800114B984719
S214013F5003000333FB60FB6818000F4B9847030010
S214013F60BB601C23FB187B607A68B969BB681800C4
S214013F700A4B9847BB681800094B9847BB6818005E
S214013F80084B9847C046BD4604B080BC08BC04B088
S214013F901847C04693920200818F02008195020065
S214013FA0ED3E0100958F020080B584B000AF7860C9
S214013FB07B68002B28D07B68FB6020E00B23FB1876
S214013FC0FA6812781A70124B984702000B23FB18F6
S214013FD01B780133D3181B781A0003231340022BD6
S214013FE004D10B23FB181B78203B02E00B23FB18A4
S214013FF01B78DAB2FB681A70FB680133FB60FB685A
S2140140001B78002BDAD100E0C046BD4604B080BD67
S214014010658F020080B584B000AF786039603B6878
S2140140201800104B98470300FB607B6818000D4B87
S21401403098470300BB60BA68FB689A4209D3FA68DE
S21401404079683B681800084B9847031E01D1012385
S21401405000E000231A1C01231340DBB21800BD4602
S21401406004B080BD93920200A192020080B500AF19
S214014070BFF34F8F024B034ADA60BFF34F8FFEE761
S21401408000ED00E00400FA0580B584B000AF020040
S214014090FB1D1A700F23FB18FA1D1278D2091A702D
S2140140A00E23FB18FA1D127852091A700D4BBB60CD
S2140140B00F23FB181B78002B0FD10F23FB181B783F
S2140140C09B0010229446BC446344083B1A680E23A6
S2140140D0FB181B78DB01D31800E000231800BD464F
S2140140E004B080BD0044004180B500AF024B984744
S2140140F0C046BD4680BDC0466D40010080B582B059
S21401410000AF0200FB1D1A70FB1D1B781800034B45
S214014110984703001800BD4602B080BD89400100E3
S21401412080B582B000AF78607B6800221A707B6829
S21401413001225A707B6800229A70C046BD4602B0C2
S21401414080BD000080B584B000AF0200FB1D1A7070
S214014150FB1D1B7818000B4B98470300FB60FB1DEB
S2140141601B781F22134001229A401300BB60FB6894
S2140141701B6ABA6813405A1E9341DBB21800BD464B
S21401418004B080BDFD40010080B584B000AF0200E0
S214014190FB1D1A70BB1D0A1C1A70FB1D1B7818002C
S2140141A00D4B98470300FB60FB1D1B781F22134035
S2140141B001229A401300BB60BB1D1B78002B03D065
S2140141C0FB68BA689A6102E0FB68BA685A61C04641
S2140141D0BD4604B080BDC046FD40010080B500AFBD
S2140141E00B4B1B7801225340DBB2002B0CD0094B42
S2140141F098470200084B1B68D21AFA239B009A4282
S21401420002D9034B01221A70C046BD4680BDC04686
S2140142106A0700203D0402001408002080B582B021
S21401422000AFFB1D01221A70234B1B78002B03D015
S214014230FB1D224A127A1A70214B1B78002B37D0AD
S214014240204B1B78012B0BD01F4B984702001F4BAE
S2140142501B68D21AFB1D1B781D494B439A4227D96E
S2140142601C4BDB78002B1AD0134B1B78002B07D086
S214014270194B1A78194B1A700F4B00221A7015E059
S214014280174B1B78002B11D0134B1A78154B1A704D
S214014290154B01221A70124B00221A7006E00E4BC3
S2140142A01A780E4B1A70044B00221A700F4B98475F
S2140142B0C046BD4602B080BDD3070020540600208C
S2140142C06A070020D90600203D040200F4070020FA
S2140142D060EA00002C0600206D0700205B07002026
S2140142E086070020210700203B070020F14201003D
S2140142F080B500AF074B5B794E2B03D1064B1B787D
S214014300002B04D0054B01221A70054B9847C04676
S214014310BD4680BD540600203B0700203C07002018
S2140143205945010080B500AF6D4B00221A706D4BE8
S21401433000221A706C4B98470022002100206B4B1C
S2140143409847FA239B001800694B9847694B00224F
S2140143501A70694B5B78002B02D0684B00221A70EA
S214014360654BDB78012B1DD1654B1B78DBB24E2BE1
S21401437004D0634B1B78DBB2522B0DD1614B1B78FB
S214014380DBB24F2B08D1604B1B7801225340DBB2C6
S214014390002B01D0012300E000231A1C0123134047
S2140143A0DBB215E0564B1B78DBB24E2B04D0544BD8
S2140143B01B78DBB2522B06D1524B1B78DBB24F2B4C
S2140143C001D1012300E000231A1C01231340DBB2B4
S2140143D0002B21D04D4B1B78002B1DD14C4B1B784D
S2140143E001225340DBB2002B16D04A4B5B79542B8B
S2140143F012D1494B9B78012B0ED9444B01221A70DE
S214014400464B01221A70464B98470200454B1A60EC
S214014410454B1A78454B1A70374BDB78002B47D043
S214014420374B1B78DBB2492B04D0354B1B78DBB2FC
S214014430522B37D1334B1B78DBB24F2B32D1324B59
S2140144401B78002B2ED03A4B5B79002B2AD0394BA8
S2140144501B780133DAB2374B1A70374B1B78002BB7
S21401446006D0364B1B7800211800354B984716E0CE
S214014470304B1B78012B0CD8294B98470200294B4F
S2140144801A602E4B1A78294B1A702E4B01221A707D
S21401449005E02A4B1B7803211800294B98471A4B35
S2140144A000221A70284B00221A70234B00221A7021
S2140144B0174B00221A70124B4E221A70114B4E22C5
S2140144C01A70224B00221A70154B98470200204B97
S2140144D01A60204B00221A70C046BD4680BDC046F9
S2140144E0D80600209407002015300100FDCC0100FD
S2140144F0D90002003C0700202C0600200F080020EF
S214014500DC070020870700203B070020D906002093
S214014510960700205406002014060020D30700202A
S2140145203D040200F40700205B0700206D07002011
S21401453054050020D4070020200700202107002072
S21401454001BB010086070020D0070020900700204D
S214014550140800206A07002080B586B000AF204B03
S21401456001221A703B1D180014231A0000211D4B4E
S21401457098471D4B5B79002B08D01C4B1B78002BF2
S21401458004D03B1D18001A4B98470FE0194B1B78B7
S214014590002B07D0184B1A793B1D11001800174B3A
S2140145A0984703E03B1D1800154B98473B1D180024
S2140145B0144B98473B1D002219000320124B9847C5
S2140145C0124B98470200124B1A60124B52221A7075
S2140145D0114B4F221A70C046BD4606B080BDC0467C
S2140145E09407002003900200540500203B0700209A
S2140145F0050B0100D906002014060020150901004C
S2140146001D0D0100512E0100FDCC01003D040200EC
S21401461018080020DC0700208707002080B500AFBF
S2140146200A4B00221A700A4B01221A70094B98474E
S214014630094B49221A70094B49221A7001214D2053
S214014640074B9847C046BD4680BDC0469007002030
S21401465096070020E92E0100DC07002087070020CE
S2140146606546010080B582B000AF0200FB1D1A70DE
S214014670BB1D0A1C1A70144B9847144B01221A7062
S214014680BB1D1B78002B16D0114B01221A70114B43
S21401469000221A700F4B1B7819000F4BFA1D127867
S2140146A05A540C4B1B7801330B4A0021D1540B4B47
S2140146B0FA1D12781A700A4BFA1D12781A70C04643
S2140146C0BD4602B080BDC0467530010065080020B9
S2140146D0D5070020C7070020440700205B070020FD
S2140146E0C507002080B500AF0D4B1B78002B0ED000
S2140146F00C4B984702000C4B1B68D31A0B4A1278D6
S214014700110064224A43934201D9012300E00023A9
S2140147101A1C01231340DBB21800BD4680BDC046FB
S214014720650800203D04020040080020D60700204E
S21401473080B500AF0B4B1B78012B06D90A4B1B78B3
S21401474000211800094B984705E0074B1B7801210B
S2140147501800064B9847064B00221A70C046BD4605
S21401476080BDC046D5070020C5070020A530010042
S2140147706508002080B582B000AF7860184B1B78C2
S21401478001225340DBB2002B25D07B681800154B65
S2140147909847031E1FD0144B1B78012B1BD9134BB4
S2140147A01B781A00104B1B78013B9A420FDA0F4B0D
S2140147B01B780133DAB20D4B1A700C4B1B781A00BA
S2140147C00B4B9B5C002118000A4B984703E0012124
S2140147D04D20084B9847C046BD4602B080BDC04636
S2140147E065080020B9360100D5070020C70700205C
S2140147F0440700206546010080B582B000AF7860AE
S2140148007B681800144B984703000E2B1FD8134BD8
S21401481000221A707B6818000F4B98470300DAB223
S2140148200F4B1A707A680F4B110018000E4B984701
S2140148300E4B984702000E4B1A60084B1B781A0065
S214014840084B9A5C0B4B1A700B4B01221A70C04630
S214014850BD4602B080BDC04693920200C707002045
S214014860D507002044070020839202003D04020081
S21401487040080020C50700206508002080B500AF6D
S214014880094B98470200094B1B68D21A084B1B8834
S214014890190064234B43190000238A425B41DBB2B3
S2140148A01800BD4680BDC0463D0402001808002021
S2140148B05C07002080B582B000AF7860164A7B683E
S2140148C011001800154B9847031E01D044231EE023
S2140148D0134A7B6811001800104B9847031E01D03D
S2140148E0522314E00F4A7B68110018000B4B9847BF
S2140148F0031E01D049230AE00B4A7B681100180009
S214014900064B9847031E01D0452300E04E231800AE
S214014910BD4602B080BDC04608A20200C392020096
S21401492018A2020028A2020038A2020080B582B0B6
S21401493000AF0200FB1D1A70344B9B78002B03D08E
S214014940334B5B794E2B01D101235BE0314B1B7856
S214014950DBB201225340DBB2002B01D0012351E030
S2140149602D4B1B7801225340DBB2002B07D02B4B7B
S2140149701B78FA1D12789A4201D1012342E0284B96
S2140149801B78DBB24E2B3CD1264B1B78DBB24E2B71
S21401499037D1254B1B78002B33D01F4B1B780122B8
S2140149A05340DBB2002B2CD0204B1B780122534006
S2140149B0DBB2002B25D0164B5B7A002B05D01C4BA7
S2140149C09847031E01D001231CE01A4B00221A70DF
S2140149D00F4B1B7A002B0CD0174B98470200174B36
S2140149E01A60174BFA1D12781A700B4B01221A70B7
S2140149F005E00A4BFA1D12781A70124B98470123EC
S214014A0000E000231800BD4602B080BD1406002059
S214014A105406002095070020D30700205B070020DE
S214014A20DC070020870700206A0700208607002091
S214014A302D710100D90600203D040200F407002074
S214014A406D070020F142010080B582B000AF020080
S214014A50FB1D1A70204B1B78DBB201225340DBB2E0
S214014A60002B06D0FB1D1B78002118001B4B984716
S214014A702EE01B4B1B78DBB24E2B29D1194B1B7832
S214014A80DBB24E2B24D1184B1B78002B20D0174BB2
S214014A901B7801225340DBB2002B19D0144B1B7834
S214014AA001225340DBB2002B12D0FB1D1B780221E2
S214014AB018000A4B98470F4B01221A700E4BFA1D2D
S214014AC012781A700D4B00221A700D4B9847C0468B
S214014AD0BD4602B080BDC0469507002001BB01005F
S214014AE0DC070020870700206A070020D307002084
S214014AF0860700203B07002021070020D40700205E
S214014B00F142010080B582B000AF0200FB1D1A70B1
S214014B10074B1B78DBB2492B06D1FB1D1B78012105
S214014B201800044B984700E0C046BD4602B080BD61
S214014B30DC0700206546010080B582B000AF0200A8
S214014B40FB1D1A700C4B1B7801225340DBB2002B65
S214014B500DD00A4B5B79412B09D1094BFA1D12780E
S214014B601A70084B002200211800074B9847C046D0
S214014B70BD4602B080BDC046960700205406002000
S214014B805B07002048A202001172010080B500AF49
S214014B90044B9847044B98470200044B1A60C046E2
S214014BA0BD4680BD753001003D0402001808002096
S214014BB080B584B000AF78600F23FB187A6812784E
S214014BC01A706A4BDB78002B10D0694B1B78002BD0
S214014BD000D1C7E00F23FB181B78412B00D0C1E0A2
S214014BE0644B01221A70644B9847BBE00F23FB18F5
S214014BF01B78312B06D1614B984700210120604B71
S214014C009847AFE00F23FB181B78322B07D15B4B7D
S214014C1098470022002101205A4B9847A2E00F2313
S214014C20FB181B78332B04D1544B9847564B9847A7
S214014C3098E00F23FB181B78342B0AD14B4B5B797A
S214014C40002B00D18EE04D4B984700204F4B9847E4
S214014C5088E00F23FB181B78352B0AD1434B1B79B1
S214014C60002B00D17EE0454B98470020484B9847E3
S214014C7078E00F23FB181B78302B14D13B4B5B7865
S214014C80002B00D16EE0434B1B78002B07D0424B24
S214014C9098473A4B98473F4B00221A7062E03D4BCB
S214014CA001221A705EE00F23FB181B78372B08D100
S214014CB02E4B9B78002B55D0304B9847374B984757
S214014CC050E00F23FB181B78442B0DD10120344BE9
S214014CD098470120334B984700210020284B9847DE
S214014CE0FF20314B98473DE00F23FB181B78432BE1
S214014CF00BD100202A4B9847012200210020214B8E
S214014D009847FF20284B98472CE00F23FB181B7869
S214014D10382B0CD1194B98470120214B984701207D
S214014D20204B984701212920204B98471AE00F2352
S214014D30FB181B78392B0CD1104B98470020184BC9
S214014D4098470120174B984701215B20174B98473E
S214014D5008E00F23FB181B782A2B03D1074B984733
S214014D60134B9847C046BD4604B080BD2C060020B4
S214014D703B07002020070020153001008D4B010065
S214014D8091B301006DB50100B1B90100399501007B
S214014D90F19301000F08002001A00100F5A0010019
S214014DA0A512010099AF0100CD730100654601000F
S214014DB0C1BA0100F0B5C64600B5D2B006AFF8607C
S214014DC00C0010001900E14B942252009446082270
S214014DD09046B844C4446344221C1A70DC4B9422A7
S214014DE05200944608229046B844C4446344021CC8
S214014DF01A70D84B94225200944608229046B84422
S214014E00C44463440A1C1A702823FF3308229446BC
S214014E10BC44634400221A70FB688C2252000821AD
S214014E208C46BC4462441360CA4B9422520094469A
S214014E3008229046B844C44463441B78002B0ED025
S214014E40C54AFB6811001800C44B984703001A00B6
S214014E5001235340DBB2002B01D002F0A5F8C04A73
S214014E60FB6811001800BD4B9847031E29D0BD4BA7
S214014E7001225A71BC4B102200211800BB4B9847E7
S214014E80A0235B0008229446BC4463441A68B64BD0
S214014E9011001800B64B98470020B64B9847B14909
S214014EA0B54B1C221800B54B9847B34B1900002090
S214014EB0B34B9847B34B98476420B34B9847B34BD3
S214014EC09847B34AFB6811001800A44B9847031E85
S214014ED047D01823FF330822BA18D418AD4B984789
S214014EE0030023702823FF3308229446BC446344FE
S214014EF001221A70964B942252009446082290463C
S214014F00B844C44463441B78002B01D102F006F870
S214014F101823FF3308229446BC4463441B78002BB5
S214014F200DD10C2308229446BC4463449A4A13CA02
S214014F3013C313CA13C313CA13C301F0EFFF0C2321
S214014F4008229446BC446344944A13CA13C313CA42
S214014F5013C303CA03C31188198092789A7001F0AB
S214014F60DDFF8F4AFB68110018007C4B9847031E33
S214014F7030D0764B94225200944608229046B8448C
S214014F80C44463441B781800864B98472823FF3394
S214014F9008229446BC44634401221A706C4B942246
S214014FA05200944608229046B844C44463441B7891
S214014FB0002B01D101F0B2FF0C2308229446BC4419
S214014FC06344794A13CA13C313CA13C312781A70F7
S214014FD001F0A4FF754AFB68110018005F4B984763
S214014FE0031E65D00020724B9847724B5B79002BED
S214014FF00DD00020704B98476E4BDB78002B03D00A
S21401500000206E4B984702E000206D4B9847694B95
S2140150105B78002B08D078206A4B984755206A4B5E
S21401502098470020694B98470020694B9847002015
S214015030684B98474320684B98473220674B984700
S2140150400220674B98470120664B98475020664BD5
S21401505098470120654B98470020654B98470120EB
S214015060644B98472823FF3308229446BC44634484
S21401507001221A70364B942252009446082290461A
S214015080B844C44463441B78002B01D101F046FFA9
S2140150900C2308229446BC446344574A13CA13C3DC
S2140150A013CA13C313CA13C312781A7001F036FF5A
S2140150B0524AFB6811001800284B9847031E38D047
S2140150C0234B94225200944608229046B844C44486
S2140150D0634401221A702823FF3308229446BC44F5
S2140150E0634401221A700C2308229446BC4463448C
S2140150F0FA22002118001D4B9847414B9B78002B44
S2140151000DD10C2308229446BC4463443D4A13CA7D
S21401511013C31168196092889A8001F0FFFE0C2370
S21401512008229446BC4463441800374B984701F064
S214015130F5FE364AFB6811001800084B9847031E17
S21401514066D0124B984701F0E9FEC046DBFEFFFF32
S214015150DAFEFFFFD9FEFFFF4CA202001540010058
S21401516054A20200F8050020040600200390020065
S214015170839202000123010084050020CD8F0200E6
S214015180E13B0200893D0200D9000200E94001002E
S2140151905CA202004530010064A2020088A202005F
S2140151A0ACA2020009110100B8A20200D4A20200BA
S2140151B0A51201002C06002065140100E10B010078
S2140151C0B1140100FD1401006515010085190100E7
S2140151D01D1A01003D13010089130100F11201009F
S2140151E0D1190100D5150100211601006D16010027
S2140151F0FD1A01004D1B0100DCA2020004A30200FF
S2140152001406002008A30200F50701001CA30200F3
S214015210EA4AFB6811001800E94B9847031E1FD0A5
S214015220E84B94225200944608229046B844C4445F
S214015230634401221A702823FF3308229446BC4493
S214015240634401221A70E04B9A68E04BE0490C2057
S2140152500824A446BC446044DE4CA04701F05EFE30
S214015260DD4AFB6811001800D54B9847031E27D06E
S2140152700120DA4B98470120D94B98472823FF3362
S21401528008229446BC44634401221A70CD4B9422F2
S2140152905200944608229046B844C44463441B789E
S2140152A0002B01D101F03AFE0C2308229446BC449F
S2140152B06344CC4A13CA13C312681A6001F02EFE67
S2140152C0C94AFB6811001800BD4B9847031E29D038
S2140152D00020C24B98470120C14B98472823FF3333
S2140152E008229446BC44634401221A70B54B9422AA
S2140152F05200944608229046B844C44463441B783E
S214015300002B01D101F00AFE0C2308229446BC446E
S2140153106344B64A13CA13C31168196012791A7125
S21401532001F0FCFDB24AFB6811001800A44B984737
S214015330031E2AD0A44B5B79002B01D101F0EEFDB0
S2140153402823FF3308229446BC44634401221A7082
S2140153500120A84B98479B4B942252009446082262
S2140153609046B844C44463441B78002B01D101F035
S214015370D5FD0C2308229446BC4463449E4A13CAB6
S21401538013C312681A6001F0C9FD9C4AFB6811003C
S21401539018008B4B9847031E2CD08B4B5B79002B48
S2140153A001D101F0BBFD2823FF3308229446BC44FB
S2140153B0634401221A7000208E4B9847814B942239
S2140153C05200944608229046B844C44463441B786D
S2140153D0002B01D101F0A2FD0C2308229446BC4407
S2140153E06344874A13CA13C31168196012791A7184
S2140153F001F094FD834AFB6811001800704B984732
S214015400031E26D00120804B98472823FF3308220D
S2140154109446BC44634401221A706A4B942252009B
S214015420944608229046B844C44463441B78002B33
S21401543001D101F073FD0C2308229446BC44634459
S214015440724A116819609188998092799A7101F06F
S21401545065FD6F4AFB6811001800594B9847031EFB
S21401546022D00020684B98472823FF330822944611
S214015470BC44634401221A70524B94225200944653
S21401548008229046B844C44463441B78002B01D1DB
S21401549001F044FD0C2308229446BC4463445D4A53
S2140154A003CA03C301F03AFD5B4AFB68110018000A
S2140154B0434B9847031E55D0FB681C1DFB6818001C
S2140154C0564B98470200FB6821001800544B98473A
S2140154D0FB681800534B9847020093235B00082192
S2140154E08C46BC4463441A7093235B00082294469E
S2140154F0BC4463441B78132B07D893235B00082214
S2140155009446BC44634414221A7093235B00082219
S2140155109446BC4463441B789BB21800424B9847A0
S2140155202823FF3308229446BC44634401221A70A0
S214015530244B94225200944608229046B844C44410
S21401554063441B78002B01D101F0E8FC0C230822F0
S2140155509446BC446344354A13CA13C312781A707E
S21401556001F0DCFC324AFB6811001800144B984726
S214015570031E63D001202F4B98472823FF330822B0
S2140155809446BC44634401221A700E4B9422520086
S214015590944608229046B844C44463441B78002BC2
S2140155A001D101F0BBFC0C2308229446BC446344A1
S2140155B0214A03CA03C301F0B1FCC04624A302007A
S2140155C015400100DAFEFFFF2C06002028A302008A
S2140155D03CA302000992020044A30200A5120100A6
S2140155E099AF01004CA302005CA3020064A3020071
S2140155F078A302006514010080A3020090A30200B4
S21401560098A30200ACA30200D5150100B4A30200C2
S214015610BCA30200C4A30200CCA302009392020022
S214015620DF8F0200E98E020021160100D4A30200DA
S214015630E4A302006D160100ECA30200DC4AFB683D
S21401564011001800DB4B9847031E24D00020DA4BCC
S21401565098472823FF3308229446BC44634401221A
S2140156601A70D64B94225200944608229046B844AB
S214015670C44463441B78002B01D101F04FFC0C237A
S21401568008229446BC446344CD4A03CA03C3127835
S2140156901A7001F043FCCB4AFB6811001800C54B99
S2140156A09847031E6CD0FB681800C74B9847030049
S2140156B0032B01D801F032FCFB68DC1CFB681800E8
S2140156C0C14B98470200FB6821001800BF4B984762
S2140156D0FB681B784C2B09D0FB681B78532B05D035
S2140156E0FB681B784F2B01D001F018FCFB68DBB27E
S2140156F01800B74B98472823FF3308229446BC442A
S214015700634401221A70AD4B94225200944608223B
S2140157109046B844C44463441B78002B01D101F081
S214015720FDFB0C2308229446BC446344A94A116835
S21401573019609188998092799A71FA680C230821E8
S2140157408C46BC44634411001800A34B98470C23B5
S21401575008229446BC44634418009B4B98470300B8
S2140157601A000C2308218C46BC4463449A189B4BB0
S2140157701000190004231A00994B984701F0CEFB3C
S214015780984AFB68110018008A4B9847031E72D08E
S214015790FB6818008C4B98470300042B01D801F0D6
S2140157A0BDFBFB681C1DFB681800874B9847020071
S2140157B0FB6821001800854B9847FB6818008A4B48
S2140157C0984702002623FF3308218C46BC446344D5
S2140157D01A702623FF3308229446BC4463441B7880
S2140157E0022B01D901F09AFB2623FF3308229446A7
S2140157F0BC4463441B78012B0BD17C4B5B78002B9C
S21401580007D12623FF3308229446BC446344002272
S2140158101A702623FF3308229446BC4463441B783F
S2140158201800734B98472823FF3308229446BC443C
S214015830634401221A70614B942252009446082256
S2140158409046B844C44463441B78002B01D101F050
S21401585065FB2623FF3308229446BC4463441A782A
S21401586064490C2308208446BC4463441800624BF8
S214015870984701F053FB614AFB68110018004D4B35
S2140158809847031E00D1BFE0FB6818004E4B9847AF
S2140158900300082B01D801F041FBFB6808331C000C
S2140158A0FB681800484B98470200FB682100180067
S2140158B0464B98474D4B5B78002B01D101F02EFBF0
S2140158C092235B0008229446BC44634400221A706B
