:1000000040290020A13C0100993D0100993D0100DB
:1000100000000000000000000000000000000000E0
:1000200000000000000000000000000045DD0000AE
:10003000000000000000000071DE0000B9DE0000DA
:10004000993D0100993D0100F9030100C1D600006E
:1000500021140100993D010059CC0000993D010097
:100060008D14010019120100311201004912010022
:100070006112010079120100911201001D040100BA
:100080003104010045040100D5040100E904010028
:10009000FD0401001105010025050100E1CA000071
:1000A000E51701001DCC0000993D0100993D0100BC
:1000B0000000000010B5064C2378002B07D1054B3B
:1000C000002B02D0044800E000BF0123237010BDC4
:1000D00000020020000000004C9D0100084B10B5FC
:1000E000002B03D00749084800E000BF0748036819
:1000F000002B00D110BD064B002BFBD09847F9E731
:1001000000000000040200204C9D01004C9D0100F5
:100110000000000090B583B000AFFC1D0A4B98476B
:1001200003002370FB1D1B78162B00D1FEE7FB1D7F
:100130001B78002B03D0054B9847034B9847C046CC
:10014000BD4603B090BDC0465D28010045290100B1
:1001500080B500AFF64B9847F64B19000020F64BE0
:100160009847F449F54B18221800F54B9847F34B84
:100170001B79552B29D0F14B00221A60EF4B5522E9
:100180001A71EE4B00225A71EC4B00229A71EB4B24
:100190000022DA71EB4B102200211800EA4B98473D
:1001A000E84BEA4A03CA03C31188198092789A700F
:1001B000E249E04B18221800E14B9847DD4B19004B
:1001C0000020E34B9847E34B9847DA4B1900012096
:1001D000D94B9847D749E04B38221800D84B98475D
:1001E000DD4B1B79552B2ED0DB4B00221A60DA4BEE
:1001F00055221A71D94B1E2200211800D24B984764
:10020000D64AD74B1000190010231A00CC4B984740
:10021000D44B142200211800CB4B9847D14AD24B23
:10022000100019000B231A00C54B9847CA49C14B4F
:1002300038221800C24B9847BE4B19000120C44B0E
:100240009847C44B9847BB4B19000220BA4B9847BC
:10025000B849C64B38221800B94B9847C34B1B7995
:10026000552B3CD0C14B00221A60C04B55221A714D
:10027000BF4B102200211800B34B9847BB4B0522FF
:10028000BC499B1810221800AD4B9847BA4B10225E
:1002900000211800AC4B9847B84AB94B1000190020
:1002A0000A231A00A64B9847B34B102200211800CE
:1002B000A54B9847B04AB34B100019000D231A0004
:1002C0009F4B9847A9499B4B382218009C4B984755
:1002D000984B190002209E4B98479E4B9847954B90
:1002E00019000820944B9847A74A924B1000190018
:1002F00008231A00924B9847A34B1B78552B1DD00F
:10030000A14B55221A70A04B0F225A709E4B00220F
:100310009A709D4B0022DA709B4B01221A71854A1C
:10032000994B1000190008231A00854B9847814B00
:1003300019000820864B9847864B9847934B190025
:100340000320934B9847934B19000420904B9847F8
:10035000914B190005208E4B9847904B19000620B1
:100360008B4B98478E4B19000720894B9847774B4A
:1003700019000920864B9847744B19000A20844BBA
:100380009847724B19000B20814B98476F4B19000F
:100390000C207F4B98476D4B19000D207C4B9847E4
:1003A0006A4B19000E207A4B9847684B19000F20B2
:1003B000774B9847654B19001020754B9847634B56
:1003C00019001120724B9847604B19001220704B96
:1003D00098475E4B190013206D4B98475B4B1900F3
:1003E00014206B4B9847594B19001520684B9847C0
:1003F000564B19001620664B9847544B190017208E
:10040000634B98474B4B190018204B4B9847654A54
:10041000484B1000190018231A00494B9847614BAC
:100420001B78552B25D05F4B55221A705D4B00224F
:100430009A705C4B00225A705B4B1422002118000A
:10044000414B9847584A414B100019000B231A00A2
:100450003B4B9847374A534B1000190018231A009A
:10046000374B9847334B19001820394B9847394B75
:100470009847304B190019202F4B98474B4A2D4B6A
:100480001000190030231A002D4B9847474B1B785A
:10049000552B3CD0454B55221A70454B1422002158
:1004A0001800294B9847424A284B100019000B238B
:1004B0001A00234B98473F4B142200211800224B6F
:1004C00098473C4A214B100019000B231A001C4B83
:1004D0009847364B00225A70344B00229A70334BA7
:1004E0000022DA70314B00221A71304B00225A710F
:1004F000104A2E4B1000190030231A00104B984759
:100500000C4B19001920124B9847124B9847094B76
:1005100019001A20084B98470649274B2C2218002F
:10052000074B9847244B1B78552B00D1A1E045E0A1
:100530001501000084050020752A0100F80500203F
:10054000A17C010000060020D77C0100D8880100B2
:1005500069290100112B01001C0500202105002044
:10056000E48801003F050020F4880100C005002058
:10057000C505002000890100E5050020D505002003
:10058000108901001C890100100600202C8901003F
:100590002D070000388901004489010050890100BD
:1005A0005C89010044060020480600205405002014
:1005B0005C050020700500205C060020514B552290
:1005C0001A70504B00225A704E4B32225A804D4BBB
:1005D0004F221A714B4B54225A714A4B0222DA8035
:1005E000484B00221A72474B00225A72454B002298
:1005F0009A72444B0022DA72424B00221A73414B2A
:1006000000225A733F4B00229A733E4B0022DA734A
:100610003C4B00221A613B4B00225A61394B0022AD
:100620009A61384B55221A77364B78225A77354BD8
:1006300000229A77334B0022DA77324B20220121B5
:100640009954304B50225A842E4B24220121995424
:100650002C4B2522012199542A492B4B2C2218007E
:100660002A4B9847284B19001A20294B9847294BA9
:100670009847254B19001B20274B9847274A224BA8
:10068000100019001C231A00204B9847234B1B789D
:10069000552B34D0214B55221A70204B01229A70D1
:1006A0001E4B01225A701D4B00229A711B4B0022D7
:1006B0005A711A4B00221A71184B0022DA70174B2C
:1006C0000022DA71164B142200211800154B9847AE
:1006D000134A154B100019000B231A000B4B9847B7
:1006E000094A0E4B100019001C231A00074B9847AB
:1006F000054B19001B20064B9847064B9847C046F0
:10070000BD4680BD5C06002084050020A17C010060
:1007100069290100112B0100752A0100280600201B
:1007200030060020D77C0100D888010080B588B051
:1007300000AF02003960FB1D1A70284B3C220021DB
:100740001800274B9847254AFB1D1B7811001800FD
:10075000244B98470823FA18204B1000190018233F
:100760001A00214B98470823FB181B78552B31D0D2
:100770000823FB1855221A700823FB1800225A7010
:100780000823FB1800229A700823FB180022DA7055
:100790000823FB180433142200211800104B98473B
:1007A0003A680823FB180433110018000F4B9847D0
:1007B0000A4A0823FB181000190018231A000A4BD4
:1007C0009847064AFB1D1B7811001800084B9847F4
:1007D000084B9847C046BD4608B080BD8405002040
:1007E000D77C0100752A0100A17C0100577F010020
:1007F00069290100112B010080B58AB000AF786033
:100800007B6800221A702723FB1800221A7063E00D
:10081000374B3C2200211800364B98472723FB1802
:100820001B780933DBB2324A11001800324B98476B
:100830000C23FA182E4B1000190018231A002F4B06
:1008400098472F4BDB782722BA1812789A420FD19B
:100850007B6818002B4B984703001A007B689A1896
:10086000294B1000190003231A00244B984715E068
:10087000234B1B792722BA1812789A420ED17B6833
:100880001800204B984703001A007B689A181F4BEA
:100890001000190003231A00184B98470C23FB186B
:1008A0001A1D7B6811001800194B98477B681800C7
:1008B000144B984703001A007B689A18154B1000D8
:1008C000190002231A000D4B98472723FB181A78AA
:1008D0002723FB1801321A70094B9B782722BA187C
:1008E00012789A4294D3C046BD460AB080BDC04635
:1008F00084050020D77C0100752A0100A17C01003D
:1009000010060020677F0100688901006C890100E2
:10091000217F01007089010080B588B000AF786048
:100920000A00FB1C1A707B6800221A70154B9B781A
:10093000FA1C12789A421FD2134B3C220021180055
:10094000124B9847FB1C1B780933DBB20E4A11008F
:1009500018000F4B98470823FA180B4B100019008A
:1009600018231A000B4B98470823FB181A1D7B68A5
:1009700011001800084B98477B681800BD4608B066
:1009800080BDC0461006002084050020D77C0100F1
:10099000752A0100A17C0100217F010080B588B08B
:1009A00000AF7860144B9B78002B20D00C23FB18F1
:1009B000180014231A000021104B98470E4BDA78C8
:1009C0000C23FB18110018000D4B98470C23FA1844
:1009D0007B68110018000B4B9847031E01D00123C0
:1009E00006E07B681800084B9847030000E00023EE
:1009F0001800BD4608B080BD10060020D77C01005D
:100A000019090000977F01000D0A000080B582B02F
:100A100000AF78600B4B9B78002B0DD00A4B9B7876
:100A2000002B09D0094A7B6811001800084B984731
:100A3000031E01D0012300E000231800BD4602B0D0
:100A400080BDC04610060020440600204806002055
:100A5000977F010080B582B000AF7860094B5B786A
:100A6000002B09D0084A7B6811001800074B9847F3
:100A7000031E01D0012300E000231800BD4602B090
:100A800080BDC046540500205C050020977F010012
:100A900080B582B000AF7860094BDB78002B09D0BD
:100AA000084A7B6811001800074B9847031E01D0C5
:100AB000012300E000231800BD4602B080BDC046FF
:100AC0005405002070050020977F010080B582B09A
:100AD00000AF7860094B5B78002B06D0084A7B6832
:100AE00011001800074B984702E07B6800221A703B
:100AF0007B681800BD4602B080BDC046540500208A
:100B00005C050020577F010080B582B000AF78609F
:100B1000094BDB78002B06D0084A7B6811001800CF
:100B2000074B984702E07B6800221A707B68180028
:100B3000BD4602B080BDC0465405002070050020AF
:100B4000577F010080B582B000AF0200FB1D1A7014
:100B5000FB1D1A780A4B9A700A4A094B10001900BB
:100B600030231A00084B9847064B19001920074BF1
:100B70009847074B9847C046BD4602B080BDC04667
:100B80005405002084050020A17C01006929010092
:100B9000112B010080B582B000AF0200FB1D1A705E
:100BA000FB1D1A780A4B1A710A4A094B10001900EA
:100BB00030231A00084B9847064B19001920074BA1
:100BC0009847074B9847C046BD4602B080BDC04617
:100BD0005405002084050020A17C01006929010042
:100BE000112B010080B582B000AF0200FB1D1A700E
:100BF000FB1D1A780F4B5A71FB1D1B7801225340C5
:100C0000DBB2002B02D00B4B00221A710A4A094BAF
:100C10001000190030231A00084B9847064B1900A2
:100C20001920074B9847074B9847C046BD4602B06E
:100C300080BDC0465405002084050020A17C010031
:100C400069290100112B010080B582B000AF7860E6
:100C50000F4B01225A707A680E4B110018000E4B90
:100C600098470E4A0A4B1000190030231A000C4B0B
:100C700098470A4B190019200A4B98470A4B984786
:100C800000200A4B9847C046BD4602B080BDC04612
:100C9000540500205C050020577F010084050020DA
:100CA000A17C010069290100112B0100450B000006
:100CB00080B582B000AF7860104B0122DA707A689C
:100CC0000F4B110018000F4B98470F4A0B4B1000A9
:100CD000190030231A000D4B98470B4B19001920AF
:100CE0000B4B98470B4B984700200B4B9847002025
:100CF0000A4B9847C046BD4602B080BD540500204F
:100D000070050020577F010084050020A17C0100B0
:100D100069290100112B0100950B0000E50B000073
:100D200080B58EB000AF7860284B9B78002B2BD01D
:100D3000274B5B78002B06D0264A7B6811001800F1
:100D4000254B98473CE0254B3C2200211800244BC2
:100D500098471E4BDB780933DBB2204A110018009C
:100D6000204B98472023FA181C4B10001900182319
:100D70001A001D4B98472023FB181A1D7B68110091
:100D80001800154B98471BE0144B3C22002118001B
:100D9000134B9847114B19000320124B9847082317
:100DA000FA180E4B1000190018231A000E4B984722
:100DB0000823FB181A1D7B6811001800064B984782
:100DC0007B681800BD460EB080BDC04610060020EE
:100DD0004406002048060020577F010084050020BB
:100DE000D77C0100752A0100A17C010080B58AB082
:100DF00000AF7860334B9B78002B39D02723FB184A
:100E000000221A702DE0304B3C22002118002F4B9D
:100E100098472723FB181B780933DBB22A4A1100B5
:100E200018002B4B98470C23FA18274B1000190079
:100E300018231A00274B98470C23FB181A1D7B68B0
:100E400011001800244B9847031E03D02723FB18DA
:100E50001B7832E02723FB181A782723FB1801326E
:100E60001A70184B9B782722BA1812789A42CAD364
:100E70007B681800194B9847031E01D0FD231CE026
:100E8000174B9B78002B07D07B681800154B9847B1
:100E9000031E01D0FE2310E0134BDB78002B0BD098
:100EA0000F4B1B79002B07D07B6818000F4B98471E
:100EB000031E01D0FE2300E0FF231800BD460AB048
:100EC00080BDC0461006002084050020D77C0100AC
:100ED000752A0100A17C0100977F01000D0A000026
:100EE00054050020550A000028060020910A000041
:100EF00080B588B000AF7860334B9A78324B5B781E
:100F00009A4201D100235AE07B6818002F4B984782
:100F10000300F02B52D92E4B3C22002118002D4B00
:100F20009847294B9B780933DBB2294A11001800F6
:100F3000294B98470823FA18254B1000190018234D
:100F40001A00264B98470823FB180433142200216B
:100F50001800204B98477A680823FB1804331100C7
:100F600018001F4B98471A4A0823FB181000190055
:100F700018231A00194B9847134B9B780933DBB29F
:100F8000134A11001800174B9847174B98470E4B00
:100F90009B780133DAB20C4B9A700D4A0A4B100061
:100FA000190008231A000D4B9847094B1900082017
:100FB0000C4B98470C4B9847012300E00023180086
:100FC000BD4608B080BDC04610060020ED0D0000F3
:100FD00084050020D77C0100752A0100A17C010056
:100FE000577F010069290100112B010090B585B0E0
:100FF00000AF78603D4B9B78012B01D8002371E056
:101000000E23FC187B681800394B984703002370A7
:10101000364B5B780E22BA1812789A4261D2334B63
:10102000DB780E22BA1812789A425AD00F23FB1896
:101030000E22BA1812781A7022E02E4B3C220021A0
:1010400018002D4B98470F23FB181B780A33DBB28F
:10105000284A11001800294B98470F23FB181B78CA
:101060000933DBB2234A11001800254B9847254B62
:1010700098470F23FB181A780F23FB1801321A70B8
:101080000F23FB181A78194B9B78013B9A42D4DB4B
:10109000164B9B78013BDAB2144B9A70134B1B79B9
:1010A0000E22BA1812789A4207D00E23FB181A782B
:1010B0000E4B9B78013B9A4202DD0C4B01221A71C8
:1010C0000C4A0A4B1000190008231A000E4B9847CF
:1010D000084B190008200A4B98470A4B98470123F0
:1010E00000E000231800BD4605B090BD10060020AA
:1010F000ED0D000084050020D77C0100752A010059
:1011000069290100112B0100A17C010080B582B08A
:1011100000AF0200FB1D1A70FB1D1B78002B03D0D3
:10112000284B00229A7018E0274B3C22002118001F
:10113000264B9847234BDB780933DBB2224A110058
:101140001800234B9847204B19000920214B984742
:10115000214B98471B4B01229A701A4B0022DA70E0
:10116000184B01221A71184A164B10001900082357
:101170001A001A4B9847134B0022DA70114B0122C8
:101180001A71114B19000820124B9847124B9847BF
:101190000020134B9847134B00229A700A4A114BB8
:1011A0001000190018231A000C4B9847064B190021
:1011B0001820084B9847084B9847C046BD4602B0D8
:1011C00080BDC0461006002084050020D77C0100A9
:1011D000752A010069290100112B0100A17C010081
:1011E000E91100004406002080B582B000AF020083
:1011F000FB1D1A70FB1D1A780A4B5A700A4A094BDC
:101200001000190018231A00084B9847064B1900C4
:101210001820074B9847074B9847C046BD4602B079
:1012200080BDC0464406002084050020A17C01004A
:1012300069290100112B010080B582B000AF7860F0
:10124000114B9B78002B19D0104B01229A707A68B1
:101250000F4B110018000F4B98470F4A0B4B100013
:10126000190018231A000D4B98470B4B1900182032
:101270000B4B98470B4B9847012300E000231800C5
:10128000BD4602B080BDC0461006002044060020C6
:1012900048060020577F010084050020A17C010042
:1012A00069290100112B010080B582B000AF020056
:1012B000FB1D1A70FB1D1A78094B5A700849094B1F
:1012C0002C221800084B9847064B19001A20074B90
:1012D0009847074B9847C046BD4602B080BDC04600
:1012E0005C06002084050020A17C01006929010022
:1012F000112B010080B582B000AF0200BB1D1A8027
:101300000A4BBA1D12885A800849094B2C22180032
:10131000084B9847064B19001A20074B9847074B74
:101320009847C046BD4602B080BDC0465C0600205E
:1013300084050020A17C010069290100112B010016
:1013400080B582B000AF0200FB1D1A700A4BFA1D77
:1013500012781A710849094B2C221800084B98473B
:10136000064B19001A20074B9847074B9847C04671
:10137000BD4602B080BDC0465C060020840500204A
:10138000A17C010069290100112B010080B582B008
:1013900000AF0200FB1D1A700A4BFA1D12785A7139
:1013A0000849094B2C221800084B9847064B190096
:1013B0001A20074B9847074B9847C046BD4602B0D6
:1013C00080BDC0465C06002084050020A17C010091
:1013D00069290100112B0100B0B582B000AF0500F2
:1013E0000C0010001900FB1D2A1C1A70BB1D221CCA
:1013F0001A707B1D021C1A703B1D0A1C1A70FB1D03
:101400001A78144B5A72134B5B7A002B10D0114B85
:10141000BA1D12789A720F4B7A1D1278DA720D4B40
:101420003A1D12781A730B4B1822BA1812785A7395
:101430000849094B2C221800084B9847064B190005
:101440001A20074B9847074B9847C046BD4602B045
:10145000B0BDC0465C06002084050020A17C0100D0
:1014600069290100112B010080B582B000AF020094
:10147000FB1D1A70FB1D1A78094BDA770849094BD6
:101480002C221800084B9847064B19001A20074BCE
:101490009847074B9847C046BD4602B080BDC0463E
:1014A0005C06002084050020A17C01006929010060
:1014B000112B010080B582B000AF0200FB1D1A7035
:1014C000FB1D1A78094B9A770849094B2C22180002
:1014D000084B9847064B19001A20074B9847074BB3
:1014E0009847C046BD4602B080BDC0465C0600209D
:1014F00084050020A17C010069290100112B010055
:1015000080B582B000AF0200FB1D1A70FB1D1B7876
:10151000642B18D90E4BFA1D12785A770C490D4BD3
:101520002C2218000C4B98470A4B19001A200B4B21
:1015300098470B4B9847064BDB7B002B01D0094BA0
:101540009847012300E000231800BD4602B080BD8B
:101550005C06002084050020A17C010069290100AF
:10156000112B01000917000080B582B000AF020006
:10157000FB1D1A70FB1D1B78002B1CD0FB1D1B785C
:10158000632B18D80E4BFA1D12781A770C490D4BA5
:101590002C2218000C4B98470A4B19001A200B4BB1
:1015A00098470B4B9847064BDB7B002B01D0094B30
:1015B0009847012300E000231800BD4602B080BD1B
:1015C0005C06002084050020A17C0100692901003F
:1015D000112B01000917000080B582B000AF020096
:1015E000FB1D1A70FB1D1978094B202299540849DC
:1015F000084B2C221800084B9847064B19001A205C
:10160000064B9847064B9847C046BD4602B080BD82
:101610005C06002084050020A17C010069290100EE
:10162000112B010080B582B000AF0200BB1D1A80F3
:101630000A4BBA1D12885A840849094B2C221800FB
:10164000084B9847064B19001A20074B9847074B41
:101650009847C046BD4602B080BDC0465C0600202B
:1016600084050020A17C010069290100112B0100E3
:1016700080B582B000AF0200FB1D1A70FB1D197807
:10168000094B242299540849084B2C221800084B76
:101690009847064B19001A20064B9847064B984767
:1016A000C046BD4602B080BD5C0600208405002017
:1016B000A17C010069290100112B010080B582B0D5
:1016C00000AF0200FB1D1A700A4BFA1D252112788B
:1016D0005A540849084B2C221800084B9847064BCF
:1016E00019001A20064B9847064B9847C046BD463E
:1016F00002B080BD5C06002084050020A17C0100B2
:1017000069290100112B010090B583B000AF2B4B6C
:101710001A692B4B10009847041C284B1A7F284B42
:1017200010009847021C274B111C201C9847031CD3
:101730001A1C254B101C9847244C0022244BA04710
:1017400003000C0019002200BC1D224B08001100F0
:10175000984703002380BB1D1B8818001E4B984729
:10176000164B1A69164B10009847041C134B5A7FEE
:10177000134B10009847021C124B111C201C984759
:10178000031C1A1C104B101C9847104C0022104BC5
:10179000A04703000C0019002200BC1D0D4B0800DF
:1017A0001100984703002380BB1D1B8818000B4BBA
:1017B0009847C046BD4603B090BDC0465C060020B9
:1017C000E95E0100A95C0100C57A01009565010090
:1017D000000059405D580100E11700002518000085
:1017E00080B582B000AF7860094B7A689A61084989
:1017F000084B2C221800084B9847064B19001A205A
:10180000064B9847064B9847C046BD4602B080BD80
:101810005C06002084050020A17C010069290100EC
:10182000112B010080B582B000AF7860094B7A6857
:101830005A610849084B2C221800084B9847064B60
:1018400019001A20064B9847064B9847C046BD46DC
:1018500002B080BD5C06002084050020A17C010050
:1018600069290100112B010080B582B000AF7860BA
:10187000094B7A681A610849084B2C221800084B5A
:101880009847064B19001A20064B9847064B984775
:10189000C046BD4602B080BD5C0600208405002025
:1018A000A17C010069290100112B010080B582B0E3
:1018B00000AF0200FB1D1A70FB1D1A78094BDA738A
:1018C0000849094B2C221800084B9847064B190071
:1018D0001A20074B9847074B9847C046BD4602B0B1
:1018E00080BDC0465C06002084050020A17C01006C
:1018F00069290100112B010080B582B000AF020000
:10190000BB1D1A800A4BBA1D1288DA800849094BA0
:101910002C221800084B9847064B19001A20074B39
:101920009847074B9847C046BD4602B080BDC046A9
:101930005C06002084050020A17C010069290100CB
:10194000112B010080B582B000AF0200FB1D1A70A0
:101950000A4BFA1D12781A720849094B2C221800FA
:10196000084B9847064B19001A20074B9847074B1E
:101970009847C046BD4602B080BDC0465C06002008
:1019800084050020A17C010069290100112B0100C0
:1019900080B58AB000AF78602723FB1800221A7048
:1019A0002BE01B4B3C22002118001A4B98472723A1
:1019B000FB181B780333DBB2154A11001800164BD5
:1019C00098470C23FA18124B1000190018231A001C
:1019D000124B98470C23FB181A1D7B681100180046
:1019E0000F4B9847031E01D001230CE02723FB185F
:1019F0001A782723FB1801321A702723FB181B784B
:101A0000042BCED900231800BD460AB080BDC046C5
:101A100084050020D77C0100752A0100A17C01000B
:101A2000977F010080B582B000AF0200FB1D1A70E5
:101A30000B4BFA1D1278DA700A4A094B1000190094
:101A400008231A00084B9847064B19000820074B3B
:101A50009847074B9847C046BD4602B080BDC04678
:101A60001006002084050020A17C010069290100E6
:101A7000112B010080B582B000AF0200FB1D1A706F
:101A80000B4BFA1D12781A710A4A094B1000190003
:101A900008231A00084B9847064B19000820074BEB
:101AA0009847074B9847C046BD4602B080BDC04628
:101AB0001006002084050020A17C01006929010096
:101AC000112B010090B585B000AF78600E23FC1893
:101AD0007B681800214B9847030023700F23FB18E5
:101AE000FF221A701E4B5B780E22BA1812789A42A7
:101AF00009D30F23FB181A4A92781A707B681800D2
:101B0000184B98470CE0164B5B780E22BA181278E7
:101B10009A4205D20F23FB180E22BA1812781A70B7
:101B20000F4B5B780F22BA1812789A4210D20C4BE6
:101B30009B78012B04D90A4BDB7818000A4B984795
:101B40000F23FB181B781800084B9847012300E06F
:101B500000231800BD4605B090BDC046ED0D000045
:101B600010060020F10E0000751A0000251A000072
:101B700090B585B000AF7860214B9B78012B01D8E0
:101B8000002339E00E23FC187B6818001D4B984792
:101B9000030023700F23FB18FF221A70184B5B7889
:101BA0000E22BA1812789A4209D30F23FB18144A4E
:101BB00092781A707B681800134B98470CE0104B12
:101BC0005B780E22BA1812789A4205D20F23FB18BE
:101BD0000E22BA1812781A70094B5B780F22BA18C5
:101BE00012789A4207D20F23FB181B781800074B74
:101BF0009847012300E000231800BD4605B090BDC2
:101C000010060020ED0D0000F10E0000751A000016
:101C100080B582B000AF0200FB1D1A70064BFA1DA2
:101C2000127811001F220A40012191400A001A6017
:101C3000C046BD4602B080BD00E100E080B582B084
:101C400000AF0200FB1D1A70074AFB1D1B7819002C
:101C50001F230B40012199400B0019008023D15014
:101C6000C046BD4602B080BD00E100E080B584B052
:101C700000AF0200FB1D1A700F23FB18FA1D12782B
:101C8000D2091A700E23FB18FA1D127852091A7025
:101C90000D4BBB600F23FB181B78002B0FD10F23BC
:101CA000FB181B789B0010229446BC446344083BFD
:101CB0001A680E23FB181B78DB01D31800E0002301
:101CC0001800BD4604B080BD0044004180B582B01C
:101CD00000AF0200FB1D1A70FB1D1B781800034BA0
:101CE000984703001800BD4602B080BD6D1C00007F
:101CF00080B582B000AF78607B6800221A707B6884
:101D000001225A707B6800229A70C046BD4602B01C
:101D100080BD000080B584B000AF0200FB1D1A70CA
:101D2000FB1D1B7818000B4B98470300FB60FB1D45
:101D30001B781F22134001229A401300BB60FB68EE
:101D40001B6ABA6813405A1E9341DBB21800BD46A5
:101D500004B080BDCD1C000080B584B000AF02008F
:101D6000FB1D1A70BB1D0A1C1A70FB1D1B78180086
:101D70000D4B98470300FB60FB1D1B781F2213408F
:101D800001229A401300BB60BB1D1B78002B03D0BF
:101D9000FB68BA689A6102E0FB68BA685A61C0469B
:101DA000BD4604B080BDC046CD1C000080B584B0E7
:101DB00000AF78607B681B68FB60FB68DB695A1EBC
:101DC0009341DBB21800BD4604B080BD80B582B03F
:101DD00000AF7860C0467B681800044B9847031E2C
:101DE000F9D1C046BD4602B080BDC046AD1D000061
:101DF00080B582B000AF78607B688022D2051A601F
:101E00007B6800225A607B68FF221A817B6800226F
:101E10009A727B680022DA727B68962292011A62BB
:101E20007B682422012199547B6825220121995441
:101E30007B682622002199547B682722002199542F
:101E40007B6800229A627B6888225203DA607B6892
:101E50002C22002199547B682D22002199547B6803
:101E600000221A637B6800225A637B6800229A630F
:101E70007B680022DA637B6800225A617B6800225B
:101E80001A827B680022DA767B6800221A767B68E9
:101E900000221A777B6800225A767B6813229A7692
:101EA0007B6800225A77C046BD4602B080BD000064
:101EB00080B584B000AF78607B681B68FB607B688E
:101EC0001B681800094B984703001800084B9847F7
:101ED0007B681800074B9847FB681B6802221A436F
:101EE000FB681A60C046BD4604B080BDD511010034
:101EF000111C0000CD1D000080B584B000AF7860DB
:101F00007B681B68FB607B681B6818000A4B98475E
:101F100003001800094B98477B681800084B984746
:101F2000FB681B68022293431A00FB681A60C046D4
:101F3000BD4604B080BDC046D51101003D1C000067
:101F4000CD1D000080B584B000AF78607B681B6851
:101F5000FB607B681800064B98477B681800054BB0
:101F60009847FB6801221A60C046BD4604B080BD98
:101F7000F91E0000CD1D000080B582B000AF786072
:101F8000C046BD4602B080BD80B582B000AF094BEF
:101F90001B68F91C00221800074B984703007B6060
:101FA0007B68002B00D0F2E7C046C046BD4602B0B9
:101FB00080BDC0462002002071E5000090B585B0CC
:101FC00000AF0200FB1D1A70184BFB60FB681B7E04
:101FD000DBB21A000423134023D0FB685B8B9BB257
:101FE000DAB20B23FB1806210A401A700B23FB18E8
:101FF0001B78002B06D00B23FB181B789AB2FB68CA
:102000005A830EE0FB681B8D9BB2DAB20A23FB18E1
:102010001A70074B18680A23F91800230022054C90
:10202000A047C046BD4605B090BDC0460014004262
:102030002002002051E4000080B500AF3120044BA5
:10204000984703001A00034B1A70C046BD4680BD76
:10205000151D00001C02002090B597B002AF4C2364
:10206000FB1818004D4B98474C23FB1801221A709F
:102070004C23FB1819001420494B984700211420C9
:10208000484B98474023FB181800474B984740237C
:10209000FB1831221A604023FB1800225A604023AB
:1020A000FB1801221A724023FB180322DA72402324
:1020B000FB18190001203D4B9847002101203C4BA3
:1020C00098473C4B0022012118003B4B98470022C7
:1020D0000121F020394B98470200394B1A603949E9
:1020E00039483A4B009300230022394CA0470200A4
:1020F000384B1A60032200210120304B9847020020
:10210000354B1A60344B1B68002B06D0324B1868D5
:10211000002300220021314CA0473B001800304B27
:1021200098473B00E12252021A623B008022520390
:10213000DA603B002B4A1A633B002B4A5A633B0090
:10214000012252429A633B0001225242DA633B0071
:102150002C220121995403E0244B1800244B98476A
:102160003A002449214B1800234B9847031EF3D112
:102170001E4B1800214B98471E4B1800204B9847C8
:1021800003001A001F4B190010001F4B9847194BF2
:1021900004229A75C046BD4615B090BDF11C0000E2
:1021A000E91E0100591D00003DD0000071D0000063
:1021B000D91301003920000075130100B5E10000BA
:1021C000200200208813000074890100791F00009C
:1021D00081FD0000240200202802002071E200009E
:1021E000F11D0000020016000200170090060020FA
:1021F000451F000000140042CD090100B11E00007F
:1022000051DC0000BD1F00006911010090B58BB0CA
:1022100002AFF860B9607A601A00FB1C1A70644B58
:102220001B6801211800634B9847031E01D102234C
:10223000BAE0614B98471F23FB1800221A701E2337
:10224000FB1800221A701323FB1800221A700121B8
:10225000F0205A4B98470300BB61BB69002B01D1AA
:102260000023A1E0BB69F02200211800544B9847DD
:10227000FB681800534B984703009AB2F968524B19
:102280001800524B9847524B18687A6801235B42FA
:102290000093002304214F4CA0474D4B1B681800AE
:1022A0004D4B9847031E3ED01E23FB181B78EF2B87
:1022B0001CD84A4B1B681322B91800221800484B3F
:1022C000984703007B617B69002B0FD01E23FB180E
:1022D0001B78BA69D3181322BA1812781A701E2301
:1022E000FB181A781E23FB1801321A70BB68002BEA
:1022F0000CD0BA68BB69110018003A4B9847031E0E
:1023000004D01F23FB1800221A7024E0364ABB6950
:1023100011001800334B9847031EBED01F23FB1833
:102320000B221A7017E02A4B186801235B420093B6
:10233000002300220321274CA0471E23FB181B78F3
:10234000002B04D11F23FB1807221A7003E01F2360
:10235000FB1808221A70FB1C1B78002B16D03B6B55
:10236000002B13D0FA1C1E23FB1812781B789A42FC
:102370000CD91F23FB181B78002B07D11E23FB1839
:102380001A78B9693B6B1800184B9847084B1868C6
:10239000002300220021164CA047BB691800154BF2
:1023A00098471F23FB181B781800BD4609B090BD45
:1023B0002802002011E70000891F0000C97B0100EE
:1023C000D77C0100677F010090060020A50C01006A
:1023D0002402002025FE0000A103010020020020AD
:1023E00071E50000977F010080890100A17C010058
:1023F00071E20000697C010090B583B002AF064A2B
:1024000006490748002300930023064CA047030019
:102410001800BD4601B090BD8813000088890100F6
:102420008C8901000D220000B0B584B002AFFC1D04
:10243000124A13491348002300930023124DA84762
:1024400003002370FB1D1B78002B01D1092311E031
:10245000BC1D0A4A0D490B480023009300230A4D76
:10246000A84703002370BB1D1B78002B01D1092353
:1024700000E00A231800BD4602B0B0BD881300007A
:102480009C890100A88901000D220000B489010087
:1024900090B589B002AF3B1D180014231A0000212B
:1024A0000A4B9847E1235A0209493B1D1800094B82
:1024B0009847094A0949381D002300930023084C16
:1024C000A04703001800BD4607B090BDD77C0100AF
:1024D000C0890100DD7E01008813000088890100A9
:1024E0000D22000090B583B002AF064A06490748A6
:1024F000002300930023064CA04703001800BD46AC
:1025000001B090BD88130000308A0100408A0100AC
:102510000D22000090B583B002AF064A0649074875
:10252000002300930023064CA04703001800BD467B
:1025300001B090BDA8610000888901004C8A0100AB
:102540000D22000090B583B002AF064A0649074845
:10255000002300930023064CA04703001800BD464B
:1025600001B090BD8813000088890100608A0100D5
:102570000D22000090B583B002AF064A0649074815
:10258000002300930023064CA04703001800BD461B
:1025900001B090BD983A000088890100688A010066
:1025A0000D22000090B583B002AF064A06490748E5
:1025B000002300930023064CA04703001800BD46EB
:1025C00001B090BD8813000088890100748A010061
:1025D0000D22000090B583B002AF064A06490748B5
:1025E000002300930023064CA04703001800BD46BB
:1025F00001B090BD8813000088890100A88A0100FD
:102600000D22000090B583B002AF064A0649074884
:10261000002300930023064CA04703001800BD468A
:1026200001B090BD983A000088890100B48A010089
:102630000D22000090B583B002AF064A0649074854
:10264000002300930023064CA04703001800BD465A
:1026500001B090BD8813000088890100BC8A010088
:102660000D22000090B583B002AF064A0649074824
:10267000002300930023064CA04703001800BD462A
:1026800001B090BD8813000088890100C48A010050
:102690000D22000090B583B002AF064A06490748F4
:1026A000002300930023064CA04703001800BD46FA
:1026B00001B090BD581B000088890100D08A01003C
:1026C0000D220000B0B588B002AF1623FB186422BB
:1026D0001A701623FB181B7801211800604B9847CD
:1026E00003003B613B69002B05D13B6918005D4B42
:1026F00098470023AFE01623FB181A783B690021A6
:102700001800594B98470F23FC181623FB181A780A
:10271000564D574957483B69009313002A00564DC0
:10272000A847030023700F23FB181B78002B00D051
:1027300086E0524A3B6911001800514B9847031E2E
:1027400000D078E04F4A3B69110018004E4B984783
:102750000300BB604B4B190000204B4B9847030014
:10276000BB604A4ABB6811001800474B98470300FA
:10277000BB60BB681800464B9847BB681800454BC8
:1027800098470200FB1D1A70FB1D1B78002B07D019
:10279000FB1D1B78012B03D0FB1D1B78632B04D181
:1027A0001723FB1800221A704EE0FB1D1B78012B2B
:1027B00008D9FB1D1B78072B04D81723FB1801220F
:1027C0001A7041E0FB1D1B78072B08D9FB1D1B78F5
:1027D0000D2B04D81723FB1802221A7034E0FB1DBE
:1027E0001B780D2B08D9FB1D1B78132B04D817233E
:1027F000FB1803221A7027E0FB1D1B78132B08D946
:10280000FB1D1B78192B04D81723FB1804221A7000
:102810001AE0FB1D1B78192B08D9FB1D1B781F2BF9
:1028200004D81723FB1805221A700DE01723FB1894
:1028300000221A7008E01723FB1800221A7003E028
:102840001723FB1800221A703B691800054B9847A4
:102850001723FB181B781800BD4606B0B0BDC04654
:10286000C97B0100697C0100D77C0100881300004E
:1028700088890100FC8A01000D220000048B010000
:10288000977F0100A08A0100C97F0100A48A01008E
:1028900099280000BD7B010080B584B000AF78604E
:1028A0007B68FB607B68BB600CE0BB685A1CBA604D
:1028B0001A78FB681A70FB681B78202B02D0FB6823
:1028C0000133FB60BB681B78002BEED1FB68002254
:1028D0001A70C046BD4604B080BD000090B583B0FC
:1028E00002AF064A06490748002300930023064C1E
:1028F000A04703001800BD4601B090BD881300003A
:1029000088890100088B01000D220000B0B588B055
:1029100002AF786039603B6818003B4B9847030072
:10292000FA2B01D903236BE07B681800364B9847DC
:102930000300052B01D8042362E01723FB18FA22B9
:102940001A701723FB181B78012118002F4B98478A
:1029500003003B613B69002B01D1002350E01723AA
:10296000FB181A783B6900211800294B9847172358
:10297000FB1819787B68274A3869274CA047274AF3
:1029800027493869002300930023264CA047031EE3
:1029900031D1FA235B001800234B98471723FB180B
:1029A0001A783B6900211800194B98471723FB1828
:1029B00019783B681D4A3869174CA0470F23FC184B
:1029C000164A1B493869002300930023154DA84778
:1029D000030023700F23FB181B78002B05D13B69E4
:1029E0001800144B984700230AE03B691800114B6C
:1029F0009847062304E03B6918000E4B98470623CE
:102A00001800BD4606B0B0BD677F0100C97B01005C
:102A1000D77C0100308B0100797E010060EA000064
:102A2000408B01000D22000019F00000448B0100D2
:102A300088890100697C010090B58FB002AFB96050
:102A400011007B600F23FB18021C1A700E23FB1869
:102A50000A1C1A702F23FB18E6221A702F23FB186A
:102A60001B78012118006E4B98470300BB62BB6ABC
:102A7000002B05D1BB6A18006A4B98470023CAE0B7
:102A80002F23FB181A78BB6A00211800664B984761
:102A90001023FB1818000A231A000021624B9847E4
:102AA0002F23FB1819780F23FB181B785F4A10207F
:102AB00038185F4CA0472F23FB181A785D4C5E49ED
:102AC0001023F818BB6A0093130022005B4CA04748
:102AD000031E00D094E05A4ABB6A11001800594BFB
:102AE000984703007B627B6A002B00D182E0BB6ABF
:102AF0002C211800544B984703003B623B6A023379
:102B0000FB61FB69222118004F4B984703003B6291
:102B10003B6A002B2AD03B6A00221A70FB6918001E
:102B20004A4B984702001B23FB181A701B23FA1804
:102B30000E23FB1812781B789A4206D2FA69BB68FA
:102B400011001800424B984710E00E23FB181B7829
:102B5000013B1A00F969BB6818003E4B98470E23E9
:102B6000FB181B78BA68D31800221A703B6A01332D
:102B70000A211800344B984703003B623B6A002B44
:102B800044D03B6A01333B623B6A0D2118002E4B57
:102B900098470300FB61FB69002B02D0FB69002210
:102BA0001A703B6A1800294B984702001B23FB1838
:102BB0001A701B23FB184022B9181A780B789A4216
:102BC00006D23A6A7B6811001800214B98471DE035
:102BD0004023FB181B78013B1A00396A7B681800F8
:102BE0001C4B98474023FB181B787A68D3180022A7
:102BF0001A700BE0BB6A18000A4B98470C230AE0D6
:102C0000BB6A1800074B98470C2304E0BB6A180006
:102C1000044B984700231800BD460DB090BDC04638
:102C2000C97B0100697C0100D77C0100908B010009
:102C3000797E010088130000888901000D220000C0
:102C40009C8B0100977F01003B7F0100677F0100A3
:102C5000577F0100A17C0100B0B588B002AF786059
:102C60001723FB181E221A701723FB181B7801214B
:102C70001800184B984703003B613B69002B01D1BA
:102C8000002323E01723FB181A783B690021180062
:102C9000114B98471723FB1819787B680F4A38693E
:102CA0000F4CA0470F23FC18FA23DA000D493869AE
:102CB0000023009300230C4DA847030023703B69B9
:102CC00018000A4B98470F23FB181B781800BD46C5
:102CD00006B0B0BDC97B0100D77C0100A48B010008
:102CE000797E0100888901000D220000697C0100C5
:102CF00090B583B002AF064A064907480023009307
:102D00000023064CA04703001800BD4601B090BD4B
:102D10008813000088890100AC8B01000D2200009F
:102D200090B583B002AF064A0649074800230093D6
:102D30000023064CA04703001800BD4601B090BD1B
:102D40001027000088890100B48B01000D220000CB
:102D500090B583B002AF064A0649074800230093A6
:102D60000023064CA04703001800BD4601B090BDEB
:102D70008813000088890100CC8B01000D2200001F
:102D8000B0B588B002AF78601723FB181E221A7006
:102D90001723FB181B7801211800184B98470300D4
:102DA0003B613B69002B01D1002322E01723FB1874
:102DB0001A783B6900211800114B98471723FB181C
:102DC00019787B680F4A38690F4CA0470F23FC180D
:102DD0000E4A0F4938690023009300230D4DA84780
:102DE000030023703B6918000B4B98470F23FB1817
:102DF0001B781800BD4606B0B0BDC046C97B0100B7
:102E0000D77C0100D88B0100797E01008813000077
:102E1000888901000D220000697C010090B583B013
:102E200002AF064A06490748002300930023064CD8
:102E3000A04703001800BD4601B090BD88130000F4
:102E400088890100E88B01000D22000090B583B055
:102E500002AF064A06490748002300930023064CA8
:102E6000A04703001800BD4601B090BD50460000C9
:102E700088890100F48B01000D22000090B583B019
:102E800002AFFA23DA000649064800230093002324
:102E9000054CA04703001800BD4601B090BDC046D8
:102EA00088890100248C01000D22000090B587B0B4
:102EB00002AF78600A00FB1C1A700F23FB18002277
:102EC0001A70FB1C1B78002B03D00F23FB18012268
:102ED0001A700E23FB1832221A700E23FB181B786F
:102EE00001211800174B98470300BB60BB68002BFB
:102EF00001D1002322E00E23FB181A78BB680021C1
:102F00001800114B98470E23FB1819780F23FB1854
:102F10001B787C680D4AB868009323000C4CA047CE
:102F2000FA23DA000B49B8680023009300230A4C07
:102F3000A047BB681800094B984700231800BD46FE
:102F400005B090BDC97B0100D77C0100308C010029
:102F5000797E0100888901000D220000697C010052
:102F6000B0B586B002AF0F23FB1846221A700F23AC
:102F7000FB181B7801211800574B98470300BB60D2
:102F8000BB68002B05D1BB681800544B9847002341
:102F90009DE00F23FB181A78BB6800211800504BE6
:102FA0009847FC1D0F23FB181A784E4D4E494F4889
:102FB000BB68009313002A004D4DA84703002370FF
:102FC000FB1D1B78002B6AD14A4ABB681100180010
:102FD000494B984703003B60464B19000020464B85
:102FE000984703003B60454A3B6811001800424B7C
:102FF000984703003B603B681800414B984703002B
:10300000DAB2404B1A703D4B190000203A4B9847FA
:1030100003003B603B681800394B98470300DAB265
:10302000384B5A70384B19000020334B9847030037
:103030003B603B681800324B98470300DAB2314BD3
:103040009A70324B190000202B4B984703003B60CD
:103050003B6818002A4B98470300DAB2294BDA7014
:103060002A4B19000020244B984703003B603B6823
:103070001800234B98470300DAB2224B1A71244BF5
:10308000190000201C4B984703003B603B68180068
:103090001B4B98470300DAB21A4B5A7111E0194BD7
:1030A00000221A70174B00225A70164B00229A7099
:1030B000144B0022DA70134B00221A71114B0022BC
:1030C0005A71BB681800054B9847FB1D1B78180008
:1030D000BD4604B0B0BDC046C97B0100697C01009B
:1030E000D77C01008813000088890100548C0100FE
:1030F0000D220000608C0100C97F0100648C01007A
:10310000BD7B010088060020A48A0100A08A01007E
:10311000688C010080B500AF314B9847031E00D08A
:1031200058E0304B9847031E00D051E0FA23DB00F3
:1031300018002D4B98472D4B9847031E46D12C4B1A
:103140009847031E48D12B4B9847031E3CD1FA23C6
:10315000DB001800244B9847274B9847031E31D1BA
:10316000264B9847031E2BD1254B9847031E25D18C
:10317000244B9847031E1FD1234B9847031E19D198
:10318000224B9847031E13D1214B9847031E0DD1A4
:10319000204B9847031E07D11F4B9847031E01D1B0
:1031A00000231AE0102318E0102316E0102314E087
:1031B000102312E0102310E010230EE010230CE087
:1031C00010230AE0102308E0102306E0102304E097
:1031D000102302E0102300E010231800BD4680BD3C
:1031E000F92300000526000019F00000E524000086
:1031F000352600009124000075250000A52500005B
:10320000D52500006526000095260000DD28000079
:10321000212D0000512D00004525000080B584B00F
:1032200000AF78600A00FB1C1A700F23FB18002205
:103230001A7026E01B4B1868FA235A000E23FB185D
:103240001900194B9847031E01D1002325E00E23D6
:10325000FB181B780A2B14D00E23FB181B780D2BA0
:1032600014D07B685A1C7A600E22BA1812781A7031
:10327000FB1C1A78FB1C013A1A700F23FB18012261
:103280001A70FB1C1B78012BD4D800E0C0467B6869
:1032900000221A700F23FB181B781800BD4604B0DB
:1032A00080BDC0462002002071E5000080B584B0DA
:1032B00000AF78600F23FB1800221A70174A7B6852
:1032C00011001800164B9847031E1BD0154A7B6847
:1032D00011001800144B98470300BB60114B1900F4
:1032E0000020114B98470300BB60BB6818000F4BD0
:1032F0009847BB6818000E4B984702000F23FB1835
:103300001A7003E00F23FB1800221A700F23FB181A
:103310001B781800BD4604B080BDC0466C8C01000F
:10332000977F0100A48A0100C97F0100992800004D
:10333000BD7B010080B582B000AF7860074A7B6832
:1033400011001800064B9847031E01D0012300E02E
:1033500000231800BD4602B080BDC046748C010039
:10336000977F010080B584B000AF786039601E4A55
:103370007B68110018001D4B9847031E2ED01C4A75
:103380007B68110018001B4B98470300FB601A4B29
:1033900019000020174B98470300FB60174AFB6891
:1033A00011001800134B98470300FB60134B1900E2
:1033B0000020104B98470300FB60FB682B2118008E
:1033C0000F4B9847031E01D1002308E0FA683B68C1
:1033D000110018000B4B9847012300E00023180050
:1033E000BD4604B080BDC0467C8C0100977F0100C3
:1033F000A08A0100C97F0100A48A0100608C01003D
:103400003B7F0100577F010080B582B000AF78603C
:10341000164A7B6811001800154B9847031E01D00F
:1034200001231EE0134A7B6811001800104B9847D7
:10343000031E01D0012314E00F4A7B68110018001D
:103440000B4B9847031E01D001230AE00B4A7B680F
:1034500011001800064B9847031E01D0012300E01D
:1034600000231800BD4602B080BDC046848C010018
:10347000977F0100908C0100988C010080890100E9
:1034800080B582B000AF7860074A7B6811001800F1
:10349000064B9847031E01D0012300E000231800CB
:1034A000BD4602B080BDC046A48C0100977F0100DC
:1034B00080B582B000AF7860074A7B6811001800C1
:1034C000064B9847031E01D0012300E0002318009B
:1034D000BD4602B080BDC046AC8C0100977F0100A4
:1034E00080B584B000AF0200FB1D1A700F23FB18DB
:1034F000FA1D1278D2091A700E23FB18FA1D1278E1
:1035000052091A700D4BBB600F23FB181B78002B60
:103510000FD10F23FB181B789B0010229446BC444C
:103520006344083B1A680E23FB181B78DB01D31891
:1035300000E000231800BD4604B080BD00440041F7
:1035400080B582B000AF0200FB1D1A70FB1D1B7816
:103550001800034B984703001800BD4602B080BD19
:10356000E134000080B582B000AF78607B68002253
:103570001A707B6801225A707B6800229A70C046DC
:10358000BD4602B080BD000080B584B000AF02002F
:10359000FB1D1A70BB1D0A1C1A70FB1D1B7818003E
:1035A0000D4B98470300FB60FB1D1B781F22134047
:1035B00001229A401300BB60BB1D1B78002B03D077
:1035C000FB68BA689A6102E0FB68BA685A61C04653
:1035D000BD4604B080BDC04641350000F0B58BB09B
:1035E00000AF0B2318229446BC44634410221A7087
:1035F0000A2318229446BC44634402221A70904B5A
:103600009847904B3F221A708F4B3E221A708F4B77
:1036100021221A708D4B20225A708C4B23229A70D3
:103620008A4B2222DA708A4B00221A700A2318224F
:103630009446BC4463441B78012B06D9844B1B7809
:1036400008221343DAB2824B1A70824B0A221821E5
:103650008C46BC44624412781A700B23182294469C
:10366000BC4463441A780B2318218C46BC44634441
:103670001B78403340210020774CA0471C23FB18C7
:103680001800764B98471C23FB1801221A706D4BCB
:103690001B781C22BA1811001800714B98476A4B0E
:1036A0001B781C22BA18110018006D4B9847002394
:1036B0007B620CE0654A7B6AD3181B781C22BA181F
:1036C00011001800664B98477B6A01337B627B6A66
:1036D000032BEFDD0020634B984703003B61002381
:1036E0007B61614C614A002338697969A047030016
:1036F0000C00190022005E4B0024C918624108002A
:1037000011005C4C5C4A0023A04703000C00180029
:103710005A4B98474B4B1B7800211800584B984741
:10372000494B1B7800211800554B98470320554BF7
:10373000984700204B4B98470300BB600023FB6079
:10374000494C514A0023B868F968A04703000C00AF
:1037500019002200464B0024C918624108001100DC
:10376000444C454A0023A04703000C001800434B7B
:1037700098470320434B984700203A4B9847030053
:103780003B6000237B60384C3F4A002338687968EF
:10379000A04703000C0019002200354B0024C91873
:1037A000624108001100334C334A0023A047030054
:1037B0000C001800314B98470320324B98470020EB
:1037C000284B984703001D0000231E00264C96221C
:1037D000002328003100A04703000C00190022003C
:1037E000234B0024C918624108001100214C224AD1
:1037F0000023A04703000C001800204B984702202C
:10380000204B9847124B1B7820221343DBB2180041
:103810001E4B98471E4B04221A701E4B98471E4B96
:1038200098471E4B02221A701C4B1B78042213432C
:10383000DBB21800154B9847C046BD460BB0F0BD33
:1038400095180100D3060020D2060020CC060020E7
:10385000D1060020CA0600204D3900006535000061
:10386000E91E0100553801000958010050C300004D
:10387000BFCF6A00C9570100C0CF6A000100002015
:10388000893500008939000094110000CD3A00000C
:10389000C9060020B53C00006D3B0000D0060020AA
:1038A00080B582B000AF3B1D1800084B98473B1D08
:1038B00001221A703B1D00225A703B1D1900242062
:1038C000034B9847C046BD4602B080BD6535000039
:1038D000E91E010080B500AF01212420024B98476A
:1038E000C046BD4680BDC0468935000080B582B067
:1038F00000AF00212420114B984700237B600AE091
:103900000F4A7B68D3181B78002118000B4B98478F
:103910007B6801337B607B68032BF1DD094B1B78EF
:1039200000211800054B9847074B1B780021180011
:10393000024B9847C046BD4602B080BD89350000A5
:10394000CC060020D2060020D306002080B584B02B
:1039500000AFF860B9607A603B60FB68DAB2094B8F
:103960001A70BB68DAB2074B5A707B68DAB2054B43
:103970009A703B68DAB2034BDA70C046BD4604B0B9
:1039800080BDC046C406002080B584B000AF0200F0
:10399000FB1D1A700023FB6013E00E4AFB68D3186E
:1039A0001878FB1D1A78FB681A4113000122134096
:1039B0005A1E9341DBB21900074B9847FB6801334D
:1039C000FB60FB68032BE8DD044B9847C046BD460F
:1039D00004B080BDCC06002089350000E13900002C
:1039E000F0B585B000AF314B1B7800211800304B8B
:1039F000984700202F4B98470300BB600023FB60D3
:103A00002D4B0024B868F968C01861412B4C2C4A32
:103A10000023A04703000C0018002A4B9847234BB3
:103A20001B7801211800224B98470020214B984712
:103A300003001D0000231E001F4B0024280031003E
:103A4000C01861411D4C1E4A0023A04703000C0012
:103A500018001C4B9847154B1B7800211800144B7D
:103A600098470020134B984703003B6000237B607E
:103A7000154C6422002338687968A04703000C00C5
:103A8000190022000C4B0024C918624108001100E3
:103A90000A4C0B4A0023A04703000C001800094BF6
:103AA0009847C046BD4605B0F0BDC046D2060020CE
:103AB0008935000055380100BFCF6A00C9570100A1
:103AC000C0CF6A00010000200958010080B582B013
:103AD00000AF0200FB1D1A70FB1D1B7800211800AF
:103AE000024B9847C046BD4602B080BD193B00005E
:103AF00080B582B000AF0200FB1D1A70FB1D1B7861
:103B000001211800034B984701231800BD4602B05D
:103B100080BDC046193B000080B582B000AF0200F6
:103B2000FB1D1A70BB1D0A1C1A700D4B1A78BB1DA9
:103B30001B78591E8B41DBB219001000094B9847C6
:103B4000FB1D1B781B09DBB21800074B9847FB1DB8
:103B50001B781800044B9847C046BD4602B080BD94
:103B6000D30600208935000089390000F8B500AF80
:103B70000120134B98470020124B984703001D006B
:103B800000231E00104CFA22D2000023280031002E
:103B9000A04703000C00190022000C4B0024C91898
:103BA0006241080011000A4C0A4A0023A0470300A2
:103BB0000C001800084B9847C046BD46F8BDC046EB
:103BC000CD3A00005538010009580100BFCF6A0006
:103BD000C9570100C0CF6A000100002080B584B041
:103BE00000AF02003960FB1D1A70FB1DFA1D127830
:103BF00007210A401A70FB1D1B78DB005BB24022D4
:103C000013435BB2DBB218000A4B98470023FB60FA
:103C100009E0FB683A68D3181B781800064B9847F0
:103C2000FB680133FB60FB68072BF2DDC046BD4635
:103C300004B080BDCD3A0000F13A000080B584B0F8
:103C400000AF0200FB1D1A70BB1D0A1C1A70042372
:103C5000FB60BB1D1A78FB689A4204D3FB68DAB29A
:103C6000BB1D013A1A70104B1B78BA1D12789A428C
:103C700004D30D4B1A78BB1D013A1A70BB1D1B787B
:103C80000A4AD25CFB1D1B78D318DBB25BB28022E0
:103C9000524213435BB2DBB21800054B9847C04653
:103CA000BD4604B080BDC046CA060020C406002040
:103CB000CD3A000080B500AF084B1B7804221343B7
:103CC000DAB2064B1A70054B1B7808221343DBB29D
:103CD0001800034B9847C046BD4680BDC90600206A
:103CE000CD3A000080B584B000AF78607B681800E2
:103CF0000F4B98470300FB600023BB600BE07B6821
:103D00005A1C7A601B7818000A4B9847031E08D08B
:103D1000BB680133BB60FB685A1EFA60002BEED112
:103D200000E0C046BB681800BD4604B080BDC04678
:103D3000677F0100F13A00000FB480B584B000AF96
:103D4000BB691800114B984703000333FB60FB6805
:103D500018000F4B98470300BB601C23FB187B60C7
:103D60007A68B969BB6818000A4B9847BB681800A5
:103D7000094B9847BB681800084B9847C046BD469A
:103D800004B080BC08BC04B01847C046677F01007F
:103D9000557C010055820100E53C0000697C010072
:103DA00080B584B000AF78607B68002B28D07B683A
:103DB000FB6020E00B23FB18FA6812781A70124B94
:103DC000984702000B23FB181B780133D3181B788C
:103DD0001A0003231340022B04D10B23FB181B787A
:103DE000203B02E00B23FB181B78DAB2FB681A7049
:103DF000FB680133FB60FB681B78002BDAD100E025
:103E0000C046BD4604B080BD397C010080B584B099
:103E100000AF786039603B681800104B984703008A
:103E2000FB607B6818000D4B98470300BB60BA68C5
:103E3000FB689A4209D3FA6879683B681800084B16
:103E40009847031E01D1012300E000231A1C01231F
:103E50001340DBB21800BD4604B080BD677F01008F
:103E6000757F010080B500AFBFF34F8F024B034A4F
:103E7000DA60BFF34F8FFEE700ED00E00400FA05C3
:103E800080B584B000AF0200FB1D1A700F23FB1831
:103E9000FA1D1278D2091A700E23FB18FA1D127837
:103EA00052091A700D4BBB600F23FB181B78002BB7
:103EB0000FD10F23FB181B789B0010229446BC44A3
:103EC0006344083B1A680E23FB181B78DB01D318E8
:103ED00000E000231800BD4604B080BD004400414E
:103EE00080B500AF024B9847C046BD4680BDC04676
:103EF000653E000080B582B000AF0200FB1D1A7065
:103F0000FB1D1B781800034B984703001800BD46A3
:103F100002B080BD813E000080B582B000AF786005
:103F20007B6800221A707B6801225A707B6800222D
:103F30009A70C046BD4602B080BD000080B584B016
:103F400000AF0200FB1D1A70FB1D1B7818000B4B05
:103F500098470300FB60FB1D1B781F2213400122C2
:103F60009A401300BB60FB681B6ABA6813405A1E74
:103F70009341DBB21800BD4604B080BDF53E0000A1
:103F800080B500AF0B4B1B7801225340DBB2002BF6
:103F90000CD0094B98470200084B1B68D21AFA2331
:103FA0009B009A4202D9034B01221A70C046BD46BB
:103FB00080BDC0464A0700207DF30000CC070020EA
:103FC00080B582B000AFFB1D01221A70234B1B7815
:103FD000002B03D0FB1D224A127A1A70214B1B784A
:103FE000002B37D0204B1B78012B0BD01F4B984751
:103FF00002001F4B1B68D21AFB1D1B781D494B4347
:104000009A4227D91C4BDB78002B1AD0134B1B7814
:10401000002B07D0194B1A78194B1A700F4B00223E
:104020001A7015E0174B1B78002B11D0134B1A7820
:10403000154B1A70154B01221A70124B00221A7080
:1040400006E00E4B1A780E4B1A70044B00221A70C1
:104050000F4B9847C046BD4602B080BD9A0700206E
:104060005C0600204A070020D90600207DF30000EE
:10407000AC07002060EA0000280600204C07002062
:104080003B07002066070020150700201B070020C3
:104090009540000080B500AF074B5B794E2B03D1F4
:1040A000064B1B78002B04D0054B01221A70054BE0
:1040B0009847C046BD4680BD5C0600201B07002017
:1040C0001C070020FD42000080B500AF6D4B0022B0
:1040D0001A706D4B00221A706C4B98470022002119
:1040E00000206B4B9847FA239B001800694B9847B8
:1040F000694B00221A70694B5B78002B02D0684B29
:1041000000221A70654BDB78012B1DD1654B1B78A3
:10411000DBB24E2B04D0634B1B78DBB2522B0DD19C
:10412000614B1B78DBB24F2B08D1604B1B7801220F
:104130005340DBB2002B01D0012300E000231A1C06
:1041400001231340DBB215E0564B1B78DBB24E2B3C
:1041500004D0544B1B78DBB2522B06D1524B1B7848
:10416000DBB24F2B01D1012300E000231A1C0123F5
:104170001340DBB2002B21D04D4B1B78002B1DD1FF
:104180004C4B1B7801225340DBB2002B16D04A4B1C
:104190005B79542B12D1494B9B78012B0ED9444BA0
:1041A00001221A70464B01221A70464B98470200B2
:1041B000454B1A60454B1A78454B1A70374BDB78E4
:1041C000002B47D0374B1B78DBB2492B04D0354B43
:1041D0001B78DBB2522B37D1334B1B78DBB24F2B22
:1041E00032D1324B1B78002B2ED03A4B5B79002B0F
:1041F0002AD0394B1B780133DAB2374B1A70374B60
:104200001B78002B06D0364B1B7800211800354B4D
:10421000984716E0304B1B78012B0CD8294B984758
:104220000200294B1A602E4B1A78294B1A702E4B1C
:1042300001221A7005E02A4B1B7803211800294B34
:1042400098471A4B00221A70284B00221A70234BF1
:1042500000221A70174B00221A70124B4E221A704D
:10426000114B4E221A70224B00221A70154B9847A0
:104270000200204B1A60204B00221A70C046BD4637
:1042800080BDC046D8060020740700201D2E000007
:1042900065BD000019F000001C0700202806002062
:1042A000C7070020A8070020670700201B07002081
:1042B000D9060020760700205C06002010060020AA
:1042C0009A0700207DF30000AC0700203B07002088
:1042D0004C070020540500209B07002014070020F5
:1042E000150700208DAD000066070020980700200C
:1042F00070070020CC0700204A07002080B586B058
:1043000000AF204B01221A703B1D180014231A0025
:1043100000211D4B98471D4B5B79002B08D01C4B8F
:104320001B78002B04D03B1D18001A4B98470FE058
:10433000194B1B78002B07D0184B1A793B1D110025
:104340001800174B984703E03B1D1800154B984782
:104350003B1D1800144B98473B1D002219000320F9
:10436000124B9847124B98470200124B1A60124B9F
:1043700052221A70114B4F221A70C046BD4606B029
:1043800080BDC04674070020D77C01005405002082
:104390001B070020090B0000D90600201006002092
:1043A00019090000210D0000592C000065BD000016
:1043B0007DF30000D0070020A80700206707002039
:1043C00080B500AF0A4B00221A700A4B01221A7006
:1043D000094B9847094B49221A70094B49221A7018
:1043E00001214D20074B9847C046BD4680BDC046C1
:1043F0007007002076070020F12C0000A80700209D
:10440000670700200944000080B582B000AF0200B9
:10441000FB1D1A70BB1D0A1C1A70144B9847144BD5
:1044200001221A70BB1D1B78002B16D0114B0122E4
:104430001A70114B00221A700F4B1B7819000F4B8A
:10444000FA1D12785A540C4B1B7801330B4A002189
:10445000D1540B4BFA1D12781A700A4BFA1D1278C0
:104460001A70C046BD4602B080BDC0467D2E000019
:10447000160800209C0700208C070020240700203D
:104480003B0700208B07002080B500AF0D4B1B7849
:10449000002B0ED00C4B984702000C4B1B68D31A14
:1044A0000B4A1278110064224A43934201D9012336
:1044B00000E000231A1C01231340DBB21800BD46A4
:1044C00080BDC046160800207DF30000F8070020DC
:1044D0009D07002080B500AF0B4B1B78012B06D940
:1044E0000A4B1B7800211800094B984705E0074B41
:1044F0001B7801211800064B9847064B00221A70C2
:10450000C046BD4680BDC0469C0700208B070020EA
:10451000AD2E00001608002080B582B000AF786094
:10452000184B1B7801225340DBB2002B25D07B684F
:104530001800154B9847031E1FD0144B1B78012BF6
:104540001BD9134B1B781A00104B1B78013B9A4266
:104550000FDA0F4B1B780133DAB20D4B1A700C4B8C
:104560001B781A000B4B9B5C002118000A4B9847E4
:1045700003E001214D20084B9847C046BD4602B0DC
:1045800080BDC04616080020B13400009C07002002
:104590008C070020240700200944000080B582B069
:1045A00000AF78607B681800144B984703000E2B0F
:1045B0001FD8134B00221A707B6818000F4B9847C6
:1045C0000300DAB20F4B1A707A680F4B1100180013
:1045D0000E4B98470E4B984702000E4B1A60084B43
:1045E0001B781A00084B9A5C0B4B1A700B4B01227C
:1045F0001A70C046BD4602B080BDC046677F01004C
:104600008C0700209C07002024070020577F010012
:104610007DF30000F80700208B070020160800201B
:1046200080B500AF094B98470200094B1B68D21AAE
:10463000084B1B88190064234B43190000238A424E
:104640005B41DBB21800BD4680BDC0467DF3000073
:10465000D00700203C07002080B582B000AF786012
:10466000164A7B6811001800154B9847031E01D0AD
:1046700044231EE0134A7B6811001800104B984732
:10468000031E01D0522314E00F4A7B68110018006A
:104690000B4B9847031E01D049230AE00B4A7B6865
:1046A00011001800064B9847031E01D0452300E077
:1046B0004E231800BD4602B080BDC046CC8E01001E
:1046C000977F0100DC8E0100EC8E0100FC8E010062
:1046D00080B582B000AF0200FB1D1A70344B9B788E
:1046E000002B03D0334B5B794E2B01D101235BE0D0
:1046F000314B1B78DBB201225340DBB2002B01D0DF
:10470000012351E02D4B1B7801225340DBB2002BDB
:1047100007D02B4B1B78FA1D12789A4201D1012346
:1047200042E0284B1B78DBB24E2B3CD1264B1B784A
:10473000DBB24E2B37D1254B1B78002B33D01F4BD0
:104740001B7801225340DBB2002B2CD0204B1B786E
:1047500001225340DBB2002B25D0164B5B7A002B95
:1047600005D01C4B9847031E01D001231CE01A4BB7
:1047700000221A700F4B1B7A002B0CD0174B984756
:104780000200174B1A60174BFA1D12781A700B4B68
:1047900001221A7005E00A4BFA1D12781A70124BAA
:1047A0009847012300E000231800BD4602B080BDF9
:1047B000100600205C060020750700209A070020E4
:1047C0003B070020A8070020670700204A070020B9
:1047D00066070020616B0000D90600207DF3000011
:1047E000AC0700204C0700209540000080B582B047
:1047F00000AF0200FB1D1A70204B1B78DBB20122B8
:104800005340DBB2002B06D0FB1D1B7800211800A3
:104810001B4B98472EE01B4B1B78DBB24E2B29D14C
:10482000194B1B78DBB24E2B24D1184B1B78002B75
:1048300020D0174B1B7801225340DBB2002B19D03C
:10484000144B1B7801225340DBB2002B12D0FB1D0E
:104850001B78022118000A4B98470F4B01221A704F
:104860000E4BFA1D12781A700D4B00221A700D4B68
:104870009847C046BD4602B080BDC04675070020BF
:104880008DAD0000A8070020670700204A07002020
:104890009A070020660700201B070020150700204C
:1048A0009B0700209540000080B582B000AF020059
:1048B000FB1D1A70074B1B78DBB2492B06D1FB1D81
:1048C0001B7801211800044B984700E0C046BD4604
:1048D00002B080BDA80700200944000080B582B066
:1048E00000AF0200FB1D1A700C4B1B7801225340D5
:1048F000DBB2002B0DD00A4B5B79412B09D1094B60
:10490000FA1D12781A70084B002200211800074B7C
:104910009847C046BD4602B080BDC046760700201D
:104920005C0600203B0700200C8F0100456C000056
:1049300080B500AF044B9847044B98470200044BE6
:104940001A60C046BD4680BD7D2E00007DF300008C
:10495000D007002080B584B000AF78600F23FB182B
:104960007A6812781A706A4BDB78002B10D0694B8A
:104970001B78002B00D1C7E00F23FB181B78412BBD
:1049800000D0C1E0644B01221A70644B9847BBE031
:104990000F23FB181B78312B06D1614B9847002160
:1049A0000120604B9847AFE00F23FB181B78322B98
:1049B00007D15B4B98470022002101205A4B9847B2
:1049C000A2E00F23FB181B78332B04D1544B9847DC
:1049D000564B984798E00F23FB181B78342B0AD1CD
:1049E0004B4B5B79002B00D18EE04D4B984700205C
:1049F0004F4B984788E00F23FB181B78352B0AD1C3
:104A0000434B1B79002B00D17EE0454B984700209B
:104A1000484B984778E00F23FB181B78302B14D1B4
:104A20003B4B5B78002B00D16EE0434B1B78002B97
:104A300007D0424B98473A4B98473F4B00221A7099
:104A400062E03D4B01221A705EE00F23FB181B78D9
:104A5000372B08D12E4B9B78002B55D0304B9847E5
:104A6000374B984750E00F23FB181B78442B0DD190
:104A70000120344B98470120334B984700210020F8
:104A8000284B9847FF20314B98473DE00F23FB18F8
:104A90001B78432B0BD100202A4B98470122002181
:104AA0000020214B9847FF20284B98472CE00F23EC
:104AB000FB181B78382B0CD1194B98470120214B40
:104AC00098470120204B984701212920204B9847E7
:104AD0001AE00F23FB181B78392B0CD1104B984789
:104AE0000020184B98470120174B984701215B2065
:104AF000174B984708E00F23FB181B782A2B03D18C
:104B0000074B9847134B9847C046BD4604B080BD3D
:104B1000280600201B070020140700201D2E00007F
:104B200031490000C9A500008DA700003DAC000080
:104B3000218C0000D98A0000C7070020BD95000025
:104B4000B1960000A912000095A10000016E0000BE
:104B5000094400004DAD0000F0B5C64600B5D2B026
:104B600006AFF8600C0010001900EA4B94225200C6
:104B7000944608229046B844C4446344221C1A70E8
:104B8000E54B94225200944608229046B844C4440F
:104B90006344021C1A70E14B94225200944608228E
:104BA0009046B844C44463440A1C1A702823FF3357
:104BB00008229446BC44634400221A70FB688C228D
:104BC000520008218C46BC4462441360D34B9422AB
:104BD0005200944608229046B844C44463441B786B
:104BE000002B0ED0CE4AFB6811001800CD4B984721
:104BF00003001A0001235340DBB2002B01D001F067
:104C0000EDFEC94AFB6811001800C64B9847031E09
:104C100014D0C64B01225A71C449C54B1822180042
:104C2000C44B9847C24B19000020C34B9847C34B55
:104C300098476420C24B9847C24B9847C24AFB68CA
:104C400011001800B74B9847031E47D01823FF33B5
:104C50000822BA18D418BD4B9847030023702823A4
:104C6000FF3308229446BC44634401221A70AA4BC5
:104C700094225200944608229046B844C4446344A7
:104C80001B78002B01D101F063FE1823FF330822AB
:104C90009446BC4463441B78002B0DD10C2308229E
:104CA0009446BC446344AA4A13CA13C313CA13C329
:104CB00013CA13C301F04CFE0C2308229446BC44D3
:104CC0006344A44A13CA13C313CA13C303CA03C356
:104CD0001188198092789A7001F03AFE9E4AFB681A
:104CE000110018008F4B9847031E30D0894B942237
:104CF0005200944608229046B844C44463441B784A
:104D00001800964B98472823FF3308229446BC444A
:104D1000634401221A70804B942252009446082268
:104D20009046B844C44463441B78002B01D101F081
:104D30000FFE0C2308229446BC446344884A13CADD
:104D400013C313CA13C312781A7001F001FE854A07
:104D5000FB6811001800734B9847031E65D00020B4
:104D6000814B9847814B5B79002B0DD00020804B05
:104D700098477E4BDB78002B03D000207D4B984773
:104D800002E000207C4B9847784B5B78002B08D0E2
:104D900078207A4B98475520794B98470020794BDB
:104DA00098470020784B98470020784B984743203D
:104DB000774B98473220774B98470220764B98479D
:104DC0000120764B98475020754B98470120754B32
:104DD00098470020744B98470120744B984728232C
:104DE000FF3308229446BC44634401221A704A4BA4
:104DF00094225200944608229046B844C444634426
:104E00001B78002B01D101F0A3FD0C23082294464E
:104E1000BC446344664A13CA13C313CA13C313CAF8
:104E200013C312781A7001F093FD624AFB681100F7
:104E300018003C4B9847031E38D0374B9422520041
:104E4000944608229046B844C444634401221A7030
:104E50002823FF3308229446BC44634401221A707D
:104E60000C2308229446BC446344FA220021180013
:104E7000514B9847514B9B78002B0DD10C230822A6
:104E80009446BC4463444E4A13CA13C31168196064
:104E900092889A8001F05CFD0C2308229446BC4461
:104EA00063441800474B984701F052FD464AFB689F
:104EB000110018001B4B9847031E03D0214B984745
:104EC00001F046FD414AFB6811001800154B984758
:104ED000031E00D180E0104B942252009446082219
:104EE0009046B844C444634401221A702823FF3317
:104EF00008229446BC44634401221A70344A0C23AD
:104F000008218C46BC44634411001800314B98477B
:104F100001F01EFDDBFEFFFFDAFEFFFFD9FEFFFF03
:104F2000108F01000D3E0000188F0100F8050020D1
:104F300084050020A17C010069290100112B0100DA
:104F400019F00000E13E0000208F01004D2E00000E
:104F5000288F01004C8F0100708F01000D1100009F
:104F60007C8F0100988F0100A91200002806002004
:104F700069140000E50B0000B514000001150000E5
:104F800069150000AD18000045190000411300002C
:104F90008D130000F5120000F9180000D91500006B
:104FA0002516000071160000251A0000751A000071
:104FB000A08F0100C88F0100D77C010010060020DF
:104FC000CC8F0100F9070000E08F0100E88F01009D
:104FD00030060020577F0100EC4AFB6811001800E2
:104FE000EB4B9847031E27D00120EA4B984701203E
:104FF000E94B98472823FF3308229446BC44634476
:1050000001221A70E54B94225200944608229046E1
:10501000B844C44463441B78002B01D101F098FCD0
:105020000C2308229446BC446344DD4A13CA13C3CC
:1050300012681A6001F08CFCDA4AFB681100180053
:10504000D34B9847031E29D00020D24B984701200C
:10505000D14B98472823FF3308229446BC4463442D
:1050600001221A70CD4B9422520094460822904699
:10507000B844C44463441B78002B01D101F068FCA0
:105080000C2308229446BC446344C74A13CA13C382
:105090001168196012791A7101F05AFCC34AFB6851
:1050A00011001800BA4B9847031E2AD0C04B5B79F9
:1050B000002B01D101F04CFC2823FF330822944639
:1050C000BC44634401221A700120BA4B9847B34B89
:1050D00094225200944608229046B844C444634443
:1050E0001B78002B01D101F033FC0C2308229446DD
:1050F000BC446344B04A13CA13C312681A6001F077
:1051000027FCAE4AFB6811001800A14B9847031E0C
:105110002CD0A74B5B79002B01D101F019FC28237F
:10512000FF3308229446BC44634401221A700020D5
:10513000A04B9847994B94225200944608229046DF
:10514000B844C44463441B78002B01D101F000FC37
:105150000C2308229446BC446344994A13CA13C3DF
:105160001168196012791A7101F0F2FB954AFB6817
:1051700011001800864B9847031E26D00120924B41
:1051800098472823FF3308229446BC4463440122F5
:105190001A70824B94225200944608229046B844DA
:1051A000C44463441B78002B01D101F0D1FB0C23D4
:1051B00008229446BC446344844A1168196091886B
:1051C000998092799A7101F0C3FB814AFB681100C2
:1051D00018006F4B9847031E22D000207A4B984747
:1051E0002823FF3308229446BC44634401221A70EA
:1051F0006A4B94225200944608229046B844C44414
:1052000063441B78002B01D101F0A2FB0C23082280
:105210009446BC4463446F4A03CA03C301F098FB3D
:105220006D4AFB6811001800594B9847031E55D072
:10523000FB681C1DFB681800684B98470200FB6860
:1052400021001800664B9847FB681800654B98478B
:10525000020093235B0008218C46BC4463441A700F
:1052600093235B0008229446BC4463441B78132BB1
:1052700007D893235B0008229446BC44634414225D
:105280001A7093235B0008229446BC4463441B7845
:105290009BB21800544B98472823FF3308229446AA
:1052A000BC44634401221A703C4B94225200944641
:1052B00008229046B844C44463441B78002B01D1B3
:1052C00001F046FB0C2308229446BC446344474A41
:1052D00013CA13C312781A7001F03AFB444AFB68F0
:1052E000110018002A4B9847031E22D00120414B81
:1052F00098472823FF3308229446BC446344012284
:105300001A70264B94225200944608229046B844C4
:10531000C44463441B78002B01D101F019FB0C231A
:1053200008229446BC446344334A03CA03C301F0D1
:105330000FFB324AFB6811001800154B9847031EFB
:1053400060D000202B4B98472823FF330822944637
:10535000BC44634401221A70104B942252009446BC
:1053600008229046B844C44463441B78002B01D102
:1053700001F0EEFA0C2308229446BC446344204A10
:1053800003CA03C312781A7001F0E2FAEC8F01002D
:105390000D3E0000A912000095A10000DAFEFFFFFB
:1053A000F48F0100049001000C9001002090010096
:1053B00028060020691400002890010038900100A0
:1053C0004090010054900100D91500005C9001004C
:1053D000649001006C90010074900100677F0100EF
:1053E000B37C0100BD7B0100251600007C9001000C
:1053F0008C90010071160000949001009C900100B7
:10540000A4900100DF4AFB6811001800DE4B9847AA
:10541000031E6CD0FB681800DC4B98470300032B7D
:1054200001D801F095FAFB68DC1CFB681800D74B2B
:1054300098470200FB6821001800D54B9847FB688D
:105440001B784C2B09D0FB681B78532B05D0FB68CD
:105450001B784F2B01D001F07BFAFB68DBB2180000
:10546000CC4B98472823FF3308229446BC4463441E
:1054700001221A70C84B942252009446082290468A
:10548000B844C44463441B78002B01D101F060FA96
:105490000C2308229446BC446344C04A1168196036
:1054A0009188998092799A71FA680C2308218C4628
:1054B000BC44634411001800B94B98470C230822E0
:1054C0009446BC4463441800B04B984703001A004C
:1054D0000C2308218C46BC4463449A18B14B10003D
:1054E000190004231A00B04B984701F031FAAF4A73
:1054F000FB6811001800A44B9847031E72D0FB688C
:105500001800A24B98470300042B01D801F020FAA1
:10551000FB681C1DFB6818009C4B98470200FB6849
:10552000210018009A4B9847FB681800A04B984739
:1055300002002623FF3308218C46BC4463441A70C2
:105540002623FF3308229446BC4463441B78022B75
:1055500001D901F0FDF92623FF3308229446BC440B
:1055600063441B78012B0BD1924B5B78002B07D146
:105570002623FF3308229446BC44634400221A7059
:105580002623FF3308229446BC4463441B7818004A
:10559000894B98472823FF3308229446BC44634430
:1055A00001221A707C4B94225200944608229046A5
:1055B000B844C44463441B78002B01D101F0C8F9FE
:1055C0002623FF3308229446BC4463441A787B495F
:1055D0000C2308208446BC4463441800784B984749
:1055E00001F0B6F9774AFB6811001800664B98473E
:1055F000031E6CD0FB681800644B98470300042B13
:1056000001D801F0A5F9FB681C1DFB6818005F4B71
:1056100098470200FB68210018005D4B9847FB6823
:105620001B78432B0DD0FB681B78412B09D0FB68FE
:105630001B78542B05D0FB681B784E2B01D001F052
:1056400087F9FB68DBB218005F4B98472823FF33CC
:1056500008229446BC44634401221A704E4B9422A3
:105660005200944608229046B844C44463441B78D0
:10567000002B01D101F06CF90C2308229446BC44A4
:105680006344524A03CA03C3FA680C2308218C46B8
:10569000BC44634411001800414B98470C23082276
:1056A0009446BC4463441800384B984703001A00E2
:1056B0000C2308218C46BC4463449A18394B1000D3
:1056C000190004231A00384B984701F041F9404A69
:1056D000FB68110018002C4B9847031E00D17DE099
:1056E000FB68DC1CFB681800284B98470200FB682D
:1056F00021001800264B9847FB6818002C4B984750
:1057000002008B235B0008218C46BC4463441A7062
:105710008B235B0008229446BC4463441B78682BAF
:1057200001D801F015F98B235B0008229446BC4494
:1057300063441B781800274B98472823FF3308221F
:105740009446BC44634401221A70134B94225200C5
:10575000944608229046B844C44463441B78002B06
:1057600001D101F0F5F80C2308229446BC446344AF
:10577000194A03CA03C31188198092789A7001F0FC
:10578000E7F8C046B09001000D3E0000677F0100C1
:10579000B37C010041130000DAFEFFFFB49001006A
:1057A000217F0100BC900100A17C0100C09001009C
:1057B000BD7B010028060020BD160000C890010036
:1057C000DD7E0100D49001008D130000DC9001000B
:1057D000E490010001150000E8900100EE4AFB682A
:1057E00011001800ED4B9847031E57D0FB681C1D95
:1057F000FB681800EA4B98470200FB68210018007C
:10580000E84B9847FB681800E74B984702001623BF
:10581000FF3308218C46BC4463441A701623FF33BF
:1058200008229446BC4463441B78612B01D901F0E3
:105830008FF81623FF3308229446BC4463441B7838
:10584000002B01D101F084F81623FF33082294467F
:10585000BC4463441B781800D44B98472823FF337B
:1058600008229446BC44634401221A70D04B94220F
:105870005200944608229046B844C44463441B78BE
:10588000002B01D101F064F80C2308229446BC449B
:105890006344C84A13CA13C301F05AF8C64AFB68E6
:1058A00011001800BD4B9847031E40D0C34B5B78D6
:1058B000002B01D101F04CF8C14B9B8A9BB27B605D
:1058C000BF4BDB8A9BB23B60BE4B1A69BD4B59692B
:1058D000BC4B9B699846BB48407F0500B948007F98
:1058E0000600B94C0C2008239C46BC446044049636
:1058F000039543460293019100923B687A68210028
:10590000B24CA047AA4B94225200944608229046DB
:10591000B844C444634401221A702823FF33082288
:105920009446BC44634401221A7001F011F8A84A5D
:10593000FB6811001800994B9847031E32D09F4B0B
:105940005B79002B01D101F003F89C4BDB78002B35
:1059500001D000F0FDFF01209E4B98472823FF3324
:1059600008229446BC44634401221A70904B94224E
:105970005200944608229046B844C44463441B78BD
:10598000002B01D100F0E4FF0C2308229446BC4414
:105990006344914A13CA13C313CA13C312681A602B
:1059A00000F0D6FF8D4AFB68110018007B4B98472A
:1059B000031E34D0814B5B79002B01D100F0C8FF6E
:1059C0007E4BDB78002B01D000F0C2FF0020814B22
:1059D00098472823FF3308229446BC44634401229D
:1059E0001A70734B94225200944608229046B84491
:1059F000C44463441B78002B01D100F0A9FF0C23A1
:105A000008229446BC446344754A13CA13C313CA9C
:105A100013C31168196012791A7100F099FF714A65
:105A2000FB68110018005D4B9847031E5CD0634B68
:105A3000DB78002B01D100F08BFF2823FF330822F5
:105A40009446BC44634401221A70674BDB78002BF8
:105A50002FD0654B1B79002B0ED1554B9422520051
:105A6000944608229046B844C444634400221A7005
:105A70005E4B984700F06CFF4D4B942252009446C9
:105A800008229046B844C444634401221A700C238F
:105A900008229446BC446344554A13CA13C313CA2C
:105AA00013C313CA13C303CA03C312881A8000F0B6
:105AB0004FFF3F4B94225200944608229046B84430
:105AC000C444634401221A700C2308229446BC4447
:105AD0006344484A13CA13C313CA13C313CA13C374
