S01000004C434420546573742E7372656381
S11300006825002035250000312500003125000039
S113001000000000000000000000000000000000DC
S1130020000000000000000000000000F1070000D4
S11300300000000000000000010800004508000066
S11300403125000031250000510A0000312500004F
S1130050E914000031250000312500006D0A00007C
S1130060312500008914000099140000A91400002F
S1130070B9140000C9140000D9140000312500008F
S11300803125000031250000312500003125000014
S11300903125000031250000312500003125000004
S11300A031250000312500003125000031250000F4
S11300B00000000010B5064C2378002B07D1054B37
S11300C0002B02D0044800E000BF0123237010BDC0
S11300D0740000200000000084380000084B10B5B4
S11300E0002B03D00749084800E000BF0748036815
S11300F0002B00D110BD064B002BFBD09847F9E72D
S113010000000000780000208438000084380000DB
S113011000000000002210B54309C409944202D132
S1130120DA01064BD2181F2318401E3B83400029D6
S113013001D0936110BD5361FCE7C0460044004107
S1130140002307B5012201A98B704B702420024BB8
S11301500A70984707BDC046251800001022014BBD
S11301601A60704798440041F8B51E4F1E4E387807
S11301700021B0471D4B00209847002402002300B3
S113018000211B481B4D801859411B4A0023A847D6
S11301901A4B984738780121B0472000134B9847F1
S11301A02300020000211248124D80185941124ABE
S11301B00023A847114B984738782100B047200006
S11301C00A4B98476422002321000D4CA0470024C9
S11301D0074B094AC0186141064C0023A047074B4E
S11301E09847F8BDE102002015010000F12200004B
S11301F0BFCF6A00712C0000C0CF6A00010000204C
S1130200B12C000070B50600002401253100214105
S1130210054B2940185D054B01349847042CF5D152
S1130220034B984770BDC046DB0200201501000057
S1130230690100004B1E994170B50400054BC9B219
S11302401878054B9847054D2009A8472000A84772
S113025070BDC046E2020020150100000502000046
S113026010B50021014B984710BDC046350200006F
S113027010B50121014B9847012010BD3502000043
S113028010B501200A4B98470A4B00209847FA22E0
S1130290094CD20000230021A0470023074A084C40
S11302A080185941074A0023A047074B984710BDBF
S11302B061020000F1220000B12C0000BFCF6A00EF
S11302C0712C0000C0CF6A000100002010B50B1C87
S11302D0032900D90323084ADBB212789A4201D8D1
S11302E0013AD3B2054AD35CC31880204042184374
S11302F0C0B2034B984710BDDA020020D40200209C
S11303006102000004230C2010B504490A78134349
S11303100B701043024B984710BDC046D902002011
S113032061020000F7B54D4B98473F204C4B4D4AB6
S113033018703E231370082200244B4E1D3B33706B
S1130340013B73700333B370013BF370474B01AD52
S11303501A70474B063A1A70464B3E325A70303A7E
S11303609A7040321C70DA7001232900424F6B707E
S11303702B70AC70B8473B4B29001878B847305DF8
S113038029000134B847042CF9D13C4F0020B84768
S11303903B4D3C4A00230021A84700233A4A3B4DE9
S11303A0801859413A4A0023A8473A4EB0472C4B8B
S11303B0394D18780021A8472A4B00211878A847FE
S11303C0364B032098470020B8472D4D344A00236C
S11303D00021A84700232C4A2C4D801859412C4A4F
S11303E00023A847B0472D4B032098470020B84767
S11303F0234D2B4A00230021A8470023224A234DE2
S113040080185941224A0023A847B047234B0320B0
S113041098470020B8471A4D962200230021A84788
S11304200023194A194D80185941194A0023A84735
S1130430B0470220194B984720200C4B194D1B78CC
S11304401843A847184B1C70184B9847184B9847EB
S11304500222184B06201A70A847F7BD2915000080
S1130460E2020020E1020020DB020020E002002082
S1130470DA020020D402002025180000F122000036
S1130480B12C000050C30000BFCF6A00712C0000E3
S1130490C0CF6A0001000020150100000502000021
S11304A09411000061020000D9020020050300003D
S11304B081020000DF02002070B5074B040098475A
S11304C005002618B44201D1280070BD207801210E
S11304D0024B98470134F5E7B530000035020000BF
S11304E010B50121014B9847012010BD35020000D1
S11304F0072370B50C001840C00039331843250099
S1130500044B984708352078034B01349847AC4294
S1130510F9D170BD61020000E10400000FB473B5AD
S113052006AC40CC0A4B300098470A4B033098473E
S11305300500310022000194074B98472800074B1F
S113054098472800064B984773BC08BC04B018476A
S1130550B5300000E52E0000F5300000B9040000BD
S1130560F92E0000014B5878C0097047001800406C
S1130570022310B5044A11780B431370034B9847B8
S11305800028FBD110BDC0460018004065050000DE
S1130590402307B5104A052091690B439361062354
S11305A001A90B700D4B98470D4B0520984701236B
S11305B00C4A11780B4313700B4B98470028FBD15E
S11305C002000A4B1A5004304028FBD11022084B79
S11305D01A60084B984707BD00040040012400003E
S11305E0792300000018004065050000E4020020A3
S11305F000E100E07105000010B549080400002383
S11306004020A14201D210BD0300581C091B80B236
S11306108C42F9D94020FF2BF5D813800020F2E753
S113062037B50D4C05002378002B01D000290CD0E0
S113063001A91320094B0D7098471320084B9847C4
S113064001230020657023703EBD63780800AB422F
S1130650FAD01D20F8E7C0469000002001240000D5
S113066079230000394A030000B50800934233D0CF
S113067007D8374A934214D0364A93421FD00023F6
S113068017E0354A93423AD0344A934244D0344A2C
S11306909342F4D1002303290BD802F015FA502A0F
S11306A02C2E0023032904D802F00EFA4302050776
S11306B02C4B180000BD2C4BFBE72C4BF9E7002317
S11306C00329F6D802F000FA37020406284BF0E7B3
S11306D0284BEEE7284BECE700230329E9D802F086
S11306E0F3F92C020406254BE3E7254BE1E7254B00
S11306F0DFE7254BDDE7254BDBE7254BD9E7002377
S11307000329D6D802F0E0F91D020406214BD0E7F4
S1130710214BCEE7214BCCE700230329C9D802F0B3
S1130720D3F9120204061E4BC3E71E4BC1E71E4B4E
S1130730BFE71E4BBDE70323BBE71D4BB9E71D4BCA
S1130740B7E71D4BB5E71D4BB3E7C04600100042A9
S113075000080042000C004200180042001C004245
S11307600014004203000500030006000300070014
S11307700300010003001E0003001F000300090022
S113078003000A0003000B00030011000300120021
S11307900300130003000D0003000E0003000F000C
S11307A003001700030018000300190003000400ED
S11307B0030008000300100003000C0003001600EF
S11307C070B586B06946094B6A4670CB70C170CB70
S11307D070C1002399005158814202D1D8B206B0A9
S11307E070BD0133062BF5D10020F8E784370000F3
S11307F07047EFF3108072B6704780F3108870472B
S1130800EFF309800E4B1A6820381060F0C044469C
S11308104D4656465F46F0C008B572B600F0E2F8A1
S113082062B60CBC116808681030F0C8A046A9462E
S1130830B246BB4680F309882038F0C81847C04642
S11308409400002010B5074B9847074B04009847C5
S1130850002803D08022054B52051A602000044B67
S1130860984710BDF3070000DD08000004ED00E028
S1130870FB07000043684B609A688A609A6851607D
S113088099600861036801330360704742688168B6
S1130890036991608268416851605A68904201D14D
S11308A082685A60002202611A68013A1A60186864
S11308B070470000074A13681968074B002903D1E1
S11308C0012252421A6070471268D268D268526894
S11308D0F8E7C0469800002010010020F7B5334B1C
S11308E01B68002B35D1324B1F6801371F60002F66
S11308F011D1304B1A681268002A01D072B6FEE793
S11309002D4A19681068186011602C4A1368013365
S113091013602B4B98472B4E002533689F4207D317
S1130920244B1A681268002A19D101235B423360F0
S1130930254B1B68DA6A14235343244AD358012BEA
S113094000D90125224B1B68002B00D0012528006B
S1130950FEBD204A0025136801331360F2E71B68CB
S1130960DB68DC6863689F42E1D3231D01931800B0
S1130970194B9847A36A002B03D02000164B18305C
S11309809847164BE06A1A68904200D918601423FD
S113099058430E4B211D1818114B98470A4BE26A15
S11309A01B68DB6A9A42BBD30125B9E70801002022
S11309B018010020980000209C0000201401002051
S11309C0B50800001001002094000020A0000020C1
S11309D01C010020040100208D0800000C010020EF
S11309E07508000030B5154B1A68154B002A02D063
S11309F001221A6030BD142512481A600268124997
S1130A002B0053435C58002C12D0CC186568083373
S1130A106D68CB1865609D4201D16B6863601423D7
S1130A205343C9184B68D968084B19600260E1E761
S1130A30002A01D172B6FEE7013AE1E7080100207D
S1130A401C0100200C010020A000002094000020C4
S1130A50012210B5034B9A71034B1B68002B00D085
S1130A60984710BD0010004024030020F0B5D74E75
S1130A7085B037683D682B78DB0900D122E12B8CE7
S1130A80002B00D12DE2288CD14B80B29847030073
S1130A900400032008335B01ED18ED79EAB20192FA
S1130AA0024231D00121CB4A94460A006546A24055
S1130AB02D6895432A0065462A603A68D218D07199
S1130AC03A19AE3212780A421ED0C34A6001147039
S1130AD03968595CC14B8907890F1B18012900D05B
S1130AE0B4E059688904890C518059680901890C5A
S1130AF091805A68920B92035A60A31C1B01FB1845
S1130B005B68B549380098470423019A1A4238D0E3
S1130B102200AE4B08321868530101689C465B5CA6
S1130B209B065B0F0293022B00D0A4E063465B5C40
S1130B309B079B0F012B00D09DE0A84F65017D19F9
S1130B402F0003950837BF78FD0700D493E0A34036
S1130B50A04A1168994300231160039A93720422F6
S1130B6003686344DA710319AE331B78029A1342A3
S1130B7007D0102398494B702301C3180C709B6A4B
S1130B8098470822019B13421DD00123A340914999
S1130B900868984308603068A31801685B01CB18A3
S1130BA0DA710319AE331B789B070CD58B4B6201AA
S1130BB09B181F22DB89884913404B702301C318FB
S1130BC00C709B6A98471022019B13421FD001238B
S1130BD0A3408049086898432300086030680833BC
S1130BE001685B01CB18DA710319AE331B785B071C
S1130BF00DD5794A794B61015B1814705B6800214B
S1130C001B019B0C53802301C318DB6A98472022E5
S1130C10019B134200D1F9E10123A3406D49086807
S1130C209843230008603068083301685B01CB18DF
S1130C30DA710319AE331B781B0700D4E6E1664969
S1130C400C7024010419236B9847DFE15968644D43
S1130C500901890C518088B259688904890C9180F2
S1130C60596829405960002800D046E75B689B0416
S1130C709B0C538041E75201535C584D9B065B0F1C
S1130C80AC466701032B11D1535C9B079B0F012BCF
S1130C900CD13900002361448B72042103689B1832
S1130CA0D97103689A18102353716AE73A00002334
S1130CB06244937222000368083252019B18042292
S1130CC0DA715EE72C8CA2B20192002A2CD1AB8B94
S1130CD055329BB20293AB23FF325B00FB5ABD5AE1
S1130CE080271D40029B019C1D407F003D4B6200FC
S1130CF0D35A029A134202D03268126893832B4269
S1130D000ED03949062C04D1344B1B891B093B40B6
S1130D100B60230032682E339B009B5810009847C9
S1130D200134072CE2D171E13E005936FF36019AB5
S1130D3001211A41DCB20A4200D1CCE01A00083287
S1130D4051016918C81D0390C879317A0292C0B262
S1130D50327801401140602210421AD05A01AD1875
S1130D604022FF35287A10420DD02A72C03A14432B
S1130D701E4A94716022114200D147E11B01FB1805
S1130D80E0331B6852E02022287A1042F2D02A7203
S1130D90EEE7102210422BD01021039A117010217B
S1130DA0FA186132FF3212780A4200D12EE10B4A5E
S1130DB05901521852681B01FB1892040B49DC3389
S1130DC0920C1B680A8038003EE7C04620010020D0
S1130DD0312C0000300100203401002028030020C1
S1130DE0FF3F00F09C370000240100202801002070
S1130DF0032210422ED002205A01AD18FF352E7A5C
S1130E00064215D02872802581486D422C43847196
S1130E10804CA218103252689204920C42808A07C5
S1130E2000D1F3E00D331B01FB185B687849CAE776
S1130E300126287A3042F2D075482E728471754C9E
S1130E40A41862689204920C028062681201920CE7
S1130E508280E4E70C2210423DD008205E01AD19E7
S1130E60FF352A7A02421ED028726A488019022667
S1130E70857E354202D0857EB5438576802040420A
S1130E8004436348029A8471386852018218D27903
S1130E90920700D5BAE00C22114200D1B6E01B0142
S1130EA0FB18D8336DE704202A7A0242F3D0287263
S1130EB0584880190226857A354202D0857AB5438E
S1130EC085725348029A8471386852018218D27923
S1130ED0D207E0D59AE001330136082B00D026E78B
S1130EE094E00423AC8BA4B21C4226D0AB834A4BBF
S1130EF01B689C4601231D002A0061469A4011424A
S1130F0010D019003A6808314901885C8006400F06
S1130F10032807D1885C8007800F012802D152186A
S1130F20102111710133082BE6D13B00A5331B7846
S1130F30DB0702D57B683800984708231C420CD095
S1130F400021354A30681160026893830300A53399
S1130F501B789B0701D58368984740231C4209D01E
S1130F603068026893830300A5331B78DB0601D540
S1130F704369984720231C4209D030680268938350
S1130F800300A5331B781B0701D503699847102379
S1130F901C4209D03068026893830300A5331B7890
S1130FA05B0701D5C368984780231C420CD00021FD
S1130FB0194A30681160026893830300A5331B78D3
S1130FC09B0601D58369984780235B001C420CD0A3
S1130FD00021114A30681160026893830300A5332D
S1130FE01B785B0601D5C369984780239B001C428C
S1130FF00CD00021084A3068116002689383030012
S1131000A5331B787F2B01D9036A984705B0F0BD3F
S1131010280100202803002030010020F0B505003D
S1131020296014000A6889B00E001C23920700D5B9
S1131030D4E001270B683B400193019A0523002A61
S113104000D0CBE008006A4B9847811C8F40694B65
S113105014301A6A17431F62631DDB7F02AAC7B2EA
S1131060137011003800644B98473800634B98475D
S1131070631DD87F0199624B98472378012B03D1D4
S113108032680B33134333602378002B03D1326867
S11310900833134333602B002A0000260C33283214
S11310A040C39A42FCD12B003633AE86EE622E86C4
S11310B0AE621E705E709E70032328686B724C4B88
S11310C02E71984707004F4B4F4998474F4BBF002D
S11310D0FD50802302AA13710123937123782F6892
S11310E05671D671002B00D196710026A36A049321
S11310F0E36A0593236B0693636B0793B30004AA17
S11311009858F1B2002802D13800414B9847431C4B
S113111006D002AB1871000CC0B203A93D4B98472E
S11311200136042EEAD123786B71237CAB71A37C46
S1131130EB71237D2B7202AB9E1C0023338023783A
S1131140012B10D12A4B286898471430324BC0B277
S11311509847324B01003200A069984717230028B2
S11311603CD133783B732378002B3DD1E17FA57FBD
S11311707B6A090429431943A069A28B631C796221
S1131180DB7F002B2DD11300A16862680A43E1685C
S11311900A43217C02430B43617C002903D120498B
S11311A08978890701D580210A43A17C002902D0CE
S11311B0802189020B43E17C002902D0802189002F
S11311C00B43217D002902D0802189010B4339681A
S11311D00A433A607A6813437B600023180009B01D
S11311E0F0BD40231343CFE700231800CCE7C046EB
S11311F0C10700000004004001240000792300001E
S11312002106000025140000251200002C040020F3
S113121065060000D52400001D240000F905000027
S113122000200041F8B57C4B8000C4582300220004
S11312303733363225681B7816781E402B7EAF7DF7
S11312401F40FB0739D562791300012A33D1637A31
S1131250002B0DD1714B1B88AB62638E013B9BB29B
S11312606386638E002B00D12A756379012B22D10A
S1131270637A002B21D0E16A2268481C0B78E06273
S1131280A079DBB2012800D174E09BB2DB05DB0D51
S11312909362A38E013B9BB2A386A38E002B0CD139
S11312A001332B75637A012B07D1E379002B04D129
S11312B00233AB7501E0002BDAD004210F4215D0C4
S11312C06B8B0B425CD0637A012B0CD023001E2263
S11312D038331A700323637202332B75330702D534
S11312E02000A3699847AB6A04236B830222174248
S11312F027D06379002B0ED1072129752A76013274
S1131300627222003832A38623861370F30602D554
S11313102000E36998476379012B12D1637ADBB229
S1131320012B0ED1E279002A0BD10221297501315A
S11313306172210038310A701E4202D02000E36835
S1131340984708231F4209D06279002A06D12B75D9
S11313502B76B30602D52000236A98477FB2002F6C
S113136007DA80232B752B76730602D5636A200077
S11313709847F8BD4878023100020343E16285E7EB
S1131380627A2368D2B29B6A012A13D1638E013B2D
S11313909BB26386638E9BB2002BA7D12975210073
S11313A038310B700333637216429FD02000E36818
S11313B098479BE7DB05A16ADB0DDAB20A70A26AE3
S11313C0511CA162A179012904D11B0A5370A36A9B
S11313D00133A362238E013B9BB22386238E9BB2EF
S11313E0002B00D082E722003832137004332B75AF
S11313F0627A022A05D11E4200D177E72000636990
S1131400D6E7637A002B00D070E7B30700D46DE70A
S113141020002369CCE7C0462C04002028040020C7
S113142070470000F0B5094C094A2378002B09D114
S11314301E00084F084DD750EE500433182BFAD134
S1131440173B237080001150F0BDC0463A010020C4
S11314503C010020211400002C04002007B50923BE
S11314606A46137001335370013393700133D370A0
S11314700133137101335371024B98476B4618566D
S11314800EBDC046C107000010B5024B00201B680A
S1131490984710BD3C01002010B5024B01205B6849
S11314A0984710BD3C01002010B5024B02209B68F8
S11314B0984710BD3C01002010B5024B0320DB68A7
S11314C0984710BD3C01002010B5024B04201B6955
S11314D0984710BD3C01002010B5024B05205B6904
S11314E0984710BD3C010020002370B501250B4C2A
S11314F0237023780F2B00D970BD29009940084A26
S11315001069084206D01161064A9B009B58002BC3
S113151000D09847237801332370EAE7440400207D
S113152000180040E402002070470000024B187DC0
S1131530012318407047C04600400041042370B5A1
S11315401C4A1D4DD16904000B43D3612023FF3392
S11315502B831A4B984703000520002B28D0C02268
S11315601E21237892001B021340A27852000A40E5
S1131570802113436278C902D2011343E2789204B2
S11315800A40C02113432279890212040A40082127
S113159013436B60AB680A4A5B035B0F994011808D
S11315A0AB68538063781371288BC005C00F0001AA
S11315B070BDC04600040040004000412D150000ED
S11315C054010020F7B5244A019153881188019AE7
S11315D04B430400934207D28022019B1F4992018E
S11315E05B18182093420FD880231D4DDB026F68CF
S11315F02E003B436B602023FF332B83194B98470A
S1131600002802D16F600530FEBD062C14D8052CCD
S11316101BD2022C01D0042C14D1019B9B085B002B
S1131620F361A5231B021C4334800E4B984700280A
S1131630FBD077600020E7E7402C03D3412CECD9A2
S1131640452CEED977601720DEE72B8BDB05E4D53C
S11316506F601020D8E7C0465401002000C07FFF0F
S1131660004000412D150000F7B5214E009133884C
S113167071881500594304001822814226D3591E4B
S1131680084223D1013AAB4220D31A4FB84705226E
S113169000281BD0184B194A1A800193B847002818
S11316A0FCD02023019AFF331383002362085200E5
S11316B0681E9D420CD800223379934206D13F2DF7
S11316C004D8210004200E4B984702001000FEBDF0
S11316D00099C95C834205DB89B2023311809BB255
S11316E00232E6E7009FFF187F783F023943F4E7B0
S11316F0540100202D1500000040004144A5FFFFC7
S1131700C5150000F8B5164B0F00160059881A8845
S1131710050051431823814214D3541E044011D1AF
S1131720013BB2420ED30F4B98470523002809D042
S113173020220D4BFF326D081A836D00711EA642E4
S113174002D800231800F8BD2B889BB23B558C426D
S113175002DA3A191B0A53700234A4B20235EEE7D6
S1131760540100202D1500000040004170B5134ABB
S113177004001388528818205A43A2421CD39B00A9
S1131780013B1C4218D10E4DA84703000520002B35
S113179012D020220B4BA408FF3264001A83DC61B0
S11317A01C00094A1A80A8470028FCD01C23208B5F
S11317B01840431E9841800070BDC046540100206B
S11317C02D1500000040004102A5FFFF202210B5A6
S11317D00724124BFF321A839B68183A190C2140D4
S11317E0FF3A8A4002700E4A438013881B09234043
S11317F0A34209D100234360072312881A409A4266
S113180007D10023836010BD0621C91A04238B402D
S1131810F1E79B1A04229A408260F4E700400041F9
S11318200040800007B5802201AB1A700A785A7014
S11318304A789A708A781900DA70014B984707BD84
S1131840D524000010B50402034B5868034B00195B
S113185098470528F8D010BD5C0100206D170000E2
S1131860F0B5002585B0384A11898D422BD3002369
S11318705668957A4F1E98B2814255D813003F207E
S11318808733187000204B1E8F080293B84218D07B
S113189083009BB21D1DA9B20125441CA4B2019171
S11318A002998B4204D09901895DFF2900D000255B
S11318B0013301999BB28B42F2D1002D41D0873282
S11318C0107005B0F0BD5368AE019F5DFF2F02D1CB
S11318D00435ADB2C7E7330080330293403B039332
S11318E0AB082C1DDBB2A4B20193174A13899C42A6
S11318F0EED2013B9C4214D05368A2019A5CFF2AA9
S11319000FD097420DD1029A995D9A5C914205D00D
S11319100399A0085B5CC0B2934200D101980B4BC1
S113192098470434A4B2E0E79F4208D09801305CA1
S113193084B2FF2C03D0AC4201D21018C37201331D
S113194099E72000A2E7C0465C010020451800008A
S113195070B50D008401054B402258682900001918
S1131960034B98470528F6D070BDC0465C010020A3
S11319700517000070B50D008401054B402258681E
S113198029000019034B98470528F6D070BDC046BE
S11319905C0100206916000010B58401044B00228C
S11319A0596804200919034B98470528F6D010BD3F
S11319B05C010020C5150000F0B599B000226B460B
S11319C069461A7001234B70274B5B68CA70DB06AB
S11319D01B0F8B700A716846244B98470528FAD070
S11319E002A8234B9847039B16200B2B37D91A00C8
S11319F0204C083A5208A272802223819BB29B0198
S1131A00D2025B429B18636023000027C8331F7017
S1131A10194B9847230087331B781A203F2B1ED07D
S1131A2005AE3200154B23CB23C2208908AD013803
S1131A3080B22900124B9847EB59F259934210D1C6
S1131A4004370C2FF8D1EB7B1020012B07D12A7B14
S1131A50012A04D16B7B002B01D11800227019B02C
S1131A60F0BD1A20FBE7C046004000413D150000D0
S1131A70CD1700005C01002061180000AC370000A5
S1131A8051190000F0B52B4E0025330087331D702B
S1131A9091B02800284B9847042433895F1E9C4248
S1131AA028D3FF2140226846244B9847244B6A469A
S1131AB00093244BF8170193234B02930123D37310
S1131AC0137300235373937303331840C719BF1060
S1131AD0F8B2194B984730896946013880B21B4BDC
S1131AE0984730891A4B013880B29847194B984768
S1131AF011B0F0BDBC4219D00323234014D1A00877
S1131B00C0B20D4B98474022FF210C4B68469847C2
S1131B106B4669461D7020000C4B98470135200028
S1131B200B4B9847ADB201E0012BECD00134A4B2C9
S1131B30B3E7C0465C010020451800001F2F0000D9
S1131B40454574414D4F52502E756D457519000031
S1131B50991900006118000030B50C00124991B0C9
S1131B600A781F23002A13D08A7A073B82420FD9AE
S1131B700B00C8331B780D4D002B0CD00B008833A1
S1131B801B78834207D13C228C312000A8470023D4
S1131B90180011B030BD0918C87A054B694698473A
S1131BA03C2201A9F1E7C0465C0100200D2F000092
S1131BB051190000084B10B51C00C8342278002AC3
S1131BC008D01A00883212789B18D87A034B9847A9
S1131BD000232370002010BD5C010020991900002F
S1131BE0F0B54C4C87B02378050003911F20002BDF
S1131BF077D0A37A0738AB4273D92300C8331B7854
S1131C00002B06D0230088331B78AB4201D0424B13
S1131C1098476319D97A03230E000A009E431A4099
S1131C20330060689E18F6B2B7013F5CFF2F5FD0A7
S1131C300132D2B2042AF5D18A08140204195E1CB6
S1131C40019205AA2100D670260040318036207802
S1131C5009783678C03410705370917024788642B5
S1131C6001D19F1C5770A04201D1D81C50708E42E4
S1131C7001D1981CD070A14201D10333D370002646
S1131C80244C230087331B789B009B190293224B1F
S1131C9098472100720005ABD75C8831BD4222D140
S1131CA020000D708C303C2203991C4B9847194C32
S1131CB06B46210018898831194B98476B461B7A6B
S1131CC0E719FB7223000122C83301361A70022E71
S1131CD0D6D1144B019898476B461B798734002062
S1131CE0237007B0F0BD9B1858780F4B9847DEE778
S1131CF02700200088373C220399084B8C303D7024
S1131D0098476519B0B23900054B9847EE72012324
S1131D10C834E4E75C010020B51B00000D2F00006F
S1131D2075190000451800005119000070470000A3
S1131D30094B196800290BD1EFF31080074A0028DA
S1131D4005D172B6BFF35F8F054908700121117088
S1131D501A6801321A607047280200202C02002001
S1131D600C000020084B1A68013A1A601B68002B0B
S1131D7009D1064B1B78002B05D00122044B1A70A5
S1131D80BFF35F8F62B67047280200202C02002048
S1131D900C00002010230249CA681A42FCD0704784
S1131DA0000800400222F8B50026094D094C2B68B2
S1131DB0094F13432B60A284B847AB68E3626B6896
S1131DC0A362A684B8472B6830009BB2A384F8BDF5
S1131DD03002002000080040951D000070B508285E
S1131DE006D800F071FE0805053030120B152800E6
S1131DF00024200070BD164B1C69FAE7154B164CE5
S1131E001B6A9B059B0FDC40F3E7114B5C69F0E711
S1131E100F4D00242B689B07EBD5104B98472422C9
S1131E202B681340042B11D120000D4B9847AC684C
S1131E30A4B24443DDE70B4B00241B785B07D8D5E1
S1131E40034BDC68D5E780242402D2E7064CD0E7B4
S1131E50300200200008004000127A00951D0000A6
S1131E601D24000050080040006CDC0270B584782A
S1131E700278457801204026054020408024084906
S1131E80AD010B6AC001B3432B43A34303430320B7
S1131E90024004481202034013430B6270BDC04663
S1131EA000080040FFFCFFFFF0B5224B42780778A2
S1131EB085B09C469B8A03927A425741427B847840
S1131EC0C57806790192027B0292817B1A4A806866
S1131ED05061B80004270122BB431843082315406E
S1131EE0BD4016409843F6000643DB189E43354335
S1131EF010339D432B004020144064012343029C73
S1131F0083431440A401234380240198A343104035
S1131F10C00103430720039C11402040074C0002EA
S1131F202340074A03431A40634609030A439A823B
S1131F3005B0F0BD0008004030020020FFF8FFFFAC
S1131F40FFEFFFFF10B5027A438992069B059B0DB4
S1131F50120C1A43174B5A60C179827984880A4358
S1131F60418821430A4341780478C9010A431A602D
S1131F70042C0DD1027B018A92060A43C1890E48C2
S1131F80090401400A439A601A6814431C6010BD96
S1131F90202CFCD1027B018A92060A43C18906489F
S1131FA0090401400A439A601968044A0A431A6002
S1131FB0EDE7C046300200200000FF0324040000C7
S1131FC010B5082806D800F07FFD1405050C0E1A7C
S1131FD007202300172010BD0223104A116A0B4367
S1131FE013620020F7E702230C4A91690B439361C3
S1131FF0F7E70223094A118A0B431382F1E702230C
S1132000064A918A0B439382EBE7054B9847E2E734
S11320100223044A11780B431370E2E700080040DE
S1132020A51D000044080040C2231E22F0B55E49ED
S1132030DB005E488B604368002593431A00042349
S113204013434360022391B00BAC23700191E8B2B7
S11320502100574B01359847252DF8D1802207A838
S11320600023120282600621012203708370C37070
S1132070837343734F4B02714170027398474E4B05
S1132080052098470223019AD2681A42FBD0002304
S11320903F226380A380A371E371628163703B3A42
S11320A0464B22701B689B0E3F2B00D1203B2372B2
S11320B0B723DB002382032323731F230025012678
S11320C0E38120003E4B984703A83E4B8670057081
S11320D046709847384B062098473B4B9847052352
S11320E004AC210023703000384B666065702572A3
S11320F065729847364F3000B84706232370102383
S1132100210063600320314B657025726572984726
S11321100320B84703232370202321006360042095
S11321202A4B65702572657298470420B8470723C7
S1132130210023700520254B666065702572657249
S113214098470520B84706232100237006201F4B1B
S1132150666065706572267298470620B84721004C
S11321602800134B2670984728001A4B98471A4B9F
S11321709847D022019BDB681340D02BFAD100256D
S1132180164B07221D725D729D72DD7201232100C0
S11321906360237228000D4B227065706572984746
S11321A02800B84711B0F0BD0008004000400041CD
S11321B001240000A91E0000C11F0000246080004B
S11321C0451F00006D1E0000ED2100000D220000DF
S11321D0B122000079230000A51D00000004004086
S11321E0014B5878C0097047000C00400823054A89
S11321F091690B4393610123034A137011781942C7
S1132200FCD1704700040040000C0040F8B50C7885
S11322104B782402060005000443002B02D08023DF
S1132220DB021C434B7A002B02D080231B031C438C
S11322304B68012B12D95D1E1D400222002D06D0D1
S11322401D02802335439B0207E0013552009A4268
S1132250FBD380232D0235435B031C430B7A002BF5
S113226002D080239B031C430C4FB8470028FBD1AA
S11322700B4B98470B4B1E70B8470028FCD10A4BF8
S11322809D601D00B8470028FCD180226B68520273
S113229013401C436C60054B9847F8BDE1210000D6
S11322A0311D0000080C0040000C0040651D0000BA
S11322B070B50500094CA0470028FBD1084B98478E
S11322C0084B1D70A0470028FCD18023064A5B02FE
S11322D051680B435360054B984770BDE1210000E2
S11322E0311D0000040C0040000C0040651D00007E
S11322F0F7B50700184EB0470028FBD1174B984795
S1132300174B1F700193B0470028FCD1154D164B95
S11323106868C004C00E98470400019B1F706B6876
S1132320DB02DB0F0193114B1F70B0470028FCD177
S1132330AD680F4B9847019B2D022D0C002B08D143
S1132340012D04D9200029000A4B984704002000DD
S1132350FEBD0135EC40FAE7E1210000311D00002B
S1132360040C0040000C0040DD1D0000080C00407F
S1132370651D0000DD2A000010B50400064B9847D7
S1132380064B074A1C7080235188DB010B435380A2
S1132390044B984710BDC046311D0000020C00409C
S11323A0000C0040651D000010B504000E4B98475A
S11323B00E4B0F4A1C700F4B0F4C58885988000560
S11323C0114059805988000F214059801100802202
S11323D0D2015C881442FCD15A8800020A400243AC
S11323E05A80064B984710BD311D0000020C004076
S11323F0FFF0FFFF000C0040FFBFFFFF651D000062
S113240010B50C78034B240204439847024BA4B242
S11324105C8010BDA9230000000C004010B504002E
S1132420064B9847064B1C70064B5C88064B2405EC
S1132430240F98472000054B984710BD311D00001C
S1132440020C0040000C0040651D0000F122000059
S1132450D37830B5002B35D11478802C03D0802369
S113246024065B02234302255478AC4306D19478B6
S1132470002C24D18024A402234341605478013CDD
S1132480012C01D8124C2340A0248DB2E4052C4326
S11324901C438462D0240D0C24062C431C43846208
S11324A0D478002C0AD15B0303D59378012B0CD18B
S11324B081615378013B012B00D8816030BDC02479
S11324C0E402D9E741600023DEE74161F1E7C04659
S11324D0FFFFFBFF10B503000A004409C1090020F7
S11324E0814202D10449E00140181F210B401E39EA
S11324F09940024B984710BD00440041512400000C
S11325007047000010B5054B9847054B9847054B9D
S11325109847054B9847054B984710BD2920000064
S11325202D1D00000125000091050000012500007B
S1132530FEE700002148224970B5884204D00023F8
S1132540204CCA18A24232D300211F4B1F4A934287
S113255031D3FF211E4B1F4A8B43936002220C256B
S1132560082430261C4B1D485A62C378FC398B431F
S11325701343C370C378AB432343C370184B987B96
S1132580B0430600202030439873987BA84304434B
S11325909C73987B884302439A738023114A516841
S11325A00B435360104B9847104B9847FEE7C558B0
S11325B004331560C5E702C3C9E7C0468438000088
S11325C00000002074000020740000206805002032
S11325D00000000000ED00E0FC70004100500041EC
S11325E000480041004000419D2E0000AD2800003D
S11325F0054B02001968002901D1044919601868C3
S113260082181A607047C0464802002068250020DE
S113261010B5074CA047162803D10648064B984727
S1132620FEE7002802D0054B9847A04710BDC046DE
S1132630B9190000053800001D050000851A0000C6
S1132640F8B54B4B98474B4C4B4B21000020984717
S11326504A4D4B4B1C222100280098472B79552BBF
S11326601CD000265523474F10222B713100464BB6
S113267038002E606E71AE71EE712E729847434928
S1132680434B380098471C2229003D4B20009847B3
S1132690404B2100300098473F4B98472100364B70
S11326A0012098473D4D364B382221002800984799
S11326B02B79552B20D000265523394F1E222B7100
S11326C03100314B38002E60984736493800304F7E
S11326D0B84714222C4B31003348984733493248C9
S11326E0B84738222900264B20009847294B21005F
S11326F001209847284B98471E4D1F4B2900022064
S113270098472B4C1E4B38222900200098472379E8
S1132710552B2CD000265523264F1022237131002F
S11327203800194B2660984723493800184B9847BE
S1132730224F102231003800134B984720493800AB
S1132740134B98471F4F102231000F4B3800984706
S11327501D490F4B3800984738222100084B2800A8
S113276098470C4B2900022098470B4B9847F8BD1B
S11327701126000084040020591B0000F8040020E6
S11327800D2F0000040500201F2F0000B8370000A3
S1132790A5300000E11B0000B51B00004C04002024
S11327A051040020C33700006F040020D337000019
S11327B0C0040020C5040020DE370000D50400203A
S11327C0EE370000E5040020F83700000D23002157
S11327D0F0B5012591B06B4402ACD9770C22264B9D
S11327E008A8257021746174A574E574217503919A
S11327F004919847214B224EA36180239B03E360FD
S1132800204B2200A362204B2049E362204B30007E
S1132810236301235B4263631E4B984734681E4B5A
S1132820200098471F23184085401C4B1D603368C7
S1132830DD69002DFCD10223226813201343236099
S113284004230124164F01A93B71164B4C708D7063
S11328500C7078713E6098477A795309D10908D190
S11328601F310A409440104ADB019B189C6111B04F
S1132870F0BDAD61FFDEC0461F2F000000D4300064
S1132880640200200200100002001100000C00424B
S1132890020012001D1000005D14000000E100E0C1
S11328A05C0200202518000000440041F0B500241B
S11328B001258BB0674B9847674B1C705C709C700C
S11328C0DC701D71654B1D70BFF35F8F62B6644B86
S11328D09847644B9847644B98472000634FB84728
S11328E0634EC82200232100B0470023614A624E90
S11328F080185941614A0023B047614B9847614BA6
S11329009847614B984706A8604B04705B6808AE13
S1132910DB061B0F83705E4BC470047144709847D0
S11329205C4B98470822210030005B4B98470F23EB
S11329303100200033707370B370F37033717371AE
S1132940B371564B9847564EB0475648564B984726
S1132950200000242900554B9847464B0F3500931F
S11329600194534B002098470020B847404C322232
S113297000230021A047009B019C404AC0186141EC
S1132980013D00233C4CA047EDB23D4B9847002D40
S1132990E7D10124B04705AE464F310028207470BA
S11329A0B5703470B84731002720B847310005208E
S11329B0B84731001C2035707470B570B8473100C9
S11329C02620B84731002520B84731002920B847D0
S11329D080235B009C4620273748384A0360803BAD
S11329E003605761029060462B002E002100039083
S11329F000970F00AF40106A38421ED0304F039842
S1132A003860304F386880051AD4106AC00000D589
S1132A104D403868400600D54E403F680098074254
S1132A2000D04B40002E0ED08027254E37600E007C
S1132A300098002B0BD09061DBE70398029FDFE73F
S1132A400B002500F0E7802702980760F0E750614B
S1132A50CFE7C04605250000450400200C000020F7
S1132A6029150000410100005D010000F122000071
S1132A70B12C0000571B0000712C0000581B0000F3
S1132A800100002025030000412600000040004111
S1132A903D150000CD2700001F2F0000F1040000A9
S1132AA081020000153800001D050000CD02000061
S1132AB071020000251800009444004100440041C4
S1132AC098440041A044004102B4714649084900B9
S1132AD0095C49008E4402BC7047C046002243088A
S1132AE08B4274D303098B425FD3030A8B4244D3D2
S1132AF0030B8B4228D3030C8B420DD3FF22090214
S1132B0012BA030C8B4202D31212090265D0030BD2
S1132B108B4219D300E0090AC30B8B4201D3CB03C8
S1132B20C01A5241830B8B4201D38B03C01A52410A
S1132B30430B8B4201D34B03C01A5241030B8B420C
S1132B4001D30B03C01A5241C30A8B4201D3CB02F7
S1132B50C01A5241830A8B4201D38B02C01A5241DC
S1132B60430A8B4201D34B02C01A5241030A8B42DF
S1132B7001D30B02C01A5241CDD2C3098B4201D3F7
S1132B80CB01C01A524183098B4201D38B01C01A75
S1132B90524143098B4201D34B01C01A52410309EC
S1132BA08B4201D30B01C01A5241C3088B4201D39B
S1132BB0CB00C01A524183088B4201D38B00C01A48
S1132BC0524143088B4201D34B00C01A5241411A6F
S1132BD000D20146524110467047FFE701B500207C
S1132BE000F006F802BDC0460029F7D076E770472A
S1132BF07047C0461C2101231B04984201D3000CDA
S1132C0010391B0A984201D3000A08391B0998425B
S1132C1001D30009043902A2105C40187047C04671
S1132C200403020201010101000000000000000091
S1132C30414208401C2101231B04984201D3000C8B
S1132C4010391B0A984201D3000A08391B0998421B
S1132C5001D30009043902A2105C401A7047C0462F
S1132C601B1C1D1D1E1E1E1E1F1F1F1F1F1F1F1F7F
S1132C70002B11D1002A0FD1002900D1002802D045
S1132C800021C943081C07B4024802A1401802905D
S1132C9003BDC0465DFFFFFF03B4684601B502985B
S1132CA000F030F8019B9E4602B00CBC7047C04651
S1132CB0F0B5CE46474615042D0C2E0080B507040A
S1132CC0140C3F0C9946030C7E435D4367436343F6
S1132CD07F19340CE4199C46A54203D980235B0276
S1132CE09846C4444B46514343433604360C250CA2
S1132CF024046544A4195918491920000CBC9046B1
S1132D009946F0BDF0B557464E464546DE46E0B519
S1132D10040083B00D00924699468B422FD82CD0E4
S1132D204946504600F0AEF829000600200000F0A5
S1132D30A9F8331A9846203B9B4600D574E05346C5
S1132D405A4693401F005346424693401E00AF42EA
S1132D5029D826D05B46A41BBD41002B00DA79E0BC
S1132D60002200230092019301235A4693400193C9
S1132D70012342469340009319E08242D0D90022B5
S1132D800023009201930C9B002B01D01C605D601A
S1132D900098019903B03CBC90469946A246AB46C4
S1132DA0F0BDA342D6D900220023009201934346EA
S1132DB0002BE8D0FB0772081A4346467B080EE056
S1132DC0AB4201D1A2420CD8A41A9D41012024197E
S1132DD06D410021013E24184D41002E06D0AB4226
S1132DE0EED9013E24196D41002EF8D15B460098BE
S1132DF0019900196941002B22DB2B005A46D3406C
S1132E002A004446E2401C005B461500002B2CDBE4
S1132E1026009E40330026004746BE403200801AFA
S1132E20994100900191AEE7424620239B1A5246F5
S1132E30DA40414613004A468A4017001F4382E79E
S1132E40424620239B1A2A0046469A402300F34018
S1132E501343D5E74246202300219B1A0022009108
S1132E6001920122DA40019282E7424620232600A1
S1132E709B1ADE402F00B446974066463B0033431E
S1132E80C9E7C04610B5002903D1FFF7B3FE2030CF
S1132E9002E0081CFFF7AEFE10BDC04670B5002668
S1132EA00C4D0D4C641BA410A64209D1002600F061
S1132EB0D5FC0A4D0A4C641BA410A64205D170BD72
S1132EC0B300EB5898470136EEE7B300EB58984748
S1132ED00136F2E7683800006838000068380000FE
S1132EE06C38000010B5034B0100186800F06AF854
S1132EF010BDC0461000002010B5034B0100186837
S1132F0000F016F810BDC04610000020002310B5D4
S1132F109A4200D110BDCC5CC4540133F8E70300DD
S1132F208218934200D1704719700133F9E7000009
S1132F3070B50500002910D00C1F2368002B00DA9F
S1132F40E418280000F0E2F81D4A1368002B05D1AC
S1132F5063601460280000F0DAF870BDA34209D958
S1132F60216860188342F3D118685B6841182160B6
S1132F70EEE713005A68002A01D0A242F9D9196871
S1132F805818A0420BD120680918581819608242B9
S1132F90E0D110685268411819605A60DAE7A0421B
S1132FA002D90C232B60D5E721686018824203D133
S1132FB0106852684118216062605C60CAE7C046CC
S1132FC04C020020032370B5CD1C9D430835060038
S1132FD00C2D1ED20C25A9421DD8300000F096F805
S1132FE0254A14682100002919D1244C2368002B98
S1132FF003D1300000F044F820602900300000F0D4
S11330003FF8431C2CD10C233000336000F07FF8D0
S113301003E0002DDFDA0C233360002070BD0B6861
S11330205B1B1AD40B2B03D90B60CC18256003E06F
S11330308C420ED163681360300000F068F8200001
S113304007220B30231D9043C31AE7D05A42E250A3
S1133050E4E74B6863600C00EEE70C004968C2E7E4
S11330600323C41C9C43A042E0D0211A300000F08A
S113307007F8431CDAD1C6E74C02002050020020B6
S1133080002370B5064C050008002360FFF7B0FA72
S1133090431C03D12368002B00D02B6070BDC046B5
S11330A064050020031C0A7801311A700133002AD8
S11330B0F9D170470023C25C0133002AFBD1581EAA
S11330C07047000030B59BB00091049108496D46EB
S11330D002910591012182244942E981A4006946B3
S11330E0AC8100F077F80023009A13701BB030BD58
S11330F0FFFFFF7F10B513000A00010002480068BB
S1133100FFF7E0FF10BDC046100000207047704775
S1133110F0B58E6885B007000C00039201939E42BF
S113312039D890238A89DB001A4234D003250969EF
S113313023685B1A0293636902985D43EB0F5D1980
S1133140019B6D1001331B18AB4200D91D005305C0
S113315032D529003800FFF735FF061E09D10C23AC
S11331603B6040230120A28940421343A38105B060
S1133170F0BD029A2169FFF7C9FEA389144A1A40D7
S113318080231343A381029B2661F61826606561A0
S1133190019EED1AA560019BB34200D21E003200CD
S11331A00399206800F0ADFAA36800209B1BA3607C
S11331B023689E192660DAE72A00380000F0B3FA83
S11331C0061EE0D121693800FFF7B2FEC7E7C0460A
S11331D07FFBFFFFF0B59FB0029005938B890F0032
S11331E016001B0611D50B69002B0ED14021FFF7E9
S11331F0E9FE38603861002805D10C23029A0138B1
S113320013601FB0F0BD40237B61002306AD6B61EA
S113321020336B761033AB7634002378002B47D100
S1133220A31B04930DD0A31B320039000298FFF7AF
S11332306FFF431C00D1B5E06A69049B9446634464
S11332406B612378002B00D1ACE0012200235242B1
S11332506A6002A95432521801342B60EB60AB60EF
S11332601370AB65584E05222178300000F03EFA09
S1133270621C002820D12968CB0604D5532302AE52
S113328020309B1918700B0704D553232B2002AE52
S11332909B19187023782A2B16D000200A21099B29
S11332A02278303A092A55D9002815D0099313E019
S11332B0252BB5D00134B0E70123801B8340296856
S11332C014000B432B60CDE7059B181D1B6805906C
S11332D0002B39DB0993140023782E2B0BD1637850
S11332E0621C2A2B3ED1059B02341A1D1B680592D1
S11332F0002B34DB0793354E21780322300000F095
S1133300F5F9002806D04023801B83402A68013445
S113331013432B60217806222D48661C297600F081
S1133320E5F9002846D02B4B002B2FD12968059BAB
S11333300722C90528D59B189343083305936B6965
S1133340039A9B186B6167E75B42EB6002230B43B4
S11333502B60C0E74B4301349B180120A0E70123F5
S11333605B42C7E7002314000A201A006B6021782F
S11333703039092903D9002BBDD00792BBE742435A
S1133380013452180123F2E70733D5E705AB009364
S11333903A00114B2900029800E000BF0390039B00
S11333A00133CCD1BB890B985B0600D429E70120FB
S11333B0404226E705AB00933A00074B29000298E8
S11333C000F07AF8EAE7C046263800002C380000FE
S11333D0303800000000000011310000F7B515007E
S11333E001938A680B6900900C00934200DA130081
S11333F022002B6043321278002A01D001332B6063
S113340023689B0602D52B6802332B6006272368AA
S11334101F4027D0230043331B785A1E9341226850
S1133420920630D42200019943320098089EB04796
S1133430431C25D0062320682A68E1680340002540
S1133440042B03D18D1AEB43DB171D40A3682269BB
S1133450934201DD9B1AED180027BD4220D10020C4
S113346010E00137E3682A689B1A9F42D2DA2200EF
S11334700123193201990098089EB047431CF0D1EA
S113348001204042FEBD3020E11843310870210084
S11334905A1C45310978A218433202331170C1E72E
S11334A0220001231A3201990098089EB047431C58
S11334B0E6D00137D1E70000F0B58BB006920A00E0
S11334C043320793059004920A7E0C00109B6E2AE7
S11334D000D18FE017D8632A2CD008D8002A00D155
S11334E099E0582A54D026004236327029E0642AE2
S11334F001D0692AF7D121681A68080623D5111D5D
S11335001960156825E0732A00D188E008D86F2A6D
S113351029D0702AE7D1202209680A43226003E0F7
S1133520752A20D0782ADED1220078214532117004
S11335306C4A30E00E001A684236111D1960136897
S11335403370012379E04906D9D5111D1960002390
S1133550D55E002D03DA2D23049A6D421370624B5D
S11335600A2703932FE020681968050603D5081D70
S113357018600D6805E04006F9D50D68081D18604F
S1133580ADB2594B082703936F2A18D00A2716E0C7
S113359045310A70544A03921A682168101D186054
S11335A01568080622D5CB0702D5202319432160CC
S11335B01027002D03D1202322689A432260230080
S11335C0002243331A706368A360002B5CDB04227F
S11335D0216891432160002D58D1049E002B64D0B2
S11335E02600039B42361B7833705EE04806DAD52A
S11335F0ADB2D8E709681A68080605D5111D196027
S1133600136862691A6006E04906F7D5111D19604E
S11336101368A28A1A800023049E236154E01A6866
S1133620111D1960166800216268300000F05EF810
S1133630002801D0801B6060636823610023049A22
S1133640137041E02369320006990598079DA84745
S1133650431C43D0236800259B070FD4099BE068D3
S113366098423DDA18003BE0220001231932069902
S11336700598079EB047431C30D00135E368099A8A
S11336809B1A9D42F0DBE9E7002DA9D0049E280097
S11336903900FFF7A9FA039B013E5B5C28003370F5
S11336A03900FFF71BFA051EF1D1082F09D1236851
S11336B0DB0706D563682269934202DC3023013EAE
S11336C03370049B9B1B2361079B09AA0093210071
S11336D0069B0598FFF782FE431CB3D101204042AC
S11336E00BB0F0BD4838000037380000C9B282186A
S11336F0904201D10020704703788B42FBD0013007
S1133700F6E710B5884202D98B18984208D30023F3
S11337109A4207D0CC5CC4540133F9E78B5C8354E0
S1133720013AFBD210BDF8B507000D0016000029C0
S113373005D11100FFF746FC04002000F8BD002A63
S113374003D1FFF7F5FB3400F7E700F012F82C0083
S11337508642F2D931003800FFF734FC041EECD065
S113376029003200FFF7D2FB29003800FFF7E0FB05
S1133770E3E70B1F1B68181F002B01DA0B58C01856
S11337807047000000080042000C00420010004294
S11337900014004200180042001C0042040008000B
S11337A070008000010000010002000045457441E2
S11337B04D4F52502E756D453030303030303030F2
S11337C03030006674702E647269766568712E6399
S11337D06F6D002F6669726D776172652F0072617B
S11337E068756C6E726174686F646B636C003132FF
S11337F033343536373839006669726D77617265EE
S11338002E62696E0053455420454550524F4D2059
S11338104655534500202020424F4F54494E4720DF
S1133820555020202000232D302B2000686C4C00A4
S113383065666745464700303132333435363738AC
S1133840394142434445460030313233343536370A
S1133850383961626364656600000000F8B5C046EB
S1133860F8BC08BC9E467047DD000000F8B5C046B1
S10F3870F8BC08BC9E467047B500000080
S10B387C88F4FF7F0100000045
S1133884BFF35F8F01380028FAD1704701000000AC
S113389414000020000000000000000000000000EC
S11338A40000000000000000000000000000000010
S11338B40000000000000000000000000000000000
S11338C400000000000000000000000000000000F0
S11338D400000000000000000000000000000000E0
S11338E400000000000000000000000000000000D0
S10738F400000000CC
S9032535A2
